:1000000000800020BD010000A98C0000618C000070
:10001000618C0000618C0000618C0000618C00002C
:10002000618C0000618C0000618C0000A98C0000D4
:10003000A98C0000618C0000399D00003D9D0000EE
:10004000A98C0000A98C0000A98C0000A98C0000DC
:10005000A98C0000A98C0000A98C0000A98C0000CC
:10006000A98C0000A98C0000A98C0000A98C0000BC
:10007000A98C0000A98C0000A98C0000A98C0000AC
:10008000A98C0000A98C0000A98C0000A98C00009C
:10009000A98C0000A98C0000A98C0000A98C00008C
:1000A000A98C0000A98C0000A98C0000A98C00007C
:1000B000A98C0000A98C0000A98C0000A98C00006C
:1000C000A98C0000A98C0000A98C0000A98C00005C
:1000D000A98C0000A98C0000A98C0000A98C00004C
:1000E000A98C0000A98C0000A98C0000A98C00003C
:1000F000A98C0000A98C0000A98C00008D4700008D
:10010000A98C0000754A0000A98C0000A98C000091
:10011000A98C0000A98C0000A98C0000A98C00000B
:10012000A98C0000A98C0000A98C0000A98C0000FB
:10013000A98C0000A98C0000A98C0000A98C0000EB
:10014000A98C0000A98C0000A98C0000A98C0000DB
:10015000A98C0000A98C0000A98C0000A98C0000CB
:10016000A98C00006D900000A98C0000A98C0000F3
:10017000A98C0000A98C0000A98C0000A98C0000AB
:10018000A98C0000A98C0000A98C0000A98C00009B
:10019000A98C0000A98C0000A98C0000A98C00008B
:1001A000A98C0000A98C0000A98C0000A98C00007B
:1001B000A98C0000A98C0000A98C0000564B4CF2C1
:1001C000205210B51A804DF628121A8000BF00BFC9
:1001D00008F06EFD514B4FF010621A60504A9A6061
:1001E000504ADA60504A136813F4807304D14F49BF
:1001F0000B604FF4A85313604D4B1A78110703D5C9
:100200001A7842F008021A704A4B4B492A221A7097
:100210004A4A4B4B8B4204D252F8040F43F8040B6A
:10022000F8E7484B484900228B4202D243F8042B9E
:10023000FAE74649464A002352F8230041F82300D2
:1002400001336F2BF8D1434B434A802103F8011B44
:100250009342FBD1414B3D4A1A60414B8A221A70AE
:10026000A3F5805324225A70A0221A709A7992071B
:10027000FCD59A79D406FCD43A4A937903F00C035E
:10028000082B384BF9D103221A7140225A719A79FE
:100290009006FCD5334A9179324B4906FBD5324A58
:1002A000324911600221516020221A709A7902F0BD
:1002B0000C020C2AFAD12E4B2E4A1A602E4B4BF60A
:1002C0007F321A6000225A60072243F8042C2B4A1E
:1002D000C3F80C2D62B608F0A1FD144B1B68DA07B9
:1002E00005D5274808F018FD264B274A1A60274BEA
:1002F0001B785B0609D5234C234B22689A4204D114
:100300001F4808F009FD0023236014F0FFF808F0EF
:10031000D5FC09F0DBFDFEE70E20054030800440EF
:10032000823F04000100002B10D0034014D0034092
:1003300002D0074000E00740C091FF1F64F30100B6
:100340002087FF1FC091FF1F301300200082FF1F76
:100350000000000000E400E05FE400E008ED00E0E1
:100360000050064000400640448004400000131145
:1003700004800440C010050014E000E000002020CC
:10038000C2CD6B621CE00340A5C3945A00F0074045
:10039000FFFFFFFFFFFFFFFFFFFFFFFFFFFFFFFF6D
:1003A000FFFFFFFFFFFFFFFFFFFFFFFFFFFFFFFF5D
:1003B000FFFFFFFFFFFFFFFFFFFFFFFFFFFFFFFF4D
:1003C000FFFFFFFFFFFFFFFFFFFFFFFFFFFFFFFF3D
:1003D000FFFFFFFFFFFFFFFFFFFFFFFFFFFFFFFF2D
:1003E000FFFFFFFFFFFFFFFFFFFFFFFFFFFFFFFF1D
:1003F000FFFFFFFFFFFFFFFFFFFFFFFFFFFFFFFF0D
:10040000FFFFFFFFFFFFFFFFFFFFFFFFDEF9FFFF23
:1004100010B5054C237833B9044B13B10448AFF33E
:1004200000800123237010BDC091FF1F0000000059
:10043000A4EF0100084B10B51BB108490848AFF301
:1004400000800848036803B910BD074B002BFBD0A0
:10045000BDE81040184700BF00000000C491FF1F16
:10046000A4EF0100C091FF1F00000000704700BF13
:10047000002070470020704741F25833EC22C358E7
:10048000DA70704741F258332C22C358DA70704743
:1004900041F25833C358D971704700BF41F2583305
:1004A000C358D879704700BF41F25833C358187900
:1004B000C0F34010704700BF41F258324B0810B4EF
:1004C00003F1B763845803F55843B3FBF1F1C1F36B
:1004D000443323708358C1F347145C70835801F090
:1004E0001F01997210BC7047024641F6D8330021B3
:1004F000C05CD154704700BF00F5AF5300F5DE5229
:1005000002330A32002123F8021F9342FBD17047C5
:1005100044F210230022C254704700BF704700BF4E
:10052000704700BF08B508F009FC00EB400000016F
:1005300008BD00BF08B508F001FC002108BD00BFE0
:1005400010B541F27831044609F0CCFC204610BDCC
:1005500010B5044605E009F063FAC1B2204606F082
:10056000DBFD09F099FA0028F5D110BD10B5044B58
:10057000044640F8D03B05F07DFE204610BD00BF8C
:10058000D4C6010010B5064B044640F8D03B05F038
:1005900071FE204644F2182109F0A4FC204610BD4B
:1005A000D4C60100F8B542F2E40242F2E0038258F8
:1005B000C3589342054613D000F503573C463E46C8
:1005C00020341C3724363A681A402A44013392F802
:1005D000D800236009F00EFB236832689342F2D101
:1005E00044F2FC03EA5C32B144F210210120002203
:1005F0006854EA54F8BDF8BD10B50446D0F840027E
:100600000B4A03681B6993420AD108F097FB00EB81
:10061000400000010123C4F8600284F85C3210BD80
:1006200098470123C4F8600284F85C3210BD00BF13
:100630002505000038B590F85C4214B90024204626
:1006400038BD0546D0F840020A4A03681B69934248
:100650000DD108F073FB00EB40000001D5F86022DB
:10066000D5F86432801A9842E8D3204638BD9847BE
:10067000F4E700BF25050000F8B5594D594ED5F8EF
:1006800000C041F2683300F59B5EC358DEF800E01D
:1006900041F2583241F264374CEA0303C7592B60E8
:1006A0008358DFF848C140F21335CEF800504FF4BC
:1006B000517E1225C7F800E09D70835800251D74F7
:1006C00083582C25DD70835841F25C370E259D71CF
:1006D000C35D03F1604303F5644340251D70C55DB0
:1006E0006B119B0003F1604303F561434FF0010E72
:1006F00005F01F050EFA05F51D600568C35DEF687E
:1007000003F01F055B110EFA05F56745044646F830
:1007100023505FD10B4621FA0EF1805801F1B761E9
:1007200001F55841B1FBF3F1C1F344330370A35811
:10073000C1F347105870A35801F01F0199720021AE
:100740000A4623464FF4077E21270EFB0140013164
:10075000082980F840724FF0210680F841224FF0BE
:100760000005C0F84C2283F8382083F848225A63E9
:10077000C3F83C2103F50773E7D104F589531A49FF
:1007800083F80C621D7183F80D5283F814522268AD
:100790001269C3F8185241F2141741F2181641F2C7
:1007A0001C101D60C3F808518A424FF01403E55134
:1007B000A551255084F830300ED108F0BFFA00EB77
:1007C0004000000141F2503141F2543304226050A4
:1007D000E254F8BDB847B2E720469047F2E700BFC1
:1007E0003480044080E200E025050000B9040000E8
:1007F00070B584B006460A22684609F025FB009DC4
:10080000094B002D08BF1D460024297839B1013459
:10081000A4B2304606F0B6FC295D0029F7D168463F
:1008200009F0B0FA04B070BD6ECE010070B584B0AE
:10083000114606460A22684609F01AFB009D0A4B3B
:10084000002D08BF1D460024297839B10134A4B217
:10085000304606F097FC295D0029F7D1684609F07B
:1008600091FA04B070BD00BF6ECE010070B5036890
:10087000104A5B68934284B019D106460A22684642
:1008800009F0CEFA009D0C4B002D08BF1D46002438
:10089000297839B10134A4B2304606F073FC295DE1
:1008A0000029F7D1684609F06DFA04B070BD984789
:1008B00004B070BD5D0900006ECE010070B5036824
:1008C000104A9B68934284B019D106460A226846B2
:1008D00009F0BAFA009D0C4B002D08BF1D460024FC
:1008E000297839B10134A4B2304606F04BFC295DB9
:1008F0000029F7D1684609F045FA04B070BD984761
:1009000004B070BDF10700006ECE010070B5036841
:10091000104A5B68934284B019D106460A226846A1
:1009200009F07EFA009D0C4B002D08BF1D460024E7
:10093000297839B10134A4B2304606F023FC295D90
:100940000029F7D1684609F01DFA04B070BD984738
:1009500004B070BD5D0900006ECE010070B584B0BA
:1009600006460A22684609F05BFA009D094B002DF5
:1009700008BF1D460024297839B10134A4B230469D
:1009800006F000FC295D0029F7D1684609F0FAF964
:1009900004B070BD6ECE010070B584B00646022270
:1009A000684609F079FA009D094B002D08BF1D46E5
:1009B0000024297839B10134A4B2304606F0E2FBB4
:1009C000295D0029F7D1684609F0DCF904B070BD53
:1009D0006ECE01002DE9F041DFF8708005460F462C
:1009E0001646552300240134A4B21946284606F0C1
:1009F000C9FB18F80430002BF5D139781C4639B101
:100A0000284606F0BFFB631C9CB2395D0029F7D174
:100A1000317841B100240134A4B2284606F0B2FB7B
:100A2000315D0029F7D10D212846074E06F0AAFBBB
:100A3000002455210134A4B2284606F0A3FB315D01
:100A40000029F7D1BDE8F081FCC70100E8C701002B
:100A50000368AB4A9B6A93422DE9F041044640F09B
:100A6000918041F25833C3581879C0F340100028E0
:100A700050D141F25833E358DA78110601D4BDE879
:100A8000F0811A791206FAD541F21C124FF407755B
:100A9000A2589C4805FB024595F83820511C85F862
:100AA000381021680E6A2A44864292F8391040F0C4
:100AB000F780D971E38A0133E38295F838206B6BB4
:100AC0009B1A002BDBDC95F83930002B40F0EB80D3
:100AD00023688D4A1B69934240F0FB8008F02EF991
:100AE00000EB4000000141F2503141F25433032247
:100AF0006050E2542368854ADB69934240F0F280FB
:100B000041F258332C22E358DA70172384F830303E
:100B1000BDE8F08126687E4A736A41F21C11934257
:100B2000655840F0D28041F25833E358D879C0B2CA
:100B30004FF4077303FB0543D3F83C2199180132A6
:100B400081F84001C3F83C21218B01312183D3F886
:100B50004C128A421ADA93F94131002B14DB3369C3
:100B6000694A934240F0BB8008F0E8F800EB40008F
:100B7000000141F2503141F2543302226050E254FC
:100B8000BDE8F081984772E7042AE8DD33695E4AE0
:100B9000934240F0AA8008F0D1F800EB4000000139
:100BA00041F2543241F2503604214FF40773A05100
:100BB00003FB0543A15493F8391093F84021914267
:100BC00008D0628C0132628493F8412242F0200204
:100BD00083F841224FF4077101FB05F16318D3F844
:100BE0003C71012F2ADDB7F1020C03F5A07100F072
:100BF0008380FF20DFF81C81DFF81CE1024601EB57
:100C00000C0611F8013B5340B14218F8032082EA68
:100C100000021EF80300F4D142EA002212B24FF49F
:100C2000077303FB05439C441F449CF8401197F84D
:100C30003F3143EA01231BB293420CD0A28C4FF404
:100C40000773013203FB0543A28493F8412242F06B
:100C5000400283F841224FF4077303FB05F3E218C7
:100C600092F8411299B9A18A0131A18292F94121E8
:100C7000002A0CDAA28B23440132A28393F842317A
:100C8000052B35D0062B02D1238C013323844FF45E
:100C9000077303FB0544242384F84032BDE8F08148
:100CA0002046B04706E72368174A1B69934213D1D1
:100CB00008F044F800EB4000000141F2503141F2ED
:100CC000543301226050E25414E7204698472668C6
:100CD0002EE72046984706E720469847EDE720464E
:100CE000984746E7204698470FE72046984757E73A
:100CF000E38B0133E383CAE74FF0FF328FE700BF96
:100D0000A9040000910400002505000085040000EE
:100D10009D0400006CCC01006CCD01002DE9F04178
:100D20008CB00CAF152447F8284D88460022394670
:100D3000054608AE06A8069609F0F8FB2246029B77
:100D40003C490893069007F0B7FE029B069A07936A
:100D50000024D4544046384914F0D6FB78B14046BC
:100D6000364914F0D1FB069F00284BD0B74202D081
:100D7000384609F0B5F820460CB0BDE8F081DFF840
:100D8000D080044653210134A4B2284606F0FAF973
:100D900018F804100029F6D12B682948DA69019166
:100DA0008242DC6841D107F0C9FF0199254B9C4282
:100DB00036D101460A22384609F05AF8029B224AE7
:100DC000002B14BF98469046002498F8001041B1BB
:100DD0000134A4B2284606F0D5F918F80410002909
:100DE000F6D1384608F0CEFF184F202100240134F8
:100DF000A4B2284606F0C6F9395D0029F7D1069F4E
:100E00000124B3E7397899B104460134A4B22846E5
:100E100006F0B8F9395D0029F7D1069F0124A5E74E
:100E200002460B462846A047DEE728469047BDE726
:100E300001249BE734C801004CC8010070C80100C0
:100E4000350500002D0800006ECE010068C80100C5
:100E500058C801002DE9F04F89B000240F4606461E
:100E600004AD08466A490295914603948DF81040F6
:100E700014F04AFBB0B16749384614F045FB40B363
:100E80006549384614F040FB002800F0868038465B
:100E9000624914F039FB002800F09A80204609B01E
:100EA000BDE8F08F5E4B5F4F1E680446622101343F
:100EB000A4B2304606F066F9395D0029F7D10298F0
:100EC000A84200F0A28009F00BF8012009B0BDE8AB
:100ED000F08FDFF84CA1DFF85881DAF80070044693
:100EE0004FF00D0B0134A4B25946384606F04AF9CA
:100EF00018F804B0BBF1000FF4D108AC494644F82F
:100F00001CBDDAF80000224605F0DCFD00F1FF38D8
:100F100022460FFA88F8D82404FB08F44946DAF888
:100F2000000005F0CFFD04F58847321944F2A843CC
:100F300070373744D0500146384605F0D3FA44F2B2
:100F4000142241F6EC33B15804F5894041F6CC3215
:100F500008FB03187830022308F802303044594661
:100F600005F08AF904F58A4010303044594605F0FE
:100F700083F904F58A4028303044012105F07CF9DA
:100F80005946384605F078F9301900F589400C309B
:100F9000012105F071F9029892E7214BDFF8948066
:100FA0001F6804460D210134A4B2384606F0EAF861
:100FB00018F804100029F6D144F2142341F6CC327B
:100FC000F3580298995403F5DF530C33995477E79B
:100FD000DFF84CA0144FDAF8006004460D2101340C
:100FE000A4B2304606F0CEF8395D0029F7D1DAF820
:100FF00000700E4E0C460D21384606F0C3F8611CF9
:101000008CB2315D0029F7D159E7012047E700BFD5
:1010100050CA01007CC8010060E6010070C80100F0
:101020004087FF1F78C8010094C80100BCC80100B8
:1010300080C801008CC8010084B02DE9F041ADF5F5
:10104000087D8FAC4FF4077684E80E0005462146F4
:1010500001A8324607F030FD41F2141741F218138F
:10106000EC59EB58E31A03F00703072B1AD006FBE1
:1010700004580023212088F8400288F8483288F874
:101080004132C8F83C31C8F84C3201A9324608F167
:101090003400013407F010FD04F00704222388F81F
:1010A0004032EC5101200DF5087DBDE8F04104B05F
:1010B000704700BF2DE9F047DFF86893DFF868E379
:1010C000D9F80010D64E0446082300224FF0030C36
:1010D00090271125481C04F109086360012384F856
:1010E0000AC02773A573C9F8000022726273637285
:1010F000E372ADF5047DC4F814124046251D04F1D9
:101100000E074FF0800C8122FF2307E010F8011F2B
:10111000594063461EF8012016F801C0534087422B
:10112000DBB2F3D143EA0C231BB2C3F30721D4F89B
:1011300020A22374272205F10C06E173C4F81C22B7
:1011400031464FF40472684607F0B6FC95E80E008D
:101150005046FFF771FFD9F80030C4F814325A1C1A
:101160004FF0210E0023082084F810E201214FF0F7
:10117000030EC9F80020B02284F811322372C4F89B
:101180001C3284F81832C4F80C3163736060A073A9
:1011900084F80AE02273DFF890A2DFF884C261725B
:1011A000E17240464FF0800E8122FF2307E010F8E5
:1011B000011F594073461AF801201CF801E0534002
:1011C0008742DBB2F3D143EA0E231BB2C3F30721FC
:1011D000D4F820A223741522E173C4F81C223146EE
:1011E0004FF40472684607F067FC95E80E0050461D
:1011F000FFF722FFD9F80030C4F8143221215A1C1D
:1012000084F8101200234FF0080E01202173C9F852
:1012100000200321382284F811322372C4F81C32D2
:1012200084F81832C4F80C31E3726373C4F804E034
:101230006072A273DFF8F0A1DFF8E4C1A17240464A
:101240004FF0800E8122FF2307E010F8011F594064
:1012500073461AF801201CF801E053408742DBB2C4
:10126000F3D143EA0E231BB2C3F30721D4F820A223
:1012700023747522E173C4F81C2231464FF40472C2
:10128000684607F019FC95E80E005046FFF7D4FEBB
:10129000D9F80030C4F814325A1C2121002384F8F4
:1012A00010124FF0080E012084F811320321C9F802
:1012B000002023726022C4F81C3284F81832C4F86B
:1012C0000C31E37263730B23C4F804E06072227381
:1012D000A373DFF854A1DFF848C1A17240464FF074
:1012E000800E8122FF2307E010F8011F594073464A
:1012F0001AF801201CF801E053408742DBB2F3D119
:1013000043EA0E231BB2C3F30721D4F820A22374AF
:101310001B22E173C4F81C2231464FF40472684664
:1013200007F0CAFB95E80E005046FFF785FED9F896
:101330000030C4F814325A1C2120002384F8100213
:1013400008214FF0010E0320C9F80020702284F814
:1013500011322372C4F81C3284F81832C4F80C31EC
:10136000E372637384F809E0A0722273DFF8B8A017
:10137000DFF8ACC06160A17340464FF0800E81225F
:10138000FF2307E010F8011F594073461AF80120A7
:101390001CF801E05340B842DBB2F3D143EA0E231C
:1013A0001BB2C3F30721D4F820A223741522E173E2
:1013B000C4F81C2231464FF40472684607F07CFBE7
:1013C00095E80E005046FFF737FED9F80030C4F814
:1013D00014325A1C2121002384F81012012084F8B1
:1013E00011324FF0080AC9F800200321102223729D
:1013F000C4F81C3284F81832C4F80C31E3726373F9
:101400008023607223731846A273DFF81CC0DFF8D4
:1014100010E0C4F804A0A1728122FF230EE000BFF7
:101420006CCD0100EC1000206CCC010018F8011FFD
:10143000594003461CF801201EF801005340B845EE
:10144000DBB2F3D143EA00231BB2C3F30721D4F884
:10145000207223742522E173C4F81C2231464FF414
:101460000472684607F028FB95E80E003846FFF73F
:10147000E3FD0023212284F81022237284F8113224
:1014800084F81832C4F81C326360C4F80C310DF5CE
:10149000047DBDE8F08700BF2DE9F0430026ADF2E2
:1014A000646D154689464FF48072314604460DF14D
:1014B00011001F46BDF880868DF8106013F006FD00
:1014C00031464FF4807246A8459613F0FFFC4A4817
:1014D0008DF82062D0F800E08DF805606942212384
:1014E0003D0E3A0C8DF81832C9B23B0A4FEA282C4F
:1014F0008DF819628DF8097041260C278DF8065079
:101500000EF101058DF807208DF8083005608DF883
:1015100011908DF804108DF80B808DF80AC001AA87
:1015200003978DF81260CDF81CE20DF11200022332
:1015300001E012F8011F00F8011F01330A2BF8D156
:10154000FF202E4F2E4E0DF1110102460DF11B050D
:1015500011F8013B5340A942FA5C82EA0002F05CB8
:10156000F6D142EA00231BB2C3F307214FF40776FA
:101570008DF81C300C2332468DF81B108AA80DEB19
:101580000301D4F84052899307F096FA8AA93246AB
:101590000DF2444007F090FA41F2141741F218138B
:1015A00055F80780EB58C3EB080303F00703072B3C
:1015B0001CD006FB08540023212084F84002324648
:1015C00084F8413284F84832C4F83C31C4F84C32D3
:1015D0000DF2444104F1340007F06EFA08F1010302
:1015E00003F00703222284F84022EB5101200DF280
:1015F000646DBDE8F08300BFEC1000206CCC0100EE
:101600006CCD01002DE9F04F83B0054600268846D9
:10161000009117464660067231464FF480720930D9
:101620009B4613F053FC31464FF48072C5F80C61B1
:1016300005F5887013F04AFC4FF0FF310122C5F820
:10164000141285F824220F210522E34BC5F8281235
:10165000C5F82C2250214FF4FA5203FB0BF3DF4C58
:10166000DF48A5F83412C5F83822322105F51A7280
:101670004FF0210985F81092C5F83042C5F8643260
:1016800085F81162286085F83C12C5F82022C5F85B
:10169000402285F81862C5F844B2C5F84872C5F80A
:1016A000506285F85462C5F8586285F85C62C5F8E6
:1016B0006C82314605F51C70282213F007FC05F5F5
:1016C0009B5A142385F898320AF11C0A05F52774F1
:1016D00000272660267139464FF48072601D13F092
:1016E000F5FB4FF0FF38C4F8086104F58670394601
:1016F0004FF4807213F0EAFB04F5077404F8109CB1
:1017000004F8086C04F80F6C44F80C8C54454FF046
:101710002103DDD105F59C54264641F27C30083486
:1017200041F2843141F288322F503760601D6F5092
:10173000AF5039464FF480722771019313F0C6FB06
:101740004FF480723946C4F8087104F5867013F0BE
:10175000BDFB019B84F80C32BE46C4F8108284F8AD
:101760000D7284F8147238462A4629464FF40779D8
:1017700009FB0E570EF1010EBEF1080F87F8A834D1
:101780004FF0210887F8A9044FF0000CC7F8B40403
:1017900001F5077181F8840081F89402C1F8800096
:1017A000C1F88801E4D18F4F84F80C8241F2AC502B
:1017B00041F2A85E4FF47A5101FB0BF107FB0BF7E6
:1017C00084F80DC24FF4FA63C4F818C245F80E70DD
:1017D000295041F2B05041F2B45103FB0BF32B50AE
:1017E0006B5041F2A45041F2BC517F4B45F800B020
:1017F00005F801C0C5F86832009B012B00F0238179
:10180000022B00F0FD80002B00F0C38041F2C85E87
:1018100041F2CC5141F2D05305F5AE5055F80E804F
:10182000EB5855F801E00168DFF8C491DFF8C4C156
:10183000D9F800A04AEA0303C9F8003040F2133A8D
:101840004FF451791223C8F800A0CEF800908B70A5
:1018500003680021197403684FF02C0E83F803E02D
:10186000036841F2C4584FF00E0E83F806E015F8F5
:10187000083003F1604303F564434FF0400E83F8F2
:1018800000E015F808E0D0F800904FEA6E139B00D6
:1018900003F1604303F561434FF0010A0EF01F0EA0
:1018A0000AFA0EFEC3F800E015F8083003F01F0E28
:1018B0005B110AFA0EFA4CF823A089F800100368AD
:1018C0004FF09C0E83F801E00368082098724FF4F3
:1018D00007790B464FF0210C09FB01500131082913
:1018E00080F8A8C44FF0210E80F8A9344FF000080A
:1018F000C0F8B43402F5077282F8843082F894326A
:10190000C2F88030C2F88831E6D141F2883341F222
:101910007C3141F2843284F80CE284F8048084F84B
:101920000D8284F81482C4F8188245F803801423C9
:10193000C4F8088145F80180C6F8008045F80280A7
:1019400085F8983207F0FAF941F2B85100EB4000FF
:1019500005F5AF5341F2BC520001685041F6CC345A
:10196000042141F6D430A954C3F800B041F6D8316F
:1019700041F6E43241F6E83305F804802F5028465A
:1019800005F8018045F8028045F8038003B0BDE802
:10199000F08F41F2C45305F5AE5041F2C55C4FF0F3
:1019A0002D091249016005F8039041F2C8534FF028
:1019B0002E0905F80C90DFF8408045F8038041F2CD
:1019C000CC5941F2D05CDFF834E045F809E04FF43F
:1019D000806345F80C3027E7B0710B006889090077
:1019E0004CC70100A086010018C7010000A00640F6
:1019F0003480044080E200E018C004401CC0044071
:101A000041F2C45C05F5AE5041F2C55E4FF03108BD
:101A10001E49016041F2C85305F80C804FF03208AE
:101A200005F80E8041F2CC5941F2D05CDFF86480B9
:101A300045F80380DFF860E045F809E04FF4805393
:101A400045F80C30F0E641F2C45305F5AE5041F2D2
:101A5000C55C4FF02F090E49016005F8039041F273
:101A6000C8534FF0300905F80C90DFF8308045F886
:101A7000038041F2CC5941F2D05CDFF824E045F814
:101A800009E04FF4006345F80C30CDE600C0064095
:101A900000B0064008C004400CC004400CB0044034
:101AA00010B004402DE9F04FE14B036005460026DD
:101AB0004FF4005883B0C0F8CC60D0300C4604F02E
:101AC000D7FB31464246C5F8D46005F1D80013F083
:101AD000FDF905F5035742F2E40342F2D80042F261
:101AE000DC0142F2E002283741F6FF7945F8008038
:101AF00045F801903846AE503146EE50424613F05C
:101B0000E5F907EB080042F2080CC0F8008042F249
:101B1000040005F5824347F8009042F20C0047F8B4
:101B20000C6044F2F80C3E5044F2FC0745F80C609F
:101B300044F2041CEE55BF4A1A6044F2081745F8F7
:101B40000C2044F20C10DFF80CC345F807C044F237
:101B500014124FF47A772F5244F2241C44F22817BF
:101B6000AE50DFF8F4E29E6144F22E1244F22C18DB
:101B7000DE6144F2301045F80C60EE5144F2FA1C7C
:101B800044F2FC1725F80860DEF80010AE5244F26B
:101B900010122E5205F5844325F80C600120EE53F7
:101BA0004CF250360027C3E90267A854002900F020
:101BB000258144F2102201279F4BAF5405F584463E
:101BC0002B609E48DFF89492183608F0BFF844F274
:101BD000142844F218219A4A9A4B45F808404FF0CD
:101BE000130B6C5006F110002A6073607781A6F821
:101BF0000CB004F0A3FC06F11C0004F0C5FD06F1D6
:101C0000280004F0E9FC06F1440004F0E5FC06F1CC
:101C1000600004F0E1FC06F17C0004F0DDFC06F15C
:101C2000980004F0D9FC06F1B40004F0A5FB06F11D
:101C3000D00004F025FE06F1DC0004F021FE05F5DD
:101C4000864004F01DFE06F1F40004F019FE06F5CE
:101C5000807004F015FE55F80830D6F81C21C6F83F
:101C6000182105F5864444F2403203F5DF53403431
:101C70004FF0FF3A00270C33C6F80CA1C6F810A1AC
:101C8000C6F824A1C6F81471C6F81C91AB501023F5
:101C90006D4A62606381E018A4F80CB004F04EFC59
:101CA00004F11C0004F070FD04F1280004F094FC21
:101CB00004F1440004F090FC04F1600004F08CFC9A
:101CC00004F17C0004F088FC04F1980004F084FC2A
:101CD00004F1B40004F050FB04F1D00004F0D0FD96
:101CE00004F1DC0004F0CCFD04F1E80004F0C8FDD0
:101CF00004F1F40004F0C4FD04F5807004F0C0FDAC
:101D000005F5884644F26842D4F81C3155F80810AD
:101D1000C4F81831C4F81C9103234FF02B09C4F800
:101D20000CA1C4F810A1C4F81471C4F824A106F1E0
:101D30007000A950A6F86C30A6F86E9004F01CFB59
:101D400006F18C0004F018FBC6F8A870C6F8AC7059
:101D500006F1B00004F098FA06F1C80004F094FA15
:101D600006F1E00004F090FA06F1F80004F08CFAB5
:101D700006F5887004F088FA06F5947004F084FA89
:101D800055F8083005F58A4444F2405103F5DF5315
:101D90000C3312226B5004F14800A4F84420A4F83C
:101DA000469004F0E9FA04F1640004F0E5FAC4F89E
:101DB0008070C4F8847004F1880004F065FA04F1BE
:101DC000A00004F061FA04F1B80004F05DFA04F137
:101DD000D00004F059FA04F1E80004F055FA05F5D2
:101DE0008C4004F051FA194B1B680193019A44F29C
:101DF00018632846EA5003B0BDE8F08F1448CBB210
:101E0000082213F0800F02F1FF324FEA430318BF9C
:101E100083F0D50312F0FF02DBB2F2D10131B1F54C
:101E2000807F00F8013FEAD10123CEF80030C0E600
:101E3000D4C60100D4C8010068C701004C87FF1F49
:101E4000ACC70100F4C8010004C90100F010002073
:101E5000EB0F0020E8C80100E80F0020FCC80100DB
:101E60002DE9F047D94DDA4BEB602C460FCC8CB006
:101E700006AE0FC6322795F800C02F8294E8030003
:101E80000CF1FF33D34FDFF87CE344F20412DBB2F2
:101E9000F62B86E8030047F802E01CD88DF818C03E
:101EA00006AE0FCEDFF860E3CB4FAEE80F0096E84A
:101EB00003008EE803000FCD6D460FC50CAE94E80D
:101EC000030006F830CD85E803000FCE0FC795E874
:101ED000030087E80300C14FC14ED7F840020368F2
:101EE000DB6832210022B34287F83C12C7F8502247
:101EF00040F0248241F258339C21C4582270C258C9
:101F00005170C35808229A72D7F84002B54B046842
:101F1000B54D246941F23C314FF4FA62415841F227
:101F20004C3E02FB01F203FB01F300F59A5140F82D
:101F30000E20AC424FF001020B6087F85C2240F0AB
:101F4000108206F0FBFE00EB40000001A74BC7F833
:101F50006002012203F5BD6487F85C22002023F8AB
:101F6000020F9C424FF00002F9D1A14CA14BD4F8D2
:101F70000080D3F800E041F2D05041F2C85C3858FC
:101F800057F80CC048EA000041F2CC58206057F8DE
:101F9000084040F21330CCF800004FF4517C12207E
:101FA000C4F800C08EF802001868934C02741968D7
:101FB0002C20C870196841F2C45E0E20887117F891
:101FC0000E1001F1604101F564414020087017F8DE
:101FD0000E004111890001F160414FF0010C01F543
:101FE000614100F01F000CFA00F0086017F80E10B5
:101FF0001F6801F01F0049110CFA00F044F821009D
:102000003A7019689C20487019681446A3F5AE57B9
:1020100008238B723A4623464FF4077C4FF0210E7B
:102020000CFB04710134082C81F8A8E4DFF8AC81C2
:1020300081F8A9344FF02100C1F8B4344FF0000901
:1020400082F8A03282F8B034C2F89C32C2F8A433CD
:1020500002F50772E4D141F2945341F2955E41F2E8
:102060008C3141F29C5208F8030041F2883308F8A1
:102070000E9008F8029041F2904E41F2843208F539
:10208000AD5C41F27C3008F8019008F59C5148F8AD
:1020900003901423CCF8009048F80E90C1F80090FB
:1020A00048F8029088F8983248F8009006F046FE0A
:1020B00041F62C6200EB400358F8020041F2B85E92
:1020C000026841F2BC511B01D26848F80E3041F65B
:1020D00028634FF0040E08F801E041F63C614FF030
:1020E000320E08F803E0B2424FF0010348F80190C5
:1020F00088F8543240F0318141F258339C21C25863
:1021000082F80090C2585170C3589C7241F62C62FC
:1021100041F6EC33B858FB5841F23C31DC68415889
:10212000304B4FF4FA6202FB01F203FB01F341F280
:102130004C3E00F59A5140F80E200B602F4B41F6B3
:10214000486201219C42B95440F0048103681B6934
:10215000AB4240F0088106F0F1FD00EB40000001C9
:1021600041F64C6141F6486301227850FA5441F639
:10217000EC332348FB58194C9B6898471C4943F2A1
:10218000BC13D1F80080FB5843F2B41E43F2AC12EA
:1021900043F2B81057F80EC057F800E0B85848EAB4
:1021A00003030B6040F21333CCF800304FF451714D
:1021B0001223CEF800108370BB584FF0000E83F846
:1021C00010E0BB582C21D97020E000BF2887FF1FEA
:1021D000E0E60B00B8C9FF1FF0AFFF1FE091FF1F43
:1021E000B9040000A086010025050000C2A7FF1F5A
:1021F00034800440A0A7FF1F80E200E0F905000042
:10220000CCADFF1F0CC901000494FF1FBB5843F263
:10221000B0100E2199713B5C03F1604303F56443F8
:1022200040211970395C4B119B0003F1604303F5A9
:1022300061434FF0010C01F01F010CFA01F119602C
:1022400041F654613B5C79584848D1F80C8003F062
:102250001F015B110CFA01F1B04540F8231074D155
:10226000A35883F800E0A3589C215970A358082272
:102270009A723F4E0020324606F10109A6F1040889
:1022800003464FF4077C4FF0210E0CFB00F174184D
:1022900009EB010A01304144082884F808E28AF871
:1022A0000832344CC1F818324FF0210A137082F80A
:1022B000103242F8043CC2F804314FF0000102F53C
:1022C0000772E2D104F5465343F2811683F800A069
:1022D00042F6787043F2881241F65463A155A15436
:1022E000215443F28C12E35842F674701B69A150DA
:1022F00043F27C0642F66872215042F66C70A1519E
:10230000A15042F6707641F684622150AB424FF004
:102310001400A151A05415D106F010FD00EB4000AF
:10232000000143F2A41243F2A811134BB850042445
:1023300001227C541A700CB0BDE8F0874FF496412E
:102340009847E1E50D489847EBE74FF496410B4875
:10235000C0478EE70A48A04709E74FF496419047E7
:10236000D4E6A047F2E59847FAE600BF80E200E035
:102370006CB0FF1FE091FF1F20B0FF1F34B0FF1FA4
:10238000CCADFF1F2DE9F04FB84DADF5137D2846BC
:1023900005F092F844F21023EB5C03F0FF04002BED
:1023A00000F06784012C00F00C8244F2A843B04C8A
:1023B000EA5841F6DC3341F6D037E25006F0BEFC75
:1023C000AC4A43F2C87300EB40001268E2500001CF
:1023D000E05106F0B3FC44F2AC4343F2BC7800EBAE
:1023E000400004F5DF56EB583360000144F8080064
:1023F00006F0A4FC44F2845243F2CC7300EB40009C
:10240000AA58E2500001E05106F098FC41F2BC5598
:1024100000EB4000635D000144F80800002B40F031
:102420000884934F41F27C3307F59C55E1582B68A3
:102430008B420AD04FF4077202FB03F207EB020E45
:102440009EF8A804242800F01D8143F2A818DFF8A4
:10245000209214F80830002B40F08F8142F66C7CFB
:1024600042F6687354F80C20E158DFF804E28A421F
:1024700041D04FF40773804F03FB02F31F4497F8DA
:102480000802242837D1891A11F0070148D043F2F5
:10249000C4704FF02508794987F808824FF0010889
:1024A0000EF8008019440EEB0300424491F8081224
:1024B00000F5F45041F6386802F0070208304EF893
:1024C0000C204EF8080001F0FF0C002940F0DF81DD
:1024D00043F2D07197F809715EF8012041F63C682B
:1024E0000132032F4EF801204EF808C001F0188287
:1024F000642F00F0C68494F854325D4F002B65D0F1
:1025000097F83C32362B00F0328297F83C32323B5F
:10251000032B5BD8DFE813F07008EF0819085107A8
:1025200041F6386043F2C47301224EF800100EF8F1
:10253000032091F80D32FFDE95F80D32002B40F0AC
:102540004C87D0F8400295F81161016895F8103178
:10255000CF6895F8132195F81211360446EA036303
:10256000474E1343B74243EA012142F0D78041F27C
:1025700058324B08865803F1B76303F55843B3FB51
:10258000F1F3C3F3443131708158C3F347164E70F1
:10259000825803F01F039372D4F8401295F8140187
:1025A00095F81531D4F8385241F23C3243EA002311
:1025B0008A5841F24C3601F59A5002FB03F302FBB4
:1025C00005F236258B5184F83C52026041F2BC552D
:1025D000274E635D002B40F07E8341F2843341F24D
:1025E0007C32E358A158224E41F2BC5000258B4268
:1025F000255400F024824FF4077202FB036292F824
:10260000A814232900F01B8292F8A814242901F0B1
:10261000118192F8A824252A01F00C814FF4077249
:1026200002FB0343124D93F8A824222A40F00782AC
:102630002321162283F8A81485F8982206F07EFB41
:1026400005F5AE5300EB40001A6841F2B85741F26D
:10265000BC560301EC210120EB51A855D170B5F80F
:102660007A320344A5F87A32ECE100BFB8C9FF1F03
:10267000E091FF1F380F00206CB0FF1F6DB0FF1FEF
:10268000B9040000C91A11F0070100F0918041F669
:10269000D83101204FF0250C8EF8A8C4785403449B
:1026A0009EF8A91403F007030EF527702B60C7F8F6
:1026B0004C0201F0FF03002940F08C8041F6E43128
:1026C0009EF8A9E3C7F850327B58BEF1030F03F11F
:1026D00001037B5001F0FD80BEF1640F7FF4B5AEC5
:1026E00090F80E1190F80F31DFF8AC9341F692029A
:1026F00043EA0123BB5290F8101190F8113141F6D2
:10270000900243EA0123BB5290F8121190F8133162
:1027100041F69E0243EA0123BB5290F8141190F84F
:10272000153141F69C0243EA0123BB5290F8161181
:1027300090F8173107F5C55243EA0123138041F69B
:10274000840390F81821FA5290F8191190F81A3170
:1027500041F6880243EA0123BB5290F81B1190F81E
:102760001C3141F6441243F2A81843EA0123BB523C
:1027700014F80830002B3FF471AE43F2A41242F675
:10278000707359F8022059F803708B9206F0D6FA4C
:1027900000EB400000018C9019F80830013B032B3E
:1027A0003FF65CAEDFE813F0C004620442043E046E
:1027B00041F6D8330122FA54C7F84C1291F80D3281
:1027C000FFDE44F20E13EA5C022A7FF4EEAD002233
:1027D000EA54EAE541F6E831D7F850327A5897F8EA
:1027E0003C020132013336287A50C7F850327FF468
:1027F0002CAED7F82C229342FFF627AED7F8400232
:102800009C490368DB68322287F83C228B424FF0F8
:102810000002C7F8502241F03E8441F258339C2117
:10282000C7583A70C2585170C35808229A72D4F8E7
:102830004002914B026841F23C31176941584FF414
:10284000FA6241F24C3E02FB01F203FB01F340F855
:102850000E2000F59A51894A0B6097424FF0010310
:1028600084F85C3241F0148406F068FA00EB400012
:102870000001834BC4F86002012284F85C2203F556
:10288000BD61002223F8022F9942FBD1DDE541F61C
:102890003C6143F2D47041F628675EF801305EF87F
:1028A00000201EF807C001330132BCF1360F4EF88C
:1028B00001304EF800207FF41EAE41F618625EF83B
:1028C00002209342FFF617AE41F62C6232235EF8E7
:1028D00002000EF807300368664FDB680022BB4237
:1028E0004EF8012041F0CF8341F258339C21C75864
:1028F0003A70C2585170C35808229A7241F62C623D
:1029000041F6EC33A058E35841F23C31DF684158BE
:10291000594B4FF4FA6202FB01F203FB01F341F25F
:102920004C3E00F59A5140F80E200B60554B41F695
:10293000486201219F42A15441F0A18303684F4A9C
:102940001B69934241F07B8406F0F8F900EB4000EC
:10295000000141F64C6141F6486301226050E254A7
:1029600041F6EC334848E3589B689847C3E541F289
:102970007C332A68FB589B1A03F00703012B3FF7AF
:1029800025AE41F6CC33F95C022901F0E883042935
:1029900001F06B8000297FF419AE3C48397205685C
:1029A000F97239737973B973F9738DF841128DF82F
:1029B00042128DF843128DF84412691C97F8246274
:1029C000C7F814520160092564214FF0FF0E304A08
:1029D000304B7D60B9727E7207F109017546103780
:1029E00011F8010B2C4E6840B942155C8EEA0505C2
:1029F00013F800E0F4D145EA0E231BB2C3F3072716
:102A000013254FF40472737468463774C6F81C5269
:102A100006F052F8331D0ECB06F51A70FEF70CFBCC
:102A20000023212286F81022337286F8113286F8AC
:102A30001832C6F81C327360C6F80C31C6E515238F
:102A400084F89832144D05F5F2531B78002B00F0F2
:102A5000928041F62863EA5C362A00F07B81EB5CC9
:102A6000323B032B00F28780DFE813F0920320054E
:102A70004C041800B9040000A086010025050000E0
:102A8000C2A7FF1FF9050000CCADFF1FEC1000200E
:102A90006CCC01006CCD0100E091FF1F41F6EC33DE
:102AA000A149E258A14B12688A4241F0DA8343F20D
:102AB000C4720021985C995400285CD041F63863B8
:102AC0009A4AE55895F80D31412B01F0838441F67F
:102AD0002C639749E0580368DA6841F6286641F6A6
:102AE0003C65322700238A42A755635141F0F9859E
:102AF00041F258329C2185582B7083585970835865
:102B000008229A7241F62C6241F6EC33A058E25842
:102B1000884ED568884B41F23C314FF4FA624158F7
:102B200041F24C3E02FB01F240F80E2000F59A57AC
:102B300041F6486203FB01F3B5424FF001013B60EF
:102B4000A15441F0CA8503687C4A1B69934241F055
:102B5000B98506F0F3F800EB4000000141F64C6146
:102B600041F6486301226050E25441F6EC33744868
:102B7000E3589B68984743F2A8156C4E635D002BA1
:102B800040F0BE8042F6707342F66872E358A25875
:102B900043F2A81100209342605462D069494FF477
:102BA000077202FB031292F80802232859D092F808
:102BB0000802242800F0468692F80822252A00F010
:102BC00041864FF4077202FB0311584A91F808320C
:102BD000222B46D141F654632320D35881F80802B2
:102BE0001B69564941F6846016258B42155441F005
:102BF0002D8306F0A3F800EB4000000141F654637A
:102C000043F2A411E358504A9B69605043F2A81163
:102C1000012093426054454941F0148343F2AC13C0
:102C2000EC22CB58DA7041F66662A35A0133A35204
:102C30001BE041F2B85241F28433A258E75889921E
:102C400006F07CF800EB400000018A90635D013BD8
:102C5000032B3FF6E6ABDFE813F0BA017E01660115
:102C6000620141F684631522E2540DF5137DBDE83F
:102C7000F08F44F20E13EB5C012B00F0798644F2E6
:102C800024130022EA5042F2E00342F2E402EB583D
:102C9000AA58934210D02D4E341D06F10807326811
:102CA0001A402A44013392F8D800236006F0A2FFAC
:102CB00023683A689342F2D144F2FC03244AE95C67
:102CC00000293FF472AB44F2102001240021145477
:102CD000D154FFF76ABB41F2B853F3588D9306F015
:102CE0002DF800EB400000018E90735D013B032B3B
:102CF0003FF6A8AEDFE813F0C200C200C2009305A1
:102D000043F2A413F3588F9306F018F800EB400039
:102D100000019090735D013B032BA6D8DFE813F010
:102D2000A800A800A8007405E9040000E091FF1FB6
:102D3000B9040000F9050000A08601002505000087
:102D4000CCADFF1F6CB0FF1F7904000094EAFF1F99
:102D5000B8C9FF1F42F6687342F66C72EB58AA5866
:102D60009B1A03F00703012B3FF705AF43F2B8733B
:102D7000EB5C022B01F09481042B00F06186002BA8
:102D80007FF4F9AEDF488DF8413201688DF84232A8
:102D900001F1010EC0F800E041F6106705F5F05EA4
:102DA00041F6F530EF5DCEF8001041F6F0312F54CA
:102DB00041F6F4370920685041F6F631EB556427A7
:102DC0006F5441F6F73041F6F8312B5441F6F9379C
:102DD0006B5441F6FA3041F6FB31EB558DF8433236
:102DE0002B548DF844326B54FF27C74EC74AC84B4B
:102DF000AEF5017E384616F8011BC64D41407645BA
:102E0000505C80EA07005F5CF5D140EA07231BB203
:102E1000C3F30720C04F307041F6FD3241F6086819
:102E20001326AB5407F10C014FF40472684645F8C1
:102E3000086005F041FE97E80E0007F51970FEF7EF
:102E4000FBF841F6FC5341F6FD522120E8540023E3
:102E5000AB5441F6F03141F6F43641F6046041F6E8
:102E6000F84245F80830AB552B546B50AB5082E616
:102E7000909B8F9B0DF5137DBDE8F08F8E9B8D9BF6
:102E8000E0E590F80E1190F80F3143F27E4243EAEC
:102E900001232EF8023090F8101190F8113143F20E
:102EA0007C4243EA01232EF8023090F8121190F888
:102EB000133143F28A4243EA01232EF8023090F89C
:102EC000141190F8153143F2884243EA01232EF899
:102ED000023090F8161190F8173143F28C4243EA11
:102EE00001232EF8023043F2704390F818212EF897
:102EF000032090F8191190F81A3143F2744243EA12
:102F000001232EF8023090F81B1190F81C3143F287
:102F1000305243EA01232EF80230FFF7ECBA8A9BC5
:102F2000899BFFF77EBA41F2B0528A9B8999A258D9
:102F3000784F5B1A93427FF674AA05F0FFFE41F2C8
:102F4000B85500EB400041F2BC52030104217B5113
:102F5000B954FFF766BA41F2AC528A9B8999A258DC
:102F60006C4D5B1A93427FF65CAA05F0E7FE41F2D6
:102F7000B85E00EB400041F2BC52030145F80E3050
:102F800004214FF40773A95403FB0753D3F8B42467
:102F9000013201F06F8293F8A904B5F89012B5F8E8
:102FA000922240F0080083F8A9040131013218236D
:102FB000A5F89012A5F8922285F898324FF407737D
:102FC00003FB0747242387F8A834FFF72ABA41F206
:102FD000A8528A9B8999A2584E4D5B1A93427FF65C
:102FE00020AA05F0ABFE41F2B85E00EB400041F2D2
:102FF000BC52030145F80E3004214FF40773A95465
:1030000003FB0757B5F88E3297F8A924242142F024
:103010001002013387F8A924A5F88E3287F8A81486
:10302000FFF7FFB98C9B8B9BFFF718BA43F29C12FA
:103030008C9B8B98A25837491B1A93427FF60EAA95
:1030400041F65463354ACB581B69934241F0F380F3
:1030500005F074FE00EB4000000143F2A41143F2BE
:10306000A81304226050E254FFF7F8B943F2981213
:103070008C9B8B99A258DFF89C805B1A93427FF659
:10308000EDA905F05BFE43F2A41C00EB40004FF4F9
:103090000773DFF890E043F2A811020103FB07F386
:1030A000042048F80C200EEB030208F80100D2F8C7
:1030B0001822013201F0F480194A41F67C6C134465
:1030C000511E38F80C2093F80802013228F80C2021
:1030D00041F67E6E40F0080083F8080238F80E30A2
:1030E000013328F80E3041F68463182208F80320D3
:1030F0004FF4077303FB0711242381F80832FFF70D
:10310000ADB900BFEC100020D5ADFF1F6CCC0100A5
:103110006CCD0100E091FF1FD0ADFF1F2505000021
:103120006DB0FF1F68B0FF1F43F294128C9B8B9908
:10313000A258DFF83C835B1A93427FF68FA905F013
:10314000FDFD43F2A41E00EB40004FF407710201A5
:1031500001FB07F7C54B48F80E2043F2A8110422E3
:103160003B4408F8012041F67A6093F80812DFF832
:1031700034E338F80020774441F0100183F8081256
:103180000132242387F8083228F80020FFF766B9B7
:1031900041F62C6241F21413A058B549C35841F2CC
:1031A000181282589B1A5D077FF4E5AC41F6EC33A8
:1031B000B04ACB581B69934241F09C8241F6486368
:1031C000CB5C002B3FF4D7AC0368AB4A1B6993423E
:1031D00041F0CD8205F0B2FD00EB4000000141F668
:1031E0004C6241F65063A258E358801A9842FFF4AB
:1031F000C2AC41F6EC33A149E3589D4D1B6841F642
:10320000486000228B42225441F0708243F2C47322
:10321000E95CEA54DFF890A29949DAF80000086006
:1032200041F6106541F6F53641F6F43841F6F73CC3
:10323000013041F6446941F6F83E655DA55541F619
:10324000F03741F6F636CAF80000002004F80C000A
:1032500004F8080004F80E0044F809004FF00608CE
:103260004FF0080CFF2044F8078004F806C0A1F2D4
:103270000B27844A844BA1F50271064601E017F83A
:10328000015F75408F42565D86EA0006585DF6D1B3
:1032900041F60C6246EA002341F6FA31A7587B4D0D
:1032A0001BB241F6F93241F608666354C3F30720B6
:1032B000062305F10C01A054A3514FF40472684693
:1032C00005F0FAFB95E80E003846FDF7B5FE41F62D
:1032D000FC5341F6FD522121E1540023A35441F651
:1032E000F03541F6F43E41F6046741F6F84041F608
:1032F00028623321A35104F80E30E3556351235063
:10330000A15438E441F6EC335C49E258584B12685A
:103310008A4240F09F8743F2C4720021985C99541E
:10332000002800F0978241F63862514BA25892F87B
:103330000D22002A00F08E8241F62C6241F62861AF
:103340009858534D0268D26841F63C6632275F5464
:10335000AA424FF00001995141F0D38141F2583314
:103360009C25C2581170C2585570C35808229A72D1
:1033700041F62C6241F6EC33A058E258454ED16834
:10338000454B41F23C354FF4FA62455941F24C3E0F
:1033900002FB05F240F80E2000F59A5741F648620C
:1033A00003FB05F3B1424FF001053B60A5543FF428
:1033B000CAAB3A488847FFF7D8BB41F6D83300215B
:1033C000E25C2B48E154002A3FF400A9D0F84C52AB
:1033D00095F80D31412B3FF4AFA8D4F840022C49A9
:1033E0000368DA68322500238A4284F83C52C4F824
:1033F000503241F06A8141F258329C2185582B703D
:1034000083585970835808229A72D4F84002224B8C
:103410000268194E156941F23C314FF4FA62415885
:1034200041F24C3702FB01F203FB01F300F59A5124
:10343000C251B5424FF001020B6084F85C2241F0AA
:10344000498105F07BFC00EB40000001144BC4F8FF
:103450006002012284F85C2203F5BD61002223F89A
:10346000022F8B42FBD1FFF7B1B800BF6DB0FF1F39
:10347000E091FF1F3506000025050000E90400006B
:10348000E0AFFF1F6CCC01006CCD0100D0ADFF1F81
:10349000B9040000F9050000A0860100CCADFF1FB3
:1034A000C2A7FF1F6CB0FF1FEC10002041F6EC33E9
:1034B000CA49E258CA4B12688A4240F0D98643F2A0
:1034C000C4720021985C995400283FF454AB41F633
:1034D0003863E65896F90D31002B1ADB3368002B60
:1034E00012DD717996F80C21914212D10433F5184E
:1034F00006F58672731D05E013F8010F12F8011F1F
:10350000884206D1AB42F7D196F80D12002900F09F
:10351000228541F62C63B349E0580368DB6841F625
:10352000286641F63C65322700228B42A75562513E
:1035300041F0FC8041F258339C21C5582A70C25892
:103540005170C35808229A7212E741F6D83300220C
:10355000E15CA34DE254002900F09E81D5F84C3285
:1035600093F80D32002B00F09781D5F840029D4969
:103570000368C5F85022DB6832268B4285F83C622E
:1035800041F0C78041F258339C21C5582A70C25877
:103590005170C35808229A72D4F84002924B0268C4
:1035A000924E116941F23C354FF4FA62455941F2AD
:1035B0004C3702FB05F203FB05F300F59A55C251A7
:1035C000B1424FF001022B6084F85C2241F09E80F2
:1035D00005F0B4FB00EB40000001854BC4F860022D
:1035E000012284F85C2203F5BD61002223F8022F3A
:1035F0008B42FBD1FEF7EABFD4F84002784941F292
:10360000141341F21812C35882589B1A5E077EF4B5
:10361000DDAF91F85C32002B3EF4D8AF0368734AFB
:103620001B69934241F0938005F088FB00EB40005A
:103630000001D4F86012D4F86422694B401A904219
:10364000FEF4C4AF6B4D93F824622A68C3F81422C9
:1036500041F6D830511C4FF0060C00224FF0080EF6
:10366000FF27296083F85C22195CC3F858221A549A
:103670001A72DA721A735E72C3F804C083F80AE031
:1036800003F1090503F10C0138465B4A5B4B01E08D
:1036900015F8016F46408D42905D80EA07009F5DFE
:1036A000F6D140EA07231BB2C3F3072606254FF4E1
:1036B00004725349A373C4F81C5268466673D4F865
:1036C000205205F0F9F94F4B28460ECBFDF7B4FC1C
:1036D00021210023332284F81012237284F811323E
:1036E00084F81832C4F81C326360C4F80C3184F8D2
:1036F0003C22FEF76BBF41F6D8330021E25C38482C
:10370000E154002A3EF462AFD0F84C6296F90D31D4
:103710008B421ADB33688B4212DD717996F80C21EB
:10372000914212D10433F51806F58672731D05E037
:1037300013F8010F12F8011F884206D19D42F7D1FC
:1037400096F80D02002800F0A581D4F84002254922
:103750000368DB68322500228B4284F83C52C4F8AF
:10376000502240F0E88741F258339C21C5582A7016
:10377000C2585170C35808229A72D4F840021A4BAA
:1037800002681A4E116941F23C354FF4FA6245590C
:1037900041F24C3702FB05F203FB05F300F59A55A5
:1037A000C251B1424FF001022B6084F85C2240F01C
:1037B000BA8705F0C3FA00EB400000010C4BC4F8D7
:1037C0006002012284F85C2203F5BD61002223F827
:1037D000022F8B42FBD1FEF7F9BE00BFE9040000C7
:1037E000E091FF1FB9040000A0860100250500003C
:1037F000C2A7FF1FEC1000206CCC01006CCD0100B3
:10380000F091FF1FE491FF1F43F2A012909B8F994C
:10381000A2585B1A93423FF6B5A9FFF726BA41F2C8
:10382000B4528E9B8D99A2585B1A93423EF6D5AE48
:10383000FFF708B9013341F2843203F00703A350C4
:10384000FEF7ECBE013342F6707203F00703A3509B
:10385000FFF7B7B941F62C6241F21413A258D04DCC
:10386000D35841F2181152589B1A5B077FF483A971
:1038700005F5F15241F61C6341F610611288EB58D0
:10388000695CC84800920122FDF706FE41F62863F4
:103890003522EA54FFF76FB9D4F84022C04D41F207
:1038A000141341F21811D35852589B1A5A077EF438
:1038B0008DAEB5F83422D5F8303295F82412009246
:1038C00028460122FDF7E8FD352385F83C32FEF756
:1038D0007DBE90F809C0817A90F807E0037A01EB89
:1038E0000C2103EB0E2389B29BB200293EF4ADAD4F
:1038F000194407EB430301F6F1203A4403F5AF51B5
:1039000007EB4007023102F2AA30427810F8023F7A
:1039100003EB022321F8023FB942F6D1FEF795BD31
:1039200090F809C0817AC779027A01EB0C2102EB89
:10393000072289B292B200293EF4DDAD8F1807F557
:10394000C75773440EEB4202073703F5FC5102F5EB
:1039500047500EEB470716310E304A7811F8023FF8
:1039600003EB022320F8023F8742F6D1FEF7C3BDE6
:1039700044F22813EB5883B18B4F0D218B4E013449
:10398000A4B2304603F0FEFB395D0029F6D144F2C3
:103990000E13F35C012B7FF472A944F22413834CC1
:1039A000E85800284AD144F2281701263C221E215B
:1039B000E650E051204603F0CBFE7D4801F0F0FADE
:1039C0007C4801F0EDFA7C4801F008FF7B4801F0EB
:1039D00005FF7B4B44F20E121968A25C869144F2FB
:1039E000122186986052B2427FF44DA91B68754936
:1039F00088937548889A0B680078714F6B4E44F233
:103A00001864D31A83422A517FF63DA96A480A6096
:103A100002F032F9694802F02FF9654801F070FBB5
:103A2000644801F06DFB3B68879344F21223879A48
:103A3000F252304603F0B2FEFFF725B9604BD5E7EE
:103A400005F07CF943F2BC7305F55F52EB58126840
:103A500000EB4000C3EB0013934240F2938543F226
:103A6000B8730022E254FFF786B805F067F941F613
:103A7000D03341F6D432FB58BA5800EB4000C3EBC8
:103A80000013934240F2E68541F6CC330022E25423
:103A9000FEF79CBDD4F85832D4F8282240490133AF
:103AA0009342C4F85832C0F20582DFF828810872C8
:103AB000D8F800204873561C4FF0080C012303254A
:103AC0009020C1F81422C8F80060112201F1090603
:103AD000C1F804C08D7208738A734B72CB7201F106
:103AE0000E05DFF8F4E0394F31464FF0800C8122AB
:103AF000FF2007E011F8012F534060461EF8032015
:103B000017F803C080EA02038D42DBB2F2D143EA28
:103B10000C232F4FD4F820921BB24FF0270E2374A2
:103B2000C3F30723C4F81CE207F10C014FF404723D
:103B3000E373684604F0C0FF97E80E004846FDF7BF
:103B40007BFAD8F80030C4F814325A1C4FF0080938
:103B50000023012021214FF0030AC8F80020B022E1
:103B600084F81012C4F8049084F8113284F80E908E
:103B70006072E0722273DFF860C0DFF850E02372F9
:103B8000C4F81C3284F81832C4F80C316373791D00
:103B900084F80AA080204FF08109FF2226E000BFB0
:103BA000E091FF1FCCADFF1F1CC90100B8C9FF1F6A
:103BB000200E0020F80E0020D00B0020F80C002072
:103BC000F0100020DC91FF1F2487FF1F6CCD010047
:103BD000E491FF1FEC1000206CCC010011F8012FC4
:103BE000534002461CF803901EF8030089EA0203C2
:103BF0008D42DBB2F2D143EA00231BB24FF0150E27
:103C0000D4F820922374C3F30723C4F81CE2DD49DF
:103C1000E3734FF40472684604F04EFF97E80E0019
:103C20004846FDF709FAD8F80030C4F814322120CC
:103C30005A1C002384F810024FF0080984F811324E
:103C40002073C8F80020012003222372C4F81C321C
:103C500084F81832C4F80C31E37263733823C4F863
:103C600004906072A272C849DFF828C3DFF81CE331
:103C7000A37380204FF08109FF2207E011F8012F84
:103C8000534002461CF803901EF8030089EA020321
:103C90008D42DBB2F2D143EA00231BB24FF0750E26
:103CA000D4F820922374C3F30723C4F81CE2B54967
:103CB000E3734FF40472684604F0FEFE97E80E00CA
:103CC0004846FDF7B9F9D8F80030C4F814325A1C48
:103CD0002120002384F810024FF00109032084F80A
:103CE00011324FF0080AC8F8002023726022C4F88D
:103CF0001C3284F81832C4F80C31E37263730B235E
:103D000084F80990A07222739F49DFF888C2DFF817
:103D10007CE2C4F804A0A37380204FF08109FF2245
:103D200007E011F8012F534002461CF803901EF8DB
:103D3000030089EA02038D42DBB2F2D143EA002399
:103D40001BB24FF01B0ED4F820922374C3F3072349
:103D5000C4F81CE28B49E3734FF40472684604F024
:103D6000ABFE97E80E004846FDF766F9D8F800303C
:103D7000C4F814325A1C4FF021090023082084F89B
:103D80001092C8F800204FF00109032284F8113284
:103D90002372C4F81C3284F81832C4F80C31E37270
:103DA000637370236060A07384F80990A2727649EF
:103DB000DFF8E0C1DFF8D4E1237380204FF0810900
:103DC000FF2207E011F8012F534002461CF8039030
:103DD0001EF8030089EA02038D42DBB2F2D143EA06
:103DE00000231BB24FF0150ED4F820922374C3F3B6
:103DF0000723C4F81CE26349E3734FF40472684676
:103E000004F05AFE97E80E004846FDF715F9D8F879
:103E10000030C4F814325A1C2121002384F81012F7
:103E20004FF0010C032184F811324FF00809C8F853
:103E3000002023721022C4F81C3284F81832C4F80F
:103E40000C31E3726373802384F809C0A172A273FA
:103E5000DFF840E14D48C4F80490237319468122ED
:103E60004FF0FF0C06E016F8012F53408C461EF869
:103E70000320C15C8CEA0203B542DBB2F3D143EA12
:103E800001231BB2D4F8205223742526C3F3072341
:103E90003C49E3734FF404726846C4F81C6204F0B2
:103EA0000BFE97E80E002846FDF7C6F821210023F7
:103EB000342210E4364D91F824822E68087206F1FF
:103EC000010C4FF0060E08274FF0FF09C872087367
:103ED000C1F81462C5F800C081F80980C1F804E097
:103EE0008F7201F109052B4A284B48460C3101E03D
:103EF00015F8018F80EA0808A94212F8080089EA3B
:103F0000000013F80890F3D140EA09231BB2C3F371
:103F1000072606254FF404721A49A373C4F81C52ED
:103F200068466673D4F8205204F0C6FD1A4B284642
:103F30000ECBFDF781F80023212284F81022237292
:103F400084F8113284F81832C4F81C326360C4F863
:103F50000C31FEF73BBB41F6446241F61460A358B6
:103F600020580E4D01338342A3501BDB41F6EC3346
:103F70000B48EB585B68984741F628633422EA54B3
:103F8000FEF7F9BDF091FF1FE991FF1F6CCD010015
:103F9000EC1000206CCC0100E491FF1FE091FF1FAA
:103FA000CCADFF1FB64EDFF8F4E23068B54AB64B31
:103FB00041F6106741F6F538EF5D05F8087000F13D
:103FC0000108C6F8008005F5F05641F6F03941F6D3
:103FD000F4383060062045F8090041F6F63005F85F
:103FE00008104FF0080805F8008041F6F73641F652
:103FF000F830A9552954FF210EF1030C084601E0C1
:104000001EF8017F4740F445D05D80EA0100D95D8C
:10401000F6D141F60C6240EA012341F6FA31A75885
:104020009A4D1BB241F6F93241F608666354C3F368
:104030000720062305F10C01A054A3514FF404728C
:10404000684604F039FD95E80E003846FCF7F4FFA9
:1040500041F6FC532122E25441F6F03141F6FD577E
:1040600041F6F43541F6046041F6F8420023E35589
:104070006355A35123546350A350FEF77CBD84487D
:10408000B847FEF76DBC4FF496419847FEF736BC33
:10409000B847FEF7EEBB4FF496419847FEF7C7BB13
:1040A00004F04CFE43F2BC7305F55F52EB58126806
:1040B00000EB4000C3EB001393423FF6D0AC43F259
:1040C000C87341F6FB30EB586D4A2B5441F6F83675
:1040D0001816A85511688DF8443241F6F93E41F69C
:1040E000FA3641F610678DF8410218141B1205F8D4
:1040F0000E0041F6F03CAB558DF8433241F6F536F3
:104100004B1CEF5D136041F6F43E0923AF5545F8B3
:104110000C3041F6F63741F6F736002305F80E303D
:1041200064221C238DF8420205F5F050EA55AB5588
:10413000FF27544A544B0160A0F20B26A0F5017EE4
:10414000394616F8010B534D48407645115C81EA1B
:1041500007011F5CF5D141EA0723FEF758BE04F0C2
:10416000EDFD41F6D03341F6D432FB58BA5800EB9E
:104170004000C3EB001393423FF686AC41F6DC33BC
:104180003F49FB580868FB731D163D738DF8443298
:104190008DF841521D141B1200F1010EBB738DF8F6
:1041A0004332092397F824627D73C7F81402C1F8DB
:1041B00000E064201C217B608DF842524FF0FF0E1E
:1041C0000025304A304BB872F9727E723D7207F1A9
:1041D00009017046103711F8016B2E4D4640B94267
:1041E000905D8EEA000013F806E0F4D140EA0E2359
:1041F0001BB2C3F3072713264FF404726B7468468F
:104200002F74C5F81C6204F057FC2B1D0ECB05F56E
:104210001A70FCF711FF0023212285F810222B725F
:1042200085F8113285F81832C5F81C326B60C5F874
:104230000C31FEF7CBB918489847FEF70EBF9847E8
:10424000FEF787BB14489847FEF7EDBC1248984725
:10425000FEF7D4BC0E48904700283FF4FBAAFFF7B6
:1042600062B80B48904700287EF428ACFEF783BC68
:104270000748904700287FF42AA9FEF77CBC00BFBE
:10428000EC1000206CCC01006CCD0100D0ADFF1F04
:10429000CCADFF1FE091FF1F34B0FF1FD5ADFF1F56
:1042A000B34901F1010ACA181AF8030092F808216B
:1042B000904253440CD041F6766C93F8082238F8BB
:1042C0000C00013042F0200228F80C0083F808228C
:1042D0004FF4077303FB07F39E44A64ADEF808B1C8
:1042E000BBF1010F31DD134403F5FC5CBBF10203AC
:1042F0000CF1140C1846859300F036824FF0FF083D
:104300009D4A9E4BC6460CEB00091CF8010B8EEA39
:104310000000E14512F800E088EA0E0E13F8008074
:10432000F3D14EEA082E0FFA8EFE4FF40772859BEA
:1043300002FB07121344934493F808219BF80731BA
:1043400043EA02231BB2734510D041F6786E4FF456
:10435000077303FB07A334F80E2093F80802013219
:1043600040F0400024F80E2083F808024FF4077351
:1043700003FB07F39A447F4A9AF8080200287EF468
:10438000B7AE41F6686C01EB030E32F80C009EF9F3
:1043900009E10130BEF1000F22F80C00BEF6A8AE14
:1043A00041F6706E134432F80E0003F5F4530130F9
:1043B000083322F80E0093F80E31052B00F0CA8165
:1043C000062B7EF495AE41F67460135A01331352F6
:1043D000FEF78EBE95F80D32002B7EF478AB41F6D9
:1043E0002C6395F81161D05895F81031016895F853
:1043F0001321CF6895F81211360446EA0363604E24
:104400001343B74243EA012140F08B8141F2583215
:104410004B08865803F1B76303F55843B3FBF1F338
:10442000C3F3443131708158C3F347164E7082583C
:1044300003F01F03937241F62C6341F23C31E358C1
:1044400095F8140195F81521595842EA002241F2D5
:104450004C3001FB02F21A5041F6246203F59A53E4
:10446000A05841F6286201FB00F136201960A054E3
:10447000FEF781BB93F8A11293F8A82391420AD0CA
:10448000B5F88A1293F8A924013142F02002A5F868
:104490008A1283F8A9244FF4077303FB07F3E21889
:1044A000344DD2F8A4E3BEF1010F29DD2B44BEF157
:1044B000020C03F56A7500F054814FF0FF082E4A94
:1044C0002E4B404605EB0C0915F8011B4140A94550
:1044D000505C88EA000013F80180F5D140EA082317
:1044E0001BB24FF4077202FB0742944496449CF8B7
:1044F000A8139EF8A72342EA012212B29A420ED0D4
:104500004FF4077303FB0743B4F88C2293F8A91404
:10451000013241F0400183F8A914A4F88C224FF431
:10452000077202FB0742134B92F8A91400297EF48C
:1045300045ADB3F87C1292F9A90301310028A3F824
:104540007C12BEF63BADB3F884120131A3F884129D
:1045500092F8AA23052A00F0F380062A7EF42EADF5
:10456000B3F888220132A3F88822FEF727BD00BFE6
:104570006CB0FF1FE091FF1F6CCC01006CCD0100FF
:10458000B904000043F2CC7341F6FB30EB58794A92
:104590002B5441F6F8361816A85511688DF8443298
:1045A00041F6F93E41F6FA3641F610678DF84102C0
:1045B00018141B1205F80E0041F6F03CAB558DF8AF
:1045C000433241F6F5364B1CEF5D136041F6F43E85
:1045D0000923AF5545F80C3041F6F63741F6F7366A
:1045E000002305F80E3064221E238DF8420205F5E3
:1045F000F050EA55AB55604A604B0160FF26A0F2CF
:104600000B27A0F5017E304617F8011B5C4D414099
:104610007745505C80EA06005E5CF5D140EA0623EF
:104620001BB2C3F30720574E387041F6FD3241F6F6
:1046300008681327AB5406F10C014FF40472684666
:1046400045F8087004F038FA96E80E0006F519707F
:10465000FEF7F5BB474D31682868C7F814020130F2
:10466000F97328604FF0090E0D1608148DF84412E6
:10467000091297F824623D737873B973C7F804E0A0
:104680008DF841528DF8420200258DF843126420C6
:104690001E214FF0FF0E384A384B3D72F9727E7280
:1046A000B87207F109017546103711F8010B344E45
:1046B0006840B942155C8EEA050513F800E0F4D1B4
:1046C000FEF799B99847FEF749BA4FF496419047DB
:1046D000FEF79BBEA847FEF7B9BE2B48A847FEF7DA
:1046E00044BA4FF496419047FEF70CBA26489847D3
:1046F000FEF790BD2448984700287EF47AADFEF777
:104700003ABA4FF496419047FEF732BE8847FEF71B
:1047100064BF4FF496419847FEF73EBFB847FDF798
:104720003BBFB84787E68847FFF748B84FF4964144
:104730009847FEF71DBE4FF496419847FFF71DB806
:10474000B3F886220132A3F88622FEF737BC9847D9
:10475000FEF76FBF41F67260135A01331352FEF732
:10476000C7BC4FF0FF33BCE64FF0FF3EDDE5984796
:10477000FEF735BDEC1000206CCC01006CCD0100C3
:10478000E091FF1FD0ADFF1FCCADFF1FB04BB14973
:104790002DE9F041D3F8404223685A698A4214D186
:1047A0009B6AAD4A934240F0958041F25833E358FA
:1047B0001879C0F34010002854D141F25833E3581F
:1047C000DA78110605D4BDE8F0812046BDE8F04155
:1047D00010471A791206F6D541F21C124FF40775EC
:1047E000A2589E4805FB024595F83820511C85F8D3
:1047F000381021680E6A2A44864292F8391040F037
:104800000C81D971E38A0133E38295F838206B6B10
:104810009B1A002BD7DC95F83930002B00F0E8808C
:1048200023688F4A1B69934240F0078104F086FA9F
:1048300000EB4000000141F2503141F254330122BB
:104840006050E2542368874ADB69934240F0EF806E
:1048500041F258332C22E358DA70172384F83030B1
:10486000BDE8F0812668804A736A41F21C119342C8
:10487000655840F0D58041F25833E358D879C0B23A
:104880004FF4077303FB0543D3F83C219918013219
:1048900081F84001C3F83C21218B01312183D3F8F9
:1048A0004C128A421BDA93F94131002B15DB336934
:1048B0006B4A934240F0B88004F040FA00EB4000AD
:1048C000000141F2503141F2543302226050E2546F
:1048D000BDE8F081204698476DE7042AE7DD33699B
:1048E0005F4A934240F0A68004F028FA00EB4000B3
:1048F000000141F2543241F2503604214FF4077363
:10490000A05103FB0543A15493F8391093F84021BB
:10491000914208D0628C0132628493F8412242F0C5
:10492000200283F841224FF4077101FB05F163185F
:10493000D3F83C71012F29DDB7F1020C03F5A0710A
:1049400068D0FF20DFF82481DFF824E1024601EB84
:104950000C0611F8013B5340B14218F8032082EADB
:1049600000021EF80300F4D142EA002212B24FF412
:10497000077303FB05439C441F449CF8401197F8C0
:104980003F3143EA01231BB293420CD0A28C4FF477
:104990000773013203FB0543A28493F8412242F0DE
:1049A000400283F841224FF4077303FB05F3E2183A
:1049B00092F8411299B9A18A0131A18292F941215B
:1049C000002A0CDAA28B23440132A28393F84231ED
:1049D000052B38D0062B02D1238C013323844FF4CE
:1049E000077303FB0544242384F84032BDE8F081BB
:1049F00023681B4A1B69934222D104F09FF900EB04
:104A00004000000141F2503141F254330322605022
:104A1000E25417E74FF0FF32A9E72046B047F1E62E
:104A20002046984726682BE72046984749E72046C6
:104A3000984712E7204698475BE720469847FAE6F2
:104A400020469847DEE7E38B0133E383C7E700BFE7
:104A5000E091FF1F510A0000A9040000910400002A
:104A600025050000850400009D0400006CCC0100B9
:104A70006CCD0100B04AB14941F62C632DE9F041FB
:104A8000D45823685A698A4214D19B6AAC4A93422B
:104A900040F0958041F25833E3581879C0F3401044
:104AA000002854D141F25833E358DA78110605D47E
:104AB000BDE8F0812046BDE8F04110471A791206A2
:104AC000F6D541F21C124FF40775A2589D4805FB1C
:104AD000024595F83820511C85F8381021680E6A77
:104AE0002A44864292F8391040F00C81D971E38A49
:104AF0000133E38295F838206B6B9B1A002BD7DCCF
:104B000095F83930002B00F0E88023688E4A1B6945
:104B1000934240F0078104F011F900EB40000001DE
:104B200041F2503141F2543301226050E254236883
:104B3000864ADB69934240F0EF8041F258332C22E1
:104B4000E358DA70172384F83030BDE8F081266826
:104B50007F4A736A41F21C119342655840F0D58038
:104B600041F25833E358D879C0B24FF4077303FBCE
:104B70000543D3F83C219918013281F84001C3F86C
:104B80003C21218B01312183D3F84C128A421BDA5C
:104B900093F94131002B15DB33696B4A934240F0A6
:104BA000B88004F0CBF800EB4000000141F2503136
:104BB00041F2543302226050E254BDE8F0812046B5
:104BC00098476DE7042AE7DD33695F4A934240F076
:104BD000A68004F0B3F800EB4000000141F254322B
:104BE00041F2503604214FF40773A05103FB0543F3
:104BF000A15493F8391093F84021914208D0628C67
:104C00000132628493F8412242F0200283F841226B
:104C10004FF4077101FB05F16318D3F83C71012FC4
:104C200029DDB7F1020C03F5A07168D0FF20DFF891
:104C30002481DFF824E1024601EB0C0611F8013B68
:104C40005340B14218F8032082EA00021EF8030024
:104C5000F4D142EA002212B24FF4077303FB05437A
:104C60009C441F449CF8401197F83F3143EA0123CC
:104C70001BB293420CD0A28C4FF40773013203FB9A
:104C80000543A28493F8412242F0400283F8412276
:104C90004FF4077303FB05F3E21892F8411299B938
:104CA000A18A0131A18292F94121002A0CDAA28B5A
:104CB00023440132A28393F84231052B38D0062BCE
:104CC00002D1238C013323844FF4077303FB054483
:104CD000242384F84032BDE8F08123681A4A1B6916
:104CE000934222D104F02AF800EB4000000141F287
:104CF000503141F2543303226050E25417E74FF031
:104D0000FF32A9E72046B047F1E6204698472668DB
:104D10002BE72046984749E72046984712E7204668
:104D200098475BE720469847FAE620469847DEE733
:104D3000E38B0133E383C7E7E091FF1F510A0000D3
:104D4000A90400009104000025050000850400006E
:104D50009D0400006CCC01006CCD010070B5104CBE
:104D6000104A114E114D204630230121FCF74AFC18
:104D700004F5DF5030230E4A02210C30FCF742FCD0
:104D800032460C49002005F0CBFB21462846FCF7B3
:104D900089FE324628460849BDE8704005F0C0BB90
:104DA000E091FF1F48C901002087FF1FB8C9FF1FFE
:104DB00050C9010021050000BD4D000070B500F58F
:104DC000884400F58C4568341835354B0360AC4297
:104DD000064622D0D83D05F1C00001F0E3FD05F103
:104DE000A80001F0DFFD05F1900001F0DBFD05F109
:104DF000780001F0D7FD05F1600001F0D3FD05F169
:104E0000480001F0CFFD05F1240001F0E3FD05F1BC
:104E1000080001F0DFFDAC42DCD106F58445183511
:104E2000A4F5947404F5807001F084F904F1F400A1
:104E300001F080F904F1E80001F07CF904F1DC00F4
:104E400001F078F904F1D00001F074F904F1B40034
:104E500001F0C0FD04F1980001F0D4FD04F17C00E4
:104E600001F0D0FD04F1600001F0CCFD04F144003C
:104E700001F0C8FD04F1280001F0C4FD04F11C009C
:104E800001F056F904F1100001F050F9A542C7D124
:104E90003046044B40F8D03B01F0ECF9304670BD91
:104EA000ACC70100D4C6010070B500F5884400F518
:104EB0008C4568341835384B0360AC42064622D026
:104EC000D83D05F1C00001F06DFD05F1A80001F02D
:104ED00069FD05F1900001F065FD05F1780001F034
:104EE00061FD05F1600001F05DFD05F1480001F094
:104EF00059FD05F1240001F06DFD05F1080001F0F8
:104F000069FDAC42DCD106F584451835A4F59474EE
:104F100004F5807001F00EF904F1F40001F00AF9D3
:104F200004F1E80001F006F904F1DC0001F002F9F7
:104F300004F1D00001F0FEF804F1B40001F04AFDE4
:104F400004F1980001F05EFD04F17C0001F05AFDCF
:104F500004F1600001F056FD04F1440001F052FD3F
:104F600004F1280001F04EFD04F11C0001F0E0F80E
:104F700004F1100001F0DAF8A542C7D13046074B22
:104F800040F8D03B01F076F9304644F2206104F05D
:104F9000A9FF304670BD00BFACC70100D4C60100F8
:104FA0002DE9F04F89B004460426C28883884B4916
:104FB00000920225029601954830012201F0AEF9D7
:104FC000E288A38846490296053292B28DE8240011
:104FD00004F160004FF0FF3201F0A0F9E288A388ED
:104FE000404902960A3292B28DE8240004F178001A
:104FF0004FF0FF3201F092F9A388E288009204F1A9
:10500000900A03330296019550469BB2002236491E
:10501000DFF8E4B001F082F9E288A3880296053255
:1050200004F1A80992B203338DE82400484659469A
:105030009BB2002201F072F9E288A3882B49029604
:105040000A3204F1C00892B203338DE824004046CE
:105050009BB2002201F062F9A2882549E3880291FF
:1050600042F210710125002604F10807039106326F
:1050700010213846019192B2069505950095049647
:105080001C4901F00FFAA288E388DFF870E0CDF840
:105090000CE024341021083292B201912046594686
:1050A0000695059504960296009501F0FBF92946B0
:1050B000504601F0E1F83146484601F0DDF831464E
:1050C000404601F0D9F82946384601F0D5F829467E
:1050D000204609B0BDE8F04F01F0CEB858C9010034
:1050E00060C901006CC901007CC9010090C90100C0
:1050F000F0D8FFFF98C9010084C90100E0930400C3
:105100002DE9F04F00F108080446ADF5117D404649
:1051100000F0DEFF04F124092064484600F0D8FFC7
:10512000606404F1600001F091F8002840F03882DA
:1051300004F1780001F08AF8002840F0DB8104F1E6
:105140004805284601F0FEF8002840F0B98104F136
:10515000900B584601F07AF8002840F06D8104F178
:10516000A803869304F1C0038593869801F06EF836
:1051700000284CD1859801F069F818B90DF5117D1A
:10518000BDE8F08F2368DFF868A3D3F84872DAF837
:105190000050397851B100260136B6B2284601F0E8
:1051A000F1FFB95D0029F7D1DAF80050CA4E20238B
:1051B000002719460137BFB2284601F0E3FFF15D31
:1051C0000029F7D15846879101F056F8879B8698B9
:1051D000194601F051F88598012101F04DF8879B9F
:1051E0004046194601F048F84846012101F044F8CC
:1051F000236841F6CC3141F69C0202245C54995854
:1052000040460DF5117DBDE8F04F01F06BB9236804
:10521000DFF8DCA2D3F84872DAF80050397851B1DF
:1052200000260136B6B2284601F0ACFFB95D002970
:10523000F7D1DAF80050A94E20274FF0000A39467E
:105240000AF1010A1FFA8AFA284601F09BFF16F8B4
:105250000A100029F4D158460F4601F00DF801213B
:10526000869801F009F83946859801F005F89C4BBD
:1052700025681E68C5F8146241F6CC3204212F72ED
:10528000EF726F73A95401211320102269722B460B
:1052900093496860013685204FF0050EAA720A22F4
:1052A00028730E6085F80EE0FF2103F80F2F6426A7
:1052B0008DF82D028DF8392202208DF830222A1D1A
:1052C00087928DF83C128DF83D128DF834728DF86E
:1052D00036728DF838728DF83A728DF83B728DF80F
:1052E0002C728DF82E728DF82FE28DF835628DF8C4
:1052F00037028DA9072201E011F8017F03F8017F31
:105300000132112AF8D105F10903FF20754E764FBD
:105310009A461946024605F11A0E11F8013B534010
:105320007145F25C82EA0002F85CF6D1879B42EAA2
:10533000002212B203F10C00C2F30721EA76082220
:10534000D5F820328890A976C5F81C2201464FF482
:1053500004726846899303F0AFFB899B1846879BCC
:105360000ECBFBF769FE5E4B21201A6885F8100210
:105370000823AE4601216B604FF0060C0023042089
:1053800085F811322B72C5F81C3285F81832C5F831
:105390000C31EB72C5F814226972297385F80AC0C2
:1053A00068730EF80E3F4E4B0A441A605146802037
:1053B00081224FF0FF0C05E011F8012F5340844685
:1053C000F25CF85C8CEA02037145DBB2F4D143EA8B
:1053D00000231BB2C3F3072108222B74E973C5F81D
:1053E0001C228899D5F820624FF40472684603F0B5
:1053F00063FB879B30460ECBFBF71EFE0026212366
:1054000085F81032404685F811622E7285F81862D0
:10541000C5F81C626E60C5F80C61012100F02CFF1C
:105420003146484600F028FF226841F6900348467E
:10543000D15801F057F89DE62368DFF8B4A0D3F8FF
:105440004862DAF80070317851B100250135ADB20B
:10545000384601F097FE715D0029F7D1DAF8007047
:10546000224E4FF0200A002551460135ADB2384694
:1054700001F088FE715D0029F7D18A4604F1A80386
:10548000012158461D46869300F0F6FE04F1C00344
:105490001E4628465146859300F0EEFE30465146A2
:1054A00000F0EAFE0121404600F0E6FE01214846F8
:1054B00000F0E2FE216841F6CC3201F802A054E689
:1054C000284600F0B5FE236D002B00F0BF80236856
:1054D000012283F854223AE6C4C90100B4C901008C
:1054E000EC1000206CCC01006CCD0100A4C90100BF
:1054F0004087FF1F84482568036895F82422C5F873
:105500001432591C4FF0080A00234FF0020E0160BC
:105510004FF0060CFF20C5F804A085F80EE02B72B2
:10552000EB722B736B73794E794F85F80AC06A72F0
:1055300005F1040A05F1090105F10E0E034601E02B
:1055400011F8012F5A408E45B35C83EA0003B85C22
:10555000F6D143EA00231BB2C3F307210822D5F892
:1055600020622B74E973C5F81C220AF10C014FF478
:105570000472684603F0A0FA9AE80E003046FBF782
:105580005BFD0023212285F810222B7285F8113251
:1055900085F81832C5F81C326B60C5F80C31CEE5C1
:1055A00059482568036895F82422C5F81432591C17
:1055B0004FF0040E00234FF0080A01604FF0060C74
:1055C000FF20C5F804A085F80EE005EB0E0A2B724B
:1055D000EB722B736B734D4E4D4F85F80AC06A7298
:1055E00005F1090105F10E0E034601E011F8012F46
:1055F0005A408E45B35C83EA0003B85CF6D143EAB7
:1056000000231BB2C3F307210822D5F820622B74B4
:10561000E973C5F81C220AF10C014FF404726846C4
:1056200003F04AFA9AE80E003046FBF705FD002326
:10563000212285F810222B7285F8113285F8183254
:10564000C5F81C326B60C5F80C3171E5256895F81A
:105650003C2285F85432362A45D0D5F840022D49EF
:105660000368DB68322600228B4285F83C62C5F86D
:10567000502243D141F258339C26C1580A70C25877
:105680005670C35808229A72D5F840022B6841F22E
:105690003C31DE684158204B4FF4FA6241F24C37FE
:1056A00002FB01F203FB01F3C25100F59A511B4AC0
:1056B0000B6096424FF0010385F85C321BD1036802
:1056C000174A1B6993421DD103F038FB00EB4000E1
:1056D00000010123C5F8600285F85C322B6828467A
:1056E0009B68984733E595F8241200931A4628469C
:1056F000FBF7D2FEB1E72846B047EFE74FF49641FB
:105700009847C1E79847E4E7EC1000206CCC010013
:105710006CCD0100B9040000A0860100F90500006D
:105720002505000030B5036841F6441193F83C228A
:105730005D5A362A4FF0FF3383B00446C0F8243157
:105740000BD0A923019300931A460121103000F0D9
:105750002DFFC4F8245103B030BDC8225DB11F2312
:1057600001920093FF220121103000F01FFFC4F8C6
:10577000245103B030BD6423019200936922FF23BA
:105780000121103000F012FFC4F8245103B030BDE5
:1057900070B5114B82B01B680193019DD0F8143194
:1057A000EB1A632B16D9066841F6E4320446B25A66
:1057B000B0F82001A4F82021121A92B24FF47A71A5
:1057C00001FB02F104F19800B1FBF3F100F0B0FF2E
:1057D000C4F8145102B070BDF01000202DE9F04F54
:1057E000044691B001254FF01508022600F1100380
:1057F00018466289A389616802958DE84001089086
:1058000000F0AAFE6289CA49A389DFF874E3029115
:105810004FF0C00C32440A2104F11C06CDF804807C
:1058200092B23046CDF810C0CDF80CE00091C149DD
:10583000C14F00F0B7FF6289DFF848E3A389009504
:1058400004F1440140F2144C4FF0FF394FF0040BC7
:1058500008460C324FF47A71CDF814C092B2CDF8EC
:1058600010E00391CDF80890B249CDF804B009904A
:1058700000F044FFA3896289B049039504F1280E22
:1058800070465B444FF4417E0C32CDF808908DE8B1
:1058900020089BB292B2CDF814E00491A5490A9079
:1058A00000F02CFFA3896289A549039504F1600EDD
:1058B00040F2044A08330C327046CDF808908DE867
:1058C00020089BB292B2CDF814A004919949CDF86A
:1058D0002CE000F013FFA38962899A49CDF814A047
:1058E00004F17C0E0C330C3270460395CDF8089011
:1058F0008DE820089BB292B204918E49CDF830E039
:1059000000F0FCFEA38962898F49049104F1980E8E
:10591000052110330C327046CDF814A00395CDF854
:10592000089000959BB292B201918249CDF834E083
:1059300000F0E4FE6289A389844905954FF0000ECA
:1059400004F1B40ACDF818E0CDF810E00D324FF4B0
:10595000FA4ECDF80CE04FF0C7098DE8200192B265
:105960004FF0FF0850460291794900F09BFD0998DD
:10597000CDF80480CDF80090C323BE22032100F0AF
:10598000EDFE0A98CDF80480CDF80090C323BE2226
:10599000032100F0E3FE0B98CDF80480CDF80090D1
:1059A000C323BE22032100F0D9FE0C98CDF8048059
:1059B000CDF80090C323BE22032100F0CFFE0D9846
:1059C000CDF80480CDF80090C323BE22032100F05F
:1059D000C5FEA92329461A4608980193009300F0B2
:1059E000E5FD6925CDF80480CDF800900A214FF03F
:1059F00045095046C323BE2200F08AFD4B464A4665
:105A0000594650460195CDF8009000F081FD4B4677
:105A10004A460195CDF800900521504600F078FDEA
:105A20001F23C8214246019100935046092100F0EE
:105A30006FFD484B1D6842F2E00242F2E40305F5B7
:105A40000359C846AA58EB5809F1200908F124085F
:105A50009A422CD02B681B68BB4240F0FF8005F5B2
:105A6000035A13460AF11C0ADAF800201A402A44A5
:105A7000013392F8D800C9F8003004F0BBF8D9F827
:105A80000030D8F800209342EED105F581417C31F9
:105A900008780028DCD005F584404FF0000C4FF06A
:105AA000010E9A4281F800C080F810E0D2D104F1D2
:105AB000D0091925284B01954846009331461D4BC6
:105AC000264A00F0EBFE04F1DC0B254B019558460D
:105AD00000933146174B234A00F0E0FE04F1E8073B
