:1000000000800020BD010000E5AA00009DAA0000BC
:100010009DAA00009DAA00009DAA00009DAA0000C4
:100020009DAA00009DAA00009DAA0000E5AA00006C
:10003000E5AA00009DAA000075BB000079BB000086
:10004000E5AA0000E5AA0000E5AA0000E5AA000074
:10005000E5AA0000E5AA0000E5AA0000E5AA000064
:10006000E5AA0000E5AA0000E5AA0000E5AA000054
:10007000E5AA0000E5AA0000E5AA0000E5AA000044
:10008000E5AA0000E5AA0000E5AA0000E5AA000034
:10009000E5AA0000E5AA0000E5AA0000E5AA000024
:1000A000E5AA0000E5AA0000E5AA0000E5AA000014
:1000B000E5AA0000E5AA0000E5AA0000E5AA000004
:1000C000E5AA0000E5AA0000E5AA0000E5AA0000F4
:1000D000E5AA0000E5AA0000E5AA0000E5AA0000E4
:1000E000E5AA0000E5AA0000E5AA0000E5AA0000D4
:1000F000E5AA0000E5AA0000E5AA0000814A000088
:10010000E5AA0000694D0000E5AA0000E5AA00008C
:10011000E5AA0000E5AA0000E5AA0000E5AA0000A3
:10012000E5AA0000E5AA0000E5AA0000E5AA000093
:10013000E5AA0000E5AA0000E5AA0000E5AA000083
:10014000E5AA0000E5AA0000E5AA0000E5AA000073
:10015000E5AA0000E5AA0000E5AA0000E5AA000063
:10016000E5AA0000A9AE0000E5AA0000E5AA00008B
:10017000E5AA0000E5AA0000E5AA0000E5AA000043
:10018000E5AA0000E5AA0000E5AA0000E5AA000033
:10019000E5AA0000E5AA0000E5AA0000E5AA000023
:1001A000E5AA0000E5AA0000E5AA0000E5AA000013
:1001B000E5AA0000E5AA0000E5AA0000564B4CF2B3
:1001C000205210B51A804DF628121A8000BF00BFC9
:1001D0000AF08CFC514B4FF010621A60504A9A6042
:1001E000504ADA60504A136813F4807304D14F49BF
:1001F0000B604FF4A85313604D4B1A78110703D5C9
:100200001A7842F008021A704A4B4B492A221A7097
:100210004A4A4B4B8B4204D252F8040F43F8040B6A
:10022000F8E7484B484900228B4202D243F8042B9E
:10023000FAE74649464A002352F8230041F82300D2
:1002400001336F2BF8D1434B434A802103F8011B44
:100250009342FBD1414B3D4A1A60414B8A221A70AE
:10026000A3F5805324225A70A0221A709A7992071B
:10027000FCD59A79D406FCD43A4A937903F00C035E
:10028000082B384BF9D103221A7140225A719A79FE
:100290009006FCD5334A9179324B4906FBD5324A58
:1002A000324911600221516020221A709A7902F0BD
:1002B0000C020C2AFAD12E4B2E4A1A602E4B4BF60A
:1002C0007F321A6000225A60072243F8042C2B4A1E
:1002D000C3F80C2D62B60AF0BFFC144B1B68DA079A
:1002E00005D527480AF036FC264B274A1A60274BCB
:1002F0001B785B0609D5234C234B22689A4204D114
:100300001F480AF027FC0023236016F01DF80AF0AE
:10031000F3FB0BF0F9FCFEE70E20054030800440B3
:10032000823F04000100002B10D0034014D0034092
:1003300002D0074000E00740C091FF1FAC1102004F
:100340002087FF1FC091FF1F901600200082FF1F13
:100350000000000000E400E05FE400E008ED00E0E1
:100360000050064000400640448004400000131145
:1003700004800440C010050014E000E000002020CC
:100380005D4775621CE00340A5C3945A00F0074026
:10039000FFFFFFFFFFFFFFFFFFFFFFFFFFFFFFFF6D
:1003A000FFFFFFFFFFFFFFFFFFFFFFFFFFFFFFFF5D
:1003B000FFFFFFFFFFFFFFFFFFFFFFFFFFFFFFFF4D
:1003C000FFFFFFFFFFFFFFFFFFFFFFFFFFFFFFFF3D
:1003D000FFFFFFFFFFFFFFFFFFFFFFFFFFFFFFFF2D
:1003E000FFFFFFFFFFFFFFFFFFFFFFFFFFFFFFFF1D
:1003F000FFFFFFFFFFFFFFFFFFFFFFFFFFFFFFFF0D
:10040000FFFFFFFFFFFFFFFFFFFFFFFFDEF9FFFF23
:1004100010B5054C237833B9044B13B10448AFF33E
:1004200000800123237010BDC091FF1F0000000059
:10043000EC0D0200084B10B51BB108490848AFF39A
:1004400000800848036803B910BD074B002BFBD0A0
:10045000BDE81040184700BF00000000C491FF1F16
:10046000EC0D0200C091FF1F00000000704700BFAC
:10047000002070470020704741F25833EC22C358E7
:10048000DA70704741F258332C22C358DA70704743
:1004900041F25833C358D971704700BF41F2583305
:1004A000C358D879704700BF41F25833C358187900
:1004B000C0F34010704700BF41F258324B0810B4EF
:1004C00003F1B763845803F55843B3FBF1F1C1F36B
:1004D000443323708358C1F347145C70835801F090
:1004E0001F01997210BC7047024641F688530021E3
:1004F000C05CD154704700BF00F5AF5300F5EB521C
:1005000002331A32002123F8021F9342FBD17047B5
:1005100044F210230022C254704700BF704700BF4E
:10052000704700BF08B50AF027FB00EB4000000150
:1005300008BD00BF08B50AF01FFB002108BD00BFC1
:1005400010B541F2783104460BF0EAFB204610BDAD
:1005500010B584B0022268460BF0BCFB054C009B32
:100560006846002B18BF1C460BF02AFB204604B03F
:1005700010BD00BFB6EC010010B584B0114668464E
:100580000A220BF093FB054C009B6846002B18BF1A
:100590001C460BF015FB204604B010BDB6EC010064
:1005A00010B584B00A2268460BF06CFB054C009B2A
:1005B0006846002B18BF1C460BF002FB204604B017
:1005C00010BD00BFB6EC010010B584B00A22684629
:1005D0000BF044FB054C009B6846002B18BF1C46E3
:1005E0000BF0EEFA204604B010BD00BFB6EC0100DF
:1005F00010B5044605E00BF031F9C1B2204607F012
:100600004FFC0BF067F90028F5D110BD10B5044B75
:10061000044640F8D03B06F001FA204610BD00BF6A
:1006200014E5010010B5064B044640F8D03B06F037
:10063000F5F9204644F218210BF072FB204610BD5C
:1006400014E5010010B50446D0F840020B4A0368D7
:100650001B6993420AD10AF08FFA00EB40000001B7
:100660000123C4F8600284F85C3210BD984701236E
:10067000C4F8600284F85C3210BD00BF250500009C
:1006800038B590F85C4214B90024204638BD0546C0
:10069000D0F840020A4A03681B6993420DD10AF060
:1006A0006BFA00EB40000001D5F86022D5F8643207
:1006B000801A9842E8D3204638BD9847F4E700BF37
:1006C00025050000F8B542F2E40242F2E003825848
:1006D000C3589342054613D000F503573C463E46A7
:1006E00020341C3724363A681A402A44013392F8E1
:1006F000D80023600BF09CF9236832689342F2D152
:1007000044F2FC03EA5C32B144F2102101200022E1
:100710006854EA54F8BDF8BD10B503680C4ADB69AB
:10072000934284B00ED10A2268460BF097FA094C26
:10073000009B6846002B18BF1C460BF041FA204670
:1007400004B010BD98470446204604B010BD00BF59
:10075000C9050000B6EC010010B503680C4A1B6A1D
:10076000934284B00ED10A2268460BF08BFA094CF2
:10077000009B6846002B18BF1C460BF021FA204650
:1007800004B010BD98470446204604B010BD00BF19
:10079000A1050000B6EC0100F8B5594D594ED5F849
:1007A00000C041F2683300F59B5EC358DEF800E0FC
:1007B00041F2583241F264374CEA0303C7592B60C7
:1007C0008358DFF848C140F21335CEF800504FF49B
:1007D000517E1225C7F800E09D70835800251D74D6
:1007E00083582C25DD70835841F25C370E259D71AE
:1007F000C35D03F1604303F5644340251D70C55D8F
:100800006B119B0003F1604303F561434FF0010E50
:1008100005F01F050EFA05F51D600568C35DEF685C
:1008200003F01F055B110EFA05F56745044646F80F
:1008300023505FD10B4621FA0EF1805801F1B761C8
:1008400001F55841B1FBF3F1C1F344330370A358F0
:10085000C1F347105870A35801F01F01997200218D
:100860000A4623464FF4077E21270EFB0140013143
:10087000082980F840724FF0210680F841224FF09D
:100880000005C0F84C2283F8382083F848225A63C8
:10089000C3F83C2103F50773E7D104F589531A49DE
:1008A00083F80C621D7183F80D5283F8145222688C
:1008B0001269C3F8185241F2141741F2181641F2A6
:1008C0001C101D60C3F808518A424FF01403E55113
:1008D000A551255084F830300ED10AF04DF900EBC7
:1008E0004000000141F2503141F254330422605083
:1008F000E254F8BDB847B2E720469047F2E700BFA0
:100900003480044080E200E025050000B9040000C6
:100910000368AB4A9B6A93422DE9F041044640F0DC
:10092000918041F25833C3581879C0F34010002821
:1009300050D141F25833E358DA78110601D4BDE8BA
:10094000F0811A791206FAD541F21C124FF407759C
:10095000A2589C4805FB024595F83820511C85F8A3
:10096000381021680E6A2A44864292F8391040F005
:10097000F780D971E38A0133E38295F838206B6BF5
:100980009B1A002BDBDC95F83930002B40F0EB8014
:1009900023688D4A1B69934240F0FB800AF0ECF813
:1009A00000EB4000000141F2503141F25433032288
:1009B0006050E2542368854ADB69934240F0F2803C
:1009C00041F258332C22E358DA70172384F8303080
:1009D000BDE8F08126687E4A736A41F21C11934299
:1009E000655840F0D28041F25833E358D879C0B20C
:1009F0004FF4077303FB0543D3F83C2199180132E8
:100A000081F84001C3F83C21218B01312183D3F8C7
:100A10004C128A421ADA93F94131002B14DB336904
:100A2000694A934240F0BB800AF0A6F800EB400010
:100A3000000141F2503141F2543302226050E2543D
:100A4000BDE8F081984772E7042AE8DD33695E4A21
:100A5000934240F0AA800AF08FF800EB40000001BA
:100A600041F2543241F2503604214FF40773A05141
:100A700003FB0543A15493F8391093F840219142A8
:100A800008D0628C0132628493F8412242F0200245
:100A900083F841224FF4077101FB05F16318D3F885
:100AA0003C71012F2ADDB7F1020C03F5A07100F0B3
:100AB0008380FF20DFF81C81DFF81CE1024601EB98
:100AC0000C0611F8013B5340B14218F8032082EAAA
:100AD00000021EF80300F4D142EA002212B24FF4E1
:100AE000077303FB05439C441F449CF8401197F88F
:100AF0003F3143EA01231BB293420CD0A28C4FF446
:100B00000773013203FB0543A28493F8412242F0AC
:100B1000400283F841224FF4077303FB05F3E21808
:100B200092F8411299B9A18A0131A18292F9412129
:100B3000002A0CDAA28B23440132A28393F84231BB
:100B4000052B35D0062B02D1238C013323844FF49F
:100B5000077303FB0544242384F84032BDE8F08189
:100B60002046B04706E72368174A1B69934213D112
:100B70000AF002F800EB4000000141F2503141F26E
:100B8000543301226050E25414E720469847266807
:100B90002EE72046984706E720469847EDE720468F
:100BA000984746E7204698470FE72046984757E77B
:100BB000E38B0133E383CAE74FF0FF328FE700BFD7
:100BC000A904000091040000250500008504000030
:100BD0009D040000B4EA0100B4EB01002DE9F843E4
:100BE000044688460221174607F090F920467221F4
:100BF00007F08CF9DFF87C915525002608E00136D6
:100C0000B6B22946204607F081F919F806504DB1D1
:100C1000022D4FF01001204601D08D42EFD107F098
:100C200075F9ECE71921204607F070F903212046F9
:100C300007F06CF90221204607F068F902212046EE
:100C400007F064F97221204607F060F998F8006017
:100C50004EB912E00135ADB23146204607F056F9E3
:100C600018F805604EB1022E4FF01001204601D059
:100C70008E42EFD107F04AF9ECE71921204607F040
:100C800045F90321204607F041F90221204607F0EB
:100C90003DF90221204607F039F97221204607F07C
:100CA00035F93D789DB1002607E00136B6B22946F8
:100CB000204607F02BF9BD5D4DB1022D4FF010011C
:100CC000204601D08D42F0D107F020F9EDE719213F
:100CD000204607F01BF90321204607F017F90221EF
:100CE000204607F013F90221204607F00FF9722180
:100CF000204607F00BF90D21204607F007F91921CE
:100D0000204607F003F90321204607F0FFF80221EF
:100D1000204607F0FBF80221204607F0F7F8722181
:100D2000204607F0F3F855260025114F07E001355E
:100D3000ADB23146204607F0E9F87E5D4EB1022E95
:100D40004FF01001204601D08E42F0D107F0DEF8BE
:100D5000EDE72046192107F0D9F82046032107F0D6
:100D6000D5F820460221BDE8F84307F0CFB800BF10
:100D70003CE6010028E601002DE9F0438BB00DF1BF
:100D80002808152548F8285D894600224146044672
:100D900006AF04A804970BF0E7FA009B7749069387
:100DA0002A46049009F0A6FD009B049A05930026AC
:100DB000D6544846724916F0C7FA80B14846714980
:100DC00016F0C2FA0546002800F09D800498B8424B
:100DD00001D00AF0A3FF30460BB0BDE8F08302213A
:100DE0000546204607F092F87221204607F08EF85B
:100DF000DFF8A091532608E00135ADB23146204618
:100E000007F084F819F805604EB1022E4FF010017A
:100E1000204601D08E42EFD107F078F8ECE7192197
:100E2000204607F073F80321204607F06FF80221EF
:100E3000204607F06BF82368534A5B68934240F002
:100E4000938009F099FE2268504B516A994240F014
:100E50008F8001460A2240460AF028FF009B4C4A38
:100E60004046002B14BF984690460AF0A9FE022186
:100E7000204607F04BF87221204607F047F898F813
:100E8000005000264DB912E00136B6B22946204680
:100E900007F03CF818F806504DB1022D4FF0100144
:100EA000204601D08D42EFD107F030F8ECE7192150
:100EB000204607F02BF80321204607F027F80221EF
:100EC000204607F023F80221204607F01FF8722180
:100ED000204607F01BF820260025DFF8BC8008E03C
:100EE0000135ADB23146204607F010F818F805601C
:100EF000B6B1022E4FF01001204601D08E42EFD144
:100F000007F004F8ECE7DDF810800221204606F037
:100F1000FDFF7221204606F0F9FF98F80060CEB977
:100F20001921204606F0F2FF0321204606F0EEFFCD
:100F30002046022106F0EAFF012647E706F0E6FF19
:100F40000135ADB23146204606F0E0FF18F80560E5
:100F5000002EE5D0022E4FF010012046EED08E423A
:100F6000EED106F0D3FFEBE7204698470E466AE73E
:100F70000246334620468847804678E774E60100FB
:100F80008CE60100B0E6010035050000790500009F
:100F9000B6EC010098E60100A8E601002DE9F04F4B
:100FA00089B04FF000080D46074604AE0846B74921
:100FB00002969146CDF80C808DF8108016F0C4F999
:100FC000D0B1B349284616F0BFF9044600284BD0EB
:100FD000B049284616F0B8F90446002800F0C7804A
:100FE0002846AD4916F0B0F90546002800F0F98012
:100FF000404609B0BDE8F08FA84BDFF8A4821F6817
:1010000002210446384606F081FF3846722106F078
:101010007DFF622508E00134A4B22946384606F077
:1010200075FF18F804504DB1022D4FF010013846ED
:1010300001D08D42EFD106F069FFECE71921384667
:1010400006F064FF0321384606F060FF38460221AF
:1010500006F05CFF0298B04200F015810AF05EFED7
:10106000012009B0BDE8F08FDFF830A2DFF834824C
:10107000DAF800500221284606F048FF284672217F
:1010800006F044FF4FF00D0B0AE00134A4B25946BC
:10109000284606F03BFF18F804B0BBF1000F0AD059
:1010A000BBF1020F4FF01001284601D08B45ECD167
:1010B00006F02CFFE9E72846192106F027FF08ACC7
:1010C0002846032106F022FF2846022106F01EFFD3
:1010D00044F81CBD49462246DAF8000006F0C6F87E
:1010E00000F1FF3822460FFA88F8D82404FB08F4F0
:1010F0004946DAF8000006F0B9F804F588453A19CF
:1011000044F2A84370353D44D0500146284605F0CE
:10111000BDFD44F2142241F69C53B95804F58940B0
:1011200041F67C5208FB03187830022308F802309D
:101130003844594605F074FC04F58A4010303844B0
:10114000594605F06DFC04F58A40283038440121E9
:1011500005F066FC5946284605F062FC381900F592
:1011600089400C30012105F05BFC029873E74B4B82
:10117000DFF83491D3F800800221404606F0C6FE25
:101180004046722106F0C2FE0D2508E00134A4B2EB
:101190002946404606F0BAFE19F804504DB1022D1A
:1011A0004FF01001404601D08D42EFD106F0AEFE67
:1011B000ECE71921404606F0A9FE0321404606F05F
:1011C000A5FE4046022106F0A1FE44F2142341F69A
:1011D0007C52FB5802989D5403F5EC531C339D54EC
:1011E00039E7DFF8B8A0DFF8C480DAF80070022130
:1011F000384606F08BFE3846722106F087FE0D2435
:1012000008E00135ADB22146384606F07FFE18F8F9
:1012100005404CB1022C4FF01001384601D08C42F1
:10122000EFD106F073FEECE73846192106F06EFEAA
:101230003846032106F06AFE3846022106F066FEB3
:10124000DAF80070DFF868803846022106F05EFEAA
:101250003846722106F05AFE0D250AE00134A4B288
:101260002946384606F052FE18F80450002D3FF487
:10127000E5AE022D4FF01001384601D08D42EDD180
:1012800006F044FEEAE70120B3E600BF98E801005B
:10129000BCE60100A8040200B0E601004087FF1F81
:1012A000B8E60100C0E60100CCE60100D4E601008A
:1012B000FCE6010084B02DE9F041ADF5087D8FAC6E
:1012C0004FF4077684E80E000546214601A8324611
:1012D00009F010FB41F2141741F21813EC59EB58C6
:1012E000E31A03F00703072B1AD006FB0458002368
:1012F000212088F8400288F8483288F84132C8F83E
:101300003C31C8F84C3201A9324608F134000134AE
:1013100009F0F0FA04F00704222388F84032EC5177
:1013200001200DF5087DBDE8F04104B0704700BF15
:101330002DE9F047DFF86893DFF868E3D9F800108B
:10134000D64E0446082300224FF0030C90271125A7
:10135000481C04F109086360012384F80AC027735C
:10136000A573C9F80000227262736372E372ADF56F
:10137000047DC4F814124046251D04F10E074FF0F9
:10138000800C8122FF2307E010F8011F59406346BB
:101390001EF8012016F801C053408742DBB2F3D19A
:1013A00043EA0C231BB2C3F30721D4F820A2237411
:1013B000272205F10C06E173C4F81C2231464FF4D4
:1013C0000472684609F096FA95E80E005046FFF759
:1013D00071FFD9F80030C4F814325A1C4FF0210EB6
:1013E0000023082084F810E201214FF0030EC9F811
:1013F0000020B02284F811322372C4F81C3284F821
:101400001832C4F80C3163736060A07384F80AE08A
:101410002273DFF890A2DFF884C26172E172404665
:101420004FF0800E8122FF2307E010F8011F594082
:1014300073461AF801201CF801E053408742DBB2E2
:10144000F3D143EA0E231BB2C3F30721D4F820A241
:1014500023741522E173C4F81C2231464FF4047240
:10146000684609F047FA95E80E005046FFF722FF5C
:10147000D9F80030C4F8143221215A1C84F8101213
:1014800000234FF0080E01202173C9F8002003212A
:10149000382284F811322372C4F81C3284F81832CE
:1014A000C4F80C31E3726373C4F804E06072A27391
:1014B000DFF8F0A1DFF8E4C1A17240464FF0800EE2
:1014C0008122FF2307E010F8011F594073461AF8E4
:1014D00001201CF801E053408742DBB2F3D143EA1C
:1014E0000E231BB2C3F30721D4F820A22374752264
:1014F000E173C4F81C2231464FF40472684609F0C7
:10150000F9F995E80E005046FFF7D4FED9F80030FF
:10151000C4F814325A1C2121002384F810124FF011
:10152000080E012084F811320321C9F8002023722B
:101530006022C4F81C3284F81832C4F80C31E3720B
:1015400063730B23C4F804E060722273A373DFF8A3
:1015500054A1DFF848C1A17240464FF0800E8122AD
:10156000FF2307E010F8011F594073461AF80120C5
:101570001CF801E053408742DBB2F3D143EA0E236B
:101580001BB2C3F30721D4F820A223741B22E173FA
:10159000C4F81C2231464FF40472684609F0AAF9D7
:1015A00095E80E005046FFF785FED9F80030C4F8E4
:1015B00014325A1C2120002384F8100208214FF015
:1015C000010E0320C9F80020702284F81132237222
:1015D000C4F81C3284F81832C4F80C31E372637317
:1015E00084F809E0A0722273DFF8B8A0DFF8ACC07D
:1015F0006160A17340464FF0800E8122FF2307E017
:1016000010F8011F594073461AF801201CF801E038
:101610005340B842DBB2F3D143EA0E231BB2C3F30B
:101620000721D4F820A223741522E173C4F81C22E8
:1016300031464FF40472684609F05CF995E80E00F3
:101640005046FFF737FED9F80030C4F814325A1C60
:101650002121002384F81012012084F811324FF068
:10166000080AC9F80020032110222372C4F81C3292
:1016700084F81832C4F80C31E3726373802360720B
:1016800023731846A273DFF81CC0DFF810E0C4F81B
:1016900004A0A1728122FF230EE000BFB4EB010081
:1016A0004C140020B4EA010018F8011F5940034609
:1016B0001CF801201EF801005340B845DBB2F3D1FD
:1016C00043EA00231BB2C3F30721D4F8207223742A
:1016D0002522E173C4F81C2231464FF40472684697
:1016E00009F008F995E80E003846FFF7E3FD0023FE
:1016F000212284F81022237284F8113284F81832DF
:10170000C4F81C326360C4F80C310DF5047DBDE8EB
:10171000F08700BF2DE9F0430026ADF2646D154659
:1017200089464FF48072314604460DF111001F4680
:10173000BDF880868DF8106015F0E8FA31464FF458
:10174000807246A8459615F0E1FA4A488DF8206265
:10175000D0F800E08DF80560694221233D0E3A0C77
:101760008DF81832C9B23B0A4FEA282C8DF819625D
:101770008DF8097041260C278DF806500EF10105F1
:101780008DF807208DF8083005608DF811908DF8E0
:1017900004108DF80B808DF80AC001AA03978DF80C
:1017A0001260CDF81CE20DF11200022301E012F8E4
:1017B000011F00F8011F01330A2BF8D1FF202E4F23
:1017C0002E4E0DF1110102460DF11B0511F8013BE2
:1017D0005340A942FA5C82EA0002F05CF6D142EA88
:1017E00000231BB2C3F307214FF407768DF81C309A
:1017F0000C2332468DF81B108AA80DEB0301D4F898
:101800004052899309F076F88AA932460DF2444095
:1018100009F070F841F2141741F2181355F80780D7
:10182000EB58C3EB080303F00703072B1CD006FBA0
:1018300008540023212084F84002324684F84132C3
:1018400084F84832C4F83C31C4F84C320DF24441BB
:1018500004F1340009F04EF808F1010303F0070326
:10186000222284F84022EB5101200DF2646DBDE884
:10187000F08300BF4C140020B4EA0100B4EB010077
:101880002DE9F04F83B005460026884600911746A3
:101890004660067231464FF4807209309B4615F05F
:1018A00035FA31464FF48072C5F80C6105F5887041
:1018B00015F02CFA4FF0FF310122C5F8141285F80B
:1018C00024220F210522E34BC5F82812C5F82C224B
:1018D00050214FF4FA5203FB0BF3DF4CDF48A5F81D
:1018E0003412C5F83822322105F51A724FF0210959
:1018F00085F81092C5F83042C5F8643285F8116257
:10190000286085F83C12C5F82022C5F8402285F8E9
:101910001862C5F844B2C5F84872C5F8506285F837
:101920005462C5F8586285F85C62C5F86C8231462D
:1019300005F51C70282215F0E9F905F59B5A1423CA
:1019400085F898320AF11C0A05F5277400272660ED
:10195000267139464FF48072601D15F0D7F94FF0AB
:10196000FF38C4F8086104F5867039464FF4807278
:1019700015F0CCF904F5077404F8109C04F8086C11
:1019800004F80F6C44F80C8C54454FF02103DDD162
:1019900005F59C54264641F27C30083441F28431EE
:1019A00041F288322F503760601D6F50AF5039467A
:1019B0004FF480722771019315F0A8F94FF48072EB
:1019C0003946C4F8087104F5867015F09FF9019B3B
:1019D00084F80C32BE46C4F8108284F80D7284F884
:1019E000147238462A4629464FF4077909FB0E57E8
:1019F0000EF1010EBEF1080F87F8A8344FF0210850
:101A000087F8A9044FF0000CC7F8B40401F507717A
:101A100081F8840081F89402C1F88000C1F888013F
:101A2000E4D18F4F84F80C8241F2AC5041F2A85EB1
:101A30004FF47A5101FB0BF107FB0BF784F80DC251
:101A40004FF4FA63C4F818C245F80E70295041F2F9
:101A5000B05041F2B45103FB0BF32B506B5041F2E9
:101A6000A45041F2BC517F4B45F800B005F801C0CD
:101A7000C5F86832009B012B00F02381022B00F097
:101A8000FD80002B00F0C38041F2C85E41F2CC51D2
:101A900041F2D05305F5AE5055F80E80EB5855F88D
:101AA00001E00168DFF8C491DFF8C4C1D9F800A0F3
:101AB0004AEA0303C9F8003040F2133A4FF451796F
:101AC0001223C8F800A0CEF800908B7003680021A4
:101AD000197403684FF02C0E83F803E0036841F299
:101AE000C4584FF00E0E83F806E015F8083003F1E5
:101AF000604303F564434FF0400E83F800E015F8AF
:101B000008E0D0F800904FEA6E139B0003F16043A9
:101B100003F561434FF0010A0EF01F0E0AFA0EFEA4
:101B2000C3F800E015F8083003F01F0E5B110AFA45
:101B30000EFA4CF823A089F8001003684FF09C0EB1
:101B400083F801E00368082098724FF407790B4688
:101B50004FF0210C09FB01500131082980F8A8C47D
:101B60004FF0210E80F8A9344FF00008C0F8B434CB
:101B700002F5077282F8843082F89432C2F880301D
:101B8000C2F88831E6D141F2883341F27C3141F22A
:101B9000843284F80CE284F8048084F80D8284F89E
:101BA0001482C4F8188245F803801423C4F808810D
:101BB00045F80180C6F8008045F8028085F8983223
:101BC00008F0DAFF41F2B85100EB400005F5AF53E1
:101BD00041F2BC520001685041F67C54042141F6A8
:101BE0008450A954C3F800B041F6885141F694528C
:101BF00041F6985305F804802F50284605F80180D7
:101C000045F8028045F8038003B0BDE8F08F41F24B
:101C1000C45305F5AE5041F2C55C4FF02D09124991
:101C2000016005F8039041F2C8534FF02E0905F802
:101C30000C90DFF8408045F8038041F2CC5941F226
:101C4000D05CDFF834E045F809E04FF4806345F8F4
:101C50000C3027E7B0710B00688909008CE50100A2
:101C6000A086010058E5010000A006403480044031
:101C700080E200E018C004401CC0044041F2C45C93
:101C800005F5AE5041F2C55E4FF031081E490160C6
:101C900041F2C85305F80C804FF0320805F80E8069
:101CA00041F2CC5941F2D05CDFF8648045F8038002
:101CB000DFF860E045F809E04FF4805345F80C3058
:101CC000F0E641F2C45305F5AE5041F2C55C4FF069
:101CD0002F090E49016005F8039041F2C8534FF0F7
:101CE000300905F80C90DFF8308045F8038041F2A8
:101CF000CC5941F2D05CDFF824E045F809E04FF41C
:101D0000006345F80C30CDE600C0064000B0064048
:101D100008C004400CC004400CB0044010B00440A3
:101D20002DE9F04FDA4B0360054600274FF40058C9
:101D300085B0C0F8CC70D0300C4604F06DFE424641
:101D40003946C5F8D47005F1D80014F0DFFF05F569
:101D5000035642F2E40342F2D80042F2DC0142F2BE
:101D6000E002283641F6FF7945F8008045F80190F9
:101D70003046AF5039464246EF5014F0C7FF06EBED
:101D8000080042F2080CC0F8008042F2040005F599
:101D9000824346F8009042F20C0046F80C7037502F
:101DA00044F2F80C44F2FC0044F2041845F80C70BC
:101DB000B84A2F5444F208101A6044F20C1C45F83B
:101DC0000820B54A2A504FF47A7225F80C2044F2C4
:101DD000141044F2241C44F228122F5044F22C1800
:101DE0009F61DF6144F22E1045F80C70DFF8CCE201
:101DF000AF5044F2301C44F2FA121E4644F2FC1377
:101E000025F80870DEF800102F5225F80C7044F207
:101E1000101CAF5205F58440EF524FF001084CF210
:101E200050320023C0E9022305F80C80002900F09D
:101E3000498144F210224FF0010A984B05F802A0A4
:101E400097482B6009F0A0FE05F5844744F214285A
:101E500044F2182218379349934B45F80840AC5088
:101E60001322296007F110007B60BA81A7F80AA04D
:101E7000019204F037FF07F11C0005F059F807F153
:101E8000280004F07DFF07F1440004F079FF07F11A
:101E9000600004F075FF07F17C0004F071FF07F1AA
:101EA000980004F06DFF07F1B40004F039FE07F16B
:101EB000D00005F0B9F807F1DC0005F0B5F805F53C
:101EC000864005F0B1F807F1F40005F0ADF807F52C
:101ED000807005F0A9F855F80830D7F81C11C7F83C
:101EE000181105F5864444F2403103F5EC534034B3
:101EF0004FF0FF3B4FF0000ADFF8C491019AC7F89A
:101F00000CB11C33C7F810B1C7F824B1C7F814A13D
:101F1000C7F81C916B5010236449A28161606381F2
:101F2000E01804F0DFFE04F11C0005F001F804F1F4
:101F3000280004F025FF04F1440004F021FF04F11F
:101F4000600004F01DFF04F17C0004F019FF04F1AF
:101F5000980004F015FF04F1B40004F0E1FD04F171
:101F6000D00005F061F804F1DC0005F05DF804F143
:101F7000E80005F059F804F1F40005F055F804F50F
:101F8000807005F051F805F5884744F26842D4F8AE
:101F90001C3155F80810C4F81831C4F81C910323FB
:101FA0004FF02B09C4F80CB1C4F810B1C4F814A157
:101FB000C4F824B107F17000A950A7F86C30A7F855
:101FC0006E9004F0ADFD07F18C0004F0A9FDC7F898
:101FD000A8A0C7F8ACA007F1B00004F029FD07F1F4
:101FE000C80004F025FD07F1E00004F021FD07F131
:101FF000F80004F01DFD07F5887004F019FD07F5E1
:10200000947004F015FD55F8083005F58A4444F243
:10201000405103F5EC531C3312226B5004F148007D
:10202000A4F84420A4F8469004F07AFD04F164007A
:1020300004F076FDC4F880A0C4F884A004F1880000
:1020400004F0F6FC04F1A00004F0F2FC04F1B80086
:1020500004F0EEFC04F1D00004F0EAFC04F1E80026
:1020600004F0E6FC05F58C4004F0E2FC104B11494D
:102070001B68039344F2186044F20412039C0E4B55
:102080002C502846A950336005B0BDE8F08F00BF42
:1020900014E5010014E7010028E70100A8E50100AC
:1020A0004C87FF1FECE5010034E7010044E7010025
:1020B000501400204CE701005CE7010048130020A9
:1020C0003CE701000C48CBB2082213F0800F02F16C
:1020D000FF324FEA430318BF83F0D50312F0FF022B
:1020E000DBB2F2D10131B1F5807F00F8013FEAD1D6
:1020F0000123CEF800309CE64B1300202DE9F04779
:10210000D84DD94BEB602C460FCC8CB006AE0FC629
:10211000322795F800C02F8294E803000CF1FF33BA
:10212000DBB2F62B86E803001CD88DF818C006AE8B
:102130000FCEDFF864E3CD4FAEE80F0096E8030062
:102140008EE803000FCD6D460FC50CAE94E803007A
:1021500006F830CD85E803000FCE0FC795E80300E1
:1021600087E80300C24FC34ED7F840020368DB681C
:1021700032210022B34287F83C12C7F8502240F0C7
:10218000208241F258339C21C4582270C2585170A9
:10219000C35808229A72D7F84002B74B0468B74D6B
:1021A000246941F23C314FF4FA62415841F24C3E0D
:1021B00002FB01F203FB01F300F59A5140F80E20F7
:1021C000AC424FF001020B6087F85C2240F00C82B9
:1021D00008F0D2FC00EB40000001A94BC7F86002F8
:1021E000012203F5F36487F85C22002023F8020F34
:1021F0009C424FF00002F9D1A24CA34BD4F80080CE
:10220000D3F800E041F2D05041F2C85C385857F89A
:102210000CC048EA000041F2CC58206057F8084052
:1022200040F21330CCF800004FF4517C1220C4F877
:1022300000C08EF802001868944C027419682C20B3
:10224000C870196841F2C45E0E20887117F80E102C
:1022500001F1604101F564414020087017F80E005B
:102260004111890001F160414FF0010C01F561411C
:1022700000F01F000CFA00F0086017F80E101F683D
:1022800001F01F0049110CFA00F044F821003A70E7
:1022900019689C20487019681446A3F5AE570823A6
:1022A0008B723A4623464FF4077C4FF0210E0CFB0D
:1022B00004710134082C81F8A8E4DFF8B48181F8B6
:1022C000A9344FF02100C1F8B4344FF0000982F86E
:1022D000A03282F8B034C2F89C32C2F8A43302F5BE
:1022E0000772E4D141F2945341F2955E41F28C3190
:1022F00041F29C5208F8030041F2883308F80E902E
:1023000008F8029041F2904E41F2843208F5AD5C3B
:1023100041F27C3008F8019008F59C5148F8039090
:102320001423CCF8009048F80E90C1F8009048F8BB
:10233000029088F8983248F8009008F01DFC41F6A9
:10234000DC7200EB400358F8020041F2B85E02680C
:1023500041F2BC511B01D26848F80E3041F6D873E7
:102360004FF0040E08F801E041F6EC714FF0320E28
:1023700008F803E0B2424FF0010348F8019088F8F2
:10238000543240F02D8141F258339C21C25882F8DA
:102390000090C2585170C3589C7241F6DC7241F6ED
:1023A0009C53B858FB5841F23C31DC684158324BE1
:1023B0004FF4FA6202FB01F203FB01F341F24C3EDF
:1023C00000F59A5140F80E200B60314B41F6F8723F
:1023D00001219C42B95440F0008103681B69AB4263
:1023E00040F0048108F0C8FB00EB4000000141F61A
:1023F000FC7141F6F87301227850FA5441F69C536F
:102400002448FB581A4C9B6898471E4943F26C338A
:10241000D1F80080FB5843F2643E43F25C3243F251
:10242000683057F80EC057F800E0B85848EA030380
:102430000B6040F21333CCF800304FF4517112238B
:10244000CEF800108370BB584FF0000E83F810E0F8
:10245000BB582C21D970BB5843F260300E219971C2
:102460003B5C1BE02887FF1FE0E60B00A0B1FF1FCD
:10247000E091FF1FB9040000A086010025050000BF
:10248000C2A7FF1F34800440A0A7FF1F80E200E026
:10249000450600007CAFFF1F0494FF1F03F160435B
:1024A00003F5644340211970395C4B119B0003F123
:1024B000604303F561434FF0010C01F01F010CFA7A
:1024C00001F1196042F204013B5C79584848D1F8A7
:1024D0000C8003F01F015B110CFA01F1B04540F8CC
:1024E000231075D1A35883F800E0A3589C2159709C
:1024F000A35808229A723F4E0020324606F1010985
:10250000A6F1040803464FF4077C4FF0210E0CFBA4
:1025100000F1741809EB010A01304144082884F8DD
:1025200008E28AF80832344CC1F818324FF0210A18
:10253000137082F8103242F8043CC2F804314FF0B4
:10254000000102F50772E2D143F2303343F2313633
:1025500004F803A043F2281043F2383242F2040395
:10256000A155A154215443F23C32E35843F22410C4
:102570001B69A15043F22C2643F21812215043F25A
:102580001C10A151A15043F2201642F234022150F6
:10259000AB424FF01400A151A05416D108F0ECFA50
:1025A00000EB4000000143F2543543F2583341F64A
:1025B000F0710422012478517C54FA540CB0BDE827
:1025C000F0874FF496419847E5E50C489847EAE7CD
:1025D0004FF496410948C0478DE70948A0470DE7E9
:1025E0004FF496419047D8E6A047F6E59847FEE6B7
:1025F00080E200E01CB2FF1FE091FF1FE4B1FF1F6B
:102600007CAFFF1F2DE9F04FB04EADF5137D304686
:1026100005F03AFF44F21023F35C03F0FF04002BB3
:1026200000F07884012C00F0F08144F2A843A84C1B
:10263000F25841F68C5304F5EC55E25008F09CFA40
:10264000A44A43F6283300EB40001268E250000130
:10265000286008F091FA44F2AC4241F6905343F6F8
:102660001C3700EB4000B258E2500001E05108F086
:1026700083FA44F2845243F62C3300EB4000B25804
:10268000E2500001286008F077FA41F2BC5600EBF6
:102690004000A35D0001E051002B40F002848C4F0C
:1026A00041F27C3307F59C56E2583368934236D0AA
:1026B0004FF4077101FB03F107EB010E9EF8A8042C
:1026C00024282CD1D21A12F007025CD041F688528D
:1026D00001204FF0250C8EF8A8C4B85403449EF88E
:1026E000A92403F007030EF527703360C7F84C02E6
:1026F00002F0FF03002A40F0018241F694529EF856
:10270000A9E3C7F85032BB58BEF1030F03F1010330
:10271000BB5001F02982BEF1640F00F0EE8443F259
:102720005838DFF8AC9114F80830002B40F09E8345
:1027300043F21C1743F2181354F807C0E358DFF8AC
:1027400090E19C450AD04FF40772634902FB0CF2FA
:10275000114491F80802242800F0C28094F8543201
:102760005B4F002B62D097F83C32362B00F0328260
:1027700097F83C32323B032B58D8DFE813F0770848
:10278000F6080F08680741F688530121F954C7F885
:102790004C2292F80D32FFDE95F80D32002B40F0FE
:1027A0006687D0F8400295F81161016895F81031FC
:1027B000CF6895F8132195F81211360446EA0363A1
:1027C000464E1343B74243EA012142F01D8141F2D4
:1027D00058324B08865803F1B76303F55843B3FBEF
:1027E000F1F3C3F3443131708158C3F347164E708F
:1027F000825803F01F039372D4F8401295F8140125
:1028000095F81531D4F8385241F23C3243EA0023AE
:102810008A5841F24C3601F59A5002FB03F302FB51
:1028200005F236258B5184F83C52026041F2BC55CA
:10283000274E635D002B40F09F8341F2843341F2C9
:102840007C32E358A158224E41F2BC5000258B4205
:10285000255400F027824FF4077202FB036292F8BE
:10286000A814232900F01E8292F8A814242901F04C
:10287000048192F8A824252A01F0FF804FF4077202
:1028800002FB0343124D93F8A824222A40F00A8247
:102890002321162283F8A81485F8982208F06CF9F1
:1028A00005F5AE5300EB40001A6841F2B85741F20B
:1028B000BC560301EC210120EB51A855D170B5F8AD
:1028C0007A320344A5F87A32EFE100BF18CDFF1F3A
:1028D000E091FF1F981200201CB2FF1FB9040000F6
:1028E000CCEB030313F0070300F0838043F624309E
:1028F000B14B4FF0250881F808824FF001080EF81F
:10290000008003EB02080EEB02000CF1010300F55E
:10291000005098F808C241F6E87803F00703383011
:102920004EF807304EF808000CF0FF07BCF1000F1E
:1029300074D143F6303C91F809115EF80C3041F641
:10294000EC78013303294EF80C304EF8087001F092
:10295000E38064297FF402AF90F80E1190F80F31F4
:1029600043F22E6243EA01232EF8023090F8101150
:1029700090F8113143F22C6243EA01232EF8023021
:1029800090F8121190F8133143F23A6243EA0123AE
:102990002EF8023090F8141190F8153143F2386295
:1029A00043EA01232EF8023090F8161190F81731FF
:1029B00043F23C6243EA01232EF8023043F22063E3
:1029C00090F818212EF8032090F8191190F81A3178
:1029D00043F2246243EA01232EF8023090F81B11DF
:1029E00090F81C3143F2E06243EA01232EF80230F2
:1029F000B4E641F6E87043F6243201214EF8003087
:102A00000EF8021093F80D32FFDE44F20E13F25C62
:102A1000022A7FF40AAE0022F25406E641F6EC7177
:102A200043F6343041F6D8775EF801305EF8002086
:102A30001EF807C001330132BCF1360F4EF80130E9
:102A40004EF800207FF48AAE41F6C8725EF802208C
:102A50009342FFF683AE41F6DC7232235EF8020049
:102A60000EF807300368554FDB680022BB424EF872
:102A7000012041F06A8441F258339C21C7583A70D2
:102A8000C2585170C35808229A7241F6DC7241F65E
:102A90009C53A058E35841F23C31DF684158484B01
:102AA0004FF4FA6202FB01F203FB01F341F24C3EE8
:102AB00000F59A5140F80E200B60424B41F6F87237
:102AC00001219F42A15441F03C8403683E4A1B69A6
:102AD000934241F0108508F04FF800EB40000001F0
:102AE00041F6FC7141F6F87301226050E25441F660
:102AF0009C533648E3589B6898472FE641F6985117
:102B0000D7F850327A5897F83C0201320133362810
:102B10007A50C7F850327FF402AED7F82C22934295
:102B2000FFF6FDADD7F8400224490368DB68322286
:102B300087F83C228B424FF00002C7F8502241F048
:102B4000FB8341F258339C21C7583A70C2585170E8
:102B5000C35808229A72D4F84002194B026841F215
:102B60003C31176941584FF4FA6241F24C3E02FB86
:102B700001F203FB01F340F80E2000F59A51124ACE
:102B80000B6097424FF0010384F85C3241F0D1832F
:102B900007F0F2FF00EB400000010D4BC4F86002AB
:102BA000012284F85C2203F5F361002223F8022F4E
:102BB0009942FBD1B3E500BF1DB2FF1FB90400006D
:102BC000A086010045060000250500007CAFFF1F20
:102BD000C2A7FF1F41F27C333268FB589B1A03F0F7
:102BE0000703012B3FF722AE41F67C53F95C022923
:102BF00001F01384042901F0928000297FF416AEBD
:102C0000B84839720568F97239737973B973F97311
:102C10008DF841128DF842128DF843128DF844124E
:102C2000691C97F82462C7F81452016009256421D1
:102C30004FF0FF0EAC4AAD4B7D60B9727E7207F16A
:102C400009017546103711F8010BA94E6840B942C9
:102C5000155C8EEA050513F800E0F4D145EA0E2371
:102C60001BB2C3F3072713254FF40472737468462D
:102C70003774C6F81C5207F03DFE331D0ECB06F527
:102C80001A70FEF717FB0023212286F810223372F8
:102C900086F8113286F81832C6F81C327360C6F80E
:102CA0000C31C3E5152384F8983241F6F073904D4A
:102CB000E35C002B7CD041F6D873EA5C362A00F046
:102CC0008481EB5C323B032B72D8DFE813F0950371
:102CD00018056504040041F69C538649E258844B6C
:102CE00012688A4241F0198443F624320021985C2C
:102CF000995400285CD041F6E8737D4AE55895F870
:102D00000D31412B01F0C28441F6DC737A49E05861
:102D10000368DA6841F6D87641F6EC75322700236D
:102D20008A42A755635141F0528641F258329C21A4
:102D300085582B7083585970835808229A7241F62F
:102D4000DC7241F69C53A058E2586C4ED5686C4B2F
:102D500041F23C314FF4FA62415841F24C3E02FBE1
:102D600001F240F80E2000F59A5741F6F87203FB85
:102D700001F3B5424FF001013B60A15441F02386BD
:102D80000368604A1B69934241F0128607F0F4FE23
:102D900000EB4000000141F6FC7141F6F87301229E
:102DA0006050E25441F69C535748E3589B6898475B
:102DB00043F258354E4E635D002B40F0F28043F2F3
:102DC000201343F21812E358A25843F2583100205E
:102DD000934260547DD04D494FF4077202FB0312B9
:102DE00092F80802232874D092F80802242800F0F0
:102DF0004C8692F80822252A00F047864FF4077285
:102E000002FB03113A4A91F80832222B61D142F2B7
:102E100004032320D35881F808021B69394942F280
:102E2000340016258B42155441F06C8307F0A4FE44
:102E300000EB4000000142F2040343F25431E35836
:102E4000334A9B69605043F25831012093426054E9
:102E5000274941F0538343F25C33EC22CB58DA70BC
:102E600042F21602A35A0133A35236E043F254321F
:102E700043F2201359F8022059F803708B9207F09F
:102E80007BFE00EB400000018C9019F80830013BFC
:102E9000032B3FF64DACDFE813F07B02300210024B
:102EA0000C0241F2B85241F28433A258E758899299
:102EB00007F062FE00EB400000018A90A35D013B39
:102EC000032B3FF6ECABDFE813F0C9017A01620196
:102ED0005E0142F234031522E2540DF5137DBDE884
:102EE000F08F00BF4C140020B4EA0100B4EB0100E5
:102EF000E091FF1FE9040000B9040000450600004E
:102F0000A0860100250500007CAFFF1F1CB2FF1F3B
:102F10007904000044F20E13F35C012B00F062868A
:102F200044F224130022F25042F2E00342F2E4029F
:102F3000F358B258934210D0BF4D2C1D05F108072D
:102F40002A681A403244013392F8D800236008F00E
:102F50006FFD23683A689342F2D144F2FC03B74A0A
:102F6000F15C00293FF461AB44F210200124002100
:102F70001454D154FFF759BB41F2B853F3588D9311
:102F800007F0FAFD00EB400000018E90735D013BFD
:102F9000032B3FF68AAEDFE813F0AD00AD00AD00C5
:102FA000650543F25433F3588F9307F0E5FD00EBCA
:102FB000400000019090735D013B032B8DD8DFE84A
:102FC00013F0930093009300460543F2181343F265
:102FD0001C12EB58AA589B1A03F00703012B3FF76A
:102FE000E7AE43F61833E95C022901F0B381042906
:102FF00000F0808600297FF4DBAE914E8DF84112FF
:1030000030688DF8421200F1010EC6F800E041F67A
:10301000B07605F5FE5CA85141F6A45641F6A55ED2
:1030200041F6A650A9559CF800C005F80EC06426CC
:103030002E5441F6A75E41F6A85041F6A95605F870
:103040000E10295441F6AA5E41F6AB50A95505F57C
:10305000ED5605F80E108DF8431229548DF84412E0
:103060004FF0FF0E0921774F774A784B316006F118
:103070000C0C704617F8011B754D41406745505CBC
:103080008EEA000013F801E0F4D140EA0E231BB2EF
:1030900041F6AD5041F6B878C3F307224FF0130E56
:1030A0003A706C492B544FF4047245F808E06846B6
:1030B00007F020FC96E80E006748FEF7FBF841F6A3
:1030C000AC732122EA5441F6AD7741F6A45041F6A3
:1030D000B47141F6A8620023EB55336045F808301F
:1030E0002B546B54AB5063E6909B8F9B0DF5137D77
:1030F000BDE8F08F8E9B8D9BD7E590F80E1190F870
:103100000F3141F6920243EA0123BB5290F81011AD
:1031100090F8113141F6900243EA0123BB5290F836
:10312000121190F8133141F69E0243EA0123BB527B
:1031300090F8141190F8153141F69C0243EA0123EE
:10314000BB5290F8161190F8173107F5C55243EAB3
:103150000123138041F6840390F81821FA5290F865
:10316000191190F81A3141F6880243EA0123BB5243
:1031700090F81B1190F81C3141F6441243EA0123E8
:10318000BB52FFF7CCBA8A9B899BFFF788BA41F202
:10319000B0528A9B8999A2582D4E5B1A93427FF6B2
:1031A0007EAA07F0E9FC41F2B85700EB400041F27B
:1031B000BC5203010421F351B154FFF770BA41F23C
:1031C000AC528A9B8999A258214E5B1A93427FF692
:1031D00066AA07F0D1FC41F2B85E00EB400041F274
:1031E000BC52030146F80E3004214FF40773B1546A
:1031F00003FB0763D3F8B424013201F0978293F8FC
:10320000A904B6F89012B6F8922240F0080083F8AC
:10321000A904013101321823A6F89012A6F89222CF
:1032200086F898324FF4077303FB0747242387F887
:10323000A834FFF734BA00BFF4EDFF1F18CDFF1F0D
:103240004C14002085AFFF1FB4EA0100B4EB01006D
:10325000E091FF1F8CAFFF1FE4B1FF1F41F2A852A6
:103260008A9B8999A258BF4E5B1A93427FF617AA90
:1032700007F082FC41F2B85E00EB400041F2BC5224
:10328000030146F80E3004214FF40773B15403FBD9
:103290000767B6F88E3297F8A924242142F010026D
:1032A000013387F8A924A6F88E3287F8A814FFF70F
:1032B000F6B98C9B8B9BFFF73BBA43F24C328C9B4D
:1032C0008B98A258A7491B1A93427FF631AA42F263
:1032D0000403A54ACB581B69934241F0088107F0CB
:1032E0004BFC00EB4000000143F2543143F25833F1
:1032F00004226050E254FFF71BBA43F248328C9B21
:103300008B99A258DFF85C825B1A93427FF610AA71
:1033100007F032FC43F2543C00EB40004FF40773DB
:10332000DFF86CE243F25831020103FB07F304209B
:1033300048F80C200EEB030208F80100D2F818221E
:10334000013201F00981894A42F22C0C1344511ECA
:1033500038F80C2093F80802013228F80C2042F2C9
:103360002E0E40F0080083F8080238F80E300133C2
:1033700028F80E3042F23403182208F803204FF4E4
:10338000077303FB0711242381F80832FFF7D0B934
:1033900043F244328C9B8B99A258DFF8C8815B1AA8
:1033A00093427FF6C5A907F0E7FB43F2543E00EBDA
:1033B00040004FF40771020101FB07F76B4B48F81F
:1033C0000E2043F2583104223B4408F8012042F217
:1033D0002A0093F80812DFF8BCE138F8002077449F
:1033E00041F0100183F808120132242387F80832D3
:1033F00028F80020FFF79CB941F6DC7241F2141363
:10340000A0585849C35841F2181282589B1A5D07B8
:103410007FF4CEAC41F69C53554ACB581B6993427E
:1034200041F0DE8241F6F873CB5C002B3FF4C0AC78
:1034300003684D4A1B69934241F00F8307F09CFBE0
:1034400000EB4000000141F6FC724A4BA2581B6899
:10345000801A9842FFF4ACAC41F69C534649E358BD
:10346000404D1B6841F6F87000228B42225441F017
:10347000B38243F62433E95CEA5440484049056886
:103480000F78404A404B41F6B07E41F6A55641F6D2
:10349000A45805F1010B41F6F47941F6A75C41F619
:1034A000A85AA75544F80E50A1F5087641F6A65E35
:1034B000C0F800B0002004F80C00062504F808004D
:1034C00004F80A0044F809004FF00808FF2004F847
:1034D0000E803560A1F21B2E0546A1F5067101E0B4
:1034E0001EF8017F6F408E45D55D85EA0005D85DE9
:1034F000F6D145EA002341F6BC7141F6AA501BB251
:1035000041F6A95241F6B875675823544FF0060E9C
:10351000C3F30723A35444F805E01C494FF4047295
:10352000684607F0E7F996E80E003846FDF7C2FE58
:1035300041F6AC7341F6AD722121E1540023A3544E
:1035400041F6A45E41F6B47741F6A86041F6D87220
:1035500033216351336004F80E30E3552350A154F6
:1035600026E400BFE091FF1F250500001DB2FF1FEC
:1035700081060000E0B1FF1FE90400004C140020A8
:10358000A0B1FF1FB4EA0100B4EB01008CAFFF1F34
:1035900018B2FF1F1CB2FF1F41F69C53AB49E25803
:1035A000AB4B12688A4240F0B18743F624320021C7
:1035B000985C9954002800F0708241F6E872A44BA0
:1035C000A25892F80D22002A00F0678241F6DC72C0
:1035D00041F6D87198589F4D0268D26841F6EC7652
:1035E00032275F54AA424FF00001995141F0FF8108
:1035F00041F258339C25C2581170C2585570C358B7
:1036000008229A7241F6DC7241F69C53A058E258A7
:10361000914ED168914B41F23C354FF4FA624559D5
:1036200041F24C3E02FB05F240F80E2000F59A579D
:1036300041F6F87203FB05F3B1424FF001053B6020
:10364000A5543FF49DAB86488847FFF7ABBB41F6D6
:1036500088530021E25C7E48E154002A3FF4E6A84A
:10366000D0F84C5295F80D31412B3FF495A8D4F881
:10367000400278490368DA68322500238A4284F8D8
:103680003C52C4F8503241F0968141F258329C21AC
:1036900085582B7083585970835808229A72D4F831
:1036A00040026E4B02686F4E156941F23C314FF497
:1036B000FA62415841F24C3702FB01F203FB01F37D
:1036C00000F59A51C251B5424FF001020B6084F8E7
:1036D0005C2241F0758107F04FFA00EB40000001D9
:1036E000614BC4F86002012284F85C2203F5F361A7
:1036F000002223F8022F8B42FBD1FFF797B841F647
:103700009C535249E258524B12688A4240F00C874F
:1037100043F624320021985C995400283FF448ABCA
:1037200041F6E873E65896F90D31002B1ADB336841
:10373000002B12DD717996F80C21914212D10433DD
:10374000F51806F58672731D05E013F8010F12F8DF
:10375000011F884206D1AB42F7D196F80D0200282E
:1037600000F0548541F6DC733A49E0580368DB68A1
:1037700041F6D87641F6EC75322700228B42A755E8
:10378000625141F0498141F258339C21C5582A7059
:10379000C2585170C35808229A7233E741F68853D1
:1037A0000022E15C2A4DE254002900F09881D5F80E
:1037B0004C3293F80D32002B00F09181D5F8400285
:1037C00024490368C5F85022DB6832268B4285F80D
:1037D0003C6241F0148141F258339C21C5582A7053
:1037E000C2585170C35808229A72D4F840021B4B39
:1037F00002681C4E116941F23C354FF4FA6245599A
:1038000041F24C3702FB05F203FB05F300F59A5534
:10381000C251B1424FF001022B6084F85C2241F0AA
:10382000EB8007F0A9F900EB400000010E4BC4F853
:103830006002012284F85C2203F5F361002223F880
:10384000022F8B42FBD1FEF7F1BF00BFE90400005D
:10385000E091FF1FB904000045060000A0860100AA
:103860007CAFFF1F25050000C2A7FF1FD4F8400250
:10387000D14941F2141341F21812C35882589B1ACD
:103880005E077EF4D3AF91F85C32002B3EF4CEAFEE
:103890000368CA4A1B69934241F0CF8007F06CF974
:1038A00000EB40000001D4F86012D4F86422C24B4F
:1038B000401A9042FEF4BAAFC14D93F824622A68D0
:1038C000C3F8142241F68850511C4FF0060C002218
:1038D0004FF0080EFF27296083F85C22195CC3F8BB
:1038E00058221A541A72DA721A735E72C3F804C03C
:1038F00083F80AE003F1090503F10C013846B14AE7
:10390000B14B01E015F8016F46408D42905D80EAB1
:1039100007009F5DF6D140EA07231BB2C3F30726D9
:1039200006254FF40472A949A373C4F81C526846D3
:103930006673D4F8205206F0DDFFA54B28460ECB67
:10394000FDF7B8FC21210023332284F810122372E2
:1039500084F8113284F81832C4F81C326360C4F859
:103960000C3184F83C22FEF761BF41F688530021F8
:10397000E25C9148E154002A3EF458AFD0F84C6222
:1039800096F90D318B421ADB33688B4212DD96F8C3
:103990000C117279914212D10433F51806F5867232
:1039A000731D05E013F8010F12F8011F884206D1BC
:1039B0009D42F7D196F80D02002800F0C381D4F89B
:1039C000400284490368DB68322500228B4284F878
:1039D0003C52C4F8502241F0248041F258339C21DB
:1039E000C5582A70C2585170C35808229A72D4F828
:1039F0004002794B0268714E116941F23C354FF437
:103A0000FA62455941F24C3702FB05F203FB05F31C
:103A100000F59A55C251B1424FF001022B6084F873
:103A20005C2240F0F68707F0A7F800EB40000001A9
:103A30006A4BC4F86002012284F85C2203F5F3614A
:103A4000002223F8022F9942FBD1FEF7EFBE43F28A
:103A50005032909B8F99A2585B1A93427FF63DAAF1
:103A6000FFF7ADB941F2B4528E9B8D99A2585B1A03
:103A700093427FF61AA9FEF7E0BE013341F2843289
:103A800003F00703A350FEF7F9BE013343F22012FF
:103A900003F00703A350FFF7B1B941F6DC7241F21E
:103AA0001413A258444DD35841F2181152589B1A7E
:103AB0005B077FF47DA941F6D07241F6CC7305F522
:103AC000FE51AA5AEB580978454800920122FDF7A9
:103AD00021FE41F6D8733522EA54FFF769B9D4F8CC
:103AE0004022354D41F2141341F21811D358525867
:103AF0009B1A5A077EF49AAEB5F83422D5F83032C4
:103B000095F82412009228460122FDF703FE352382
:103B100085F83C32FEF78ABE90F809C0817AC779F1
:103B2000037A01EB0C2103EB072389B29BB2002936
:103B30003EF414AECF1807F5CD5772440EEB430395
:103B40001F3702F5055003F54D510EEB47070630C0
:103B50003E31427810F8023F03EB022321F8023F86
:103B60008F42F6D1FEF7FABD90F809C0827A90F83C
:103B700007E0037A02EB0C2203EB0E2392B29BB216
:103B8000002A3EF4CCAD1A4407EB4303394402F655
:103B9000F12203F5AF5007EB4207023001F2AA31E0
:103BA0004A7811F8023F03EB022320F8023FB842A3
:103BB000F6D1FEF7B4BD00BFE091FF1F2505000060
:103BC0004C140020B4EA0100B4EB0100F091FF1F97
:103BD000E491FF1FB9040000A0860100C2A7FF1FE7
:103BE0007CAFFF1F44F22813F35883B30221304601
:103BF00004F08CF97221304604F088F90D25DFF8C5
:103C0000248309E0BA4F0134A4B22946384604F0AF
:103C10007DF918F8045045B1022D01D0102DF1D1D5
:103C20001021B34804F072F9ECE71921384604F08A
:103C30006DF90321384604F069F90221384604F091
:103C400065F944F20E13FB5C012B7FF469A944F281
:103C50002413A74CF05800284AD144F22817012514
:103C60003C221E21E550E051204604F0D3FDA1483E
:103C700001F010FBA04801F00DFBA04801F0EEFFA1
:103C80009F4801F0EBFF9F4B44F20E121968A25CB3
:103C9000869144F2122186986052AA427FF444A988
:103CA0001B68994988939948889A0B680078954FC2
:103CB0008F4D44F21864D31A834232517FF634A9EF
:103CC0008E480A6002F018FA8D4802F015FA894809
:103CD00001F090FB884801F08DFB3B68879344F22C
:103CE0001223879AEA52284604F0E8FDFFF71CB930
:103CF000844BD5E706F040FF43F61C3343F62032F1
:103D0000EB58AA5800EB4000C3EB0013934240F27B
:103D1000958543F618330022E254FFF749B806F0C0
:103D20002BFF41F684522B68BA5800EB4000C3EBDE
:103D30000013934240F2028641F67C530022E25483
:103D4000FEF774BDD4F85832D4F8282270490133F4
:103D50009342C4F85832C0F20882DFF8CC8108726E
:103D6000D8F800204873561C4FF0080C0123032597
:103D70009020C1F81422C8F80060112201F1090650
:103D8000C1F804C08D7208738A734B72CB7201F153
:103D90000E05DFF898E15F4F31464FF0800C81222D
:103DA000FF2007E011F8012F534060461EF8032062
:103DB00017F803C080EA02038D42DBB2F2D143EA76
:103DC0000C23554FD4F820921BB24FF0270E2374CA
:103DD000C3F30723C4F81CE207F10C014FF404728B
:103DE000E373684606F086FD97E80E004846FDF747
:103DF00061FAD8F80030C4F814325A1C4FF00809A0
:103E00000023012021214FF0030AC8F80020B0222E
:103E100084F81012C4F8049084F8113284F80E90DB
:103E20006072E0722273DFF804C1DFF8E8E0237209
:103E3000C4F81C3284F81832C4F80C316373791D4D
:103E400084F80AA0802081224FF0FF0907E011F8D2
:103E5000012F534081461CF803201EF8030089EA15
:103E600002038D42DBB2F2D143EA00231BB24FF0D2
:103E7000150ED4F820922374C3F30723C4F81CE270
:103E80002649E3734FF40472684606F033FD97E861
:103E90000E004846FDF70EFAD8F80030C4F8143288
:103EA00021205A1C002384F810024FF0080984F8DE
:103EB00011322073C8F80020012003222372C4F8B5
:103EC0001C3284F81832C4F80C31E372637338235F
:103ED000C4F804906072A2721149DFF850C0DFF894
:103EE00034E0A373802081224FF0FF0928E000BF57
:103EF00018CDFF1F8011002058120020300F002025
:103F00005810002050140020DC91FF1F2487FF1F51
:103F1000E091FF1FB4EB0100E491FF1FF091FF1F40
:103F2000E991FF1F64E701004C140020B4EA01008E
:103F300011F8012F534081461CF803201EF803009E
:103F400089EA02038D42DBB2F2D143EA00231BB2BD
:103F50004FF0750ED4F820922374C3F30723C4F8EE
:103F60001CE2CC49E3734FF40472684606F0C2FCCD
:103F700097E80E004846FDF79DF9D8F80030C4F8E0
:103F800014325A1C2120002384F810024FF001093A
:103F9000032084F811324FF0080AC8F80020237279
:103FA0006022C4F81C3284F81832C4F80C31E37271
:103FB00063730B2384F80990A0722273B649DFF86B
:103FC000E4C2DFF8D8E2C4F804A0A3738020812201
:103FD0004FF0FF0907E011F8012F534081461CF80C
:103FE00003201EF8030089EA02038D42DBB2F2D1FE
:103FF00043EA00231BB24FF01B0ED4F82092237427
:10400000C3F30723C4F81CE2A249E3734FF404721C
:10401000684606F06FFC97E80E004846FDF74AF93F
:10402000D8F80030C4F814325A1C4FF0210900238C
:10403000082084F81092C8F800204FF001090322EC
:1040400084F811322372C4F81C3284F81832C4F890
:104050000C31E372637370236060A07384F809907D
:10406000A2728D49DFF83CC2DFF830E22373802072
:1040700081224FF0FF0907E011F8012F53408146DC
:104080001CF803201EF8030089EA02038D42DBB20C
:10409000F2D143EA00231BB24FF0150ED4F8209260
:1040A0002374C3F30723C4F81CE27A49E3734FF483
:1040B0000472684606F01EFC97E80E004846FDF7BD
:1040C000F9F8D8F80030C4F814325A1C2121002322
:1040D00084F810124FF0010C032184F811324FF0D4
:1040E0000809C8F8002023721022C4F81C3284F892
:1040F0001832C4F80C31E3726373802384F809C06A
:10410000A172A273DFF89CE16448C4F804902373A1
:10411000194681224FF0FF0C06E016F8012F53409C
:104120008C461EF80320C15C8CEA0203B542DBB268
:10413000F3D143EA01231BB2D4F82052237425267D
:10414000C3F307235349E3734FF404726846C4F87A
:104150001C6206F0CFFB97E80E002846FDF7AAF890
:10416000212100233422FFF7F0BB4D4D91F824822A
:104170002E68087206F1010C4FF0060E08274FF06A
:10418000FF09C8720873C1F81462C5F800C081F84D
:104190000980C1F804E08F7201F10905414A3F4BE3
:1041A00048460C3101E015F8018F88EA0008A94261
:1041B00012F8080089EA000013F80890F3D140EAE9
:1041C00009231BB2C3F3072606254FF404723149B5
:1041D000A373C4F81C5268466673D4F8205206F0E4
:1041E00089FB314B28460ECBFDF764F800232122D2
:1041F00084F81022237284F8113284F81832C4F83B
:104200001C326360C4F80C31FEF710BB41F6F47247
:1042100041F6C471A3586158244D01338B42A35019
:104220000BDB41F69C532248EB585B68984741F6FC
:10423000D8733422EA54FEF7BBBD194EDFF874E0A0
:104240003168184A154B05F5FE5741F6B07841F62E
:10425000A5593F7845F8081005F8097041F6A458AB
:10426000013141F6A6593160082105F8080005F82A
:10427000091041F6A75841F6A85105F5ED5605F885
:10428000080068540620FF2130600EF1030C084638
:1042900014E000BFF091FF1FE991FF1FB4EB010094
:1042A0004C140020B4EA0100E491FF1FE091FF1FCD
:1042B0007CAFFF1F85AFFF1F1EF8017F4740F4450D
:1042C000D05D80EA0100D95DF6D141F6BC7540EAC7
:1042D000012341F6AA50675997491BB241F6A952EA
:1042E00041F6B87523544FF0060EC3F30723A354C9
:1042F00044F805E04FF40472684606F0FBFA96E8CD
:104300000E003846FCF7D6FF41F6AC732122E2548A
:1043100041F6AD7741F6A45041F6B47141F6A8627A
:104320000023E3553360635123546354A350FEF7D5
:104330003FBDB847FEF731BC4FF496419847FEF7B2
:104340000ABC7E48B847FEF7D2BB4FF49641984767
:10435000FEF79BBB06F010FC43F61C3343F62032FD
:10436000EB58AA5800EB4000C3EB001393423FF612
:10437000D0AC43F6283341F6AB52EB58AB5441F680
:10438000A8561A16AA5541F6A95C41F6AA566C48D9
:104390008DF8443205F5FE5E8DF841221A141B1289
:1043A00005F80C20AB5541F6B07C41F6A5560168E6
:1043B0009EF800E005F806E045F80C1041F6A65618
:1043C00041F6A45C41F6A75E8DF842228DF8433297
:1043D00064220023AA5505F80C3005F5ED561C2380
:1043E00005F80E30013109254FF0FF0E554F564AA2
:1043F000564B016006F10C0C3560714617F8010B45
:10440000534D48406745115C8EEA010113F800E006
:10441000F4D141EA0E23FEF73ABE06F0ADFB41F6B9
:1044200084522B68BA5800EB4000C3EB0013934250
:104430003FF682AC41F68C534149FB580868FB7348
:104440001D163D738DF844328DF841521D141B1218
:1044500000F1010EBB738DF84332092397F82462F3
:104460007D73C7F81402C1F800E064201C217B6052
:104470008DF842524FF0FF0E0025334A334BB8728D
:10448000F9727E723D7207F109017046103711F81A
:10449000016B2F4D4640B942905D8EEA000013F843
:1044A00006E0F4D140EA0E231BB2C3F3072713261C
:1044B0004FF404726B7468462F74C5F81C6206F0E2
:1044C00019FA2B1D0ECB05F51A70FCF7F3FE00232D
:1044D000212285F810222B7285F8113285F81832C6
:1044E000C5F81C326B60C5F80C31FEF79FB919484E
:1044F0009847FEF7F9BE9847FEF7F2BA1548984775
:10450000FEF7AEBC13489847FEF795BC0B489047A2
:1045100000283FF4C2AAFFF750B808489047002887
:104520007EF4E9ABFEF744BC0448904700287FF4D2
:10453000F7A8FEF73DBC00BF8CAFFF1F7CAFFF1F8D
:104540004C14002085AFFF1FB4EA0100B4EB01005A
:10455000E091FF1FE4B1FF1FB34901F1010ACA183E
:104560001AF8030092F80821904253440CD042F20A
:10457000260C93F8082238F80C00013042F0200293
:1045800028F80C0083F808224FF4077303FB07F3A5
:104590009E44A64ADEF808B1BBF1010F31DD134499
:1045A00003F5055CBBF102030CF1040C184685937E
:1045B00000F050824FF0FF089D4A9E4BC6460CEB20
:1045C00000091CF8010B8EEA0000E14512F800E03A
:1045D00088EA0E0E13F80080F3D14EEA082E0FFA87
:1045E0008EFE4FF40772859B02FB0712134493441F
:1045F00093F808219BF8073143EA02231BB2734565
:1046000010D042F2280E4FF4077303FB07A334F8CF
:104610000E2093F80802013240F0400024F80E20EA
:1046200083F808024FF4077303FB07F39A447F4AA9
:104630009AF8080200287EF4A2AE42F2180C01EBB0
:10464000030E32F80C009EF909E10130BEF1000FB3
:1046500022F80C00BEF693AE42F2200E134432F85C
:104660000E0003F500530130383322F80E0093F8A2
:104670000E31052B00F0E481062B7EF480AE42F271
:104680002400135A01331352FEF779BE95F80D3208
:10469000002B7EF439AB41F6DC7395F81161D058EC
:1046A00095F81031016895F81321CF6895F812112B
:1046B000360446EA0363604E1343B74243EA0121DE
:1046C00040F0A58141F258324B08865803F1B76398
:1046D00003F55843B3FBF1F3C3F344313170815810
:1046E000C3F347164E70825803F01F03937241F6CE
:1046F000DC7341F23C31E35895F8140195F815212B
:10470000595842EA002241F24C3001FB02F21A50A1
:1047100041F6D47203F59A53A05841F6D87201FBC2
:1047200000F136201960A054FEF742BB93F8A112A5
:1047300093F8A82391420AD0B6F88A1293F8A924D4
:10474000013142F02002A6F88A1283F8A9244FF41E
:10475000077303FB07F3E218344ED2F8A4E3BEF16B
:10476000010F29DD3344BEF1020C03F56A7600F037
:104770006E814FF0FF082E4A2E4B404606EB0C0987
:1047800016F8011B4140B145505C88EA000013F85F
:104790000180F5D140EA08231BB24FF4077202FBF7
:1047A0000742944496449CF8A8139EF8A72342EA33
:1047B000012212B29A420ED04FF4077303FB074353
:1047C000B4F88C2293F8A914013241F0400183F827
:1047D000A914A4F88C224FF4077202FB0742134B72
:1047E00092F8A91400297EF41DADB3F87C1292F959
:1047F000A90301310028A3F87C12BEF613ADB3F86B
:1048000084120131A3F8841292F8AA23052A00F039
:104810000D81062A7EF406ADB3F888220132A3F892
:104820008822FEF7FFBC00BF1CB2FF1FE091FF1FF4
:10483000B4EA0100B4EB0100B904000043F62C33E4
:1048400041F6AB52EB58AB5441F6A8561A16AA558E
:1048500041F6A95C41F6AA5681488DF8443205F527
:10486000FE5E8DF841221A141B1205F80C20AB5580
:1048700041F6B07C41F6A55601689EF800E005F8C7
:1048800006E045F80C1041F6A65641F6A45C41F648
:10489000A75E8DF842228DF8433264220023AA5588
:1048A00005F80C3005F5ED561E2305F80E300131E4
:1048B00009254FF0FF0E6B4F6B4A6C4B016006F100
:1048C0000C0C3560704617F8011B694D4140674577
:1048D000505C8EEA000013F801E0F4D140EA0E23A8
:1048E0001BB241F6AD5041F6B878C3F307224FF042
:1048F000130E3A705F492B544FF4047245F808E0E8
:10490000684605F0F7FF96E80E005B48FCF7D2FC1E
:1049100041F6AC732122EA5441F6AD7741F6A4503A
:1049200041F6B47141F6A8620023EB552B5445F8CB
:1049300008306B54AB503360FEF73ABA41F69053EF
:104940004749FB580868FB731D163D738DF84432C8
:104950008DF841521D141B1200F1010EBB738DF82E
:104960004332092397F824627D73C7F81402C1F813
:1049700000E07B601E218DF84252642000254FF03C
:10498000FF0E394A394B3D72F9727E72B87207F1E7
:1049900009017546103711F8010B354E6840B942D0
:1049A000155C8EEA050513F800E0F4D1FEF756B960
:1049B0009847FEF7F0B94FF496419047FEF76FBE67
:1049C000A847FEF78DBE2D48A847FEF7EBB94FF478
:1049D00096419047FEF7B3B928489847FEF74DBD7A
:1049E0002648984700287EF437ADFEF7E1B94FF42A
:1049F00096419047FEF706BE8847FEF717BF4FF473
:104A000096419847FEF7F1BEB847FDF7F5BEB847A7
:104A10006DE68847FFF70CB84FF496419847FEF7CC
:104A2000F1BD4FF496419847FEF7E1BFB3F88622F7
:104A30000132A3F88622FEF7F5BB9847FEF733BF95
:104A400042F22200135A01331352FEF798BC4FF082
:104A5000FF33A2E64FF0FF3EC3E59847FEF7F3BCF5
:104A60004C14002085AFFF1FB4EA0100B4EB010035
:104A7000E091FF1F8CAFFF1FE4B1FF1F7CAFFF1F52
:104A8000B04BB1492DE9F041D3F8404223685A694F
:104A90008A4214D19B6AAD4A934240F0958041F21C
:104AA0005833E3581879C0F34010002854D141F22C
:104AB0005833E358DA78110605D4BDE8F081204672
:104AC000BDE8F04110471A791206F6D541F21C12E2
:104AD0004FF40775A2589E4805FB024595F838200B
:104AE000511C85F8381021680E6A2A44864292F8D3
:104AF000391040F00C81D971E38A0133E38295F8D3
:104B000038206B6B9B1A002BD7DC95F83930002BC3
:104B100000F0E88023688F4A1B69934240F00781C8
:104B200006F02AF800EB4000000141F2503141F25A
:104B3000543301226050E2542368874ADB69934270
:104B400040F0EF8041F258332C22E358DA701723FB
:104B500084F83030BDE8F0812668804A736A41F2FB
:104B60001C119342655840F0D58041F25833E35808
:104B7000D879C0B24FF4077303FB0543D3F83C2147
:104B80009918013281F84001C3F83C21218B013191
:104B90002183D3F84C128A421BDA93F94131002B5E
:104BA00015DB33696B4A934240F0B88005F0E4FFAF
:104BB00000EB4000000141F2503141F25433022237
:104BC0006050E254BDE8F081204698476DE7042A22
:104BD000E7DD33695F4A934240F0A68005F0CCFFE1
:104BE00000EB4000000141F2543241F25036042102
:104BF0004FF40773A05103FB0543A15493F83910F8
:104C000093F84021914208D0628C0132628493F87B
:104C1000412242F0200283F841224FF4077101FB48
:104C200005F16318D3F83C71012F29DDB7F1020CAF
:104C300003F5A07168D0FF20DFF82481DFF824E1BC
:104C4000024601EB0C0611F8013B5340B14218F843
:104C5000032082EA00021EF80300F4D142EA002297
:104C600012B24FF4077303FB05439C441F449CF8A6
:104C7000401197F83F3143EA01231BB293420CD015
:104C8000A28C4FF40773013203FB0543A28493F80F
:104C9000412242F0400283F841224FF4077303FBA4
:104CA00005F3E21892F8411299B9A18A0131A18263
:104CB00092F94121002A0CDAA28B23440132A2830B
:104CC00093F84231052B38D0062B02D1238C0133C7
:104CD00023844FF4077303FB0544242384F84032F4
:104CE000BDE8F08123681B4A1B69934222D105F07D
:104CF00043FF00EB4000000141F2503141F25433D8
:104D000003226050E25417E74FF0FF32A9E7204634
:104D1000B047F1E62046984726682BE7204698479B
:104D200049E72046984712E7204698475BE7204628
:104D30009847FAE620469847DEE7E38B0133E383A2
:104D4000C7E700BFE091FF1F11090000A9040000A0
:104D50009104000025050000850400009D0400006A
:104D6000B4EA0100B4EB0100B04AB14941F6DC738A
:104D70002DE9F041D45823685A698A4214D19B6ABC
:104D8000AC4A934240F0958041F25833E358187989
:104D9000C0F34010002854D141F25833E358DA7878
:104DA000110605D4BDE8F0812046BDE8F04110476A
:104DB0001A791206F6D541F21C124FF40775A25863
:104DC0009D4805FB024595F83820511C85F83810A0
:104DD00021680E6A2A44864292F8391040F00C810C
:104DE000D971E38A0133E38295F838206B6B9B1A03
:104DF000002BD7DC95F83930002B00F0E8802368D1
:104E00008E4A1B69934240F0078105F0B5FE00EB26
:104E10004000000141F2503141F254330122605010
:104E2000E2542368864ADB69934240F0EF8041F206
:104E300058332C22E358DA70172384F83030BDE859
:104E4000F08126687F4A736A41F21C1193426558CB
:104E500040F0D58041F25833E358D879C0B24FF4CE
:104E6000077303FB0543D3F83C219918013281F8FD
:104E70004001C3F83C21218B01312183D3F84C122E
:104E80008A421BDA93F94131002B15DB33696B4AF7
:104E9000934240F0B88005F06FFE00EB4000000147
:104EA00041F2503141F2543302226050E254BDE8E5
:104EB000F081204698476DE7042AE7DD33695F4AB1
:104EC000934240F0A68005F057FE00EB4000000141
:104ED00041F2543241F2503604214FF40773A0518D
:104EE00003FB0543A15493F8391093F840219142F4
:104EF00008D0628C0132628493F8412242F0200291
:104F000083F841224FF4077101FB05F16318D3F8D0
:104F10003C71012F29DDB7F1020C03F5A07168D0B7
:104F2000FF20DFF82481DFF824E1024601EB0C06C4
:104F300011F8013B5340B14218F8032082EA000205
:104F40001EF80300F4D142EA002212B24FF40773B4
:104F500003FB05439C441F449CF8401197F83F31E4
:104F600043EA01231BB293420CD0A28C4FF4077387
:104F7000013203FB0543A28493F8412242F0400230
:104F800083F841224FF4077303FB05F3E21892F80C
:104F9000411299B9A18A0131A18292F94121002AD5
:104FA0000CDAA28B23440132A28393F84231052B01
:104FB00038D0062B02D1238C013323844FF407739E
:104FC00003FB0544242384F84032BDE8F0812368C4
:104FD0001A4A1B69934222D105F0CEFD00EB400036
:104FE000000141F2503141F2543303226050E25447
:104FF00017E74FF0FF32A9E72046B047F1E6204619
:10500000984726682BE72046984749E72046984767
:1050100012E7204698475BE720469847FAE6204685
:105020009847DEE7E38B0133E383C7E7E091FF1F97
:1050300011090000A90400009104000025050000EA
:10504000850400009D040000B4EA0100B4EB0100F7
:1050500070B5104C104A114E114D204630230121DD
:10506000FCF70EFC04F5EC5030230E4A02211C30F4
:10507000FCF706FC32460C49002007F06FF9214688
:105080002846FCF74DFE324628460849BDE87040E8
:1050900007F064B9E091FF1F90E701002087FF1F30
:1050A00018CDFF1F98E7010021050000B150000056
:1050B00070B500F5884400F58C4568341835354BDB
:1050C0000360AC42064622D0D83D05F1C00002F094
:1050D0003DF805F1A80002F039F805F1900002F062
:1050E00035F805F1780002F031F805F1600002F0C2
:1050F0002DF805F1480002F029F805F1240002F02E
:105100003DF805F1080002F039F8AC42DCD106F5B3
:1051100084451835A4F5947404F5807001F0DEFB25
:1051200004F1F40001F0DAFB04F1E80001F0D6FB31
:1051300004F1DC0001F0D2FB04F1D00001F0CEFB61
:1051400004F1B40002F01AF804F1980002F02EF80D
:1051500004F17C0002F02AF804F1600002F026F865
:1051600004F1440002F022F804F1280002F01EF8D5
:1051700004F11C0001F0B0FB04F1100001F0AAFBE7
:10518000A542C7D13046044B40F8D03B01F046FC65
:10519000304670BDECE5010014E5010070B500F586
:1051A000884400F58C4568341835384B0360AC42B0
:1051B000064622D0D83D05F1C00001F0C7FF05F139
:1051C000A80001F0C3FF05F1900001F0BFFF05F159
:1051D000780001F0BBFF05F1600001F0B7FF05F1B9
:1051E000480001F0B3FF05F1240001F0C7FF05F10D
:1051F000080001F0C3FFAC42DCD106F58445183548
:10520000A4F5947404F5807001F068FB04F1F400D7
:1052100001F064FB04F1E80001F060FB04F1DC0044
:1052200001F05CFB04F1D00001F058FB04F1B40084
:1052300001F0A4FF04F1980001F0B8FF04F17C0034
:1052400001F0B4FF04F1600001F0B0FF04F144008C
:1052500001F0ACFF04F1280001F0A8FF04F11C00EC
:1052600001F03AFB04F1100001F034FBA542C7D174
:105270003046074B40F8D03B01F0D0FB304644F2BB
:10528000206106F04DFD304670BD00BFECE5010029
:1052900014E501002DE9F04F89B004460426C288C8
:1052A00083884B49009202250296019548300122DD
:1052B00001F008FCE288A38846490296053292B2C2
:1052C0008DE8240004F160004FF0FF3201F0FAFB9A
:1052D000E288A388404902960A3292B28DE82400FF
:1052E00004F178004FF0FF3201F0ECFBA388E28874
:1052F000009204F1900A03330296019550469BB246
:1053000000223649DFF8E4B001F0DCFBE288A38834
:105310000296053204F1A80992B203338DE8240005
:10532000484659469BB2002201F0CCFBE288A38894
:105330002B4902960A3204F1C00892B203338DE879
:10534000240040469BB2002201F0BCFBA288254904
:10535000E388029142F210710125002604F108074A
:105360000391063210213846019192B206950595B7
:10537000009504961C4901F069FCA288E388DFF8D7
:1053800070E0CDF80CE024341021083292B2019183
:10539000204659460695059504960296009501F01B
:1053A00055FC2946504601F03BFB3146484601F08A
:1053B00037FB3146404601F033FB2946384601F0C1
:1053C0002FFB2946204609B0BDE8F04F01F028BB6D
:1053D000A0E70100A8E70100B4E70100C4E701006D
:1053E000D8E70100F0D8FFFFE0E70100CCE70100BB
:1053F000E09304002DE9F04F00F108080446ADF5F4
:10540000117D404601F038FA04F124092064484631
:1054100001F032FA606404F1600001F0EBFA002858
:1054200040F0FA8204F1780001F0E4FA002840F03C
:105430009D8204F14805284601F058FB002840F001
:10544000898204F1900B584601F0D4FA002840F00C
:10545000FF8104F1A803859304F1C0038493859828
:1054600001F0C8FA002840F08F80849801F0C2FA59
:1054700018B90DF5117DBDE8F08FCF4B86931A4614
:1054800023681568D3F848722846022102F03EFDD1
:105490002846722102F03AFD3B78B3B1A2460026BD
:1054A0001C4607E00136B6B22146284602F02EFD22
:1054B000BC5D4CB1022C4FF01001284601D08C424B
:1054C000F0D102F023FDEDE754462846192102F001
:1054D0001DFD2846032102F019FD2846022102F095
:1054E00015FD869BB54E1D680221284602F00EFD73
:1054F0002846722102F00AFD20274FF0000A0AE038
:105500000AF1010A1FFA8AFA3946284602F0FEFC1F
:1055100016F80A704FB1022F4FF01001284601D043
:105520008F42EDD102F0F2FCEAE72846192102F0A1
:10553000EDFC2846032102F0E9FC2846022102F096
:10554000E5FC3946584601F06BFA3946859801F07A
:1055500067FA8498012101F063FA3946404601F068
:105560005FFA4846012101F05BFA236841F67C515D
:1055700041F69C0202245C54995840460DF5117D79
:10558000BDE8F04F01F082BB8B4B86931A4623682F
:105590001568D3F848722846022102F0B7FC284665
:1055A000722102F0B3FC3B78C3B19A462346002631
:1055B00054469A4607E00136B6B22146284602F024
:1055C000A5FCBC5D4CB1022C4FF01001284601D067
:1055D0008C42F0D102F09AFCEDE75446284619219E
:1055E00002F094FC2846032102F090FC2846022198
:1055F00002F08CFC869B724E1D680221284602F048
:1056000085FC2846722102F081FC20274FF0000A19
:105610000AE00AF1010A1FFA8AFA3946284602F01E
:1056200075FC16F80A704FB1022F4FF01001284692
:1056300001D08F42EDD102F069FCEAE7284619213A
:1056400002F064FC2846032102F060FC2846022197
:1056500002F05CFC3946584601F0E2F901218598D8
:10566000DFF868A101F0DCF93946849801F0D8F937
:105670002568DAF80060C5F8146241F67C5204210E
:1056800013202F72EF726F732B46A9540121102241
:1056900001366860697285200521AA720A22287382
:1056A000A973CAF8006003F80F2F64268DF82D0245
:1056B0008DF82F120220FF218DF839228DF830222B
:1056C0002A1D86928DF83C128DF83D128DF83472A9
:1056D0008DF836728DF838728DF83A728DF83B720B
:1056E0008DF82C728DF82E728DF835628DF8370298
:1056F0008DA9072201E011F8017F03F8017F013233
:10570000112AF8D105F10903FF202E4F2E4E879361
:105710001946024605F11A0E11F8013B5340714536
:10572000FA5C82EA0002F05CF6D1869B42EA002233
:1057300012B203F10C00C2F30721EA760822D5F871
:1057400020328890A976C5F81C2201464FF40472D5
:105750006846899305F0CEF8899B1846869B0ECB48
:10576000FBF7A8FDDAF80020C5F814220121082370
:105770002120AE4685F810020A446B604FF0060CFB
:105780000023042085F811326972297385F80AC054
:1057900068732B72C5F81C3285F81832C5F80C31C5
:1057A000EB72CAF800200EF80E3F87998020812204
:1057B0004FF0FF0C12E000BF4087FF1F0CE8010014
:1057C000FCE70100B4EA0100B4EB01004C14002036
:1057D00011F8012F53408446FA5CF05C8CEA020316
:1057E0007145DBB2F4D143EA00231BB2C3F30721B6
:1057F00008222B74E973C5F81C228899D5F8206219
:105800004FF40472684605F075F8869B30460ECB5F
:10581000FBF750FD0026212385F81032404685F81D
:1058200011622E7285F81862C5F81C626E60C5F8A8
:105830000C61012101F0F4F83146484601F0F0F81E
:10584000226841F690034846D15801F01FFA0CE651
:10585000CB4B86931A4623681768D3F848A238467C
:10586000022102F053FB3846722102F04FFB9AF8F6
:10587000005000264DB912E00136B6B2294638462E
:1058800002F044FB1AF806504DB1022D4FF0100102
:10589000384601D08D42EFD102F038FBECE73846B4
:1058A000192102F033FB3846032102F02FFB384662
:1058B000022102F02BFB869BDFF8E4A21F68022185
:1058C000384602F023FB3846722102F01FFB2025E8
:1058D000002608E00136B6B22946384602F016FB2B
:1058E0001AF806504DB1022D4FF01001384601D084
:1058F0008D42EFD102F00AFBECE73846192102F0A5
:1059000005FB3846032102F001FB3846022102F074
:10591000FDFA04F1A803012158461E46859301F0C3
:105920007FF804F1C0031F4630462946849301F0F6
:1059300077F83846294601F073F80121404601F016
:105940006FF80121484601F06BF8226841F67C535C
:10595000D55484E5284601F03FF8236D002B00F074
:10596000B1802368012283F854226AE585482568BE
:10597000036895F82422C5F81432591C4FF0080A20
:1059800000234FF0020E01604FF0060CFF20C5F817
:1059900004A085F80EE02B72EB722B736B737A4FB9
:1059A0007A4E85F80AC06A7205F1040A05F1090108
:1059B00005F10E0E034601E011F8012F5A408E4505
:1059C000BB5C83EA0003B05CF6D143EA00231BB260
:1059D000C3F307210822D5F820622B74E973C5F8B8
:1059E0001C220AF10C014FF40472684604F082FF95
:1059F0009AE80E003046FBF75DFC0023212285F873
:105A000010222B7285F8113285F81832C5F81C3235
:105A10006B60C5F80C310CE55A482568036895F8A9
:105A20002422C5F81432591C4FF0040E00234FF005
:105A3000080A01604FF0060CFF20C5F804A085F8A5
:105A40000EE005EB0E0A2B72EB722B736B734E4F4D
:105A50004E4E85F80AC06A7205F1090105F10E0E75
:105A6000034601E011F8012F5A408E45BB5C83EAE2
:105A70000003B05CF6D143EA00231BB2C3F3072155
:105A80000822D5F820622B74E973C5F81C220AF1AC
:105A90000C014FF40472684604F02CFF9AE80E00E3
:105AA0003046FBF707FC0023212285F810222B72D9
:105AB00085F8113285F81832C5F81C326B60C5F8CC
:105AC0000C31AFE4256895F83C2285F85432362A2B
:105AD00045D0D5F840022E490368DB683226002203
