:1000000000800020BD010000495A0000015A000094
:10001000015A0000015A0000015A0000015A000074
:10002000015A0000015A0000015A0000495A00001C
:10003000495A0000015A0000D96A0000DD6A000038
:10004000495A0000495A0000495A0000495A000024
:10005000495A0000495A0000495A0000495A000014
:10006000495A0000495A0000495A0000495A000004
:10007000495A0000495A0000495A0000495A0000F4
:10008000495A0000495A0000495A0000495A0000E4
:10009000495A0000495A0000495A0000495A0000D4
:1000A000495A0000495A0000495A0000495A0000C4
:1000B000495A0000495A0000495A0000495A0000B4
:1000C000495A0000495A0000495A0000495A0000A4
:1000D000495A0000495A0000495A0000495A000094
:1000E000495A0000495A0000495A0000495A000084
:1000F000495A0000495A0000495A0000692D000081
:10010000495A0000495A0000495A0000495A000063
:10011000495A0000495A0000495A0000495A000053
:10012000495A0000495A0000495A0000495A000043
:10013000495A0000495A0000495A0000495A000033
:10014000495A0000495A0000495A0000495A000023
:10015000495A0000495A0000495A0000495A000013
:10016000495A00000D5E0000495A0000495A00003B
:10017000495A0000495A0000495A0000495A0000F3
:10018000495A0000495A0000495A0000495A0000E3
:10019000495A0000495A0000495A0000495A0000D3
:1001A000495A0000495A0000495A0000495A0000C3
:1001B000495A0000495A0000495A0000564B4CF277
:1001C000205210B51A804DF628121A8000BF00BFC9
:1001D00005F03EFC514B4FF010621A60504A9A6095
:1001E000504ADA60504A136813F4807304D14F49BF
:1001F0000B604FF4A85313604D4B1A78110703D5C9
:100200001A7842F008021A704A4B4B492A221A7097
:100210004A4A4B4B8B4204D252F8040F43F8040B6A
:10022000F8E7484B484900228B4202D243F8042B9E
:10023000FAE74649464A002352F8230041F82300D2
:1002400001336F2BF8D1434B434A802103F8011B44
:100250009342FBD1414B3D4A1A60414B8A221A70AE
:10026000A3F5805324225A70A0221A709A7992071B
:10027000FCD59A79D406FCD43A4A937903F00C035E
:10028000082B384BF9D103221A7140225A719A79FE
:100290009006FCD5334A9179324B4906FBD5324A58
:1002A000324911600221516020221A709A7902F0BD
:1002B0000C020C2AFAD12E4B2E4A1A602E4B4BF60A
:1002C0007F321A6000225A60072243F8042C2B4A1E
:1002D000C3F80C2D62B605F071FC144B1B68DA07ED
:1002E00005D5274805F0E8FB264B274A1A60274B1F
:1002F0001B785B0609D5234C234B22689A4204D114
:100300001F4805F0D9FB0023236010F0CFFF05F054
:10031000A5FB06F0ABFCFEE70E2005403080044054
:10032000823F04000100002B10D0034014D0034092
:1003300002D0074000E00740A891FF1F0CBF01005A
:100340002087FF1FA891FF1FF8F4FF1F0082FF1FE7
:100350000000000000E400E05FE400E008ED00E0E1
:100360000050064000400640448004400000131145
:1003700004800440C010050014E000E000002020CC
:10038000064775621CE00340A5C3945A00F007407D
:10039000FFFFFFFFFFFFFFFFFFFFFFFFFFFFFFFF6D
:1003A000FFFFFFFFFFFFFFFFFFFFFFFFFFFFFFFF5D
:1003B000FFFFFFFFFFFFFFFFFFFFFFFFFFFFFFFF4D
:1003C000FFFFFFFFFFFFFFFFFFFFFFFFFFFFFFFF3D
:1003D000FFFFFFFFFFFFFFFFFFFFFFFFFFFFFFFF2D
:1003E000FFFFFFFFFFFFFFFFFFFFFFFFFFFFFFFF1D
:1003F000FFFFFFFFFFFFFFFFFFFFFFFFFFFFFFFF0D
:10040000FFFFFFFFFFFFFFFFFFFFFFFFDEF9FFFF23
:1004100010B5054C237833B9044B13B10448AFF33E
:1004200000800123237010BDA891FF1F0000000071
:100430004CBB0100084B10B51BB108490848AFF38D
:1004400000800848036803B910BD074B002BFBD0A0
:10045000BDE81040184700BF00000000AC91FF1F2E
:100460004CBB0100A891FF1F00000000704700BFB7
:10047000002070470020704741F25833EC22C358E7
:10048000DA70704741F258332C22C358DA70704743
:1004900041F25833C358D971704700BF41F2583305
:1004A000C358D879704700BF41F25833C358187900
:1004B000C0F34010704700BF41F258324B0810B4EF
:1004C00003F1B763845803F55843B3FBF1F1C1F36B
:1004D000443323708358C1F347145C70835801F090
:1004E0001F01997210BC7047024641F688530021E3
:1004F000C05CD154704700BF00F5AF5300F5EB521C
:1005000002331A32002123F8021F9342FBD17047B5
:1005100044F210230022C254704700BF704700BF4E
:10052000704700BF08B505F0D9FA00EB40000001A4
:1005300008BD00BF08B505F0D1FA002108BD00BF15
:1005400010B541F27831044606F09CFB204610BD00
:1005500010B584B00222684606F06EFB054C009B85
:100560006846002B18BF1C4606F0DCFA204604B093
:1005700010BD00BF169A010010B584B01146684640
:100580000A2206F045FB054C009B6846002B18BF6D
:100590001C4606F0C7FA204604B010BD169A0100AA
:1005A00010B584B00A22684606F01EFB054C009B7D
:1005B0006846002B18BF1C4606F0B4FA204604B06B
:1005C00010BD00BF169A010010B584B00A2268461B
:1005D00006F0F6FA054C009B6846002B18BF1C4637
:1005E00006F0A0FA204604B010BD00BF169A010024
:1005F00010B5044605E006F0E3F8C1B2204604F069
:10060000D1F906F019F90028F5D110BD10B5044B49
:10061000044640F8D03B03F09FFA204610BD00BFCF
:100620009494010010B5064B044640F8D03B03F00B
:1006300093FA204644F2182106F024FB204610BD10
:100640009494010010B50446D0F840020B4A0368A8
:100650001B6993420AD105F041FA00EB400000010A
:100660000123C4F8600284F85C3210BD984701236E
:10067000C4F8600284F85C3210BD00BF250500009C
:1006800038B590F85C4214B90024204638BD0546C0
:10069000D0F840020A4A03681B6993420DD105F065
:1006A0001DFA00EB40000001D5F86022D5F8643255
:1006B000801A9842E8D3204638BD9847F4E700BF37
:1006C00025050000F8B542F2E40242F2E003825848
:1006D000C3589342054613D000F503573C463E46A7
:1006E00020341C3724363A681A402A44013392F8E1
:1006F000D800236006F04EF9236832689342F2D1A5
:1007000044F2FC03EA5C32B144F2102101200022E1
:100710006854EA54F8BDF8BD10B503680C4ADB69AB
:10072000934284B00ED10A22684606F049FA094C79
:10073000009B6846002B18BF1C4606F0F3F92046C4
:1007400004B010BD98470446204604B010BD00BF59
:10075000C9050000169A010010B503680C4A1B6A0F
:10076000934284B00ED10A22684606F03DFA094C45
:10077000009B6846002B18BF1C4606F0D3F92046A4
:1007800004B010BD98470446204604B010BD00BF19
:10079000A1050000169A0100F8B5594D594ED5F83B
:1007A00000C041F2683300F59B5EC358DEF800E0FC
:1007B00041F2583241F264374CEA0303C7592B60C7
:1007C0008358DFF848C140F21335CEF800504FF49B
:1007D000517E1225C7F800E09D70835800251D74D6
:1007E00083582C25DD70835841F25C370E259D71AE
:1007F000C35D03F1604303F5644340251D70C55D8F
:100800006B119B0003F1604303F561434FF0010E50
:1008100005F01F050EFA05F51D600568C35DEF685C
:1008200003F01F055B110EFA05F56745044646F80F
:1008300023505FD10B4621FA0EF1805801F1B761C8
:1008400001F55841B1FBF3F1C1F344330370A358F0
:10085000C1F347105870A35801F01F01997200218D
:100860000A4623464FF4077E21270EFB0140013143
:10087000082980F840724FF0210680F841224FF09D
:100880000005C0F84C2283F8382083F848225A63C8
:10089000C3F83C2103F50773E7D104F589531A49DE
:1008A00083F80C621D7183F80D5283F8145222688C
:1008B0001269C3F8185241F2141741F2181641F2A6
:1008C0001C101D60C3F808518A424FF01403E55113
:1008D000A551255084F830300ED105F0FFF800EB1B
:1008E0004000000141F2503141F254330422605083
:1008F000E254F8BDB847B2E720469047F2E700BFA0
:100900003480044080E200E025050000B9040000C6
:100910000368AB4A9B6A93422DE9F041044640F0DC
:10092000918041F25833C3581879C0F34010002821
:1009300050D141F25833E358DA78110601D4BDE8BA
:10094000F0811A791206FAD541F21C124FF407759C
:10095000A2589C4805FB024595F83820511C85F8A3
:10096000381021680E6A2A44864292F8391040F005
:10097000F780D971E38A0133E38295F838206B6BF5
:100980009B1A002BDBDC95F83930002B40F0EB8014
:1009900023688D4A1B69934240F0FB8005F09EF866
:1009A00000EB4000000141F2503141F25433032288
:1009B0006050E2542368854ADB69934240F0F2803C
:1009C00041F258332C22E358DA70172384F8303080
:1009D000BDE8F08126687E4A736A41F21C11934299
:1009E000655840F0D28041F25833E358D879C0B20C
:1009F0004FF4077303FB0543D3F83C2199180132E8
:100A000081F84001C3F83C21218B01312183D3F8C7
:100A10004C128A421ADA93F94131002B14DB336904
:100A2000694A934240F0BB8005F058F800EB400063
:100A3000000141F2503141F2543302226050E2543D
:100A4000BDE8F081984772E7042AE8DD33695E4A21
:100A5000934240F0AA8005F041F800EB400000010D
:100A600041F2543241F2503604214FF40773A05141
:100A700003FB0543A15493F8391093F840219142A8
:100A800008D0628C0132628493F8412242F0200245
:100A900083F841224FF4077101FB05F16318D3F885
:100AA0003C71012F2ADDB7F1020C03F5A07100F0B3
:100AB0008380FF20DFF81C81DFF81CE1024601EB98
:100AC0000C0611F8013B5340B14218F8032082EAAA
:100AD00000021EF80300F4D142EA002212B24FF4E1
:100AE000077303FB05439C441F449CF8401197F88F
:100AF0003F3143EA01231BB293420CD0A28C4FF446
:100B00000773013203FB0543A28493F8412242F0AC
:100B1000400283F841224FF4077303FB05F3E21808
:100B200092F8411299B9A18A0131A18292F9412129
:100B3000002A0CDAA28B23440132A28393F84231BB
:100B4000052B35D0062B02D1238C013323844FF49F
:100B5000077303FB0544242384F84032BDE8F08189
:100B60002046B04706E72368174A1B69934213D112
:100B700004F0B4FF00EB4000000141F2503141F2BB
:100B8000543301226050E25414E720469847266807
:100B90002EE72046984706E720469847EDE720468F
:100BA000984746E7204698470FE72046984757E77B
:100BB000E38B0133E383CAE74FF0FF328FE700BFD7
:100BC000A904000091040000250500008504000030
:100BD0009D04000014980100149901002DE9F843C8
:100BE000044688460221174603F012FF2046722170
:100BF00003F00EFFDFF87C915525002608E0013652
:100C0000B6B22946204603F003FF19F806504DB14D
:100C1000022D4FF01001204601D08D42EFD103F09C
:100C2000F7FEECE71921204603F0F2FE03212046EF
:100C300003F0EEFE0221204603F0EAFE02212046E8
:100C400003F0E6FE7221204603F0E2FE98F8006011
:100C50004EB912E00135ADB23146204603F0D8FE60
:100C600018F805604EB1022E4FF01001204601D059
:100C70008E42EFD103F0CCFEECE71921204603F0C1
:100C8000C7FE0321204603F0C3FE0221204603F0E5
:100C9000BFFE0221204603F0BBFE7221204603F076
:100CA000B7FE3D789DB1002607E00136B6B2294671
:100CB000204603F0ADFEBD5D4DB1022D4FF0100199
:100CC000204601D08D42F0D103F0A2FEEDE71921BC
:100CD000204603F09DFE0321204603F099FE0221E9
:100CE000204603F095FE0221204603F091FE72217A
:100CF000204603F08DFE0D21204603F089FE1921C8
:100D0000204603F085FE0321204603F081FE0221E8
:100D1000204603F07DFE0221204603F079FE722179
:100D2000204603F075FE55260025114F07E00135DA
:100D3000ADB23146204603F06BFE7E5D4EB1022E11
:100D40004FF01001204601D08E42F0D103F060FE3A
:100D5000EDE72046192103F05BFE2046032103F056
:100D600057FE20460221BDE8F84303F051BE00BF04
:100D7000BC950100A89501002DE9F04389B000253C
:100D80000E4607460DF1100808462F49CDF8088099
:100D9000914603958DF8105011F086FA48B130460F
:100DA0002A4911F081FA002838D0284609B0BDE858
:100DB000F083274B274F1E6802210446304603F07C
:100DC00027FE3046722103F023FE772507E0013429
:100DD000A4B22946304603F01BFE3D5D4DB1022D05
:100DE0004FF01001304601D08D42F0D103F010FEDB
:100DF000EDE71921304603F00BFE0321304603F0E6
:100E000007FE3046022103F003FE0298404519D048
:100E100005F036FF012009B0BDE8F08308AA0C4BAD
:100E200042F81C0D4946186802F0A2FF44F2342330
:100E300044F214220221BA58F85041F67C53029829
:100E4000D154E3E70120B1E7F495010004960100D5
:100E50002887FF1FFC9501002DE9F0438BB00DF1B1
:100E60002808152548F8285D894600224146044691
:100E700006AF04A8049706F029FA009B7749069369
:100E80002A46049004F0E8FC009B049A059300268F
:100E9000D6544846724911F007FA80B14846714964
:100EA00011F002FA0546002800F09D800498B8422F
:100EB00001D005F0E5FE30460BB0BDE8F08302211D
:100EC0000546204603F0A4FD7221204603F0A0FD54
:100ED000DFF8A091532608E00135ADB23146204637
:100EE00003F096FD19F805604EB1022E4FF0100187
:100EF000204601D08E42EFD103F08AFDECE71921A4
:100F0000204603F085FD0321204603F081FD0221E8
:100F1000204603F07DFD2368534A5B68934240F00E
:100F2000938004F0DBFD2268504B516A994240F0F7
:100F30008F8001460A22404605F06AFE009B4C4A1B
:100F40004046002B14BF9846904605F0EBFD022169
:100F5000204603F05DFD7221204603F059FD98F80C
:100F6000005000264DB912E00136B6B2294620469F
:100F700003F04EFD18F806504DB1022D4FF0100150
:100F8000204601D08D42EFD103F042FDECE719215C
:100F9000204603F03DFD0321204603F039FD0221E8
:100FA000204603F035FD0221204603F031FD722179
:100FB000204603F02DFD20260025DFF8BC8008E048
:100FC0000135ADB23146204603F022FD18F8056028
:100FD000B6B1022E4FF01001204601D08E42EFD163
:100FE00003F016FDECE7DDF810800221204603F047
:100FF0000FFD7221204603F00BFD98F80060CEB97A
:101000001921204603F004FD0321204603F000FDD2
:101010002046022103F0FCFC012647E703F0F8FC20
:101020000135ADB23146204603F0F2FC18F80560F8
:10103000002EE5D0022E4FF010012046EED08E4259
:10104000EED103F0E5FCEBE7204698470E466AE751
:101050000246334620468847804678E708960100D6
:101060002096010044960100350500007905000036
:10107000169A01002C9601003C96010084B02DE9DF
:10108000F041ADF5087D8FAC4FF4077684E80E0093
:101090000546214601A8324604F0DEFB41F2141752
:1010A00041F21813EC59EB58E31A03F00703072B2E
:1010B0001AD006FB04580023212088F8400288F843
:1010C000483288F84132C8F83C31C8F84C3201A99E
:1010D000324608F13400013404F0BEFB04F007048A
:1010E000222388F84032EC5101200DF5087DBDE83F
:1010F000F04104B0704700BF2DE9F047DFF8689376
:10110000DFF868E3D9F80010D64E04460823002221
:101110004FF0030C90271125481C04F10908636067
:10112000012384F80AC02773A573C9F8000022724E
:1011300062736372E372ADF5047DC4F81412404625
:10114000251D04F10E074FF0800C8122FF2307E0DC
:1011500010F8011F594063461EF8012016F801C01F
:1011600053408742DBB2F3D143EA0C231BB2C3F3F3
:101170000721D4F820A22374272205F10C06E1737D
:10118000C4F81C2231464FF40472684604F064FB34
:1011900095E80E005046FFF771FFD9F80030C4F80B
:1011A00014325A1C4FF0210E0023082084F810E25C
:1011B00001214FF0030EC9F80020B02284F811324B
:1011C0002372C4F81C3284F81832C4F80C316373EB
:1011D0006060A07384F80AE02273DFF890A2DFF861
:1011E00084C26172E17240464FF0800E8122FF237B
:1011F00007E010F8011F594073461AF801201CF847
:1012000001E053408742DBB2F3D143EA0E231BB225
:10121000C3F30721D4F820A223741522E173C4F884
:101220001C2231464FF40472684604F015FB95E821
:101230000E005046FFF722FFD9F80030C4F81432F0
:1012400021215A1C84F8101200234FF0080E0120AF
:101250002173C9F800200321382284F81132237247
:10126000C4F81C3284F81832C4F80C31E37263738A
:10127000C4F804E06072A273DFF8F0A1DFF8E4C103
:10128000A17240464FF0800E8122FF2307E010F844
:10129000011F594073461AF801201CF801E0534021
:1012A0008742DBB2F3D143EA0E231BB2C3F307211B
:1012B000D4F820A223747522E173C4F81C223146AD
:1012C0004FF40472684604F0C7FA95E80E005046E1
:1012D000FFF7D4FED9F80030C4F814325A1C21218B
:1012E000002384F810124FF0080E012084F8113208
:1012F0000321C9F8002023726022C4F81C3284F84C
:101300001832C4F80C31E37263730B23C4F804E0A1
:1013100060722273A373DFF854A1DFF848C1A17291
:1013200040464FF0800E8122FF2307E010F8011F96
:10133000594073461AF801201CF801E053408742D7
:10134000DBB2F3D143EA0E231BB2C3F30721D4F877
:1013500020A223741B22E173C4F81C2231464FF4EF
:101360000472684604F078FA95E80E005046FFF7DC
:1013700085FED9F80030C4F814325A1C212000230D
:1013800084F8100208214FF0010E0320C9F8002054
:10139000702284F811322372C4F81C3284F8183297
:1013A000C4F80C31E372637384F809E0A07222730D
:1013B000DFF8B8A0DFF8ACC06160A17340464FF021
:1013C000800E8122FF2307E010F8011F5940734669
:1013D0001AF801201CF801E05340B842DBB2F3D107
:1013E00043EA0E231BB2C3F30721D4F820A22374CF
:1013F0001522E173C4F81C2231464FF4047268468A
:1014000004F02AFA95E80E005046FFF737FED9F8A7
:101410000030C4F814325A1C2121002384F8101221
:10142000012084F811324FF0080AC9F80020032186
:1014300010222372C4F81C3284F81832C4F80C311C
:10144000E37263738023607223731846A273DFF81C
:101450001CC0DFF810E0C4F804A0A1728122FF23B1
:101460000EE000BF14990100B4F2FF1F14980100B0
:1014700018F8011F594003461CF801201EF801000E
:101480005340B845DBB2F3D143EA00231BB2C3F3A8
:101490000721D4F8207223742522E173C4F81C229A
:1014A00031464FF40472684604F0D6F995E80E0010
:1014B0003846FFF7E3FD0023212284F8102223722F
:1014C00084F8113284F81832C4F81C326360C4F80E
:1014D0000C310DF5047DBDE8F08700BF2DE9F04328
:1014E0000026ADF2646D154689464FF48072314690
:1014F00004460DF111001F46BDF880868DF810607E
:1015000010F0B4FB31464FF4807246A8459610F0B7
:10151000ADFB4A488DF82062D0F800E08DF80560F8
:10152000694221233D0E3A0C8DF81832C9B23B0AAC
:101530004FEA282C8DF819628DF8097041260C2786
:101540008DF806500EF101058DF807208DF8083052
:1015500005608DF811908DF804108DF80B808DF8D2
:101560000AC001AA03978DF81260CDF81CE20DF1B4
:101570001200022301E012F8011F00F8011F0133DD
:101580000A2BF8D1FF202E4F2E4E0DF111010246ED
:101590000DF11B0511F8013B5340A942FA5C82EAA8
:1015A0000002F05CF6D142EA00231BB2C3F307212C
:1015B0004FF407768DF81C300C2332468DF81B1043
:1015C0008AA80DEB0301D4F84052899304F044F942
:1015D0008AA932460DF2444004F03EF941F2141754
:1015E00041F2181355F80780EB58C3EB080303F0DA
:1015F0000703072B1CD006FB08540023212084F886
:101600004002324684F8413284F84832C4F83C3112
:10161000C4F84C320DF2444104F1340004F01CF9DA
:1016200008F1010303F00703222284F84022EB5162
:1016300001200DF2646DBDE8F08300BFB4F2FF1F1E
:1016400014980100149901002DE9F0435F4B0360E9
:10165000054600274FF4005883B0C0F8CC70D03056
:101660000C4602F077FA42463946C5F8D47005F1C7
:10167000D80010F0FBFA05F5035642F2E40342F2FB
:10168000D80042F2DC0142F2E002283641F6FF794E
:1016900045F8008045F801903046AF503946424643
:1016A000EF5010F0E3FA06EB080042F2080CC0F825
:1016B000008042F2040005F5824346F8009042F2B1
:1016C0000C0046F80C70375044F2F80C44F2FC0061
:1016D00044F2041845F80C703D4A2F5444F20810A7
:1016E0001A6044F20C1C45F808203A4A2A504FF47C
:1016F0007A7225F80C2044F2141044F2241C44F2AF
:1017000028122F5044F22C189F61DF6144F22E10F2
:1017100045F80C70DFF8D8E0AF5044F2301C44F2CA
:10172000FA121E4644F2FC1325F80870DEF8001089
:101730002F5225F80C7044F2101CAF5205F584406E
:10174000EF524FF001084CF250320023C0E902235F
:1017500005F80C80F9B144F2102201211E4BA95466
:101760001E482B6005F0C2F944F214221C4BAC5009
:1017700005F584402B60183002F0F0F9194A1A4B35
:1017800012680192019944F230222846A950336030
:1017900003B0BDE8F0831548CBB2082213F0800FE8
:1017A00002F1FF324FEA430318BF83F0D50312F072
:1017B000FF02DBB2F2D10131B1F5807F00F8013FC9
:1017C000EAD10123CEF80030C5E700BF94940100B0
:1017D0004C96010060960100289501003487FF1F98
:1017E0006C950100B8F2FF1F6C960100B3F1FF1F6A
:1017F000B0F1FF1FF8B5744D7449D5F84002036885
:10180000DB68322400228B4285F83C42C5F8502226
:1018100040F0D48041F258339C21C4582270C25801
:101820005170C35808229A72D5F84002684B02687A
:10183000684E146941F23C314FF4FA62415841F26A
:101840004C3702FB01F203FB01F300F59A51C25140
:10185000B4424FF001020B6085F85C2240F0B28088
:1018600004F03CF900EB400000015B4BC5F860025E
:10187000012203F5F36485F85C22002023F8020FAF
:101880009C424FF00002F9D1544C554BD4F800E083
:101890001E6841F2D05041F2C8572858EF594EEA1D
:1018A000000041F2CC5E206055F80E4040F213304B
:1018B00038604FF4517712202760B0701868494C97
:1018C000027419682C20C870196841F2C4570E20A0
:1018D0008871E95D01F1604101F5644140200870C3
:1018E000E85D4111890001F1604101F56141012686
:1018F00000F01F0006FA00F00860E95D186801F0CA
:101900001F054911AE4044F82160027019689C20FF
:1019100048701968A3F5AE5508238B724FF4077E03
:101920002946134621270EFB02500132082A80F86F
:10193000A874254C80F8A9344FF02106C0F8B434BF
:1019400001F5077181F8843081F89432C1F8803054
:10195000C1F888314FF00000E5D141F2945741F2CF
:10196000955504F5AD5141F28C3241F29C53E65548
:10197000A054605541F28432086041F27C3504F590
:101980009C5141F2883741F29046E0541423605153
:101990000860A05084F89832E051A05104F09EF8FD
:1019A00041F2B85500EB4000030141F2BC526351D3
:1019B00004210123A15484F85432F8BD4FF4964118
:1019C000984731E7A04750E7C891FF1FB9040000CE
:1019D000A086010025050000AAA7FF1F348004404F
:1019E00088A7FF1F80E200E02DE9F04F44F2342287
:1019F000B94DBA4CAA5841F68C53ADF50F7DE25063
:101A000004F06CF841F2BC5600EB400004F5EC57D2
:101A1000A35D00013860002B40F0EE81AF4841F239
:101A20007C3300F59C56E15832688A4239D04FF435
:101A3000077303FB02F300EB030E9EF8A8C4BCF18E
:101A4000240F2ED1891A11F007013FD041F6885199
:101A50004FF0010C4FF025088EF8A88400F801C063
:101A600062449EF8A91402F007020EF5277C32604A
:101A7000C0F84CC201F0FF02002940F0CA8041F6D4
:101A800094519EF8A9E3C0F850224258BEF1030FCA
:101A900002F10102425000F0C684BEF1640F00F072
:101AA0000C8294F854228D4B002A63D093F83C2288
:101AB000362A00F01D8193F83C32323B032B59D873
:101AC000DFE813F0EB0379032203CA0241F68853DF
:101AD0000122C254C0F84C1291F80D32FFDE96F884
:101AE0000D32002B40F0C882D0F8400296F8113138
:101AF000076896F8101196F81321FF68DFF8ECE1FB
:101B00001B0443EA016396F812111343774543EA35
:101B1000012141F0048141F258374B08C25903F1C9
:101B2000B76303F55843B3FBF1F3C3F344311170CA
:101B3000C259C3F347115170C25903F01F03937286
:101B4000D4F8401296F8147196F81531D4F838028A
:101B500041F23C3243EA07238A5841F24C3701F5FF
:101B60009A5602FB03F302FB00F23620CB5184F8B5
:101B70003C02326041F2BC56584FA35D002B40F04E
:101B8000858141F2843341F27C32E358A158534FAE
:101B900041F2BC5000268B42265400F014814FF4D1
:101BA000077202FB037292F8A814232900F00B813C
:101BB00092F8A814242900F0118492F8A824252A68
:101BC00000F00C844FF4077202FB0343434E93F87A
:101BD000A824222A40F0F7802321162283F8A81493
:101BE00086F8982203F07AFF06F5AE5300EB40002A
:101BF0001A6841F2B85741F2BC540301EC210120AC
:101C0000F3513055D170B6F87A320344A6F87A32DF
:101C1000DCE041F69851D0F85032425890F83CE25E
:101C200001320133BEF1360F4250C0F850327FF41A
:101C300038AFD0F82C229342FFF633AFD0F84012E1
:101C4000DFF8A8E00B68DB68322280F83C2273459D
:101C50004FF00002C0F8502240F0008741F25833A4
:101C60004FF09C0EC8580270CA5882F801E0CB5859
:101C700008229A72D4F84002194B026841F23C31B2
:101C8000D2F8108041584FF4FA6241F24C3E02FB08
:101C900001F203FB01F340F80E2000F59A51114ABE
:101CA0000B6090454FF0010384F85C3240F0D3861E
:101CB00003F014FF00EB400000010B4BC4F860027E
:101CC000012284F85C2203F5F361002223F8022F3D
:101CD0009942FBD1E5E600BF68AFFF1FC891FF1F27
:101CE000A086010025050000AAA7FF1FB904000077
:101CF00041F27C3231689A58521A02F00702012AE6
:101D00003FF738AF41F67C529A5C022A00F0B88661
:101D1000042A00F03584002A7FF42CAFC8491A72D7
:101D20000868DA721A735A739A73DA738DF831226B
:101D30008DF832228DF833228DF83422421C93F82C
:101D40002472C3F814020A60092064224FF0FF0CC9
:101D5000DFF800E3BB4E58605F729A7203F109012D
:101D60006046103311F8012BB74F424099421EF8DC
:101D700002008CEA000016F802C0F3D140EA0C23FE
:101D80001BB2C3F3072E13264FF404727B7487F83B
:101D900010E06846C7F81C6203F05EFD3B1D0ECBE9
:101DA00007F51A70FFF76AF90023212287F810223D
:101DB0003B7287F8113287F81832C7F81C327B6003
:101DC000C7F80C31D6E6152384F898329F4E30467A
:101DD00003F0DCF844F21023EB5C03F0FF0413B3D0
:101DE000012C05D144F20E13F25C022A00F0C583E7
:101DF0000DF50F7DBDE8F08F41F2B85241F284330A
:101E0000A25854F80380899203F068FE00EB40006A
:101E100000018A90A35D013B032B3FF6FFADDFE895
:101E200003F091D5BDBA44F20E13F35C012B00F020
:101E3000248344F224130022EA5042F2E00342F2E7
:101E4000E402EB58AA58934210D0814E341D06F19B
:101E5000080732681A402A44013392F8D8002360F8
:101E600004F098FD23683A689342F2D144F2FC03EF
:101E7000764AE95C0029BBD044F2102001240021FD
:101E80001454D1540DF50F7DBDE8F08F41F2B853D5
:101E9000FB588B9303F022FE00EB400000018C9076
:101EA000BB5D013B032B91D8DFE813F00400040075
:101EB00004008E028C9B8B9B88E79CF80E119CF88B
:101EC0000F3141F6920243EA012383529CF810112C
:101ED0009CF8113141F6900243EA012383529CF8A9
:101EE00012119CF8133141F69E0243EA01238352FA
:101EF0009CF814119CF8153141F69C0243EA012329
:101F000083529CF816119CF8173100F5C55243EA2C
:101F10000123138041F684039CF81821C2529CF8D7
:101F200019119CF81A3141F6880243EA01238352C1
:101F30009CF81B119CF81C3141F6441243EA012322
:101F40008352AEE541F2A8528A9B8999A2583E4E2F
:101F50005B1A93427FF662AD03F0C0FD41F2B851C7
:101F600000EB400041F2BC520301735004214FF4D6
:101F70000773B15403FB0868B6F88E3298F8A924A9
:101F8000013342F01002242188F8A924A6F88E32E9
:101F900088F8A81442E58A9B899B3FE541F2B0523C
:101FA0008A9B8999A258284E5B1A93427FF636ADD8
:101FB00003F094FD41F2B85E00EB400041F2BC52E8
:101FC0000301042146F80E30B15427E541F2AC522A
:101FD0008A9B8999A2581C4E5B1A93427FF61EADCC
:101FE00003F07CFD41F2B85100EB400041F2BC52DD
:101FF0000301735004214FF40773B15403FB0863CA
:10200000D3F8B424013200F08A8593F8A904B6F815
:102010009012B6F8922240F0080083F8A90401312A
:1020200001321823A6F89012A6F8922286F8983268
:102030004FF4077303FB0848242388F8A834EDE421
:10204000B4F2FF1F14990100C891FF1F68AFFF1F72
:1020500044D0FF1F1498010041F688530021E25C30
:10206000CF48E154002A3FF485ADD0F84C6296F891
:102070000D31412B3FF433ADD4F84002C949036818
:10208000DA68322600238A4284F83C62C4F850326F
:1020900040F0388641F258329C218658337083587C
:1020A0005970835808229A72D4F84002BE4B0668D1
:1020B000BE4F366941F23C314FF4FA62415841F269
:1020C0004C3E02FB01F203FB01F300F59A5140F88C
:1020D0000E20BE424FF001020B6084F85C2240F0FB
:1020E0000E8603F0FBFC00EB40000001B04BC4F88F
:1020F0006002012284F85C2203F5F361002223F8D8
:10210000022F9942FBD135E541F688530026E25C67
:10211000A349E654002A00F06981D1F84C3293F8C3
:102120000D32002B00F06281D1F840029D4A036815
:10213000C1F85062DB683227934281F83C7240F06C
:10214000E98541F258339C21C2581670C25851702B
:10215000C35808229A72D4F84002934B0668934FF2
:10216000366941F23C314FF4FA62415841F24C3E3B
:1021700002FB01F203FB01F300F59A5140F80E2037
:10218000BE424FF001020B6084F85C2240F0BF8534
:1021900003F0A4FC00EB40000001854BC4F8600292
:1021A000012284F85C2203F5F361002223F8022F58
:1021B0008B42FBD1DEE441F688530021E25C784893
:1021C000E154002A3FF4D6ACD0F84C7297F90D31A7
:1021D0008B421ADB3B688B4212DD797997F80C2130
:1021E000914212D10433FE1807F586727B1D05E07B
:1021F00013F8010F12F8011F884206D19E42F7D151
:1022000097F80D22002A00F0D081D4F840026549E9
:102210000368DB68322600228B4284F83C62C4F8F3
:10222000502240F0858541F258339C21C6583270C7
:10223000C2585170C35808229A72D4F840025A4BBF
:1022400006685A4F366941F23C314FF4FA62415800
:1022500041F24C3E02FB01F203FB01F300F59A51FF
:1022600040F80E20BE424FF001020B6084F85C2261
:1022700040F0588503F032FC00EB400000014C4B6D
:10228000C4F86002012284F85C2203F5F3610022A5
:1022900023F8022F8B42FBD16CE4D4F84002404972
:1022A00041F2141341F21812C35882589B1A5A076C
:1022B0007FF460AC91F85C32002B3FF45BAC0368B8
:1022C0003A4A1B69934240F0388503F007FC00EB63
:1022D00040000001D4F86012D4F86422304B401A58
:1022E0009042FFF447AC334E93F824723268C3F83F
:1022F000142241F68850511C4FF0080E00224FF076
:1023000006084FF0FF0C316083F85C22195CC3F8BB
:1023100058221A541A72DA721A7383F80AE05F723A
:10232000C3F8048003F1090162460C33DFF894E03E
:10233000214E01E011F8017F574099421EF8072015
:102340008CEA020216F807C0F4D142EA0C231BB251
:10235000C3F3072706264FF404721849A373C4F881
:102360001C6268466773D4F8206203F075FA144B58
:1023700030460ECBFEF782FE21210023332284F863
:102380001012237284F8113284F81832C4F81C3207
:102390006360C4F80C3184F83C22FFF7EBBB00BF4C
:1023A000C891FF1FB9040000A086010025050000A8
:1023B000AAA7FF1FB4F2FF1F14990100D891FF1FB5
:1023C000CC91FF1F1498010041F2B4528C9B8B9961
:1023D000A2585B1A93423FF6D4ABF7E4013341F2C3
:1023E000843203F00703A350FFF7ECBBD4F840227C
:1023F000B14E41F2141341F21811D35852589B1A9E
:102400005B077FF4B7ABB6F83422D6F8303296F8D3
:102410002412009230460122FFF760F8352386F837
:102420003C32FFF7A7BB9CF809809CF80A109CF887
:1024300007E09CF8082001EB082102EB0E2289B28C
:1024400092B200293FF42DAB01EB020E00EB4202E9
:1024500002F5AF510EF6F12E034400EB4E0E0231A1
:1024600003F2AA32507812F8023F03EB002321F85E
:10247000023F7145F6D1FFF714BB44F22813F3581D
:102480003BBB44F224138D4CE858002852D08C4BAF
:102490001B688C4C88938C49889A23680978884FEC
:1024A000864E44F23020D31A8B422A507FF6C5ACB8
:1024B0003B68879344F21223879984482260F15243
:1024C00001F036FB002840F0E5837C4802F078FFFD
:1024D000B3E43046022102F09BFA3046722102F04A
:1024E00097FADFF8FC810D2609E0744F0134A4B29D
:1024F0003146384602F08CFA18F8046046B1022ED4
:1025000001D0102EF1D110216C4802F081FAECE7D5
:102510001921384602F07CFA0321384602F078FA95
:102520000221384602F074FA44F20E13FB5C012BD0
:10253000A7D07EE444F2281701263C221E21E05158
:10254000E650204602F0E8FE1921022204238DE81D
:102550000E005E485E490F234FF0FF3201F048FB4A
:10256000574B44F20E121968A25C869144F2122174
:1025700086986052B2428BD05FE40022F25437E476
:10258000859303F0ABFA41F68451859B3A6859581C
:1025900000EB4000C2EB00128A4240F23D8341F65C
:1025A0007C530022E254FFF7E5BAD4F85812D4F86D
:1025B0002802414B01318142C4F85812C0F2FB811C
:1025C000DFF820911A72D9F800705A7307F1010AE6
:1025D0004FF0080801214FF0030C4FF0900EC3F8A4
:1025E0001472112203F10907C3F8048083F80AC0AA
:1025F00083F80CE09A735972D97203F10E08354EC4
:102600003548C9F800A0BE464FF0800C8123FF2258
:1026100006E01EF8011F59406246735C10F801C0C5
:102620005340F045DBB2F4D143EA0C232B4ED4F8EF
:1026300020A21BB24FF0270E2374C3F30723C4F864
:102640001CE206F10C014FF40472E373684603F0D8
:1026500003F996E80E005046FEF710FDD9F8003059
:10266000C4F814325A1C4FF0080E00232120012117
:102670004FF0030BC9F80020B02284F81002237237
:1026800084F8113284F81832C4F81C32C4F80C31C2
:102690006373C4F804E084F80EE02273DFF834A01A
:1026A000DFF834C06172701DE17284F80AB04FF037
:1026B000800E8122FF231FE0C891FF1F68AFFF1F1C
:1026C000B8F2FF1FC491FF1F2487FF1F80F1FF1F77
:1026D000A09601001498010014990100CC91FF1FED
:1026E00074960100B4F2FF1F10F8011F59407346A1
:1026F0001AF801201CF801E053408045DBB2F3D109
:1027000043EA0E231BB24FF0150ED4F820A2237417
:10271000C3F30723C4F81CE2D349E3734FF40472F4
:10272000684603F099F896E80E005046FEF7A6FCBE
:10273000D9F80030C4F8143221215A1C002384F83F
:1027400010124FF0080E84F811322173C9F80020DE
:10275000012103222372C4F81C3284F81832C4F811
:102760000C31E37263733823C4F804E0A272A373DC
:10277000BE48DFF808A3DFF8FCC261724FF0800E9C
:102780008123FF2207E010F8011F594072461AF812
:1027900001301CF801E053408045DBB2F3D143EA3D
:1027A0000E231BB24FF0750ED4F820A22374C3F38E
:1027B0000723C4F81CE2AC49E3734FF40472684683
:1027C00003F04AF896E80E005046FEF757FCD9F899
:1027D0000030C4F814325A1C2121002384F810124E
:1027E0004FF0080E84F811320121C9F8002023723D
:1027F0000322C4F81C3284F81832C4F80C31E37296
:1028000063734FF0600B0B23C4F804E0A272A37350
:102810009648DFF868A2DFF85CC2617284F80CB0F9
:102820004FF0800E8123FF2207E010F8011F59406E
:1028300072461AF801301CF801E053408045DBB2C3
:10284000F3D143EA0E231BB24FF01B0ED4F820A2A3
:102850002374C3F30723C4F81CE28349E3734FF4E2
:102860000472684602F0F8FF96E80E005046FEF744
:1028700005FCD9F80030C4F814325A1C4FF0210E70
:10288000002384F810E208214FF0010E84F8113281
:10289000C9F8002023720322C4F81C3284F81832CD
:1028A000C4F80C31E3726373702384F809E0A272F8
:1028B00023736E48DFF8C4A1DFF8B8C16160A1736B
:1028C0004FF0800E8122FF2307E010F8011F5940CE
:1028D00073461AF801201CF801E053408045DBB232
:1028E000F3D143EA0E231BB24FF0150ED4F820A209
:1028F0002374C3F30723C4F81CE25B49E3734FF46A
:102900000472684602F0A8FF96E80E005046FEF7F3
:10291000B5FBD9F80030C4F814325A1C2121002329
:1029200084F81012012084F811324FF0080AC9F817
:102930000020032110222372C4F81C3284F81832BC
:10294000C4F80C31E37263738023607223731846FA
:10295000A273DFF828C1DFF81CE1C4F804A0A1725B
:102960008123FF2207E017F8011F594002461CF897
:1029700001301EF801005340B845DBB2F3D143EA01
:1029800000231BB24FF0250ED4F820722374C3F33A
:1029900007233549E3734FF40472C4F81CE2684618
:1029A00002F05AFF96E80E003846FEF767FB212139
:1029B00000233422E3E42E4993F8247208681A7243
:1029C00000F10109DA721A734FF006084FF0080C93
:1029D000FF22C3F81402C1F800905F72C3F80480AC
:1029E00083F80AC003F10900DFF890E0214E114698
:1029F0000C3301E010F8017F4F4083421EF80710AE
:102A000081EA0201F25DF5D141EA02231BB2C3F370
:102A1000072706264FF404721349A373C4F81C62F7
:102A200068466773D4F8206202F016FF124B3046F6
:102A30000ECBFEF723FB0023212284F81022237201
:102A400084F8113284F81832C4F81C326360C4F878
:102A50000C31FFF78FB8C047FFF72FB908464FF486
:102A600096419847FFF706B9D891FF1FD191FF1FF4
:102A7000B4F2FF1F14990100CC91FF1F14980100BC
:102A8000859303F02BF841F68451859B3A68595899
:102A900000EB4000C2EB00128A423FF680AD41F6E7
:102AA0008C52AB4E9A583168DA73101601F1010C52
:102AB00018738DF834228DF831021014121293F825
:102AC000247258739A734FF00908C3F81412C6F8A9
:102AD00000C064218DF832028DF8332200201C22C0
:102AE0004FF0FF0CDFF878E29A4E9972DA725F725B
:102AF000C3F80480187203EB08016246103311F822
:102B0000010B954F504099421EF800208CEA0202BA
:102B100016F800C0F3D142EA0C23FFF731B993F85D
:102B2000A11293F8A82391420AD0B6F88A1293F81A
:102B3000A924013142F02002A6F88A1283F8A924C0
:102B40004FF4077303FB08F3E2188349D2F8A49308
:102B5000B9F1010F29DD0B44B9F1020A03F56A71DD
:102B600000F0E380FF20DFF8F8E17A4E024601EB47
:102B70000A0C11F8013B53408C451EF8032082EAF1
:102B80000002F05CF5D142EA00231BB24FF4077259
:102B900002FB0842924491449AF8A81399F8A7239B
:102BA00042EA012212B29A420ED04FF4077303FB9D
:102BB0000843B4F88C2293F8A914013241F0400183
:102BC00083F8A914A4F88C224FF4077303FB08437D
:102BD000614993F8A924002A7FF42AAAB1F87C223B
:102BE00093F9A90301320028A1F87C22BFF620AA9C
:102BF000B1F884220132A1F8842293F8AA33052B7C
:102C000000F09E80062B7FF413AAB1F888320133BE
:102C1000A1F88832FFF70CBA41F690524C4E9A5800
:102C20003168DA73101601F1010C18738DF8342233
:102C30008DF831021014121293F8247258739A739B
:102C40004FF00908C3F81412C6F800C064218DF8CB
:102C500032028DF8332200201E224FF0FF0CDFF8E5
:102C600000E13C4E187299725F72C3F80480DA7208
:102C700003EB08016046103311F8012B364F424038
:102C800099421EF802008CEA000016F802C0F3D147
:102C9000FFF774B8314BDFF8CC801F6844F2142280
:102CA00041F67C53B2580024D4543846022101F036
:102CB000AFFE3846722101F0ABFE4D2608E001342C
:102CC000A4B23146384601F0A3FE18F8046046B1BC
:102CD000022E01D0102EF2D11021384601F098FEBC
:102CE000EDE73846192101F093FE3846032101F043
:102CF0008FFE3846022101F08BFEFFF7E6BBB0479E
:102D0000FFF7F4B94FF496419047FFF7CDB9B047BC
:102D1000FFF743BA4FF496419847FFF71CBAB847FC
:102D2000FEF70EBFB047FFF7AABA4FF0FF332DE70B
:102D30004FF496419847FFF780BA9847FFF7CABA11
:102D4000B1F886320133A1F88632FFF771B900BFBE
:102D5000B4F2FF1F14990100C891FF1F2887FF1FBD
:102D600014980100A8960100B04BB1492DE9F0413B
:102D7000D3F8404223685A698A4214D19B6AAD4A0B
:102D8000934240F0958041F25833E3581879C0F3EC
:102D90004010002854D141F25833E358DA78110634
:102DA00005D4BDE8F0812046BDE8F04110471A790E
:102DB0001206F6D541F21C124FF40775A2589E4830
:102DC00005FB024595F83820511C85F8381021681C
:102DD0000E6A2A44864292F8391040F00C81D9716B
:102DE000E38A0133E38295F838206B6B9B1A002B42
:102DF000D7DC95F83930002B00F0E88023688F4A43
:102E00001B69934240F0078102F068FE00EB40002E
:102E1000000141F2503141F2543301226050E2543A
:102E20002368874ADB69934240F0EF8041F25833D0
:102E30002C22E358DA70172384F83030BDE8F08193
:102E40002668804A736A41F21C119342655840F02B
:102E5000D58041F25833E358D879C0B24FF40773A4
:102E600003FB0543D3F83C219918013281F8400156
:102E7000C3F83C21218B01312183D3F84C128A42C3
:102E80001BDA93F94131002B15DB33696B4A93420E
:102E900040F0B88002F022FE00EB4000000141F259
:102EA000503141F2543302226050E254BDE8F081C7
:102EB000204698476DE7042AE7DD33695F4A93426D
:102EC00040F0A68002F00AFE00EB4000000141F253
:102ED000543241F2503604214FF40773A05103FBE2
:102EE0000543A15493F8391093F84021914208D03A
:102EF000628C0132628493F8412242F0200283F80E
:102F000041224FF4077101FB05F16318D3F83C71BE
:102F1000012F29DDB7F1020C03F5A07168D0FF2065
:102F2000DFF82481DFF824E1024601EB0C0611F8FA
:102F3000013B5340B14218F8032082EA00021EF818
:102F40000300F4D142EA002212B24FF4077303FBEC
:102F500005439C441F449CF8401197F83F3143EAD5
:102F600001231BB293420CD0A28C4FF407730132A1
:102F700003FB0543A28493F8412242F0400283F808
:102F800041224FF4077303FB05F3E21892F8411254
:102F900099B9A18A0131A18292F94121002A0CDA62
:102FA000A28B23440132A28393F84231052B38D0FF
:102FB000062B02D1238C013323844FF4077303FBC8
:102FC0000544242384F84032BDE8F08123681B4A7D
:102FD0001B69934222D102F081FD00EB4000000109
:102FE00041F2503141F2543303226050E25417E76A
:102FF0004FF0FF32A9E72046B047F1E62046984758
:1030000026682BE72046984749E72046984712E76D
:10301000204698475BE720469847FAE620469847BF
:10302000DEE7E38B0133E383C7E700BFC891FF1FEF
:1030300011090000A904000091040000250500000A
:10304000850400009D0400001498010014990100FB
:103050002DE9F84FDE4CDFF8A8A3002631464FF4E7
:10306000807204F10900666026720EF0FFFD3146A1
:103070004FF4807204F58870C4F80C610EF0F6FD10
:103080000F22D44BC4F828224FF0FF314FF4FA52EC
:10309000C4F8303230230520C4F81412C4F83822A2
:1030A0005021CD4AC4F84432CC4BC4F82C02A4F8C9
:1030B00034123220CA49C4F86422236004F51A721B
:1030C00001234FF0210984F81092C4F8481284F8C3
:1030D0001162C4F8202284F83C02C4F8402284F82B
:1030E0002432C4F86C3284F81862C4F8506284F850
:1030F0005462C4F8586284F85C62314604F51C706E
:1031000028220EF0B3FD142384F8983204F52775B5
:10311000002739464FF48072681D2E602E710EF024
:10312000A5FD4FF0FF3B05F58670C5F808613946EF
:103130004FF480720EF09AFD05F5077505F8109CA6
:1031400005F8086C05F80F6C45F80CBC55454FF0B8
:103150002108DDD141F28C334FF48072E7543946B7
:10316000A0480EF083FD4FF4807239469E480EF061
:103170007DFD41F2985141F29C5341F2945041F24D
:10318000955204F8008044F801B0E754A754904CDD
:103190003946234626464FF4077E0EFB0142013195
:1031A000082982F8A8848A4882F8A97406F5077667
:1031B000C2F8B47486F8847086F89472C6F8807089
:1031C000C6F888714FF00002E7D141F2945C4FF0ED
:1031D000210500F80C5041F2C45700F5AD5541F2FD
:1031E000955641F2BC5E4FF02F08825500F80780DB
:1031F0002A60DFF810A200F80E20DAF80070DFF87D
:1032000008C2DFF808E2DFF808B200F5AE5647F46E
:103210000067C6F800C0CAF8007040F21337CEF855
:10322000007041F2C8575FFA88F941F2CC5ADFF8D2
:10323000E48140F807E04FF45177C8F8007040F897
:103240000A804FF012088CF802804FF02C088CF89E
:1032500010204FEA69178CF8038009F01F0E4FF019
:103260000E084FF001098CF8068009FA0EFE4FF0A7
:10327000400C41F2A45941F2C55A8BF800C041F20A
:10328000A8584FF0300C40F809C000F80AC0DFF829
:103290005C9140F8089041F2AC5C41F2B059DFF823
:1032A000788140F80C8041F2D05ADFF870C140F8C4
:1032B00009C041F2B458DFF8689140F808C04FF4F3
:1032C000006B40F80AB0D6F800C0DFF858814FF420
:1032D000004AC9F800A0DFF85091C0F8689248F899
:1032E00027E08CF8002030689C2747703068212543
:1032F00081724FF4077C11460CFB02400132082A10
:1033000080F8A854324E80F8A9144FF0210EC0F86E
:10331000B4144FF0000783F8A01283F8B014C3F878
:103320009C12C3F8A41303F50773E5D141F294503E
:1033300041F2955106F800E041F28C32775406F5DF
:10334000AD5141F29C530F60B75406F59C5141F2C8
:10335000843241F2883541F2904441F27C30F75496
:103360001423775137510F60B75086F89832375091
:1033700002F0B4FB41F2B85500EB400041F2BC54FE
:103380000001705106F5AF530425355541F67C52C6
:1033900041F6845141F6885030251D6041F6945421
:1033A00041F69853114DB7547550114A375411498D
:1033B000F7503046375103F083FF31460E48FEF791
:1033C00043F90B4A0D490C48BDE8F84F03F078BFAC
:1033D000C891FF1F68890900005125020C95010062
:1033E000B896010055A5FF1F5CA6FF1F003E4900CF
:1033F0002087FF1F2105000068AFFF1F2D3400004C
:1034000044A5FF1F3480044000B006400CB00440C7
:103410002FE400E010B0044000B80B00007701007A
:1034200004E100E080E200E0D8940100084B10B510
:103430000446036000F58440183000F039FC204653
:10344000044B40F8D03B00F087FB204610BD00BF86
:103450006C950100949401000A4B10B5044603607A
:1034600000F58440183000F023FC2046064B40F85D
:10347000D03B00F071FB204644F2382103F002FCFF
:10348000204610BD6C950100949401002DE9F04F89
:1034900099B000258846044602AE0846C749009602
:1034A00001958DF808500EF0FFFE00BB0221074683
:1034B000204601F0ADFA7221204601F0A9FADFF8AA
:1034C0000483742509E00137BFB22946204601F084
:1034D0009FFA18F80750002D7CD0022D4FF01001F4
:1034E000204601D08D42EED101F092FAEBE7B44BC9
:1034F0008DF8275093E803000DF1380902230F0CD3
:103500000890ADF824101A468DF83A500D9307250F
:1035100040F60D2306A849460DF1200A8DF82670C5
:103520000795ADF83830CDF83090CDF818A003F0FD
:103530004BFF0DF1500B0746CDF848B057F8083B4C
:10354000BB42054600F0A3821293836814936B6814
:10355000139300232B722F606B60139A12996846A5
:1035600003F032FF964940460EF09EFE0746129841
:10357000584501D003F084FB0C98484501D003F076
:103580007FFB0698504501D003F07AFB002F40F0F6
:1035900084810221204601F03BFA7221204601F08D
:1035A00037FADFF824820D250AE00137BFB2294639
:1035B000204601F02DFA18F80750002D00F0BF81C9
:1035C000022D4FF01001204601D08D42EDD101F0C7
:1035D0001FFAEAE71921204601F01AFA03212046D2
:1035E00001F016FA0221204601F012FA44F21412F8
:1035F0002368A1581B6A204698470221804620462E
:1036000001F006FA7221204601F002FA98F80070E3
:10361000002F4FD11921204601F0FAF9032120464D
:1036200001F0F6F90221204601F0F2F902212046CC
:1036300001F0EEF97221204601F0EAF90D21204651
:1036400001F0E6F91921204601F0E2F903212046B4
:1036500001F0DEF90221204601F0DAF902212046CC
:1036600001F0D6F97221204601F0D2F97225002727
:10367000DFF8588108E00137BFB22946204601F043
:10368000C7F918F80750FDB1022D4FF01001204680
:1036900001D08D42EFD101F0BBF9ECE701F0B8F9B0
:1036A0000135ADB23946204601F0B2F918F805707F
:1036B000002FAFD0022F4FF010012046EED08F42E6
:1036C000EED101F0A5F9EBE71921204601F0A0F9B0
:1036D0000321204601F09CF90221204601F098F9CF
:1036E00044F218122368A1581B6A20469847022109
:1036F0008046204601F08CF97221204601F088F9BD
:1037000098F80070002F4FD11921204601F080F960
:103710000321204601F07CF90221204601F078F9CE
:103720000221204601F074F97221204601F070F95F
:103730000D21204601F06CF91921204601F068F9AD
:103740000321204601F064F90221204601F060F9CE
:103750000221204601F05CF97221204601F058F95F
:1037600064250027DFF8688008E00137BFB22946EA
:10377000204601F04DF918F807505DB3022D4FF0C7
:103780001001204601D08D42EFD101F041F9ECE764
:1037900001F03EF90135ADB23946204601F038F965
:1037A00018F80570002FAFD0022F4FF010012046FF
:1037B000EED08F42EED101F02BF9EBE7C09601007D
:1037C00014970100CC9601001C970100E4960100BB
:1037D000FC9601001921204601F01AF90321204628
:1037E00001F016F90221204601F012F944F21C12F0
:1037F0002368A1581B6A204698470221804620462C
:1038000001F006F97221204601F002F998F80070E3
:10381000CFBB2046192101F0FBF82046032101F01F
:10382000F7F82046022101F0F3F82046022101F0CA
:10383000EFF82046722101F0EBF820460D2101F04F
:10384000E7F82046192101F0E3F82046032101F0B2
:10385000DFF82046022101F0DBF801240098B04295
:1038600001D003F00DFA204619B0BDE8F08F01F049
:10387000CFF80135ADB23946204601F0C9F818F845
:103880000570002FC5D0022F4FF010012046EED05A
:103890008F42EED101F0BCF8EBE7834BCDF818A0D6
:1038A00093E80700534603C302211A800A27002326
:1038B0000A4640F60D250D9106A8494607978DF852
:1038C0002A308DF83A30ADF83850CDF8309003F00A
:1038D0007BFD0746CDF848B057F8083BBB4205468C
:1038E00000F0DB801293836814936B6813930023BA
:1038F0002B726B602F60139A1299684603F064FD77
:10390000694940460EF0D0FC05461298584501D052
:1039100003F0B6F90C98484501D003F0B1F90698C8
:10392000504501D003F0ACF9002D49D040465F4925
:103930000EF0BAFC0446002847D000248EE7192177
:10394000204601F065F80321204601F061F80221CC
:10395000204601F05DF844F20813022154F8038078
:10396000204601F055F87221204601F051F898F8F0
:1039700000704FB912E00135ADB23946204601F072
:1039800047F818F805704FB1022F4FF0100120468C
:1039900001D08F42EFD101F03BF8ECE7204619212E
:1039A00001F036F82046032101F032F820460221CA
:1039B00001F02EF820460D2101F02AF801244DE7F0
:1039C000204601F08FFC012448E7DFF8E4A0DFF88F
:1039D000E490DAF800800221404601F019F84046F0
:1039E000722101F015F80D25274608E00137BFB216
:1039F0002946404601F00CF819F807504DB1022D48
:103A00004FF01001404601D08D42EFD101F000F897
:103A1000ECE74046192100F0FBFF4046032100F08F
:103A2000F7FF4046022100F0F3FFDAF80080DDF8EE
:103A300000904046022100F0EBFF4046722100F06A
:103A4000E7FF99F80070C7B94046192100F0E0FF80
:103A50004046032100F0DCFF4046022100F0D8FF81
:103A6000FCE600F0D5FF0135ADB23946404600F026
:103A7000CFFF19F80570002FE6D0022F4FF010018C
:103A80004046EED08F42EED100F0C2FFEBE71022AD
:103A90003946584601F0E0FE59E5102239465846AD
:103AA00001F0DAFE21E700BF3497010044960100DF
:103AB0002887FF1F40970100074B10B444F22E12D5
:103AC000196800248C52027D034622F001028068AE
:103AD0001A7510BC704700BF2887FF1F074B10B531
:103AE000196844F22E1200248C52027D034622F003
:103AF000010280681A750BF077FE10BD2887FF1F42
:103B0000024B0A464168186801F076BC2887FF1FFF
:103B1000024B4168186801F0D3BC00BF2887FF1F23
:103B2000024B4168186801F00BBD00BF2887FF1FDA
:103B300030B4074A037D116823F0020544F22C12C9
:103B400005750024C3F340008C5230BC704700BFA1
:103B50002887FF1F704700BF704700BF094AF0B4B5
:103B6000094C11682568094E416000234F1C1760FD
:103B7000C36006600361037505B1C5602060F0BCD9
:103B8000704700BFA0F1FF1FA4F1FF1F589701006D
:103B90002DE9F04186B01646BDF83070BDF834E02E
:103BA000BDF838C0BDF83C8001B149680E4D2C68A5
:103BB0004CB1A04208D0224601E0904204D01269E4
:103BC000002AFAD104612860084C836042682068AA
:103BD000CDF810808DE88840CDF80CC0334601F058
:103BE000EFFC06B0BDE8F081A8F1FF1F2887FF1F9A
:103BF00070B584B0BDF82060BDF82450BDF82840F1
:103C000002958DE84800039413460A460021FFF709
:103C1000BFFF04B070BD00BF78B10D4A1368ABB1EF
:103C20004168586888420DD0186930B142689142A5
:103C300004D0034618690028F8D1704702691A6158
:103C4000012070471B6913600120704718467047B8
:103C5000A8F1FF1F38B50446E0B1134A1368D3B189
:103C600041685D688D4218D0D86830B14268914291
:103C700009D00346D8680028F8D10C4A136843F0ED
:103C80000103136038BDC268DA602046FFF7C4FF45
:103C9000012038BD38BD184638BDDB681360FFF71A
:103CA000BBFF012038BD00BFA4F1FF1FACF1FF1F17
:103CB00010B5034B03600446FFF7CCFF204610BD50
:103CC0005897010010B5054B03600446FFF7C2FF8B
:103CD0002046182102F0D6FF204610BD589701005B
:103CE00010B5044C206820B1FFF796FF206800282B
:103CF000FAD110BDA8F1FF1F0D4B1B68B3B15A6874
:103D0000904209D0DB68002BF9D10A490A6842F0D9
:103D1000020218460A6070479A6891421A7D18BFDD
:103D2000996042F001021A750120704718467047E9
:103D3000A4F1FF1FACF1FF1F0B4B1B6893B15A6836
:103D4000904209D0DB68002BF9D108490A6842F09B
:103D5000020218460A6070471A7D42F002021A7584
:103D60000120704718467047A4F1FF1FACF1FF1FF8
:103D700030B51368CC5C83B00025202C01EB030028
:103D8000019508D101330B44581A1060184613F8F6
:103D9000014B202CF8D014B9204603B030BD144696
:103DA0006B4601AA05490EF005FA18B12268009B7E
:103DB00013442360019803B030BD00BF7497010025
:103DC0002DE9F0434B78013B85B006461546642B40
:103DD00000F2E281DFE813F07400E001E001D200BC
:103DE000D700DB009101E001E001E001E001E0012A
:103DF000E001E001E001E001E001E001E001E001BB
:103E0000E001E001E001E001E001E001E001E001AA
:103E1000E001E001E001E0019701A501BC01E00142
:103E2000E001E001E001E001E001E001E001E0018A
:103E3000E001E001E001E001E001E001E001E0017A
:103E4000E001E001E001E001E001E001E001E0016A
:103E5000E001E001E001E001E001E001E001E0015A
:103E6000E001E001E001E001E001E001E001E0014A
:103E7000E001E001E001E001E001E001E001E0013A
:103E8000E001E001E001E001E001E001E001E0012A
:103E9000E001E001E001E001E001E001E001D40126
:103EA000650004AA002342F8043D2946FFF760FF9D
:103EB000013802288CBF0020012005B0BDE8F08346
:103EC000FFF70EFF42F2E00342F2D80242F2E401B1
:103ED000F558B458735844F20E12581B013C012790
:103EE000A042B75480F05A8142F2DC024FF0020E39
:103EF000B75803EA070030445A1C80F8D8E0501B3A
:103F00008442725040F2B1813A403244023372200E
:103F100082F8D8007350581B06F5035E774606F505
:103F20008248DFF854C30EF11C0E243708F1140840
:103F3000492100224FF0100914E0102914D08442C6
:103F400040F24181DEF8000018403044013380F82F
:103F5000D810581B3B60013292B21CF802100029A5
:103F600000F034810229E8D1844200F22081D8F89F
:103F7000001001310131C8F80010ECE703685B69FB
:103F80009847012099E701F075F8012095E703684B
:103F900044F230175B689847F45BDFF8E0E20246D2
:103FA000601C06EB040816FA80F00B4644F232114E
:103FB0004FF0000C022508F801C0DEF800E045547F
:103FC00044F210186519E01C16FA85F516FA80F00F
:103FD0001EF8088005F801C0043400F801800EF5D1
:103FE0008241A4B2F4530F683D7875B106F5824062
:103FF0003030311901F582410134A4B281F83250D8
:10400000048017F8015F002DF3D144F208115EF827
:104010000170397871B106F582403030351905F5F7
:1040200082450134A4B285F83210048017F8011FCC
:104030000029F3D144F204115EF80170397871B1AE
:1040400006F582403030351905F582450134A4B2B9
:1040500085F83210048017F8011F0029F3D1274694
:104060003821C1F1200E03FA0EFE22FA01F5F019F3
:1040700045EA0E05A1F1200E00F5824023FA0EFE5E
:10408000083945EA0E05013711F1080F80F8325062
:10409000BFB244F23210E4D144F20C1504F108012D
:1040A00036F805E016FA81F104F1090704F10A0572
:1040B0004FEA2E240C5416FA87F744F23014ADB2AE
:1040C00006F5824107F800E032313553002D00F04B
:1040D000C680684F0D44002411F8010B4440E4B23F
:1040E000A9423C5DF8D13046009400F0EFFF44F265
:1040F00030130022F2520120DFE644F20E130022B8
:10410000C2540120D9E604AA002342F8043D2946FE
:10411000FFF72EFEFFF710FE44F22C130120F052A1
:10412000CBE604AC002344F8043D29462246FFF7C1
:104130001FFE2246074629463046FFF719FE014674
:104140003846FFF7D9FD44F22C130120F052B4E6B3
:1041500004AC002344F8043D29462246FFF708FE3C
:104160002246074629463046FFF702FE44F22E1348
:1041700001240146F4523846FFF7BEFD20469CE676
:1041800004AF002447F8044D29463A46FFF7F0FDF6
:1041900096284DD0204690E600208EE644F2141278
:1041A000B2583A4444F2141101327250B4E6DEF8C7
:1041B000000018403044013380F8D890581B8442E6
:1041C0003B603FF6BFAED8F80010D3E6844224D956
:1041D00042F2DC02591CB25802EA030030444FF0AC
:1041E000190E80F8D8E042F2E407481B8442F151EE
:1041F00031D9981C11403144451B4FF0030EAC429D
:1042000081F8D8E0F0512CD9024032440333022126
:1042100082F8D8100120F3514FE644F21413F358FA
:104220000133013344F214120133B350012044E648
:104230003A4629463046FFF79BFD3A460446294652
:104240003046FFF795FD44F2FC1244F2FA13B052E7
:10425000F452012031E644F21413F358E1E72C46FE
:1042600041E744F21413F358DCE744F21411134607
:10427000725897E7B4F1FF1F7C9701002887FF1F52
:104280002DE9F04F0D78022D83B088460446924602
:1042900000F0DC82B5FA85F56D092368AA4A9B6BAC
:1042A000934240F06F820026524641462046FFF777
:1042B000EDF8236806435B6B52464146204698471B
:1042C000354355EA0003019303D0019803B0BDE8DC
:1042D000F08F23689D4A9B69934240F0F68242F238
:1042E000E00342F2D80242F2E406E558A058A3598E
:1042F00001385A1B824280F04B8242F2DC02591C88
:10430000A75803EA070222444FF0020E82F8D8E0D1
:104310004A1B9042A15140F2148339402144023398
:10432000722281F8D820A3515A1B04F5035EF1468E
:1043300004F5824CDFF818B20EF11C0E09F12409C5
:104340000CF1140C5526002715E0102E16D09042C3
:10435000114640F23682DEF8002001371A40A118DB
:10436000BFB281F8D86001331BF80760C9F800308C
:104370005A1B11468EB1022E1146E6D1904200F230
:104380001082DCF8006001360137BFB20136CCF88C
:1043900000601BF80760002EEDD1904240F25A8277
:1043A00042F2DC025E1CA25802EA030121444FF0F3
:1043B000190E81F8D8E042F2E407711B8842E651F9
:1043C00040F288821640A1194FF0030E9E1C81F81E
:1043D000D8E0711B8842E65140F2BC8203F1030E23
:1043E00016402644C5EB0E014FF0020C814286F8C0
:1043F000D8C044F807E080F094821E1D0EEA020E39
:10440000A644711B81428EF8D8C0E65180F0A78285
:10441000324022440533722182F8D810E35198F8D3
:104420000070002F00F0828204F5035CE64604F57C
:1044300082490CF11C0C0EF1240E09F1140900261E
:104440005A1B4FF0100B15E0102F16D0904211465A
:1044500040F2C881DCF800201A40A118013601336F
:10446000B6B281F8D870CEF8003018F806705A1B32
:1044700011468FB1022F1146E6D1904200F2A4817D
:10448000D9F80070013701360137B6B2C9F80070AB
:1044900018F80670002FEDD1904240F2128242F2DD
:1044A000DC025E1CA25802EA030121444FF0190EFF
:1044B00081F8D8E042F2E407711B8842E65140F2ED
:1044C0002B821640A1194FF0030E9E1C81F8D8E0F4
:1044D000711B8842E65140F24C8203F1030E1640F4
:1044E0002644C5EB0E014FF0020C814286F8D8C07D
:1044F00044F807E080F00B821E1D0EEA020EA6446F
:10450000711B81428EF8D8C0E65180F02D82324076
:1045100022440533722182F8D810E3519AF80070D2
:10452000002F00F0068204F5035CE64604F582489D
:104530000CF11C0C0EF1240E08F1140800265A1B75
:104540004FF010091CE000BF75040000DD0B0000F7
:10455000A8950100102F16D09042114640F25381C9
:10456000DCF800201A40A11801360133B6B281F8F8
:10457000D870CEF800301AF806705A1B11468FB169
:10458000022F1146E6D1904200F22F81D8F8007038
:10459000013701360137B6B2C8F800701AF8067054
:1045A000002FEDD1904240F2888142F2DC025E1C85
:1045B000A25802EA03012144192781F8D87042F277
:1045C000E40E711B884244F80E6040F29B81164055
:1045D000A11903279E1C81F8D870711B884244F8EA
:1045E0000E6040F2A981DF1C16402644791B4FF073
:1045F000020C814286F8D8C044F80E7080F07D81AC
:104600001E1D17402744711B814287F8D8C044F80B
:104610000E6080F0BF81324022440533722182F85F
:10462000D81044F80E30591B884240F2EF8042F215
:10463000DC07591CE2591A40224442F2E406C5EB59
:10464000010E4FF00D0C704582F8D8C0A15140F218
:104650009F81E259114021449F1C4FF0190E81F8AF
:10466000D8E0791B8842A75140F242811740274485
:10467000D91C4FF0030E87F8D8E04F1BB842A15168
:1046800040F281811F1D11402144C5EB070C4FF002
:10469000020E844581F8D8E0A75180F024811740AC
:1046A0002744591D87F8D8E04F1B8742A15180F05D
:1046B00065810A4022440633722182F8D810A35142
:1046C00004F5035E774604F58248DFF8D4C20EF1A4
:1046D0001C0E243708F11408552600215A1B4FF0F0
:1046E000100912E0102E12D0904240F2AC80DEF899
:1046F000002001311A40224489B282F8D8601CF8A7
:10470000016001335A1B3B6086B1022EEAD1904210
:1047100000F28D80D8F800600136013189B201368F
:10472000C8F800601CF80160002EEED1904240F203
:10473000B78042F2DC02591CA25802EA0307274460
:104740004FF0190E87F8D8E042F2E4064F1BB8424A
:10475000A15140F2C4809F1C114021447D1B4FF0A9
:10476000030EA84281F8D8E0A75140F2EF803A400A
:10477000224401980333022182F8D810A35103B0D8
:10478000BDE8F08F524641462046984706468BE5E5
:1047900044F214116158013144F214160131A1514F
:1047A000C3E5DEF800201A40224401334FF0100127
:1047B00082F8D8105A1B9042C9F8003011463FF6D3
:1047C000CAADDCF80060DFE5DCF800201A402244C6
:1047D000013382F8D8B05A1B9042CEF8003011460F
:1047E0003FF638AED9F800704DE6DCF800201A40EC
:1047F0002244013382F8D8905A1B9042CEF8003000
:1048000011463FF6ADAED8F80070C2E644F214117E
:1048100062580132625044F21412A258013201323D
:104820000132013244F214110132625048E7DEF8DD
:1048300000201A402244013382F8D8905A1B90423B
:104840003B603FF654AFD8F8006066E7FFF7B8FA70
:10485000054622E544F21412A25801320132013217
:10486000013244F214160132A25198F80070002F60
:104870007FF4DAAD013201320132013244F2141612
:104880000132A2519AF80070002F7FF44CAE013231
:1048900001320132013244F214160132A251C3E650
:1048A00044F21413E3580133013344F21412019813
:1048B0000133A35003B0BDE8F08F44F21412A258A4
:1048C000E5E744F21412A258D4E752464146204686
:1048D0009847FAE444F214123346A258BEE744F271
:1048E0001413E358E0E744F214123B46A25898E749
:1048F00044F214123B46A25891E744F214123B468C
:10490000A258C7E744F214123346A258C0E744F253
:1049100014127346A258B0E744F214123346A25858
:10492000A9E744F214127346A25899E75A1B11469C
:10493000B2E55A1B114635E644F214123346A2582A
:10494000A7E744F214160B46A15925E744F21413C5
:10495000E358AAE744F214123346A2587FE744F220
:1049600014123346A2587CE744F214123346A2587C
:1049700084E744F214123346A2587DE744F214123D
:104980000B46A2584EE744F214120B46A25847E7D2
:104990000B4640E744F214123346A2587BE700BFAF
:1049A000BC95010070B544F2F40244F2F00444F204
:1049B000E805825804594559141B013DA5421BD9ED
:1049C00000F50354283442F2040542F20C066559FE
:1049D00015400D2902F101026155A25112D044F295
:1049E0000E12825C3AB903685B680446984704F586
:1049F0008443C3E9000170BD44F2181142580132EA
:104A0000425070BD44F2F80142580132425070BD2C
:104A100030B442F2E00342F2E40542F2D8024459D3
:104A2000C3588258E31A013A9A420AD942F2DC0387
:104A3000621CC3582340034483F8D810425130BC51
:104A4000704744F2141230BC8358013383507047CE
:104A50002DE9F04F44F2F40344F2F004C358045932
:104A6000A34285B000F0698244F2EC0342F2E8050B
:104A7000C3580192234003440F465D5D02910D2D02
:104A800000F06182202D00F05A8245B300F5814C80
:104A9000E646E0460D700CF1700C0EF1740E08F154
:104AA0006C08002511E0D8F8003009EA030303443C
:104AB00003F5035328331B780D2B19D0202B60D01E
:104AC0006BB1632D07F8013F71D0DCF80060DEF8B0
:104AD00000400135A41BA54205EB0609E3D30023E2
:104AE0004B55002318460B70137005B0BDE8F08FCE
:104AF0004FF0020A029B00275F5544F2F40444F28F
:104B0000F0030459C358E41AAC4233D944F2EC061A
:104B10005C1983592340034442F2E8041B5D0D2BCA
:104B200032D000F5814C019EE646E14633700CF12F
:104B3000700C0EF1740E09F16C09B04693460EE04C
:104B4000D9F800303340034403F5035328331B786E
:104B50000D2B19D0632F08F8013F00F05481DCF8C9
:104B60000040DEF8002001377B19E618141B9C4238
:104B7000E6D85A46019C0023BAF1020FE355B0D1A2
:104B800005E04FF0010AB5E7019A0023D35544F23E
:104B9000F00444F2F8010359425801331D442F44F4
:104BA000013A07514250012005B0BDE8F08FD44BC7
:104BB00003931C6842F2E00242F2E40142F2D8039D
:104BC000A658E5586258013DC6EB020AAA45C0F056
:104BD0007B8144F21413E358013344F2141101337E
:104BE000635004F5035E774604F58248DFF814C38A
:104BF0000EF11C0E243708F114084FF05B09002356
:104C00004FF0100B16E0B9F1100F16D0554540F2D9
:104C1000C180DEF800100133114021449BB281F8BD
:104C2000D8901CF803900132C6EB020A3A60B9F141
:104C3000000F12D0B9F1020FE5D1554500F29D8069
:104C4000D8F80010013101339BB201311CF80390F8
:104C5000C8F80010B9F1000FECD1554540F2C980F9
:104C600042F2DC03571CE35803EA020EA6444FF05D
:104C7000190C8EF8D8C042F2E401C6EB070E754558
:104C8000675040F2688102F1020E1F402744C6EBD4
:104C90000E064FF0030CB54287F8D8C044F801E087
:104CA00040F25D810EEA030323440332022583F8B8
:104CB000D8506250039B42F2E0011B6842F2D802D6
:104CC00042F2E4065F589D599958EA1B01398A421D
:104CD00072D344F214141C59013444F214160134F2
:104CE0009C51914259D942F2DC0E6C1C53F80E20B3
:104CF0002A401A444FF00D0C82F8D8C042F2E40664
:104D0000E21B91429C514DD953F80EE00EEA040289
:104D10001A44AC1C4FF0190C82F8D8C0E21B914227
:104D20009C5140F21481EA1C0EEA04041C44D71B77
:104D30004FF0030CB94284F8D8C09A5140F2228156
:104D400002EA0E021A440435022182F8D8109D515D
:104D500044F2F00144F2F40244F2F8030024445017
:104D60008450C450029B1C70019B1C7003685B69DB
:104D70009847204605B0BDE8F08FDEF800101140DE
:104D800001322144C6EB020A554581F8D8B03A6099
:104D90003FF63FAFD8F8001055E744F214115A58C7
:104DA00001325A5044F214129A580132013244F23C
:104DB000141101325A50CBE742F2DC04022253F8BC
:104DC00004C005EA0C0E9E446C1C8EF8D820E21B31
:104DD00091429C5140F2CC800CEA04021A44023504
:104DE000722482F8D8409D51EA1B7AE74D453FF680
:104DF00037AF44F21413E3580133013344F2141271
:104E00000133A35056E73E4B03931C6842F2E00285
:104E100042F2E40142F2D803A658E5586258013D37
:104E2000C6EB0209A94571D242F2DC034FF0020C35
:104E300054F803E0531C02EA0E072744C6EB0309AB
:104E40004D4587F8D8C0635040F28D800EEA0303C9
:104E500023440232722783F8D8706250C6EB0209ED
:104E600004F5035E774604F5824CDFF89CA00EF152
:104E70001C0E24370CF1140C4FF05B0800234FF08C
:104E8000100B15E0B8F1100F15D04D4552D9DEF8D2
:104E9000001011402144013281F8D880C6EB02098C
:104EA0003A6001339BB21AF80380B8F1000F9DD02D
:104EB000B8F1020FE6D14D4531D8DCF800100131D0
:104EC0000131CCF80010ECE742F2DC034FF0020CA9
:104ED00054F803E0531C02EA0E072744C6EB030A0A
:104EE000554587F8D8C0635047D90EEA03032344D9
:104EF0000232722783F8D870C6EB020A625070E65D
:104F00002887FF1FA4970100DC97010044F21413C7
:104F1000E358013344F2141101336350A0E7DEF883
:104F2000001011402144013281F8D8B0C6EB0209CB
:104F30003A60AAE7DCF80010C2E70025CFE50025BB
:104F40004FF0010AD6E500254FF0020AD2E544F2FF
:104F500014129A582AE744F21413E3584DE744F226
:104F60001413E3584AE744F214111A466358D1E780
:104F700044F2141625469C59AFE644F214111A4621
:104F800063582AE644F214129A5810E744F20E13BA
:104F90002DE9F041C55C044635B32368344A1B69EA
:104FA00093423ED144F20E15665D012E40D044F28C
:104FB000F80354F80380B8F1000F12D004F58147CC
:104FC0007837261D04F168052A4631462046FFF74A
:104FD0003FFD2A4631462046FFF752F93B68002B39
:104FE000F2D14046BDE8F08103685B68984704F55C
:104FF00084431E46D3E900230836D6E90067801AA9
:1050000061EB03018F4208BF8642C6D244F2F00230
:1050100044F2F403A550E5502368154A1B699342F6
:10502000C0D044F20E1520469847665D012EBED1D1
:1050300044F2F80354F80380B8F1000FBED123689E
:1050400020465B68984744F20C13D4F8D420E15A08
:105050004FF47A73801A03FB01F39842A7D944F204
:105060002812A358002BA2D10223A65063559EE715
:105070006D040000F8B505210646FFF7C9FC06F5EA
:10508000824300251F683C7844B911E00135ADB278
:1050900021463046FFF7BCFC7C5D4CB1022C4FF042
:1050A0001001304601D08C42F0D1FFF7B1FCEDE7A2
:1050B00030461921FFF7ACFC30460321FFF7A8FC6E
:1050C00030460221BDE8F840FFF7A2BC2DE9F04FC1
:1050D00083B004460621164698469DF83090804FCE
:1050E000FFF796FC20460021FFF792FC2046102196
:1050F000FFF78EFC20460221FFF78AFC3A6844F253
:1051000010132046D55C0021FFF782FC022D00F031
:10511000D380102D00F0D08029462046FFF778FC80
:105120003B6803F582434FF0000BD3F800A09AF8D8
:1051300000505DB914E00BF1010B1FFA8BFB2946FF
:105140002046FFF765FC1AF80B504DB1022D4FF0C9
:105150001001204601D08D42EDD1FFF759FCEAE75E
:1051600019212046FFF754FC3A6844F2081352F81C
:1051700003A09AF80050BDB14FF0000B0AE00BF10C
:10518000010B1FFA8BFB29462046FFF741FC1AF85A
:105190000B504DB1022D4FF01001204601D08D4231
:1051A000EDD1FFF735FCEAE719212046FFF730FC87
:1051B0003A6844F2041352F803A09AF80050BDB1C3
:1051C0004FF0000B0AE00BF1010B1FFA8BFB294695
:1051D0002046FFF71DFC1AF80B504DB1022D4FF081
:1051E0001001204601D08D42EDD1FFF711FCEAE716
:1051F00019212046FFF70CFC4FEA18434FEA1865C7
:105200004FEA1821320E8DF807608DF80130330C0B
:10521000360A8DF803808DF806608DF800508DF801
:1052200002108DF804208DF805306E460DF1070848
:1052300007E029462046FFF7EBFBB04510D016F8F3
:10524000015F022D20464FF0100101D08D42F0D1B8
:10525000FFF7DEFB29462046FFF7DAFBB045EED12B
:1052600044F20C133A68D55A2B12022BEDB2DEB27F
:1052700031D0102E2FD031462046FFF7C9FB022D2A
:1052800024D0102D22D029462046FFF7C1FB002153
:105290002046FFF7BDFBB9F1020F12D0B9F1100F94
:1052A0000FD049462046FFF7B3FB2046042103B048
:1052B000BDE8F04FFFF7ACBB10212046FFF7A8FB7D
:1052C0002AE710212046FFF7A3FBEAE7102120463A
:1052D000FFF79EFBD7E710212046FFF799FBCAE7AF
:1052E0002887FF1F10B544F2281244F20E11002344
:1052F0004354044683500221FFF78AFB20461121C4
:10530000FFF786FB20460321FFF782FB20460221A0
:10531000BDE81040FFF77CBBF8B50E4604460221FD
:105320001546FFF775FB20465021FFF771FB33123E
:10533000022BF6B2DFB22AD0102F28D039462046F1
:10534000FFF766FB022E2CD0102E2AD031462046C5
:10535000FFF75EFB2B12022BEDB2DEB22BD0102E2C
:1053600029D031462046FFF753FB022D1ED0102DC9
:105370001CD029462046FFF74BFB20460321FFF7B0
:1053800047FB20460221BDE8F840FFF741BB102152
:105390002046FFF73DFB39462046FFF739FB022E3A
:1053A000D2D110212046FFF733FBCFE71021204652
:1053B000FFF72EFBDDE710212046FFF729FBD0E7A2
:1053C00010B502210446FFF723FB20460421FFF716
:1053D0001FFB20460321FFF71BFB20460221FFF79E
:1053E00017FB236820465B68984744F2FC030122C0
:1053F000E254C4F8D40010BD2DE9F0410E4682B04D
:10540000054602211746340EFFF702FB28466C21A1
:10541000FFF7FEFA320C330A022C8DF807608DF884
:1054200004408DF805208DF8063001AE0DF1070817
:1054300028464FF010010ED08C420CD02146284651
:10544000FFF7E6FA46450ED016F8014F022C284623
:105450004FF01001F0D1FFF7DBFA21462846FFF7A5
:10546000D7FA4645F0D13B12022BFCB2DEB218D07F
:10547000102E16D031462846FFF7CAFA022C1AD051
:10548000102C18D021462846FFF7C2FA28460321DF
:10549000FFF7BEFA2846022102B0BDE8F041FFF74F
:1054A000B7BA10212846FFF7B3FA31462846FFF76E
:1054B000AFFA022CE4D110212846FFF7A9FAE1E760
:1054C000F0B50E4683B005460221FFF7A1FA340E6F
:1054D00028466421FFF79CFA320C330A022C8DF81F
:1054E00007608DF804408DF805208DF8063001AE78
:1054F0000DF1070728464FF010010ED08C420CD05A
:1055000021462846FFF784FABE420ED016F8014F16
:10551000022C28464FF01001F0D1FFF779FA21460E
:105520002846FFF775FABE42F0D128460321FFF75F
:105530006FFA2846022103B0BDE8F040FFF768BAD1
:10554000F0B50E4683B005460221FFF761FA340E2E
:1055500028466521FFF75CFA320C330A022C8DF8DD
:1055600007608DF804408DF805208DF8063001AEF7
:105570000DF1070728464FF010010ED08C420CD0D9
:1055800021462846FFF744FABE420ED016F8014FD6
:10559000022C28464FF01001F0D1FFF739FA2146CE
:1055A0002846FFF735FABE42F0D128460321FFF71F
:1055B0002FFA2846022103B0BDE8F040FFF728BAD1
:1055C0002DE9F04F87B01D46BDF848300193BDF876
:1055D0004C3002930446BDF8503003938B460221B1
:1055E0009246DDF84090BDF84480FFF711FA20465E
:1055F0001421FFF70DFA2B78A3B11F46002607E010
:105600000136B6B239462046FFF702FAAF5D4FB118
:10561000022F4FF01001204601D08F42F0D1FFF74A
:10562000F7F9EDE74FEA1B6619212046FFF7F0F97D
:105630004FEA1B414FEA1B22022E8DF817B08DF85E
:1056400015108DF814608DF816200DF1140B0DF166
:10565000170520464FF010010ED08E420CD0314677
:105660002046FFF7D5F95D450ED01BF8016F022EDD
:1056700020464FF01001F0D1FFF7CAF9314620461D
:10568000FFF7C6F95D45F0D14FEA1A6B4FEA1A42AF
:105690004FEA1A23BBF1020F8DF817A08DF814B052
:1056A0008DF815208DF816300DF1140A20464FF0B4
:1056B00010010FD08B450DD059462046FFF7A8F9B1
:1056C00055450FD01AF801BFBBF1020F20464FF02D
:1056D0001001EFD1FFF79CF959462046FFF798F9E2
:1056E0005545EFD14FEA196A4FEA29424FEA29237B
:1056F000BAF1020F8DF817908DF814A00DF114096E
:105700008DF815208DF8163020464FF010010FD07F
:105710008A450DD051462046FFF77AF94D450FD006
:1057200019F801AFBAF1020F20464FF01001EFD186
:10573000FFF76EF951462046FFF76AF94D45EFD164
:105740004FEA2823022B5FFA88F8DDB256D0102DDD
:1057500054D029462046FFF75BF9B8F1020F58D024
:10576000B8F1100F55D041462046FFF751F9019A84
:105770001312022BD7B2DDB269D0102D67D02946A3
:105780002046FFF745F9022F5CD0102F5AD039463A
:105790002046FFF73DF9029A1312022BD6B2DDB272
:1057A0004BD0102D49D029462046FFF731F9022E63
:1057B0003ED0102E3CD031462046FFF729F9039AFF
:1057C0001312022BD5B2DEB22DD0102E2BD03146C3
:1057D0002046FFF71DF9022D20D0102D1ED029469E
:1057E0002046FFF715F920460321FFF711F920465F
:1057F000022107B0BDE8F04FFFF70AB9102120469B
:10580000FFF706F929462046FFF702F9B8F1020F23
:10581000A6D110212046FFF7FBF8A4E7102120466F
:10582000FFF7F6F8DBE710212046FFF7F1F8CEE7A7
:1058300010212046FFF7ECF8BDE710212046FFF7C6
:10584000E7F8B0E710212046FFF7E2F89FE71021C4
:105850002046FFF7DDF892E701B441EA000313F0B8
:1058600003036FD1403A41D351F8043B40F8043B65
:1058700051F8043B40F8043B51F8043B40F8043B2A
:1058800051F8043B40F8043B51F8043B40F8043B1A
:1058900051F8043B40F8043B51F8043B40F8043B0A
:1058A00051F8043B40F8043B51F8043B40F8043BFA
:1058B00051F8043B40F8043B51F8043B40F8043BEA
:1058C00051F8043B40F8043B51F8043B40F8043BDA
:1058D00051F8043B40F8043B51F8043B40F8043BCA
:1058E00051F8043B40F8043B403ABDD2303211D36A
:1058F00051F8043B40F8043B51F8043B40F8043BAA
:1059000051F8043B40F8043B51F8043B40F8043B99
:10591000103AEDD20C3205D351F8043B40F8043B69
:10592000043AF9D204320AD0D2071CBF11F8013B65
:1059300000F8013B03D30B7803704B78437001BC34
:10594000704700BF0C2A4AD310F0030311D0C3F1F3
:105950000403D21ADB071CBF11F8013B00F8013B1E
:1059600007D311F8013B00F8013B11F8013B00F8A7
:10597000013B11F003033FF475AF30B4043AC91A88
:10598000C3F1040C51F8044B022B19D0032B0BD09C
:10599000240A51F8043B1D0644EA050440F8044B70
:1059A0001C46043AF4D216E0240E51F8043B1D02C2
:1059B00044EA050440F8044B1C46043AF4D20AE0D9
:1059C000240C51F8043B1D0444EA050440F8044B40
:1059D0001C46043AF4D20432B1EB0C0130BC043A58
:1059E000A0D3013A11F8013B00F8013BF9D20B7842
:1059F00003704B7843708B78837001BC704700BF95
:105A000008B5104C08E0236859050DD423681A0521
:105A10000FD42368DB0411D423685803F3D500F0B6
:105A2000F5F923685905F1D500F00EF823681A0539
:105A3000EFD5FDF799F92368DB04EDD500F004F804
:105A4000EAE700BF3480044008B5FFF7D9FF00BF84
:105A5000014B10221A80704700200540704700BF9C
:105A6000094908B50B6830B16A461844A2F580525E
:105A7000904202D20860184608BD0BF0F5F90C23DD
:105A800003604FF0FF3008BD2C87FF1F00207047D8
:105A90004FF0FF30704700BF4FF400534B600020C1
:105AA000704700BF012070474FF0FF30704700BFC4
:105AB000FEE700BFFEE700BF30B4054B054D064CC6
:105AC000002210211A602A602060196030BC7047E3
:105AD00014D0034004D0034000D0034072B60C49F8
