:1000000000800020BD010000556500000D65000066
:100010000D6500000D6500000D6500000D65000018
:100020000D6500000D6500000D65000055650000C0
:10003000556500000D650000E5750000E9750000DC
:1000400055650000556500005565000055650000C8
:1000500055650000556500005565000055650000B8
:1000600055650000556500005565000055650000A8
:100070005565000055650000556500005565000098
:100080005565000055650000556500005565000088
:100090005565000055650000556500005565000078
:1000A0005565000055650000556500005565000068
:1000B0005565000055650000556500005565000058
:1000C0005565000055650000556500005565000048
:1000D0005565000055650000556500005565000038
:1000E0005565000055650000556500005565000028
:1000F000556500005565000055650000D1400000C1
:1001000055650000E93D000055650000556500009B
:1001100055650000556500005565000055650000F7
:1001200055650000556500005565000055650000E7
:1001300055650000556500005565000055650000D7
:1001400055650000556500005565000055650000C7
:1001500055650000556500005565000055650000B7
:1001600055650000196900005565000055650000DF
:100170005565000055650000556500005565000097
:100180005565000055650000556500005565000087
:100190005565000055650000556500005565000077
:1001A0005565000055650000556500005565000067
:1001B000556500005565000055650000564B4CF232
:1001C000205210B51A804DF628121A8000BF00BFC9
:1001D00006F0C4F9514B4FF010621A60504A9A6011
:1001E000504ADA60504A136813F4807304D14F49BF
:1001F0000B604FF4A85313604D4B1A78110703D5C9
:100200001A7842F008021A704A4B4B492A221A7097
:100210004A4A4B4B8B4204D252F8040F43F8040B6A
:10022000F8E7484B484900228B4202D243F8042B9E
:10023000FAE74649464A002352F8230041F82300D2
:1002400001336F2BF8D1434B434A802103F8011B44
:100250009342FBD1414B3D4A1A60414B8A221A70AE
:10026000A3F5805324225A70A0221A709A7992071B
:10027000FCD59A79D406FCD43A4A937903F00C035E
:10028000082B384BF9D103221A7140225A719A79FE
:100290009006FCD5334A9179324B4906FBD5324A58
:1002A000324911600221516020221A709A7902F0BD
:1002B0000C020C2AFAD12E4B2E4A1A602E4B4BF60A
:1002C0007F321A6000225A60072243F8042C2B4A1E
:1002D000C3F80C2D62B606F0F7F9144B1B68DA0769
:1002E00005D5274806F06EF9264B274A1A60274B9A
:1002F0001B785B0609D5234C234B22689A4204D114
:100300001F4806F05FF90023236012F0EBFE06F0B1
:100310002BF907F031FAFEE70E200540308004404B
:10032000823F04000100002B10D0034014D0034092
:1003300002D0074000E00740B891FF1F6CDF0100CA
:100340002087FF1FB891FF1FC42A00200082FF1FD3
:100350000000000000E400E05FE400E008ED00E0E1
:100360000050064000400640448004400000131145
:1003700004800440C010050014E000E000002020CC
:10038000D69E7B621CE00340A5C3945A00F0074050
:10039000FFFFFFFFFFFFFFFFFFFFFFFFFFFFFFFF6D
:1003A000FFFFFFFFFFFFFFFFFFFFFFFFFFFFFFFF5D
:1003B000FFFFFFFFFFFFFFFFFFFFFFFFFFFFFFFF4D
:1003C000FFFFFFFFFFFFFFFFFFFFFFFFFFFFFFFF3D
:1003D000FFFFFFFFFFFFFFFFFFFFFFFFFFFFFFFF2D
:1003E000FFFFFFFFFFFFFFFFFFFFFFFFFFFFFFFF1D
:1003F000FFFFFFFFFFFFFFFFFFFFFFFFFFFFFFFF0D
:10040000FFFFFFFFFFFFFFFFFFFFFFFFDEF9FFFF23
:1004100010B5054C237833B9044B13B10448AFF33E
:1004200000800123237010BDB891FF1F0000000061
:10043000ACDB0100084B10B51BB108490848AFF30D
:1004400000800848036803B910BD074B002BFBD0A0
:10045000BDE81040184700BF00000000BC91FF1F1E
:10046000ACDB0100B891FF1F00000000704700BF27
:10047000002070470020704741F25833EC22C358E7
:10048000DA70704741F258332C22C358DA70704743
:1004900041F25833C358D971704700BF41F2583305
:1004A000C358D879704700BF41F25833C358187900
:1004B000C0F34010704700BF41F258324B0810B4EF
:1004C00003F1B763845803F55843B3FBF1F1C1F36B
:1004D000443323708358C1F347145C70835801F090
:1004E0001F01997210BC7047024641F688530021E3
:1004F000C05CD154704700BF00F5AF5300F5EB521C
:1005000002331A32002123F8021F9342FBD17047B5
:1005100044F210230022C254704700BF054B816192
:1005200082B01B680193019A02610123436002B00B
:10053000704700BF84280020002303614360704798
:10054000704700BF0246406848B11389D0685A42DC
:10055000904203DB9842A8BF184670471046704788
:10056000C1607047704700BF436B2DE9F0410446FE
:10057000C0691F6811F00EF801468046384610F039
:1005800053FF11F037FA266A80EAE073A3EBE073B9
:10059000B342054610DB4146384611F00BFA18BB52
:1005A000A81910F0F7FF616A11F048F811F022FA6B
:1005B00010F0F0FF064600E00026206BE36A2844B6
:1005C0005A42904212DB9842A8BF1846206310F0AE
:1005D000E1FFA16A11F032F8314610F027FF11F067
:1005E00009FAE060BDE8F081A81BDAE71046EDE704
:1005F0002DE9F0410446C069884610F0CBFF014662
:100600000746404610F010FF11F0F4F9266A80EA20
:10061000E073A3EBE073B342054610DB4146384676
:1006200011F0AAF918BBA81910F0B4FF616A11F013
:1006300005F811F0DFF910F0ADFF064600E00026E6
:10064000206BE36A28445A42904212DB9842A8BFCA
:100650001846206310F09EFFA16A10F0EFFF3146AC
:1006600010F0E4FE11F0C6F9E060BDE8F081A81BCF
:10067000DAE71046EDE700BF704700BF436AC16983
:1006800010B50446186810F0D9FF11F0B3F9E06016
:1006900010BD00BF10B504460846E16910F0CEFF5A
:1006A00011F0A8F9E06010BD704700BF704700BFAF
:1006B000704700BF08B505F097FF00EB4000000150
:1006C00008BD00BF08B505F08FFF002108BD00BFC1
:1006D00038B504460D4605F087FF01232061A5616A
:1006E000636038BD10B53021044607F051F820464C
:1006F00010BD00BF10B52821044607F049F8204678
:1007000010BD00BF10B53C21044607F041F820465B
:1007100010BD00BF10B541F27831044607F038F83B
:10072000204610BD10B584B00222684607F00AF8D2
:10073000054C009B6846002B18BF1C4606F078FF4E
:10074000204604B010BD00BF9AB8010010B584B0B7
:10075000114668460A2206F0E1FF054C009B6846F8
:10076000002B18BF1C4606F063FF204604B010BDE6
:100770009AB8010010B584B00A22684606F0BAFFA4
:10078000054C009B6846002B18BF1C4606F050FF26
:10079000204604B010BD00BF9AB8010010B584B067
:1007A0000A22684606F092FF054C009B6846002B23
:1007B00018BF1C4606F03CFF204604B010BD00BF29
:1007C0009AB8010010B5044605E006F07FFDC1B2FD
:1007D000204605F075F806F0B5FD0028F5D110BDEE
:1007E00010B5044B044640F8D03B04F08FF9204686
:1007F00010BD00BFD4B2010010B5064B044640F84E
:10080000D03B04F083F9204644F2182106F0C0FFE3
:10081000204610BDD4B2010043680BB9C3607047D5
:1008200070B5044605F0E0FEA2693AB121694FF4C3
:100830007A73401A03FB02F3984228D805F0D4FEDD
:100840002369656AC01AB0FBF5F305FB130010F0CD
:100850009DFE0646284610F099FE0146304610F0EF
:10086000A1FF1149E06110F0E9FE11F0E9F8E26A38
:10087000B4F9203032F910100C4A03FB01F382FB6B
:1008800003121A44DB17C3EB6223E36070BD2368D5
:10089000074ADB68934204D100232361002363608D
:1008A00070BD20469847F9E700A03B45030820802B
:1008B0003905000010B50446D0F840020B4A036821
:1008C0001B6993420AD105F08FFE00EB4000000146
:1008D0000123C4F8600284F85C3210BD98470123FC
:1008E000C4F8600284F85C3210BD00BFB506000099
:1008F00038B590F85C4214B90024204638BD05464E
:10090000D0F840020A4A03681B6993420DD105F0F2
:100910006BFE00EB40000001D5F86022D5F8643290
:10092000801A9842E8D3204638BD9847F4E700BFC4
:10093000B5060000F8B542F2E40242F2E003825844
:10094000C3589342054613D000F503573C463E4634
:1009500020341C3724363A681A402A44013392F86E
:10096000D800236006F09CFD236832689342F2D1E0
:1009700044F2FC03EA5C32B144F21021012000226F
:100980006854EA54F8BDF8BD10B503680C4A1B6AF8
:10099000934284B00ED10A22684606F0ABFE094CA1
:1009A000009B6846002B18BF1C4606F041FE2046FF
:1009B00004B010BD98470446204604B010BD00BFE7
:1009C000750700009AB8010010B503680C4ADB698E
:1009D000934284B00ED10A22684606F077FE094C95
:1009E000009B6846002B18BF1C4606F021FE2046DF
:1009F00004B010BD98470446204604B010BD00BFA7
:100A00009D0700009AB80100F8B5594D594ED5F828
:100A100000C041F2683300F59B5EC358DEF800E089
:100A200041F2583241F264374CEA0303C7592B6054
:100A30008358DFF848C140F21335CEF800504FF428
:100A4000517E1225C7F800E09D70835800251D7463
:100A500083582C25DD70835841F25C370E259D713B
:100A6000C35D03F1604303F5644340251D70C55D1C
:100A70006B119B0003F1604303F561434FF0010EDE
:100A800005F01F050EFA05F51D600568C35DEF68EA
:100A900003F01F055B110EFA05F56745044646F89D
:100AA00023505FD10B4621FA0EF1805801F1B76156
:100AB00001F55841B1FBF3F1C1F344330370A3587E
:100AC000C1F347105870A35801F01F01997200211B
:100AD0000A4623464FF4077E21270EFB01400131D1
:100AE000082980F840724FF0210680F841224FF02B
:100AF0000005C0F84C2283F8382083F848225A6356
:100B0000C3F83C2103F50773E7D104F589531A496B
:100B100083F80C621D7183F80D5283F81452226819
:100B20001269C3F8185241F2141741F2181641F233
:100B30001C101D60C3F808518A424FF01403E551A0
:100B4000A551255084F830300ED105F04DFD00EB55
:100B50004000000141F2503141F254330422605010
:100B6000E254F8BDB847B2E720469047F2E700BF2D
:100B70003480044080E200E0B5060000B9040000C3
:100B80000368AB4A9B6A93422DE9F041044640F06A
:100B9000918041F25833C3581879C0F340100028AF
:100BA00050D141F25833E358DA78110601D4BDE848
:100BB000F0811A791206FAD541F21C124FF407752A
:100BC000A2589C4805FB024595F83820511C85F831
:100BD000381021680E6A2A44864292F8391040F093
:100BE000F780D971E38A0133E38295F838206B6B83
:100BF0009B1A002BDBDC95F83930002B40F0EB80A2
:100C000023688D4A1B69934240F0FB8005F0ECFCA1
:100C100000EB4000000141F2503141F25433032215
:100C20006050E2542368854ADB69934240F0F280C9
:100C300041F258332C22E358DA70172384F830300D
:100C4000BDE8F08126687E4A736A41F21C11934226
:100C5000655840F0D28041F25833E358D879C0B299
:100C60004FF4077303FB0543D3F83C219918013275
:100C700081F84001C3F83C21218B01312183D3F855
:100C80004C128A421ADA93F94131002B14DB336992
:100C9000694A934240F0BB8005F0A6FC00EB40009F
:100CA000000141F2503141F2543302226050E254CB
:100CB000BDE8F081984772E7042AE8DD33695E4AAF
:100CC000934240F0AA8005F08FFC00EB4000000149
:100CD00041F2543241F2503604214FF40773A051CF
:100CE00003FB0543A15493F8391093F84021914236
:100CF00008D0628C0132628493F8412242F02002D3
:100D000083F841224FF4077101FB05F16318D3F812
:100D10003C71012F2ADDB7F1020C03F5A07100F040
:100D20008380FF20DFF81C81DFF81CE1024601EB25
:100D30000C0611F8013B5340B14218F8032082EA37
:100D400000021EF80300F4D142EA002212B24FF46E
:100D5000077303FB05439C441F449CF8401197F81C
:100D60003F3143EA01231BB293420CD0A28C4FF4D3
:100D70000773013203FB0543A28493F8412242F03A
:100D8000400283F841224FF4077303FB05F3E21896
:100D900092F8411299B9A18A0131A18292F94121B7
:100DA000002A0CDAA28B23440132A28393F8423149
:100DB000052B35D0062B02D1238C013323844FF42D
:100DC000077303FB0544242384F84032BDE8F08117
:100DD0002046B04706E72368174A1B69934213D1A0
:100DE00005F002FC00EB4000000141F2503141F2FD
:100DF000543301226050E25414E720469847266895
:100E00002EE72046984706E720469847EDE720461C
:100E1000984746E7204698470FE72046984757E708
:100E2000E38B0133E383CAE74FF0FF328FE700BF64
:100E3000A904000091040000B5060000850400002C
:100E40009D04000098B6010098B701002DE9F84311
:100E5000DFF8909104468846174600250135ADB26B
:100E600019F80560002EF9D10221204604F05EFD3C
:100E7000290A204604F05AFDE9B2204604F056FD46
:100E80007221204604F052FD55250136B6B229469E
:100E9000204604F04BFD19F80650002DF5D119211C
:100EA000204604F043FD98F80030002B00F09280BB
:100EB0002946013189B218F80130002BF9D10E0A08
:100EC000CDB20221204604F031FD3146204604F027
:100ED0002DFD2946204604F029FD7221204604F00C
:100EE00025FD98F80010002541B10135ADB220462E
:100EF00004F01CFD18F805100029F6D11921204630
:100F000004F014FD3978002966D00021013189B23E
:100F10007B5C002BFAD10E0ACDB20221204604F0F0
:100F200005FD3146204604F001FD2946204604F027
:100F3000FDFC7221204604F0F9FC397841B100250E
:100F40000135ADB2204604F0F1FC795D0029F7D1FE
:100F50001921204604F0EAFC0221204604F0E6FCB8
:100F60000021204604F0E2FC0121204604F0DEFCD2
:100F70007221204604F0DAFC0D21204604F0D6FC54
:100F80001921204604F0D2FC154F00260136B6B2D6
:100F9000BD5D002DFAD10221204604F0C7FC310AC4
:100FA000204604F0C3FCF1B2204604F0BFFC7221DD
:100FB000204604F0BBFC55210135ADB2204604F0BB
:100FC000B5FC795D0029F7D120461921BDE8F84329
:100FD00004F0ACBC2E4674E70D460E469DE700BFFC
:100FE00074B4010060B401002DE9F0438BB00DF141
:100FF0002809152449F8284D0F4600224946054680
:1010000006AE04A8049608F037F82246009B7A49F9
:101010000693049005F0A6F9009B049A059300241A
:10102000D4543846754913F05FF878B1384674499E
:1010300013F05AF8002800F0A1800498B04201D0C3
:1010400006F0A4FB20460BB0BDE8F083DFF8C081BA
:1010500007460137BFB218F80740002CF9D102212A
:10106000284604F063FC390A284604F05FFCF9B214
:10107000284604F05BFC7221284604F057FC5327F5
:101080000134A4B23946284604F050FC18F8047024
:10109000002FF5D11921284604F048FC2B68594A45
:1010A0005B68934240F09E8005F09EFA2A68564B9A
:1010B000516A994240F0908001460A22484606F063
:1010C0002DFB009F514B4846002F08BF1F4606F0DE
:1010D000AFFA3978002900F08B800021013189B204
:1010E0007B5C002BFAD14FEA1128CCB202212846B2
:1010F00004F01CFC4146284604F018FC2146284612
:1011000004F014FC7221284604F010FC397841B137
:1011100000240134A4B2284604F008FC395D0029FB
:10112000F7D11921284604F001FCDFF8E8800027F8
:101130000137BFB218F80740002CF9D10221284628
:1011400004F0F4FB390A284604F0F0FBF9B2284613
:1011500004F0ECFB7221284604F0E8FB2021013466
:10116000A4B2284604F0E2FB18F804100029F6D1D6
:101170002846192104F0DAFB01245EE7049F3C783D
:10118000002C33D0013080B23B5C002BFAD14FEA07
:101190001028C4B20221284604F0C8FB4146284664
:1011A00004F0C4FB2146284604F0C0FB7221284607
:1011B00004F0BCFB397800240029D9D00134A4B252
:1011C000284604F0B3FB395D0029F7D128461921E0
:1011D00004F0ACFB012430E702463B462846884732
:1011E000074676E7284698470F465FE7A046D1E7CF
:1011F0000C4688467AE700BFACB40100C4B40100D5
:10120000E8B40100C50600004D0700009AB80100CF
:10121000D0B40100E0B4010084B02DE9F041ADF597
:10122000087D8FAC4FF4077684E80E000546214612
:1012300001A8324605F096F841F2141741F218134E
:10124000EC59EB58E31A03F00703072B1AD006FBFF
:1012500004580023212088F8400288F8483288F892
:101260004132C8F83C31C8F84C3201A9324608F185
:101270003400013405F076F804F00704222388F8DE
:101280004032EC5101200DF5087DBDE8F04104B07D
:10129000704700BF2DE9F047DFF86893DFF868E397
:1012A000D9F80010D64E0446082300224FF0030C54
:1012B00090271125481C04F109086360012384F874
:1012C0000AC02773A573C9F80000227262736372A3
:1012D000E372ADF5047DC4F814124046251D04F1F7
:1012E0000E074FF0800C8122FF2307E010F8011F4A
:1012F000594063461EF8012016F801C0534087424A
:10130000DBB2F3D143EA0C231BB2C3F30721D4F8B9
:1013100020A22374272205F10C06E173C4F81C22D5
:1013200031464FF40472684605F01CF895E80E004B
:101330005046FFF771FFD9F80030C4F814325A1C38
:101340004FF0210E0023082084F810E201214FF015
:10135000030EC9F80020B02284F811322372C4F8B9
:101360001C3284F81832C4F80C3163736060A073C7
:1013700084F80AE02273DFF890A2DFF884C2617279
:10138000E17240464FF0800E8122FF2307E010F803
:10139000011F594073461AF801201CF801E0534020
:1013A0008742DBB2F3D143EA0E231BB2C3F307211A
:1013B000D4F820A223741522E173C4F81C2231460C
:1013C0004FF40472684604F0CDFF95E80E005046D5
:1013D000FFF722FFD9F80030C4F8143221215A1C3B
:1013E00084F8101200234FF0080E01202173C9F871
:1013F00000200321382284F811322372C4F81C32F1
:1014000084F81832C4F80C31E3726373C4F804E052
:101410006072A273DFF8F0A1DFF8E4C1A172404668
:101420004FF0800E8122FF2307E010F8011F594082
:1014300073461AF801201CF801E053408742DBB2E2
:10144000F3D143EA0E231BB2C3F30721D4F820A241
:1014500023747522E173C4F81C2231464FF40472E0
:10146000684604F07FFF95E80E005046FFF7D4FE73
:10147000D9F80030C4F814325A1C2121002384F812
:1014800010124FF0080E012084F811320321C9F820
:10149000002023726022C4F81C3284F81832C4F889
:1014A0000C31E37263730B23C4F804E0607222739F
:1014B000A373DFF854A1DFF848C1A17240464FF092
:1014C000800E8122FF2307E010F8011F5940734668
:1014D0001AF801201CF801E053408742DBB2F3D137
:1014E00043EA0E231BB2C3F30721D4F820A22374CE
:1014F0001B22E173C4F81C2231464FF40472684683
:1015000004F030FF95E80E005046FFF785FED9F84D
:101510000030C4F814325A1C2120002384F8100231
:1015200008214FF0010E0320C9F80020702284F832
:1015300011322372C4F81C3284F81832C4F80C310A
:10154000E372637384F809E0A0722273DFF8B8A035
:10155000DFF8ACC06160A17340464FF0800E81227D
:10156000FF2307E010F8011F594073461AF80120C5
:101570001CF801E05340B842DBB2F3D143EA0E233A
:101580001BB2C3F30721D4F820A223741522E17300
:10159000C4F81C2231464FF40472684604F0E2FE9F
:1015A00095E80E005046FFF737FED9F80030C4F832
:1015B00014325A1C2121002384F81012012084F8CF
:1015C00011324FF0080AC9F80020032110222372BB
:1015D000C4F81C3284F81832C4F80C31E372637317
:1015E0008023607223731846A273DFF81CC0DFF8F3
:1015F00010E0C4F804A0A1728122FF230EE000BF16
:1016000098B701000411002098B6010018F8011FD6
:10161000594003461CF801201EF801005340B8450C
:10162000DBB2F3D143EA00231BB2C3F30721D4F8A2
:10163000207223742522E173C4F81C2231464FF432
:101640000472684604F08EFE95E80E003846FFF7F7
:10165000E3FD0023212284F81022237284F8113242
:1016600084F81832C4F81C326360C4F80C310DF5EC
:10167000047DBDE8F08700BF2DE9F04FADF50F7D8B
:101680000027894604468AAE084657498896904600
:1016900089978DF8287212F027FD90B1534948467A
:1016A00012F022FD0546002852D04846504912F05B
:1016B0001BFD002800F0A68038460DF50F7DBDE823
:1016C000F08F4C4F054620210135ADB2204604F085
:1016D0002DF9795D0029F7D12368474A1B689342A9
:1016E00032D142F2E00342F2E402E358A2589342BC
:1016F00015D004F5035845464746203508F11C0827
:101700002437D8F800201A402244013392F8D80038
:101710002B6005F0C5FE2B683A689342F1D144F284
:10172000FC03E25C92B144F21021012000226054DB
:10173000E2548898B04200F0F18306F027F80120C7
:101740000DF50F7DBDE8F08F204698478898F1E7AA
:101750002A4B2B4F8EAA414642F81C0D186803F005
:101760009DFA44F2D8237421E0500135ADB22046F1
:1017700004F0DCF8795D0029F7D123681E4A1B6864
:10178000934240F0FD8242F2E00342F2E402E35869
:10179000A258934215D004F50358454647462035D4
:1017A00008F11C082437D8F800201A4022440133DD
:1017B00092F8D8002B6005F073FE2B683A689342CC
:1017C000F1D144F2FC03E25C2AB144F21021012081
:1017D00000226054E25444F2142241F67C53A25891
:1017E00088980221D154A5E7F0B4010004B50100A6
:1017F00010B50100F8B40100350900003C87FF1F57
:1018000008B5010098F801500221204605EA0109B7
:1018100004F08CF898F80110204604F087F8EB07E4
:101820005FFA89F940F1AA8298F802309F0706D53D
:1018300044F2142141F67C52615802208854DD079D
:1018400000F1A182180700F10E8398F8031098F8B0
:1018500004304FF47A7203EB012344F24C2102FB73
:1018600003F3635098F8063098F8050003EB002066
:1018700040420FF08FFED4490FF094FF44F25423FE
:1018800044F29825E05098F8083098F8070003EBE8
:10189000002040420FF07EFECB490FF083FF6051E5
:1018A00098F8091098F80A3044F2C42203EB012397
:1018B000A35298F80C3098F80B0003EB00200FF0BF
:1018C00069FE04F5854A0146C0480FF06BFF0AF136
:1018D000240A10F0B5F8DAF824309842074664D0AC
:1018E00004F082FE44F2B42344F2C822E358A5581F
:1018F000C01AB0FBF5F305FB13000FF047FE83465B
:1019000028460FF043FE014658460FF04BFFCAF839
:1019100024704FF07E51054610F04CF858B128461F
:101920004FF07E510FF080FD4FF07E51054610F0D4
:1019300041F80028F3D14FF07E51284610F01CF8F2
:1019400058B128464FF07E510FF070FD4FF07E5198
:10195000054610F011F80028F3D104F045FEDAF83E
:10196000242085901046DAF8107084920FF00EFE55
:10197000859B849ADB1B8346B3FBF2F002FB10309D
:101980000FF004FE59460FF00DFF0146CAF81C0087
:1019900028460FF049FD59460FF050FE10F050F860
:1019A000381ACAF8100004F01FFE44F2142341F65E
:1019B000900AE55898F8110098F8123055F80A1076
:1019C00044F2D42203EB0023A350090E204603F077
:1019D000ADFF55F80A102046C1F3074103F0A6FFFA
:1019E00055F80A1041F69C072046C1F3072103F081
:1019F0009DFF15F80A10204603F098FFE95920468C
:101A0000090E03F093FFE9592046C1F3074103F0A3
:101A10008DFFE95905F5C55A2046C1F3072103F0AA
:101A200085FFE95D204603F081FFBAF800102046EB
:101A3000090A03F07BFF9AF80010204603F076FFB6
:101A400041F6840341F6880AE95C204603F06EFF04
:101A500035F80A1041F644172046090A03F066FFDC
:101A600015F80A10204603F061FFE95B2046090AD9
:101A700003F05CFFE95D204603F058FF002120469B
:101A800003F054FF0521204603F050FF1327B9F15E
:101A9000000F00F0498118F80730990706D544F285
:101AA00014220221A25802F56C521176DA0700F1D5
:101AB00072811B0700F17A817B1C08EB030218F886
:101AC000031052784FF47A7302EB012244F24C2156
:101AD00003FB02F2FB1C625008EB030218F8030040
:101AE000537803EB002040420FF054FD36490FF0CD
:101AF00059FE44F254227B1DA05008EB030218F853
:101B00000300537803EB002040420FF043FD2E49C1
:101B10000FF048FE44F29822FB1DA05008EB030191
:101B200018F803204B7844F2C42103EB022207F19A
:101B30000903625208EB030218F80300537803EB21
:101B400000200FF027FD04F5854A01461F480FF0DD
:101B500029FE0AF1240A0FF073FFDAF824309842C4
:101B600081466BD004F040FD44F2B42344F2C82215
:101B7000E358A558C01AB0FBF5F305FB13000FF0AE
:101B800005FD834628460FF001FD014658460FF03B
:101B900009FECAF824904FF07E5105460FF00AFF67
:101BA00058B128464FF07E510FF03EFC4FF07E5169
:101BB00005460FF0FFFE0028F3D14FF07E51284676
:101BC0000FF0DAFE80B103E000007A44002474498B
:101BD00028464FF07E510FF029FC4FF07E5105460C
:101BE0000FF0CAFE0028F3D104F0FEFCDAF824203E
:101BF00085901046DAF8109084920FF0C7FC859B10
:101C0000849AC9EB03038346B3FBF2F002FB103066
:101C10000FF0BCFC59460FF0C5FD0146CAF81C0088
:101C200028460FF001FC59460FF008FD0FF008FFA1
:101C3000C0EB0900CAF8100004F0D6FC0F3744F2DC
:101C4000142208EB0703A55818F807005B7843F245
:101C50002C6744F2D422E95903EB0023A350090E68
:101C6000204603F063FEE9592046C1F3074103F023
:101C70005DFEE95943F238682046C1F3072103F0BD
:101C800055FEE95D204603F051FE55F80810204648
:101C9000090E03F04BFE55F808102046C1F307412A
:101CA00003F044FE05F5EC5755F808101C37C1F356
:101CB0000721204607F5C55903F038FE15F808102E
:101CC000204603F033FEB9F800102046090A03F05D
:101CD0002DFE99F80010204603F028FE41F68403FB
:101CE00041F68808F95C204603F020FE37F808101A
:101CF0002046090A41F6441503F018FE17F80810AB
:101D0000204603F013FE795B2046090A03F00EFE1D
:101D1000795D204603F00AFE0021204603F006FE0E
:101D20000521204603F002FE0321204603F0FEFDBC
:101D300023687C4A1B6893427FF406AD42F2E003BD
:101D400042F2E402E358A25893423FF4E8AC04F5AF
:101D5000035845464746203508F11C082437D8F873
:101D600000201A402244013392F8D8002B6005F07D
:101D700097FB2B683A689342F1D1D0E4022786E6BC
:101D80002046984727E544F2142141F67C526158D9
:101D90000020885456E544F2142241F67C51A258A2
:101DA00002F5EC521C320020505482E644F2142317
:101DB000DFF87CE1E358DEF800C05B495B4A03F5DD
:101DC000EC5003F5ED551C30082390F824022B60ED
:101DD0004FF0060A042385F806A0AB720CF1010A45
:101DE0000023C5F810C24FF0FF0CCEF800A02B71F5
:101DF000EB712B726B72687105F10A0905F1050E22
:101E0000634601E01EF8010F5840CE450B5C8CEA9A
:101E1000030312F800C0F5D143EA0C231BB2C3F34D
:101E200007210822D5F81C922B73E972C5F81822F5
:101E300005F10C014FF40472684604F093FA95E83A
:101E40000E004846FFF7E8F90023212285F80C220E
:101E50002B7185F80D3285F81432C5F818322B60D5
:101E6000C5F8083128E6324F2F49D7F800E02F4A4D
:101E700044F214234FF0060CE55808230EF1010A32
:101E80004FF0040B95F824026B6085F80AC000231C
:101E90004FF0FF0CC7F800A0C5F814E22B72EB72EC
:101EA0002B736B73687285F80EB005EB0B0705F1A9
:101EB000090E05F10E0A634601E01EF8010F5840B5
:101EC000F2450B5C8CEA030312F800C0F5D143EA3B
:101ED0000C231BB2C3F307210822D5F820A22B74D0
:101EE000E973C5F81C2207F10C014FF4047268462F
:101EF00004F038FA97E80E005046FFF78DF90023FA
:101F0000212285F810222B7285F8113285F81832BB
:101F1000C5F81C326B60C5F80C3196E40120FFF760
:101F2000CCBB00BF3509000098B6010098B701008E
:101F3000041100202DE9F0430026ADF2646D154632
:101F400089464FF48072314604460DF111001F4658
:101F5000BDF880868DF8106011F0A8FD31464FF471
:101F6000807246A8459611F0A1FD4A488DF820627E
:101F7000D0F800E08DF80560694221233D0E3A0C4F
:101F80008DF81832C9B23B0A4FEA282C8DF8196235
:101F90008DF8097041260C278DF806500EF10105C9
:101FA0008DF807208DF8083005608DF811908DF8B8
:101FB00004108DF80B808DF80AC001AA03978DF8E4
:101FC0001260CDF81CE20DF11200022301E012F8BC
:101FD000011F00F8011F01330A2BF8D1FF202E4FFB
:101FE0002E4E0DF1110102460DF11B0511F8013BBA
:101FF0005340A942FA5C82EA0002F05CF6D142EA60
:1020000000231BB2C3F307214FF407768DF81C3071
:102010000C2332468DF81B108AA80DEB0301D4F86F
:102020004052899304F09EF98AA932460DF2444049
:1020300004F098F941F2141741F2181355F807808B
:10204000EB58C3EB080303F00703072B1CD006FB78
:1020500008540023212084F84002324684F841329B
:1020600084F84832C4F83C31C4F84C320DF2444193
:1020700004F1340004F076F908F1010303F00703DA
:10208000222284F84022EB5101200DF2646DBDE85C
:10209000F08300BF0411002098B6010098B701003A
:1020A0002DE9F04F83B0054600268846009117467B
:1020B0004660067231464FF4807209309B4611F03B
:1020C000F5FC31464FF48072C5F80C6105F5887057
:1020D00011F0ECFC4FF0FF310122C5F8141285F825
:1020E00024220F210522E34BC5F82812C5F82C2223
:1020F00050214FF4FA5203FB0BF3DF4CDF48A5F8F5
:102100003412C5F83822322105F51A724FF0210930
:1021100085F81092C5F83042C5F8643285F811622E
:10212000286085F83C12C5F82022C5F8402285F8C1
:102130001862C5F844B2C5F84872C5F8506285F80F
:102140005462C5F8586285F85C62C5F86C82314605
:1021500005F51C70282211F0A9FC05F59B5A1423E3
:1021600085F898320AF11C0A05F5277400272660C5
:10217000267139464FF48072601D11F097FC4FF0C4
:10218000FF38C4F8086104F5867039464FF4807250
:1021900011F08CFC04F5077404F8109C04F8086C2A
:1021A00004F80F6C44F80C8C54454FF02103DDD13A
:1021B00005F59C54264641F27C30083441F28431C6
:1021C00041F288322F503760601D6F50AF50394652
:1021D0004FF480722771019311F068FC4FF4807204
:1021E0003946C4F8087104F5867011F05FFC019B54
:1021F00084F80C32BE46C4F8108284F80D7284F85C
:10220000147238462A4629464FF4077909FB0E57BF
:102210000EF1010EBEF1080F87F8A8344FF0210827
:1022200087F8A9044FF0000CC7F8B40401F5077152
:1022300081F8840081F89402C1F88000C1F8880117
:10224000E4D18F4F84F80C8241F2AC5041F2A85E89
:102250004FF47A5101FB0BF107FB0BF784F80DC229
:102260004FF4FA63C4F818C245F80E70295041F2D1
:10227000B05041F2B45103FB0BF32B506B5041F2C1
:10228000A45041F2BC517F4B45F800B005F801C0A5
:10229000C5F86832009B012B00F02381022B00F06F
:1022A000FD80002B00F0C38041F2C85E41F2CC51AA
:1022B00041F2D05305F5AE5055F80E80EB5855F865
:1022C00001E00168DFF8C491DFF8C4C1D9F800A0CB
:1022D0004AEA0303C9F8003040F2133A4FF4517947
:1022E0001223C8F800A0CEF800908B70036800217C
:1022F000197403684FF02C0E83F803E0036841F271
:10230000C4584FF00E0E83F806E015F8083003F1BC
:10231000604303F564434FF0400E83F800E015F886
:1023200008E0D0F800904FEA6E139B0003F1604381
:1023300003F561434FF0010A0EF01F0E0AFA0EFE7C
:10234000C3F800E015F8083003F01F0E5B110AFA1D
:102350000EFA4CF823A089F8001003684FF09C0E89
:1023600083F801E00368082098724FF407790B4660
:102370004FF0210C09FB01500131082980F8A8C455
:102380004FF0210E80F8A9344FF00008C0F8B434A3
:1023900002F5077282F8843082F89432C2F88030F5
:1023A000C2F88831E6D141F2883341F27C3141F202
:1023B000843284F80CE284F8048084F80D8284F876
:1023C0001482C4F8188245F803801423C4F80881E5
:1023D00045F80180C6F8008045F8028085F89832FB
:1023E00004F002F941F2B85100EB400005F5AF539B
:1023F00041F2BC520001685041F67C54042141F680
:102400008450A954C3F800B041F6885141F6945263
:1024100041F6985305F804802F50284605F80180AE
:1024200045F8028045F8038003B0BDE8F08F41F223
:10243000C45305F5AE5041F2C55C4FF02D09124969
:10244000016005F8039041F2C8534FF02E0905F8DA
:102450000C90DFF8408045F8038041F2CC5941F2FE
:10246000D05CDFF834E045F809E04FF4806345F8CC
:102470000C3027E7B0710B00688909004CB30100EC
:10248000A086010018B3010000A00640348004407B
:1024900080E200E018C004401CC0044041F2C45C6B
:1024A00005F5AE5041F2C55E4FF031081E4901609E
:1024B00041F2C85305F80C804FF0320805F80E8041
:1024C00041F2CC5941F2D05CDFF8648045F80380DA
:1024D000DFF860E045F809E04FF4805345F80C3030
:1024E000F0E641F2C45305F5AE5041F2C55C4FF041
:1024F0002F090E49016005F8039041F2C8534FF0CF
:10250000300905F80C90DFF8308045F8038041F27F
:10251000CC5941F2D05CDFF824E045F809E04FF4F3
:10252000006345F80C30CDE600C0064000B0064020
:1025300008C004400CC004400CB0044010B004407B
:102540002DE9F84305460026954B03604FF40058EB
:10255000C0F8CC60D0300C4602F0D6FA3146424684
:10256000C5F8D46005F1D80011F0A0FA05F50357BD
:1025700042F2E40342F2D80042F2DC0142F2E0020D
:10258000283741F6FF7945F8008045F80190384634
:10259000AE503146EE50424611F088FA07EB080083
:1025A00042F2080CC0F8008042F2040005F58243B4
:1025B00047F8009042F20C0047F80C6044F2F80C27
:1025C0003E5044F2FC0745F80C6044F2041CEE5502
:1025D000744A1A6044F2081745F80C2044F20C10B3
:1025E000DFF8ECC145F807C044F214124FF47A77D3
:1025F0002F5244F2241C44F22817AE50DFF8D4E1E5
:102600009E6144F22E1244F22C18DE6144F2301026
:1026100045F80C60EE5144F2FA1C44F2FC1725F820
:102620000860DEF80010AE5244F210122E5205F58A
:10263000844325F80C600120EE534CF250360027FD
:10264000C3E90267A854002900F0898044F21022EF
:102650004FF00108544B05F8028054482B6004F0F9
:10266000CBFF44F21422524BAC5005F584402B6052
:10267000183002F04DFA05F5844344F2302C002165
:102680004FF6FF7603F1680EDFF84C911E87C3F812
:102690003480D96345F80C90C3F864E04FF0FF3CF8
:1026A0004FF0000E44F26C29C3F84CC01965D9658F
:1026B0001966C3F854E0C3F858E018461C463D4B71
:1026C00045F809303C4FC4F870E044F27C23A0F890
:1026D00084C005F585429C34DFF800C1C0F88080D5
:1026E000C0F8881045F803C0C0F8A04044F2A42305
:1026F0003C68C0F898E096853048314EC2F8288092
:102700001163C2F840E0A2F84410C2F84880D164D6
:10271000E850166504BB023E0020002140F6BB389D
:102720000BE00EF037FF27490EF088FF26490FF027
:1027300039F80EF0D9FA05F049FB17A3D3E90023C5
:102740000EF026FB0EF0D4FD0134444526F8020FAE
:102750002046E6D101233B602846BDE8F8831B48AC
:10276000CBB2082213F0800F02F1FF324FEA43038D
:1027700018BF83F0D50312F0FF02DBB2F2D10131B2
:10278000B1F5807F00F8013FEAD10123CEF8003097
:102790005CE700BFAFF300800000000000F88F404E
:1027A000D4B2010014B5010068B301004887FF1FCF
:1027B00024B401000AD7A33C80280020FCB3010008
:1027C00008110020560EC94000A03B450310002010
:1027D00028B5010000100020ACB30100D4B3010003
:1027E0002DE9F041894D8A49D5F840020368DB683C
:1027F000322400228B4286B085F83C42C5F8502234
:1028000040F0FE8041F258339C21C4582270C258D7
:102810005170C35808229A72D5F840027D4B026865
:102820007D4E146941F23C314FF4FA62415841F255
:102830004C3702FB01F203FB01F300F59A51C25140
:10284000B4424FF001020B6085F85C2240F0DC805E
:1028500003F0CAFE00EB40000001704BC5F86002B7
:10286000012203F5F36485F85C22002023F8020FAF
:102870009C424FF00002F9D1694C6A4BD4F800E059
:102880001E6841F2D05041F2C8572858EF594EEA1D
:10289000000041F2CC5E206055F80E4040F213304B
:1028A00038604FF4517712202760B07018685E4C82
:1028B000027419682C20C870196841F2C4570E20A0
:1028C0008871E95D01F1604101F5644140200870C3
:1028D000E85D4111890001F1604101F56141012686
:1028E00000F01F0006FA00F00860E95D186801F0CA
:1028F0001F054911AE4044F82160027019689C2000
:1029000048701968A3F5AE5508238B724FF4077E03
:102910002946134621270EFB02500132082A80F86F
:10292000A8743A4C80F8A9344FF02106C0F8B434AA
:1029300001F5077181F8843081F89432C1F8803054
:10294000C1F888314FF00000E5D141F2945141F2D5
:10295000955204F5AD53665441F29C5CA05441F28B
:10296000883E04F59C5141F2843241F28C3841F2A8
:10297000904741F27C361860142304F8080004F8EC
:102980000C0044F80E00E051A0510860A05084F8FB
:10299000983203F029FEDFF898E0244BCEF80C3093
:1029A000774600EB400C0FCF6E460FC60A23AEF8F9
:1029B00010309EF800E097E8030041F2B8580EF19D
:1029C000FF334FEA0C1241F2BC57DBB244F8082047
:1029D000F62B4FF0040286E80300E2550AD88DF882
:1029E00000E06E460FCE04F509740FC496E80300AC
:1029F00084E80300012385F8543206B0BDE8F08175
:102A00004FF49641984707E7A04726E7B8D4FF1F41
:102A1000B9040000A0860100B50600009AEAFF1F75
:102A20003480044078EAFF1F80E200E080DE0F007F
:102A30002487FF1F2DE9F04744F21422A64D41F6EA
:102A40009003AA58ADF50C7DD0580EF0A3FD44F2CA
:102A50004C230446E8580EF09DFD014607462046EB
:102A60000EF0E2FC0EF0C6FF44F2502280EAE07362
:102A700055F80280A3EBE0734345064615DB394663
:102A800020460EF097FF002840F0268206EB080053
:102A90000EF080FD44F25423E9580EF0CFFD0EF005
:102AA000A9FF0EF077FD074600E0002744F26023FF
:102AB00044F25C22EB58AA58334451428B42C0F294
:102AC00082829342A8BF134644F260221846AB505C
:102AD0000EF060FD44F2582344F23C29E958DFF837
:102AE000F8810EF0ABFD39460EF0A0FC0EF082FF2F
:102AF00045F8090003F078FD44F274268146A9598F
:102B000020460EF091FC75490EF098FD44F27827AE
:102B10008246E859C0EB09000EF038FD01465046E8
:102B20000EF040FE44F26C23AC51EE5845F807908D
:102B300044F27024824631464FF07E500EF074FC11
:102B400029590EF07BFD3146074650460EF076FDC2
:102B5000014638460EF06AFC44F298232851E958A1
:102B60000EF06CFD44F2A8240EF044FF44F28822DB
:102B70002B59A850002B40F0288244F2B02248F88C
:102B8000023044F234225449AA5862B144F2382245
:102B900044F23C208A5A085851428842C0F29A8135
:102BA0008242A8BF02464C4800F58541096861B1E0
:102BB00044F2842144F28824415A04594842844210
:102BC000C0F28681A142A8BF21460A4463B144F203
:102BD000AC2144F2B023695AEB5848428342C0F218
:102BE0007E818B42A8BF0B4644F2D42113446A581D
:102BF0003B4C41F68C51134444F2D82063502B5087
:102C000003F0F2FC41F2BC5500EB400004F5EC5639
:102C1000635D00013060002B40F03882304F41F29C
:102C20007C3307F59C55E1582A688A4236D04FF428
:102C3000077303FB02F3F81890F8A8E4BEF1240F21
:102C40002CD1891A11F007013DD041F688514FF07F
:102C5000010E4FF0250C80F8A8C407F801E072447B
:102C600090F8A91402F0070200F5277E2A60C7F841
:102C70004CE201F0FF02002940F0CD8041F6945172
:102C800090F8A903C7F850227A58032802F10102EC
:102C90007A5000F0CA84642800F02D8294F85422FF
:102CA0000F4B002A68D093F83C22362A00F0198195
:102CB00093F83C32323B032B5ED8DFE813F0090473
:102CC0008B033503DE0241F688530122FA54C7F81C
:102CD0004C1291F80D32FFDED891FF1F0024744989
:102CE000B8D4FF1F95F80D32002B40F0D682D0F8F3
:102CF000400295F81161016895F81031CF6895F898
:102D0000132195F81211360446EA0363D44E134397
:102D1000B74243EA012141F03B8041F258324B086F
:102D2000865803F1B76303F55843B3FBF1F3C3F3DC
:102D3000443131708158C3F347164E70825803F006
:102D40001F039372D4F8401295F8140195F81531C9
:102D5000D4F8385241F23C3243EA00238A5841F217
:102D60004C3601F59A5002FB03F302FB05F23625BF
:102D70008B5184F83C52026041F2BC55B94E635D00
:102D8000002B40F09A8141F2843341F27C32E358C7
:102D9000A158B44E41F2BC5000258B42255400F09E
:102DA00008814FF4077202FB036292F8A8142329EA
:102DB00000F0FF8092F8A814242900F0118492F802
:102DC000A824252A00F00C844FF4077202FB034369
:102DD000A44D93F8A824222A40F0EB802321162248
:102DE00083F8A81485F8982203F0FEFB05F5AE538E
:102DF00000EB40001A6841F2B85641F2BC5403019E
:102E0000EC210120AB512855D170B5F87A3203443A
:102E1000A5F87A32D0E041F69851D7F850327A5876
:102E200097F83C020132013336287A50C7F8503205
:102E30007FF434AFD7F82C229342FFF62FAFD7F8A8
:102E4000400287490368DB68322287F83C228B42C4
:102E50004FF00002C7F8502240F08D8641F25833FF
:102E60009C21C7583A70C2585170C35808229A72B0
:102E7000D4F840027C4B026841F23C31176941585A
:102E80004FF4FA6241F24C3E02FB01F203FB01F304
:102E900040F80E2000F59A51744A0B6097424FF0AB
:102EA000010384F85C3240F0638603F09DFB00EB85
:102EB000400000016E4BC4F86002012284F85C22DD
:102EC00003F5F361002223F8022F9942FBD1E5E6D6
:102ED00001467AE60A4666E6C8EB0600D8E50346F0
:102EE00082E641F27C3229689A58521A02F00702AF
:102EF000012A3FF741AF41F67C529A5C022A00F06A
:102F00003F86042A00F0C183002A7FF435AF594977
:102F10001A720868DA721A735A739A73DA738DF830
:102F200029228DF82A228DF82B228DF82C22421C82
:102F300093F82462C3F814020A60092064224FF057
:102F4000FF0E4D4F4D4D58605E729A7203F10901AC
:102F50007046103311F8012B424E42409942B85C42
:102F60008EEA000015F802E0F4D140EA0E231BB20D
:102F7000C3F3072713254FF404727374684637743C
:102F8000C6F81C5203F0EEF9331D0ECB06F51A708D
:102F9000FEF742F90023212286F81022337286F8C8
:102FA000113286F81832C6F81C327360C6F80C313C
:102FB000E2E6152384F89832314802F0EDFF0DF572
:102FC0000C7DBDE8F0870B467EE503F00DFB44F277
:102FD000BC2358F803205AB144F2B4264FF47A7354
:102FE00058F8061003FB02F3401A984200F2468399
:102FF00003F0FAFA44F2B42344F2C822EB58AC5876
:10300000C01AB0FBF4F304FB13000EF0BFFA06463F
:1030100020460EF0BBFA014630460EF0C3FB44F2E8
:10302000C02244F2C4231749A850EC5E0EF006FB00
:103030000EF006FD44F2D023134AEB5833F910305A
:1030400004FB03F382FB03121A4444F2B020DB17A3
:1030500044F2A821C3EB62232B506B5891E500BFCB
:10306000B9040000B8D4FF1FA0860100B506000017
:103070009AEAFF1F0411002098B6010098B70100DA
:10308000D891FF1F00A03B450308208041F2B852B1
:1030900041F28433A25854F80380879203F0A4FAD3
:1030A00000EB400000018890635D013B032B3FF67D
:1030B000B5ADDFE803F065A8918E41F2B853F3583F
:1030C000899303F091FA00EB400000018A90735D50
:1030D000013B032B3FF670AFDFE813F00400040060
:1030E00004007802CA488A9B899B02F055FF0DF5BF
:1030F0000C7DBDE8F0879EF80E119EF80F3141F669
:10310000920243EA0123BB529EF810119EF811313E
:1031100041F6900243EA0123BB529EF812119EF839
:10312000133141F69E0243EA0123BB529EF814116B
:103130009EF8153141F69C0243EA0123BB529EF8EA
:1031400016119EF8173107F5C55243EA0123138083
:1031500041F684039EF81821FA529EF819119EF840
:103160001A3141F6880243EA0123BB529EF81B1133
:103170009EF81C3141F6441243EA0123BB528DE50F
:1031800041F2A852889B8799A258A24D5B1A93429C
:103190007FF644AD03F028FA41F2B85700EB400047
:1031A00041F2BC520301EB5104214FF40773A954BF
:1031B00003FB0858B5F88E3298F8A924242142F070
:1031C0001002013388F8A924A5F88E3288F8A814D3
:1031D00024E5889B879B21E541F2B052889B879923
:1031E000A2588C4D5B1A93427FF618AD03F0FCF9A0
:1031F00041F2B85700EB400041F2BC5203010421F8
:10320000EB51A9540AE541F2AC52889B8799A25828
:10321000804D5B1A93427FF601AD03F0E5F941F270
:10322000B85700EB400041F2BC520301EB510421BE
:103230004FF40773A95403FB0853D3F8B4240132A5
:1032400000F0E98493F8A904B5F89012B5F8922239
:1032500040F0080083F8A904013101321823A5F8D1
:103260009012A5F8922285F898324FF4077303FB69
:103270000848242388F8A834D0E441F68853002174
:10328000E25C6448E154002A3FF476ADD0F84C5239
:1032900095F80D31412B3FF425ADD4F840025E493D
:1032A0000368DA68322500238A4284F83C52C4F865
:1032B000503240F0688541F258329C2185582B707D
:1032C00083585970835808229A72D4F84002534B9D
:1032D0000268534E156941F23C314FF4FA6241588D
:1032E00041F24C3702FB01F203FB01F300F59A5166
:1032F000C251B5424FF001020B6084F85C2240F0ED
:103300003F8503F071F900EB40000001454BC4F824
:103310006002012284F85C2203F5F361002223F8A5
:10332000022F9942FBD127E541F688530022E15C48
:10333000384DE254002900F05B81D5F84C3293F807
:103340000D32002B00F05481D5F840023249036859
:10335000C5F85022DB6832268B4285F83C6240F08B
:103360001D8541F258339C21C5582A70C2585170AE
:10337000C35808229A72D4F84002284B0268284E9B
:10338000116941F23C354FF4FA62455941F24C372C
:1033900002FB05F203FB05F300F59A55C251B14259
:1033A0004FF001022B6084F85C2240F0F48403F0BB
:1033B0001BF900EB400000011A4BC4F86002012227
:1033C00084F85C2203F5F361002223F8022F8B427C
:1033D000FBD1D1E441F688530021E25C0D48E15471
:1033E000002A3FF4C9ACD0F84C6296F90D318B42FB
:1033F00027DB33688B421FDD96F80C1172799142FE
:103400001FD10433F51806F58672731D12E000BF54
:10341000D891FF1FB8D4FF1FB9040000A086010097
:10342000B50600009AEAFF1F13F8010F12F8011FFA
:10343000884206D1AB42F7D196F80D22002A00F05F
:103440003981D4F84002B5490368DB68322500228F
:103450008B4284F83C52C4F8502240F0AA8441F2D6
:1034600058339C21C5582A70C2585170C35808223D
:103470009A72D4F84002AA4B0268AA4E116941F22E
:103480003C354FF4FA62455941F24C3702FB05F2E4
:1034900003FB05F300F59A55C251B1424FF001020A
:1034A0002B6084F85C2240F07E8403F09DF800EBF2
:1034B000400000019C4BC4F86002012284F85C22A9
:1034C00003F5F361002223F8022F9942FBD153E464
:1034D000D4F84002954941F2141341F21812C3582E
:1034E00082589B1A5A077FF447AC91F85C32002B44
:1034F0003FF442AC03688B4A1B69934240F0568408
:1035000003F072F800EB40000001D4F86012D4F828
:103510006422864B401A9042FFF42EAC844D93F8FF
:1035200024622A68C3F8142241F68850511C0827E7
:1035300000224FF0060C4FF0FF0E296083F85C224A
:10354000195CC3F858221A541A72DA721A739F72ED
:103550005E72C3F804C003F1090172460C33754F63
:10356000754D01E011F8016F56409942BA5D8EEA3F
:10357000020215F806E0F5D142EA0E231BB2C3F3AE
:10358000072606254FF404726C49A373C4F81C5235
:1035900068466673D4F8205202F0E4FE684B284671
:1035A0000ECBFDF739FE21210023332284F81012BF
:1035B000237284F8113284F81832C4F81C32636024
:1035C000C4F80C3184F83C22FFF7D6BB41F2B45268
:1035D0008A9B8999A2585B1A93423FF6D4ABEBE4DD
:1035E000013341F2843203F00703A350FFF7ECBB31
:1035F000D4F840224D4D41F2141341F21811D35822
:1036000052589B1A5B077FF4B7ABB5F83422D5F854
:10361000303295F82412009228460122FEF78AFCE7
:10362000352385F83C32FFF7A7BB9EF809C09EF80A
:103630000A109EF807009EF8082001EB0C2102EB0F
:10364000002289B292B200293FF428AB114407EB63
:10365000420201F6F1203B4402F5AF5107EB40076F
:10366000023103F2AA32507812F8023F03EB002332
:1036700021F8023FB942F6D1FFF710BB002348F80A
:10368000063048F80430FFF77CBA859302F0ACFFAF
:1036900041F68451859B3268595800EB4000C2EBDB
:1036A00000128A4240F2328341F67C530022E254F7
:1036B000FFF762BBD4F85812D4F828021B4B013133
:1036C0008142C4F85812C0F2F881DFF864801A729F
:1036D000D8F800005A73461C4FF0080901214FF03A
:1036E000030C90271122C8F8006003F10906C3F803
:1036F0001402C3F8049083F80AC01F739A73DFF8AA
:1037000034E00D4D5972D97203F10E0730464FF077
:10371000800981224FF0FF0C1CE000BFB9040000BB
:10372000A0860100B50600009AEAFF1FB8D4FF1F6B
:103730000411002098B6010098B70100C8D4FF1FFB
:10374000BCD4FF1F10F8011F5940CC461EF80120C1
:1037500015F801908CEA02038742DBB2F2D143EA0A
:103760000923E54DD4F820921BB24FF0270E2374A5
:10377000C3F30723C4F81CE205F10C014FF40472F3
:10378000E373684602F0EEFD95E80E004846FDF74B
:1037900043FDD8F80030C4F814325A1C4FF0080E1C
:1037A0000023212001214FF0030AC8F80020B02295
:1037B00084F81002237284F8113284F81832C4F8A5
:1037C0001C32C4F80C316373C4F804E084F80EE0D2
:1037D0002273DFF83493DFF834C36172681DE1723D
:1037E00084F80AA04FF0800E8123FF2207E010F832
:1037F000011F5940724619F801301CF801E053408E
:103800008742DBB2F3D143EA0E231BB24FF0150E11
:10381000D4F820922374C3F30723C4F81CE2B749F9
:10382000E3734FF40472684602F09CFD95E80E00C5
:103830004846FDF7F1FCD8F80030C4F814322121D5
:103840005A1C002384F810124FF0080E84F811322D
:103850002173C8F80020012103222372C4F81C320E
:1038600084F81832C4F80C31E37263733823C4F857
:1038700004E0A272A373A248DFF88C92DFF88CC236
:1038800061724FF0800E8122FF2307E010F8011FC4
:103890005940734619F801201CF801E05340874253
:1038A000DBB2F3D143EA0E231BB24FF0750ED4F80E
:1038B00020922374C3F30723C4F81CE28F49E373F7
:1038C0004FF40472684602F04DFD95E80E0048463C
:1038D000FDF7A2FCD8F80030C4F814325A1C21219C
:1038E000002384F810124FF0010E84F811324FF0CB
:1038F000080AC8F80020032160222372C4F81C3291
:1039000084F81832C4F80C31E37263730B2384F823
:1039100009E02273A3737A48DFF8EC91DFF8ECC179
:10392000C4F804A0A1724FF0800E8122FF2307E0AB
:1039300010F8011F5940734619F801201CF801E0E6
:1039400053408742DBB2F3D143EA0E231BB24FF060
:103950001B0ED4F820922374C3F30723C4F81CE28F
:103960006649E3734FF40472684602F0FBFC95E885
:103970000E004846FDF750FCD8F80030C4F8143269
:103980005A1C4FF0210E002384F810E208214FF05A
:10399000010E84F81132C8F8002023720322C4F803
:1039A0001C3284F81832C4F80C31E372637370234C
:1039B00084F809E0A27223735148DFF84C91DFF8D4
:1039C0004CC16160A1734FF0800E8123FF2207E09C
:1039D00010F8011F5940724619F801301CF801E037
:1039E00053408742DBB2F3D143EA0E231BB24FF0C0
:1039F000150ED4F820922374C3F30723C4F81CE2F5
:103A00003E49E3734FF40472684602F0ABFC95E85C
:103A10000E004846FDF700FCD8F80030C4F8143218
:103A20005A1C2121002384F81012012084F811323D
:103A30004FF00809C8F80020032110222372C4F8AF
:103A40001C3284F81832C4F80C31E372637380239B
:103A5000607223731846A273DFF8ACC0DFF8ACE0E5
:103A6000C4F80490A1728122FF2307E016F8011F19
:103A7000594003461CF801201EF801005340B7428C
:103A8000DBB2F3D143EA00231BB2D4F820622374E3
:103A90002527C3F307231949E3734FF404726846DB
:103AA000C4F81C7202F05EFC95E80E003046FDF78B
:103AB000B3FB21210023342278E5124993F82462D4
:103AC00008681A7200F10108DA721A734FF0060CD6
:103AD0004FF0080EFF22C3F81402C1F800805E7296
:103AE000C3F804C083F80AE003F10900064F074D4C
:103AF00011460C330EE000BFBCD4FF1FC8D4FF1F1B
:103B0000C1D4FF1F0411002098B6010098B701002E
:103B100010F8016F4E408342B95D81EA0201AA5D4F
:103B2000F6D141EA02231BB2C3F3072606254FF460
:103B30000472A749A373C4F81C5268466673D4F88C
:103B4000205202F00FFCA34B28460ECBFDF764FB7E
:103B50000023212284F81022237284F8113284F881
:103B60001832C4F81C326360C4F80C31FFF704B992
:103B7000B847FFF79FB94FF496419847FFF778B9D8
:103B8000859302F031FD41F68451859B3268595886
:103B900000EB4000C2EB00128A423FF685AD41F6D1
:103BA0008C528D499A580868DA7315161D738DF872
:103BB0002952151400F1010E5D738DF82C228DF839
:103BC0002A521212092593F824629A73C3F8140238
:103BD000C1F800E05D6064218DF82B2200201C22DA
:103BE0004FF0FF0E7D4F7E4D9972DA725E72187241
:103BF00003F109017246103311F8010B794E504060
:103C000099423A5C8EEA020215F800E0F4D142EAE9
:103C10000E23FFF7ACB993F8A11293F8A8239142B1
:103C20000AD0B5F88A1293F8A924013142F0200293
:103C3000A5F88A1283F8A9244FF4077303FB08F34D
:103C4000E2186849D2F8A403012829DD0B44B0F139
:103C5000020E03F56A7100F0B1804FF0FF0C5F4F68
:103C60005F4D624601EB0E0911F8013B5340894557
:103C7000FA5C8CEA020215F803C0F5D142EA0C2383
:103C80001BB24FF4077202FB0842964410449EF8A0
:103C9000A81390F8A72342EA012212B29A420ED04A
:103CA0004FF4077303FB0843B4F88C2293F8A9146C
:103CB000013241F0400183F8A914A4F88C224FF49A
:103CC000077202FB0842474B92F8A91400297FF4BF
:103CD000CCAAB3F87C1292F9A90301310028A3F809
:103CE0007C12BFF6C2AAB3F884120131A3F8841281
:103CF00092F8AA23052A64D0062A7FF4B6AAB3F85C
:103D000088220132A3F88822FFF7AFBA41F6905219
:103D100031499A580868DA7315161D738DF82952BF
:103D2000151400F1010E5D738DF82C228DF82A52C6
:103D30001212092593F824629A73C3F81402C1F889
:103D400000E0002064215D608DF82B224FF0FF0E13
:103D50001E22224F224D187299725E72DA7203F19E
:103D600009017046103311F8012B1E4E4240994252
:103D7000B85C8EEA000015F802E0F4D1FFF7F5B860
:103D8000A847FFF7C3BA4FF496419047FFF79DBA93
:103D9000B847FEF7D7BF8847FFF70EBB4FF49641F1
:103DA0009847FFF7E8BA8847FFF784BB9847FFF7C3
:103DB000ACBB4FF496419847FFF75BBB4FF0FF3326
:103DC0005FE7B3F886220132A3F88622FFF74DBAE7
:103DD000C8D4FF1FBCD4FF1F0411002098B60100F7
:103DE00098B70100B8D4FF1FB04AB14941F6DC735F
:103DF0002DE9F041D45823685A698A4214D19B6A4C
:103E0000AC4A934240F0958041F25833E358187918
:103E1000C0F34010002854D141F25833E358DA7807
:103E2000110605D4BDE8F0812046BDE8F0411047F9
:103E30001A791206F6D541F21C124FF40775A258F2
:103E40009D4805FB024595F83820511C85F838102F
:103E500021680E6A2A44864292F8391040F00C819B
:103E6000D971E38A0133E38295F838206B6B9B1A92
:103E7000002BD7DC95F83930002B00F0E880236860
:103E80008E4A1B69934240F0078102F0ADFB00EBC4
:103E90004000000141F2503141F2543301226050A0
:103EA000E2542368864ADB69934240F0EF8041F296
:103EB00058332C22E358DA70172384F83030BDE8E9
:103EC000F08126687F4A736A41F21C11934265585B
:103ED00040F0D58041F25833E358D879C0B24FF45E
:103EE000077303FB0543D3F83C219918013281F88D
:103EF0004001C3F83C21218B01312183D3F84C12BE
:103F00008A421BDA93F94131002B15DB33696B4A86
:103F1000934240F0B88002F067FB00EB40000001E4
:103F200041F2503141F2543302226050E254BDE874
:103F3000F081204698476DE7042AE7DD33695F4A40
:103F4000934240F0A68002F04FFB00EB40000001DE
:103F500041F2543241F2503604214FF40773A0511C
:103F600003FB0543A15493F8391093F84021914283
:103F700008D0628C0132628493F8412242F0200220
:103F800083F841224FF4077101FB05F16318D3F860
:103F90003C71012F29DDB7F1020C03F5A07168D047
:103FA000FF20DFF82481DFF824E1024601EB0C0654
:103FB00011F8013B5340B14218F8032082EA000295
:103FC0001EF80300F4D142EA002212B24FF4077344
:103FD00003FB05439C441F449CF8401197F83F3174
:103FE00043EA01231BB293420CD0A28C4FF4077317
:103FF000013203FB0543A28493F8412242F04002C0
:1040000083F841224FF4077303FB05F3E21892F89B
:10401000411299B9A18A0131A18292F94121002A64
:104020000CDAA28B23440132A28393F84231052B90
:1040300038D0062B02D1238C013323844FF407732D
:1040400003FB0544242384F84032BDE8F081236853
:104050001A4A1B69934222D102F0C6FA00EB4000D3
:10406000000141F2503141F2543303226050E254D6
:1040700017E74FF0FF32A9E72046B047F1E62046A8
:10408000984726682BE72046984749E720469847F7
:1040900012E7204698475BE720469847FAE6204615
:1040A0009847DEE7E38B0133E383C7E7B8D4FF1F0C
:1040B000810B0000A904000091040000B506000077
:1040C000850400009D04000098B6010098B7010027
:1040D000B04BB1492DE9F041D3F8404223685A6909
:1040E0008A4214D19B6AAD4A934240F0958041F2D6
:1040F0005833E3581879C0F34010002854D141F2E6
:104100005833E358DA78110605D4BDE8F08120462B
:10411000BDE8F04110471A791206F6D541F21C129B
:104120004FF40775A2589E4805FB024595F83820C4
:10413000511C85F8381021680E6A2A44864292F88C
:10414000391040F00C81D971E38A0133E38295F88C
:1041500038206B6B9B1A002BD7DC95F83930002B7D
:1041600000F0E88023688F4A1B69934240F0078182
:1041700002F03AFA00EB4000000141F2503141F206
:10418000543301226050E2542368874ADB6993422A
:1041900040F0EF8041F258332C22E358DA701723B5
:1041A00084F83030BDE8F0812668804A736A41F2B5
:1041B0001C119342655840F0D58041F25833E358C2
:1041C000D879C0B24FF4077303FB0543D3F83C2101
:1041D0009918013281F84001C3F83C21218B01314B
:1041E0002183D3F84C128A421BDA93F94131002B18
:1041F00015DB33696B4A934240F0B88002F0F4F962
:1042000000EB4000000141F2503141F254330222F0
:104210006050E254BDE8F081204698476DE7042ADB
:10422000E7DD33695F4A934240F0A68002F0DCF993
:1042300000EB4000000141F2543241F250360421BB
:104240004FF40773A05103FB0543A15493F83910B1
:1042500093F84021914208D0628C0132628493F835
:10426000412242F0200283F841224FF4077101FB02
:1042700005F16318D3F83C71012F29DDB7F1020C69
:1042800003F5A07168D0FF20DFF82481DFF824E176
:10429000024601EB0C0611F8013B5340B14218F8FD
:1042A000032082EA00021EF80300F4D142EA002251
:1042B00012B24FF4077303FB05439C441F449CF860
:1042C000401197F83F3143EA01231BB293420CD0CF
:1042D000A28C4FF40773013203FB0543A28493F8C9
:1042E000412242F0400283F841224FF4077303FB5E
:1042F00005F3E21892F8411299B9A18A0131A1821D
:1043000092F94121002A0CDAA28B23440132A283C4
:1043100093F84231052B38D0062B02D1238C013380
:1043200023844FF4077303FB0544242384F84032AD
:10433000BDE8F08123681B4A1B69934222D102F039
:1043400053F900EB4000000141F2503141F2543387
:1043500003226050E25417E74FF0FF32A9E72046EE
:10436000B047F1E62046984726682BE72046984755
:1043700049E72046984712E7204698475BE72046E2
:104380009847FAE620469847DEE7E38B0133E3835C
:10439000C7E700BFB8D4FF1F810B0000A9040000CD
:1043A00091040000B5060000850400009D04000093
:1043B00098B6010098B7010070B5104C104A114E24
:1043C000114D204630230121FDF76AFE04F5EC5023
:1043D00030230E4A02211C30FDF762FE32460C49A2
:1043E000002004F043FE21462846FEF7A9F8324695
:1043F00028460849BDE8704004F038BEB8D4FF1F15
:1044000034B501002087FF1FD891FF1F3CB5010084
:10441000B106000019440000084B10B504460360C3
:1044200000F58440183000F0D9FB2046044B40F8DA
:10443000D03B00F06BFB204610BD00BF24B4010050
:10444000D4B201000A4B10B50446036000F5844065
:10445000183000F0C3FB2046064B40F8D03B00F07C
:1044600055FB204644F2E02103F092F9204610BDAE
:1044700024B40100D4B201002DE9F0479AB0002520
:104480000F46044604AE0846B749029603958DF8D8
:1044900010500FF029FE002840F06E81DFF8CC822A
:1044A00005460135ADB218F80570002FF9D102218B
:1044B000204601F03BFA290A204601F037FAE9B21A
:1044C000204601F033FA7221204601F02FFA7425BC
:1044D0000137BFB22946204601F028FA18F80750E4
:1044E000002DF5D11921204601F020FA44F21412D2
:1044F0002368A1581B6A2046984703780746002B7B
:1045000000F09F822946013189B27B5C002BFAD1F1
:104510004FEA1128CDB20221204601F007FA4146A8
:10452000204601F003FA2946204601F0FFF97221E6
:10453000204601F0FBF9397841B100250135ADB2D3
:10454000204601F0F3F9795D0029F7D119212046C1
:1045500001F0ECF90221204601F0E8F900212046A3
:1045600001F0E4F90121204601F0E0F97221204632
:1045700001F0DCF90D21204601F0D8F9192120467F
:1045800001F0D4F9DFF8E88100250135ADB218F863
:104590000570002FF9D10221204601F0C7F9290A40
:1045A000204601F0C3F9E9B2204601F0BFF97221BB
:1045B000204601F0BBF972250137BFB229462046DB
:1045C00001F0B4F918F80750002DF5D11921204653
:1045D00001F0ACF944F218122368A1581B6A204676
:1045E000984703780746002B00F0378229460131AF
:1045F00089B27B5C002BFAD14FEA1128CDB202219F
:10460000204601F093F94146204601F08FF92946F2
:10461000204601F08BF97221204601F087F93978A4
:1046200041B100250135ADB2204601F07FF9795D39
:104630000029F7D11921204601F078F902212046FE
:1046400001F074F90021204601F070F901212046A3
:1046500001F06CF97221204601F068F90D21204625
:1046600001F064F91921204601F060F9DFF80481B6
:1046700000250135ADB218F80570002FF9D10221DF
:10468000204601F053F9290A204601F04FF9E9B21A
:10469000204601F04BF97221204601F047F96425CC
:1046A0000137BFB22946204601F040F918F80750FB
:1046B000002DF5D11921204601F038F944F21C12E1
:1046C0002368A1581B6A2046984703780746002BA9
:1046D00000F0C5812946013189B27B5C002BFAD1FB
:1046E0004FEA1128CDB20221204601F01FF94146C0
:1046F000204601F01BF92946204601F017F97221E6
:10470000204601F013F9397841B100250135ADB2E9
:10471000204601F00BF9795D0029F7D120461921D7
:1047200001F004F92046022101F000F920460021A1
:1047300001F0FCF82046012101F0F8F82046722132
:1047400001F0F4F820460D2101F0F0F8204619217F
:1047500001F0ECF801240298B04201D003F016F801
:1047600020461AB0BDE8F08744B5010050B50100FD
:1047700068B5010080B50100BF4B8DF82F5093E85C
:1047800003000DF1400802234FEA114E1A460A9029
:10479000ADF82C108DF842500F93072540F60D23ED
:1047A00008A841460DF128090995ADF840308DF86B
:1047B0002EE0CDF83880CDF8209004F0DBFC0DF130
:1047C000580A0346CDF850A053F8082B9A420546E4
:1047D00000F039811492826816926A68159200225C
:1047E0002B602A726A60159A149902A804F0C2FC20
:1047F000A14938460FF078FC05461498504501D081
:1048000002F0C4FF0E98404501D002F0BFFF0898A7
:10481000484501D002F0BAFF002D5CD1DFF8648278
:1048200000250135ADB218F80570002FF9D102212D
:10483000204601F07BF8290A204601F077F8E9B21A
:10484000204601F073F87221204601F06FF80D2523
:104850000137BFB22946204601F068F818F8075022
:10486000002DF5D11921204601F060F844F208131B
:10487000E7583B78002B00F0F4802946013189B2DB
:104880007B5C002BFAD14FEA1128CDB202212046E1
:1048900001F04CF84146204601F048F829462046F0
:1048A00001F044F87221204601F040F839780025E3
:1048B00039B10135ADB2204601F038F8795D0029F3
:1048C000F7D12046192101F031F820460D2101F0E1
:1048D0002DF801243FE7694BCDF8209093E80700BD
:1048E0004B4603C302211A804FF00A0E00230A46EA
:1048F00040F60D250F9108A841468DF832308DF80D
:104900004230ADF84050CDF83880CDF824E004F0C6
:1049100031FC0346CDF850A053F8082B9A420546C7
:1049200000F0A1801492826816926A6815920022A3
:104930002B602A726A60159A149902A804F01AFC76
:104940004E4938460FF0D0FB05461498504501D02B
:1049500002F01CFF0E98404501D002F017FF0898A6
:10496000484501D002F012FF3DB1384644490FF0EE
:10497000BBFB044630B10024EDE6204601F03EFCCE
:104980000124E8E6DFF800A1DFF80081DAF8009002
:1049900005460135ADB218F80570002FF9D1022196
:1049A000484600F0C3FF290A484600F0BFFFE9B2BD
:1049B000484600F0BBFF7221484600F0B7FF0D25C6
:1049C0000137BFB22946484600F0B0FF18F807503B
:1049D000002DF5D14846192100F0A8FFDDF8088028
:1049E000DAF8007098F80030ABB32946013189B28B
:1049F00018F80130002BF9D14FEA1129CDB202216C
:104A0000384600F093FF4946384600F08FFF2946AC
:104A1000384600F08BFF7221384600F087FF98F887
:104A20000010002541B10135ADB2384600F07EFFDF
:104A300018F805100029F6D13846192100F076FF44
:104A400089E6A84667E5194610225046019301F011
:104A500089FC019BC1E6A946D1E7A846CFE5A84657
:104A600041E6A84612E7194610225046019301F08C
:104A700079FC019B59E700BF98B50100B8B501006A
:104A8000E8B40100A0B501003C87FF1FC4B50100D8
:104A9000074B10B444F22E12196800248C52027D88
:104AA000034622F0010280681A7510BC704700BFEF
:104AB0003C87FF1F074B10B5196844F22E120024E3
:104AC0008C52027D034622F0010280681A750CF0B8
:104AD00061FD10BD3C87FF1F024B0A464168186804
:104AE00001F0A6BB3C87FF1F024B4168186801F02C
:104AF000D9BB00BF3C87FF1F024B4168186801F01B
:104B000001BC00BF3C87FF1F704700BF704700BF5C
:104B1000094AF0B4094C11682568094E4160002328
:104B20004F1C1760C36006600361037505B1C56063
:104B30002060F0BC704700BFF00F0020F40F002091
:104B4000DCB5010078B10D4A1368ABB14168586813
:104B500088420DD0186930B14268914204D00346B2
:104B600018690028F8D1704702691A61012070475E
:104B70001B6913600120704718467047F80F00202A
:104B800038B50446E0B1134A1368D3B141685D6893
:104B90008D4218D0D86830B14268914209D003469E
:104BA000D8680028F8D10C4A136843F00103136059
:104BB00038BDC268DA602046FFF7C4FF012038BD67
:104BC00038BD184638BDDB681360FFF7BBFF012016
:104BD00038BD00BFF40F0020FC0F002010B5034BC0
:104BE00003600446FFF7CCFF204610BDDCB5010092
:104BF00010B5054B03600446FFF7C2FF204618219D
:104C000002F0C6FD204610BDDCB5010010B5044C15
:104C1000206820B1FFF796FF20680028FAD110BD68
:104C2000F80F00200D4B1B68B3B15A68904209D0B1
:104C3000DB68002BF9D10A490A6842F002021846E3
:104C40000A6070479A6891421A7D18BF996042F0D5
:104C500001021A750120704718467047F40F0020B2
:104C6000FC0F00200B4B1B6893B15A68904209D08F
:104C7000DB68002BF9D108490A6842F002021846A5
:104C80000A6070471A7D42F002021A7501207047CF
:104C900018467047F40F0020FC0F002030B5136851
:104CA000CC5C83B00025202C01EB0300019508D1DA
:104CB00001330B44581A1060184613F8014B202C8E
:104CC000F8D014B9204603B030BD14466B4601AA93
:104CD00005490FF08FF918B12268009B1344236037
:104CE000019803B030BD00BFF8B501002DE9F047D1
:104CF0004B78013B84B006461546642B00F22282B5
:104D0000DFE813F0740020022002C800D30117016D
:104D1000CD012002200220022002200220022002D7
:104D20002002200220022002200220022002200273
:104D30002002200220022002200220022002200263
:104D400020022002CD00DB00F2002002200220021F
:104D50002002200220022002200220022002200243
:104D60002002200220022002200220022002200233
:104D70002002200220022002200220022002200223
:104D80002002200220022002200220022002200213
:104D90002002200220022002200220022002200203
:104DA00020022002200220022002200220022002F3
:104DB00020022002200220022002200220022002E3
:104DC000200220022002200220020A01650004AA1B
:104DD000002342F8043D2946FFF760FF013802280E
:104DE0008CBF0020012004B0BDE8F087FFF70EFF64
:104DF00044F20E130122C84CF254002301339BB23B
:104E0000E25C002AFAD142F2E00242F2E40042F20D
:104E1000D80156F802E075583258013DCEEB020930
:104E2000A94580F0918142F2DC01022771581140BE
:104E30003144013281F8D8703250CEEB020906F5C8
:104E4000035C67464FEA132806F582404D458DF80E
:104E50000D308DF80C800CF11C0C07F1240700F1CB
:104E6000140003A90DF10D0A09D80368013303608A
:104E70008A4500F01E814D4511F8018FF5D9DCF807
:104E8000003013403344013283F8D880CEEB02095E
:104E90003A60EDE703685B6998470120A3E704AA3D
:104EA000002342F8043D2946FFF7F8FEFFF7DAFE3B
:104EB00044F22C130120F05295E704AC002344F88F
:104EC000043D29462246FFF7E9FE224607462946C9
:104ED0003046FFF7E3FE01463846FFF7A3FE44F2F3
:104EE0002C130120F0527EE704AC002344F8043D6B
:104EF00029462246FFF7D2FE22460746294630467B
:104F0000FFF7CCFE44F22E1301240146F45238463A
:104F1000FFF788FE204666E704AF002447F8044DFB
:104F200029463A46FFF7BAFE962800F0208120462F
:104F300059E7036844F230175B689847F45BDFF881
:104F4000E0E10246601C06EB040816FA80F00B460E
:104F500044F232114FF0000C012508F801C0DEF8D0
:104F600000E0455444F21018A51CE01C16FA85F523
:104F700016FA80F01EF8088005F801C0043400F825
:104F800001800EF58241A4B2F4530F683D7875B1EB
:104F900006F582403030311901F582410134A4B266
:104FA00081F83250048017F8015F002DF3D144F2EC
:104FB00008115EF80170397871B106F58240303021
:104FC000351905F582450134A4B285F83210048004
:104FD00017F8011F0029F3D144F204115EF80170A3
:104FE000397871B106F582403030351905F58245C2
:104FF0000134A4B285F83210048017F8011F00298B
:10500000F3D127463821C1F1200E03FA0EFE22FA11
:1050100001F5F01945EA0E05A1F1200E00F58240D8
:1050200023FA0EFE083945EA0E05013711F1080F83
:1050300080F83250BFB244F23210E4D144F20C1581
:1050400004F1080136F805E016FA81F104F10907C8
:1050500004F10A054FEA2E240C5416FA87F744F29D
:105060003014ADB206F5824107F800E03231355315
:10507000002D00F08F80294F0D44002411F8010B02
:105080004440E4B2A9423C5DF8D13046009401F0BE
:1050900011F844F230130022F2520120A3E644F248
:1050A0000E130022C25401209DE600F0E9FF01200A
:1050B00099E64D4555D942F2DC0342F2E401F3583A
:1050C000134033440132722083F8D8007250CEEB83
:1050D000020906F50358C44606F5824708F11C0884
:1050E0000CF1240C14374920002306E03968013103
:1050F000396001339BB2E05CA0B14D45F6D9D8F8D8
:10510000001011403144013281F8D800CEEB020981
:10511000CCF80020EDE700BF00B60100041000202D
:105120003C87FF1F4D4515D942F2DC0342F2E401F2
:10513000F358134033441920013283F8D80001207A
:10514000725050E600204EE644F2141031580131FE
:10515000315074E644F214120120B3580344B350A2
:1051600041E644F21411735801337350B1E73A46E3
:1051700029463046FFF792FD3A4604462946304616
:10518000FFF78CFD44F2FC1244F2FA13B052F452D1
:10519000012028E62C4678E72DE9F04F0D78022D06
:1051A00085B00E460446904600F00083B5FA85F5BA
:1051B0006D092368934A9B6B934240F0D38200278A
:1051C000424631462046FFF757F9236807435B6B99
:1051D00042463146204698473D4355EA0003009336
:1051E00003D0009805B0BDE8F08F2368864A9B691C
:1051F000934240F05883DFF814E2DDF800C00CF170
:10520000010C1FFA8CFC1EF80C30002BF7D142F277
:10521000E00342F2E40042F2D802E558A2582358D3
:10522000013A591B914280F0A38242F2DC0102272D
:10523000615819402144013381F8D8702350591B1B
:1052400004F50359CCF30720CA4604F582478A4285
:105250008DF80DC08DF80C000DF10C0C09F11C0936
:105260000AF1240A07F114070DF10D0B09D838686B
:10527000DC4500F10100386010D08A421CF8010FB3
:10528000F5D9D9F80010194021440133DC4581F8E3
:10529000D800A3EB0501CAF80030EED18A4240F2F3
:1052A000D68242F2DC0142F2E40061581940214406
:1052B0000133722781F8D8702350591B04F5035A23
:1052C000D14604F5824C0AF11C0A09F124090CF1BB
:1052D000140C55270020019609E0013080B2DCF85B
:1052E00000601EF800700136CCF800608FB18A4271
:1052F000F3D9DAF8001001301940214480B281F866
:10530000D8701EF800700133591BC9F80030002F07
:10531000EDD18A42019E40F28D8242F2DC0142F2DE
:10532000E4006158194021440133192781F8D870ED
:1053300023503078591B002800F0BD820020013036
:1053400080B2375C002FFAD14FEA102AC0B28A42ED
:1053500040F2948242F2DC0142F2E40E61581940BC
:1053600021440133022781F8D87044F80E30591BCC
:1053700004F50359CC4604F5824E8A428DF80CA000
:105380008DF80D0009F11C090CF1240C0EF1140E1E
:1053900003AF0BD8DEF800005F4500F10100CEF846
:1053A000000010D08A4217F801AFF3D9D9F80010E5
:1053B0001940214401335F4581F8D8A0A3EB0501D2
:1053C000CCF80030EED18A4240F21E8242F2DC017B
:1053D00042F2E4006158194021440133722781F8F8
:1053E000D87023503078591B60B304F50359CC466C
:1053F00004F5824E09F11C090CF1240C0EF1140E77
:1054000000270EE0750400004D0E000060B401009E
:10541000DEF8000001370130BFB2CEF80000F05DC9
:1054200080B18A42F4D9D9F80010194021440137DB
:105430000133BFB281F8D800CCF80030F05D591BC1
:105440000028EED18A4240F22A8242F2DC0142F286
:10545000E4006158194021440133192681F8D860CD
:10546000235098F80000591B002800F021820020EA
:10547000013080B218F80060002EF9D14FEA1029EF
:10548000C0B28A4240F2038242F2DC0142F2E406F8
:105490006158194021440133022781F8D870A35183
:1054A000591B04F5035CE64604F5824791428DF8EA
:1054B0000C908DF80D000CF11C0C0EF1240E07F170
:1054C000140703AE09D338685E4500F10100386067
:1054D00010D0914216F8019FF5D2DCF80010194067
:1054E000214401335E4581F8D890A3EB0501CEF845
:1054F0000030EED18A4240F2708142F2DC0142F289
:10550000E4006158194021440133722681F8D860C3
:10551000235098F80000591B28B304F5035CE646B5
:1055200004F582470CF11C0C0EF1240E14370026F2
:1055300007E0386801360130B6B2386018F8060066
:1055400088B18A42F5D9DCF80010194021440136AF
:105550000133B6B281F8D800CEF8003018F8060052
:10556000591B0028EDD18A4240F2808142F2DC01D1
:105570001926615819402144013381F8D86042F25C
:10558000E400591B8A42235040F2388142F2DC0188
:1055900042F2E4006158194021440133022681F8A7
:1055A000D8602350591B04F503580126C446002037
:1055B00004F5824E91428DF80D608DF80C0008F1D3
:1055C0001C080CF1240C0EF1140E03AE0F460CD384
:1055D000DEF800005E4500F10100CEF8000011D0B9
:1055E000914216F8010F0F46F2D2D8F80010194078
:1055F00067180133591B5E4587F8D8000F46CCF871
:105600000030EDD18A4240F2E18042F2DC06591CC2
:10561000A0591840204442F2E40E4F1B4FF0720C88
:10562000BA4280F8D8C044F80E1000F2A78044F2C5
:10563000141023580133235044F21410235801331B
:1056400023509E4E002301339BB2F05C0028FAD118
:10565000BA4240F2B58042F2DC0042F2E407205840
:10566000084020444FF0020E013180F8D8E0E151AB
:1056700004F5035CC5EB0109E6464FEA132804F57F
:1056800082474A458DF80D308DF80C8003A80CF147
:105690001C0C0EF1240E07F1140709D83B68834552
:1056A00003F101033B6010D04A4510F8018FF5D992
:1056B000DCF800300B4023440131834583F8D88067
:1056C000C5EB0109CEF80010EED14A4572D942F27D
:1056D000DC0342F2E400E3580B402344013172271B
:1056E00083F8D8702150C5EB010904F5035C4FF035
:1056F0005508E646434604F58247A8460CF11C0CC3
:105700000EF1240E143700201D4606E0013080B251
:105710003B68355C01333B608DB14A45F6D9DCF816
:10572000003001300B40234480B283F8D850355C00
:105730000131C8EB0109CEF80010002DEDD14A452A
:1057400040F28B8042F2DC031920E3580B402344E3
:1057500042F2E40283F8D80000980131A15005B06C
:10576000BDE8F08F4246314620469847074627E578
:1057700044F21417E0590130E05161E5A0590840A6
:105780002044991C0D2780F8D8704F1BBA4244F86A
:105790000E107FF651AFA05901406018D91C192393
:1057A00080F8D8304F1B44F80E104AE7FFF79EFAF6
:1057B0000546FEE444F2141023580133235094E7C5
:1057C00044F21417E0590130E05151E744F214104B
:1057D000194623580133235029E744F21417E0599E
:1057E000461CE65198F8000000287FF496AE44F27B
:1057F0001417701CE0518A423FF6C8AE44F21416EA
:10580000A0590130A051CEE644F2141E54F80E0007
:10581000471C44F80E70307800287FF4E6AD44F25F
:1058200014107E1C265098F8000000287FF41FAE4C
:1058300081462FE044F2141E54F80E00471C44F831
:105840000E70307800287FF479AD824619E044F27A
:105850001417E0590130E05130E544F21412009879
:10586000A3580133A35005B0BDE8F08F44F21410E3
:1058700044F214172658701CE051BCE744F2141788
:10588000E75944F2141E013744F80E7070E544F2F3
:105890001416A65944F214170136E65101E644F2F3
:1058A00014102758BBE7424631462046984798E4F3
:1058B0008146591BE5E58246591B48E574B4010051
:1058C00070B544F2F40244F2F00444F2E805825860
:1058D00004594559141B013DA5421BD900F5035439
:1058E000283442F2040542F20C06655915400D2990
:1058F00002F101026155A25112D044F20E12825CF3
:105900003AB903685B680446984704F58443C3E9E1
:10591000000170BD44F2181142580132425070BD6E
:1059200044F2F80142580132425070BD30B442F2A4
:10593000E00342F2E40542F2D8024459C3588258C7
:10594000E31A013A9A420AD942F2DC03621CC358B4
:105950002340034483F8D810425130BC704744F2CE
:10596000141230BC83580133835070472DE9F04F37
:1059700044F2F40344F2F004C35804599C4289B041
:1059800000F0048344F2EC0342F2E805C3580192AC
:10599000234003448A465D5D0D2D00F0F382202DE7
:1059A00000F0F6824DB300F5814CE646E0460D70FE
:1059B0000CF1700C0EF1740E08F16C080F46002506
:1059C00011E0D8F8003009EA0303034403F5035358
:1059D00028331B780D2B19D0202B60D06BB1632D91
:1059E00007F8013F71D0DCF80060DEF800400135B7
:1059F000A41BA54205EB0609E3D300234B55002366
:105A000018460B70137009B0BDE8F08F02239B4657
:105A100000270AF8057044F2F00344F2F404C35876
:105A20000459E41AAC4233D944F2EC065C198359A8
:105A30002340034442F2E8041B5D0D2B32D000F5F5
:105A4000814C019E0292E646E14633700CF1700CE7
:105A50000EF1740E09F16C09B0460EE0D9F8003071
:105A60003340034403F5035328331B780D2B19D01F
:105A7000632F08F8013F00F06881DCF80040DEF891
:105A8000002001377B19E618141B9C42E6D8029AC5
:105A9000019C0023E3555B46022BB0D105E00123B6
:105AA0009B46B5E7019A0023D35544F2F00444F233
:105AB000F8010359425801331D442F44013A07515C
:105AC0004250012009B0BDE8F08FDFF84093CD4E81
:105AD000D9F800404FF0000E0EF1010E1FFA8EFEB5
