:1000000000800020BD010000815C0000395C000020
:10001000395C0000395C0000395C0000395C00008C
:10002000395C0000395C0000395C0000815C000034
:10003000815C0000395C00000D6D0000116D000056
:10004000815C0000815C0000815C0000815C00003C
:10005000815C0000815C0000815C0000815C00002C
:10006000815C0000815C0000815C0000815C00001C
:10007000815C0000815C0000815C0000815C00000C
:10008000815C0000815C0000815C0000815C0000FC
:10009000815C0000815C0000815C0000815C0000EC
:1000A000815C0000815C0000815C0000815C0000DC
:1000B000815C0000815C0000815C0000815C0000CC
:1000C000815C0000815C0000815C0000815C0000BC
:1000D000815C0000815C0000815C0000815C0000AC
:1000E000815C0000815C0000815C0000815C00009C
:1000F000815C0000815C0000815C0000815C00008C
:10010000815C0000815C0000815C0000815C00007B
:10011000815C0000815C0000815C0000815C00006B
:10012000815C0000815C0000815C0000815C00005B
:10013000815C0000815C0000815C0000815C00004B
:10014000815C0000815C0000815C0000815C00003B
:10015000815C0000815C0000815C0000815C00002B
:10016000815C000045600000815C0000815C000053
:10017000815C0000815C0000815C0000815C00000B
:10018000815C0000815C0000815C0000815C0000FB
:10019000815C0000815C0000815C0000815C0000EB
:1001A000815C0000815C0000815C0000815C0000DB
:1001B000815C0000815C0000815C0000564B4CF2C9
:1001C000205210B51A804DF628121A8000BF00BFC9
:1001D00005F05AFD514B4FF010621A60504A9A6078
:1001E000504ADA60504A136813F4807304D14F49BF
:1001F0000B604FF4A85313604D4B1A78110703D5C9
:100200001A7842F008021A704A4B4B492A221A7097
:100210004A4A4B4B8B4204D252F8040F43F8040B6A
:10022000F8E7484B484900228B4202D243F8042B9E
:10023000FAE74649464A002352F8230041F82300D2
:1002400001336F2BF8D1434B434A802103F8011B44
:100250009342FBD1414B3D4A1A60414B8A221A70AE
:10026000A3F5805324225A70A0221A709A7992071B
:10027000FCD59A79D406FCD43A4A937903F00C035E
:10028000082B384BF9D103221A7140225A719A79FE
:100290009006FCD5334A9179324B4906FBD5324A58
:1002A000324911600221516020221A709A7902F0BD
:1002B0000C020C2AFAD12E4B2E4A1A602E4B4BF60A
:1002C0007F321A6000225A60072243F8042C2B4A1E
:1002D000C3F80C2D62B605F08DFD144B1B68DA07D0
:1002E00005D5274805F004FD264B274A1A60274B01
:1002F0001B785B0609D5234C234B22689A4204D114
:100300001F4805F0F5FC0023236011F00FF905F0FC
:10031000C1FC06F0C5FDFEE70E200540308004401C
:10032000823F04000100002B10D0034014D0034092
:1003300002D0074000E00740489BFF1F5CC8010057
:10034000308CFF1F489BFF1F80E5FF1F0082FF1FAF
:100350000000000000E400E05FE400E008ED00E0E1
:100360000050064000400640448004400000131145
:1003700004800440C010050014E000E000002020CC
:10038000002469621CE00340A5C3945A00F00740B2
:10039000FFFFFFFFFFFFFFFFFFFFFFFFFFFFFFFF6D
:1003A000FFFFFFFFFFFFFFFFFFFFFFFFFFFFFFFF5D
:1003B000FFFFFFFFFFFFFFFFFFFFFFFFFFFFFFFF4D
:1003C000FFFFFFFFFFFFFFFFFFFFFFFFFFFFFFFF3D
:1003D000FFFFFFFFFFFFFFFFFFFFFFFFFFFFFFFF2D
:1003E000FFFFFFFFFFFFFFFFFFFFFFFFFFFFFFFF1D
:1003F000FFFFFFFFFFFFFFFFFFFFFFFFFFFFFFFF0D
:10040000FFFFFFFFFFFFFFFFFFFFFFFFDEF9FFFF23
:1004100010B5054C237833B9044B13B10448AFF33E
:1004200000800123237010BD489BFF1F00000000C7
:100430009CC40100084B10B51BB108490848AFF334
:1004400000800848036803B910BD074B002BFBD0A0
:10045000BDE81040184700BF000000004C9BFF1F84
:100460009CC40100489BFF1F00000000704700BFB4
:10047000002070470020704744F210230022C2542D
:10048000704700BF08B505F045FC002108BD00BF5E
:1004900010B5044605E006F0ADFAC1B2204603F0FF
:1004A0005BFE06F0E3FA0028F5D110BD10B5044B51
:1004B000044640F8D03B02F0A9FE204610BD00BF24
:1004C0001497010010B5064B044640F8D03B02F0EB
:1004D0009DFE204644F2182106F0EEFC204610BD99
:1004E00014970100F8B542F2E40242F2E0038258A8
:1004F000C3589342054613D000F503573C463E4689
:1005000020341C3724363A681A402A44013392F8C2
:10051000D800236006F058FB236832689342F2D17A
:1005200044F2FC03EA5C32B144F2102101200022C3
:100530006854EA54F8BDF8BD70B584B006460A2286
:10054000684606F06BFC009D094B002D08BF1D4658
:100550000024297839B10134A4B2304603F032FEC8
:10056000295D0029F7D1684606F0F6FB04B070BD9E
:1005700046A3010070B584B0114606460A226846BB
:1005800006F060FC009D0A4B002D08BF1D460024AC
:10059000297839B10134A4B2304603F013FE295D45
:1005A0000029F7D1684606F0D7FB04B070BD00BF44
:1005B00046A3010070B50368104A5B68934284B09B
:1005C00019D106460A22684606F014FC009D0C4B21
:1005D000002D08BF1D460024297839B10134A4B28A
:1005E000304603F0EFFD295D0029F7D1684606F09B
:1005F000B3FB04B070BD984704B070BDA506000001
:1006000046A3010070B50368104A9B68934284B00A
:1006100019D106460A22684606F000FC009D0C4BE4
:10062000002D08BF1D460024297839B10134A4B239
:10063000304603F0C7FD295D0029F7D1684606F072
:100640008BFB04B070BD984704B070BD3905000045
:1006500046A3010070B50368104A5B68934284B0FA
:1006600019D106460A22684606F0C4FB009D0C4BD1
:10067000002D08BF1D460024297839B10134A4B2E9
:10068000304603F09FFD295D0029F7D1684606F04A
:1006900063FB04B070BD984704B070BDA5060000B0
:1006A00046A3010070B584B006460A22684606F0EB
:1006B000A1FB009D094B002D08BF1D460024297891
:1006C00039B10134A4B2304603F07CFD295D002924
:1006D000F7D1684606F040FB04B070BD46A30100A8
:1006E00070B584B006460222684606F0BFFB009D46
:1006F000094B002D08BF1D460024297839B101346B
:10070000A4B2304603F05EFD295D0029F7D16846AA
:1007100006F022FB04B070BD46A301002DE9F041B4
:10072000DFF8708005460F46164655230024013435
:10073000A4B21946284603F045FD18F80430002BF2
:10074000F5D139781C4639B1284603F03BFD631CCE
:100750009CB2395D0029F7D1317841B100240134D0
:10076000A4B2284603F02EFD315D0029F7D10D21FA
:100770002846074E03F026FD002455210134A4B27B
:10078000284603F01FFD315D0029F7D1BDE8F08157
:10079000EC970100D89701002DE9F0470C4686B090
:1007A00005464F492046164611F0BEFE002800F0CF
:1007B000828020464B4911F0B7FE044618B1002054
:1007C00006B0BDE8F08706AF314647F8140D28465D
:1007D0003A4603F06BF93A4631468146284603F023
:1007E0006FFBDFF814A1A04606460F46742408F1FB
:1007F00001081FFA88F82146284603F0E3FC1AF89E
:100800000840002CF3D12B68374A5B6893425ED1D5
:100810000DF1080849460A22404606F0EBFA029B11
:10082000324A002B14BF9946914699F8001041B105
:100830000134A4B2284603F0C5FC19F804100029BD
:10084000F6D1404606F088FADFF8B0903B244FF02E
:10085000000808F101081FFA88F82146284603F02D
:10086000B1FC19F80840002CF3D12B68304639460A
:100870009E690EF0C9FF1E4B9E422CD10DF1080857
:1008800001460222404606F0F1FA029E174B002E66
:1008900008BF1E46317839B10134A4B2284603F0AE
:1008A00091FC315D0029F7D1404606F055FA012050
:1008B00006B0BDE8F0870F4E044654210134A4B2BF
:1008C000284603F07FFC315D0029F7D1EFE7494668
:1008D00028469847B8E701462846B047E7E700BFF3
:1008E000249801003C980100A506000046A30100E1
:1008F000E10600002C980100449801005C9801007A
:100900002DE9F0418CB00CAF152447F8284D8846EE
:1009100000223946054608AE06A8069606F0F0FD08
:100920002246029B3C490893069005F0B1F8029BD1
:10093000069A07930024D4544046384911F0F4FD38
:1009400078B14046364911F0EFFD069F00284BD0A4
:10095000B74202D0384606F0ADFA20460CB0BDE8EA
:10096000F081DFF8D080044653210134A4B2284638
:1009700003F028FC18F804100029F6D12B68294848
:10098000DA6901918242DC6841D105F0C3F901992D
:10099000254B9C4236D101460A22384606F052FACF
:1009A000029B224A002B14BF98469046002498F8D8
:1009B000001041B10134A4B2284603F003FC18F83A
:1009C00004100029F6D1384606F0C6F9184F202148
:1009D00000240134A4B2284603F0F4FB395D002959
:1009E000F7D1069F0124B3E7397899B10446013461
:1009F000A4B2284603F0E6FB395D0029F7D1069F33
:100A00000124A5E702460B462846A047DEE7284614
:100A10009047BDE701249BE768980100809801009A
:100A2000A4980100850400007505000046A301009C
:100A30009C9801008C980100024A034944F2041377
:100A4000D1507047689BFF1FAC9801002DE9F84317
:100A5000B14CB24B236000254FF4005604F1D00096
:100A6000C4F8CC5002F0D0FB3246294604F1D8003D
:100A7000C4F8D45011F03AFA42F2D80242F2DC0142
:100A800042F2E00042F2E40341F6FF78A65044F857
:100A90000180324629462550A148E55011F026FA3A
:100AA00044F2E80344F2EC00E65044F2F00344F868
:100AB000008044F2F400E55044F2F80644F2FC03EE
:100AC000255044F20410E554A551964B235004F5EB
:100AD000824644F20810336044F20C13924E2650C2
:100AE0004FF47A70E05244F2141644F2181344F2B0
:100AF0001C10A551E55044F2241644F22813255049
:100B000044F22C10A551E55044F22E1644F2301355
:100B1000864F255244F2FA10A553E552844A3968AB
:100B2000255244F2FC1644F2101301204CF25038C6
:100B30004FF00009A553E054C2E90089002900F0F4
:100B4000D28044F2102201217A4B7B48A1542360C9
:100B500006F0E6F8794B7A48236002F0EDFC79481C
:100B600002F0EAFC784802F0E7FC784802F0E4FC86
:100B7000774802F0E1FC774802F0DEFC764802F0AC
:100B8000DBFC764802F0D8FC754802F0D5FC7548CD
:100B900002F0D2FC744802F0CFFC744802F0CCFCA6
:100BA000734802F0C9FC734802F032FB724802F04D
:100BB0002FFB724802F02CFB714802F029FB7148B0
:100BC00002F0FCFC704802F0B7FC704802F0B4FC84
:100BD0006F4802F0B1FC6F4802F0AEFC6E4802F0C4
:100BE000ABFC6E4802F0A8FC6D4802F0A5FC6D4815
:100BF00002F0A2FC6C4802F09FFC6C4802F09CFCE6
:100C00006B4802F099FC6B4802F09EFB6A4802F0C8
:100C10009BFB6A4802F098FB694802F095FB694823
:100C200002F092FB684802F0C9FC684802F0C6FC7A
:100C3000674802F0C3FC674802F0C0FC664802F057
:100C40009BFD664802F098FD654802F095FD6548F9
:100C500002F0FEFD644802F0FBFD644802F0F8FD7E
:100C6000634802F0F5FD634802F0F2FD624802F0CD
:100C7000EFFD624802F060FC614802F05DFC6148F3
:100C800002F05AFC604802F057FC604802F054FC45
:100C90005F4802F059FB5F4802F056FB5E4802F0E5
:100CA00053FB5E4802F050FB5D4802F04DFB5D488F
:100CB00002F0AEFA5C4802F0ABFA5C4802F0A8FA27
:100CC0005B4802F07BFC5B4802F0A2FA5A4802F053
:100CD0009FFA5A4802F09CFA594A5A490E48BDE810
:100CE000F84306F007BC5848CBB2082213F0800F37
:100CF00002F1FF324FEA430318BF83F0D50312F02D
:100D0000FF02DBB2F2D10131B1F5807F00F8013F83
:100D1000EAD101233B6014E7689BFF1F1497010091
:100D200050BCFF1FB8980100CC98010028E2FF1FBB
:100D300070DDFF1F58970100408CFF1F9C9701003A
:100D40007CDDFF1F88DDFF1F94DDFF1FA0DDFF1F7F
:100D5000ACDDFF1FB8DDFF1FC4DDFF1FD0DDFF1FAF
:100D6000DCDDFF1FE8DDFF1FF4DDFF1F00DEFF1FDE
:100D70000CDEFF1F18DEFF1F30DEFF1F48DEFF1FE7
:100D800060DEFF1F80DEFF1FA0DEFF1FACDEFF1F47
:100D9000BCDEFF1FC8DEFF1FD4DEFF1FE0DEFF1F2B
:100DA000ECDEFF1FF8DEFF1F04DFFF1F10DFFF1F59
:100DB0001CDFFF1F28DFFF1F44DFFF1F60DFFF1F57
:100DC0007CDFFF1F98DFFF1FB4DFFF1FD0DFFF1F97
:100DD000ECDFFF1F08E0FF1F28E0FF1F34E0FF1FCC
:100DE00040E0FF1F4CE0FF1F58E0FF1F64E0FF1FC3
:100DF00070E0FF1F7CE0FF1F88E0FF1F94E0FF1FF3
:100E0000A0E0FF1FACE0FF1FB8E0FF1FC4E0FF1F22
:100E1000D0E0FF1FECE0FF1F08E1FF1F24E1FF1FF0
:100E200040E1FF1F5CE1FF1F74E1FF1F8CE1FF1F2A
:100E3000A4E1FF1FC8E1FF1FE0E1FF1FF8E1FF1F72
:100E4000308CFF1FAD2800002BE2FF1F2DE9F04F73
:100E50001A4D8BB0284603F04FFB42F2E00342F2FA
:100E6000E402EB58AA5893420FD0154F3C1D261DA3
:100E70003A681A402A44013392F8D800236005F0FA
:100E8000A3FE236832689342F2D144F2FC030B4A7A
:100E9000E95C29B144F21020012400211454D154FA
:100EA00044F20E13EE5C012E44F224130AD00349DF
:100EB0000022CA500BB0BDE8F08F00BF689BFF1F37
:100EC00044BCFF1FBF4AD458002C40F0E38544F2D5
:100ED000281EBC483D2240F80E40C65021214FF04C
:100EE000050B074603F054FC022332460193B64932
:100EF000B64800941823CDF808B002F0D3F90722C1
:100F000002238DE80C00B249B248CDF808B018238E
:100F1000224602F0C7F90E2102238DE80A0022467C
:100F20001823AD49AD48CDF808B002F0BBF94FF435
:100F3000F8730493AA4B039344F25C6E002302936C
:100F40000A200F238DE80900224647F80E60162379
:100F5000A449A54802F01EFC4621A34802F052FC19
:100F6000A149A24B0093192201F124000192A04B48
:100F7000A04A4FF0FF0802F079FC4B22434611468D
:100F8000CDF800809C4802F0A3FC97499B4B00934E
:100F9000192201F130000192954B994A02F066FC4A
:100FA0004146CDF8008023462246964802F090FC48
:100FB0008D49954B0093192201F13C0001928C4B15
:100FC000924A02F053FC42462346CDF80080214667
:100FD0008F4802F07DFC8B49A1F1300002F01AFC31
:100FE0008B49A1F13C0002F015FC8349A1F12400DA
:100FF00002F010FC804802F0A3F8824802F0A0F84A
:10100000834802F09DF811233246009601938149EE
:1010100081480294262302F09DFA11230193009641
:10102000022226237D497E48029402F093FA0A2385
:101030004FF00C094FF0210A039302230093059609
:10104000CDF818A0CDF804902823032275497648DE
:101050000494029402F00EFA4B231A46CDF8048051
:10106000CDF800800621704802F050FA0A2303935D
:101070000223CDF818A0CDF80490009305965A46A7
:1010800028236A496A480494029402F0F3F942461C
:101090008DE8100123460621654802F037FA0A233D
:1010A00003930223CDF818A0CDF804900093059681
:1010B000072228235F4960480494029402F0DAF979
:1010C0004346CDF80480224606215B48009402F096
:1010D0001DFA4FF4C47300224FF00F0E02920493D6
:1010E0000A22564B03938DE8044016230B225449E1
:1010F000544802F04FFB1421524802F083FB524B3C
:101100005049CDF804901A4601F13C0000934F4B32
:1011100002F0ACFB4E49A1F13C0002F07BFB4C48D5
:1011200002F00EF816234A460096019349494A48B0
:101130000294262302F00EFA042202922F22019634
:101140000F230092454946484FF0FF3202F0AAF8BB
:10115000042302932F238DE848004FF0FF32112320
:101160004049414802F09EF80723019303960096F8
:10117000342310223D493E480494029402F0B0FA10
:101180004FF0030A28220F23CDF804A0009239491A
:101190003948CDF808B0224602F084F802230093C3
:1011A000152301931322262334493548029402F073
:1011B000D1F9224B039300234FF00F0C02930A2323
:1011C00060E000BF689BFF1FD8980100C8E1FF1FC7
:1011D000EC980100E0E1FF1F00990100F8E1FF1F1A
:1011E000000020410899010028E0FF1F2C99010010
:1011F000149901001C9901004CE0FF1F4C9901005B
:101200003C99010058E0FF1F6C9901005C990100B6
:1012100064E0FF1F7C99010094E0FF1FA499010086
:10122000A0E0FF1FD0990100D0E0FF1FDC99010072
:10123000ECE0FF1FE899010008E1FF1F0000C84231
:10124000F499010034E0FF1F189A0100049A01008C
:1012500070E0FF1F209A0100ACE0FF1F589A0100C8
:101260005CE1FF1F5C9A010074E1FF1F689A0100B6
:10127000A4E1FF1F709A01008CE1FF1F849A010016
:10128000B8E0FF1F8DE8081040F2C71116231A4678
:101290000491B648B64902F07DFAB64AB348002137
:1012A00002F0A0FA4621B14802F0ACFAAF49B24BC5
:1012B0000093112301F13C000193B04AB04B02F0BE
:1012C000D5FAAA49AF4BB04ACDF804A001F14800C5
:1012D0000093AB4B02F0CAFAAC4801F031FFAC48C6
:1012E00001F02EFF16230193009626231722A94909
:1012F000A948029402F02EF964214FF02908022334
:101300000391102100930596282319220191A348E7
:10131000A34904940294CDF8188002F0ABF80A2394
:1013200004930393022210238DE80C00202228232B
:101330009449059606929B4802941B2202F09AF863
:1013400044F25C629848BC5001F0E2FE974801F01C
:10135000DFFE864801F0DCFE954801F0D9FE954895
:1013600001F0D6FE944801F0D3FE944801F0D0FE7F
:10137000934801F0CDFE934801F0CAFE924801F077
:10138000C7FE924801F0C4FE914801F0C1FE9148A9
:1013900001F0BEFE904801F0BBFE7F4801F0B8FEB0
:1013A0007E4801F0B5FE7F4801F0B2FE44F2BC4E2B
:1013B0000223CDF80490009332460294142347F898
:1013C0000E608649864802F0C5F802210E238DE89A
:1013D0000A003246434683498348029402F0BAF831
:1013E000022300930D230722019380498048029431
:1013F000142302F0AFF8022010238DE80900072221
:1014000043467C497C48029402F0A4F80223CDF8BC
:10141000049000930D22142378497948029402F035
:1014200099F80223CDF8049000930D2243467549A4
:101430007548029402F08EF84FF0100E02238DE8EA
:1014400008401122434671497148029402F082F823
:101450000223CDF804900093172214236D496E489F
:10146000029402F077F80223CDF80490009317223B
:1014700043466A496A48029402F06CF864234FF0CC
:10148000150C039302238DE8081052460696059624
:101490001423644964480494029401F0EBFF16237A
:1014A0000193642303930223CDF818A000930596BB
:1014B000142309225D495E480494029401F0DAFF86
:1014C000642303934FF0110902238DE80802059667
:1014D0000F22142357495848CDF8188004940294D9
:1014E00001F0C8FF202306936423122103930223F3
:1014F0000093059643460F220191504850490494A9
:10150000029401F0B7FF2023069364231322039370
:10151000022300930596434601924A494A4804949F
:10152000029401F0A7FF59462346224646480194FB
:10153000009401F0EBFF2346224609214248019422
:10154000009401F0E3FF02234FF4417900933F4BF5
:1015500003965246CDF8149004933D493D48CDF88A
:1015600004B02A23029402F0D7F875E040E0FF1F90
:10157000B89A010000002041189A0100D09A010099
:1015800014990100E09A0100C89A01007CE0FF1F55
:1015900088E0FF1FF49A0100C4E0FF1F24E1FF1F51
:1015A0002C9B010040E1FF1F28E0FF1F34E0FF1FDC
:1015B00094E0FF1FA0E0FF1FD0E0FF1FECE0FF1F43
:1015C00008E1FF1FACE0FF1F5CE1FF1F74E1FF1F9C
:1015D000A4E1FF1F8CE1FF1FB8E0FF1F409B01004B
:1015E000BCDEFF1F749B0100D4DEFF1FAC9B01001B
:1015F000C8DEFF1FE49B0100E0DEFF1F209C01000E
:10160000ECDEFF1F549C0100F8DEFF1F849C0100EC
:1016100004DFFF1FC09C010010DFFF1FF49C0100CE
:101620001CDFFF1F209D010028DFFF1F489D0100D8
:1016300044DFFF1F749D010060DFFF1F7CDFFF1F81
:10164000889D0100A09D010098DFFF1FBC9D010047
:101650006CA00100B4DFFF1FBA4B04930223CDF846
:101660001490009303962A230922B749B748CDF86E
:1016700004B0029402F050F807230593B14B049391
:1016800002220D238DE80C00039619221423B04981
:10169000B048029402F040F804230593A94B049348
:1016A0000221102319228DE80A000396AA49AB48AB
:1016B0000294434602F030F844F2BC43A848EC5090
:1016C00001F026FDA74801F023FDA74801F020FD09
:1016D000A64801F01DFDA64801F01AFDA54801F03D
:1016E00017FDA54801F014FDA44801F011FDA44820
:1016F00001F00EFDA34801F00BFDA34801F008FD29
:10170000A24801F005FDA24801F002FDA14801F048
:10171000FFFCA14801F0FCFC8C4801F0F9FC8D486D
:1017200001F0F6FC8D4801F0F3FC44F2503E022338
:1017300000933246CDF804B00294192345F80E60A8
:101740009649974801F006FF02234FF006093246FA
:10175000009394499448CDF804B04346029401F0B4
:10176000F9FE524600964346904991480294CDF8BE
:10177000049001F0EFFE07230193009643460E22EA
:101780008C498D48029401F0E5FE082102234A4667
:1017900000930191192389498948029401F0DAFEE6
:1017A000874801F0B5FC4FF00B0A022300934A462C
:1017B0001923CDF804A083498348029401F0CAFE9E
:1017C00002200D238DE809000A2219237F49804851
:1017D000029401F0BFFE022311227E49CDF804A03D
:1017E00000937D480294192301F0B4FE7A4801F079
:1017F0008FFC0223CDF804A000931122192377490E
:101800007748029401F0A6FE10230193009607F595
:10181000854043465A467349029401F09BFE1123CA
:1018200001930096434609226F497048029401F0E3
:1018300091FE0E2301931022009643466C496D4899
:10184000029401F087FE0F23019300964346142271
:1018500069496A48029401F07DFE022301934FF02A
:10186000FF324B4666496748CDF80080CDF808B096
:1018700001F018FD644B039604220221072605920D
:101880008DE842004A4604932F49604802942E2373
:1018900001F042FF022301934FF0FF320A235C491B
:1018A0005C48CDF80080CDF808B001F0FBFC0223C5
:1018B00001932246112358495848CDF80080CDF8AD
:1018C00008B001F0EFFC04230193022311225449D4
:1018D0000093544802942F2301F03CFE5148DFF856
:1018E00060A101F015FC04230221019311222F2392
:1018F00000914D484D49029401F02CFE022215231F
:1019000001924B494B48CDF800802246CDF808B0F3
:1019100001F0C8FC44F2103044F2343244F2143383
:101920002C50AC50EC540D210134A4B2424802F0CA
:1019300049FC1AF804100029F6D1404C8B4650217E
:1019400080E000BFBC9D01006CA00100D0DFFF1F44
:10195000749D0100ECDFFF1FC49D010008E0FF1F24
:10196000BCDEFF1FD4DEFF1FC8DEFF1FE0DEFF1F4F
:10197000ECDEFF1FF8DEFF1F10DFFF1F1CDFFF1F65
:1019800004DFFF1F28DFFF1F44DFFF1F60DFFF1F93
:101990007CDFFF1F98DFFF1FB4DFFF1FE09D01000A
:1019A0007CDDFF1F089E010088DDFF1F309E0100C7
:1019B00094DDFF1F5C9E0100A0DDFF1F8C9E0100D7
:1019C000B8DDFF1FA09E0100ACDDFF1FD49E01000B
:1019D000C4DDFF1F109F0100DCDDFF1F449F0100DD
:1019E000D0DDFF1F809F0100A89F0100F4DDFF1FD5
:1019F000D49F010000DEFF1FEC9F01000CDEFF1FE3
:101A000010A0010018DEFF1F18A0010080DEFF1FDC
:101A10007C9A010030DEFF1F20A0010048DEFF1F7E
:101A200028A00100A0DEFF1FACDEFF1F30A00100D8
:101A300038A0010060DEFF1F689BFF1F70A001003F
:101A400040A001000BF1010B1FFA8BFBB54802F01F
:101A5000B9FB14F80B100029F4D1B34E0C464F21FA
:101A60000134A4B2AF4802F0ADFB315D0029F7D1DB
:101A7000AE4F0C462D21AB4E0134A4B2304602F0DD
:101A8000A1FB395D0029F6D144F20E13F35C012B62
:101A90007FF410AAA649A74A0B680893089B106810
:101AA0001B1A102B7FF606AA0B680993099BA24804
:101AB00013609C4C01F00AFC002840F0A3829F4F69
:101AC00007F118069D48974C01F000FC002840F0F3
:101AD00085829B48934E01F0F9FB002840F0698213
:101AE00044F2A863F458022C00F0EA82032C3AD0A6
:101AF000012C00F0F08044F25033EB58002B40F002
:101B0000F28044F2BC43EB5803B38E4801F0ACFAC8
:101B100001468D4801F01AFE8C4801F0A5FA0146F5
:101B20008B4801F013FE8B4801F0B2FA01460446DF
:101B3000894801F0BFFC2146884801F0BBFC884879
:101B400001F092FA0146874801F000FE44F25C631E
:101B5000744EEB58002B40F06181724802F03EFE5B
:101B60000BB0BDE8F08F44F25C676E4CEE59002E6E
:101B7000C1D144F2BC437C48E65001F0C9FA7B482D
:101B800001F0C6FA7A4801F0C3FA7A4801F0C0FAC7
:101B9000794801F0BDFA794801F0BAFA784801F0C5
:101BA000B7FA784801F0B4FA774801F0B1FA65481D
:101BB00001F0AEFA654801F0ABFA664801F0A8FA08
:101BC000654801F0A5FA654801F0A2FA5E4801F007
:101BD0009FFA5F4801F09CFA44F25038604801F0E7
:101BE00097FA604801F094FA684844F8086001F0F8
:101BF0008FFA674801F08CFA664801F089FA664866
:101C000001F086FA654801F083FA654801F080FA30
:101C1000644801F07DFA644801F07AFA634801F003
:101C200077FA04F5854001F073FA614801F070FA23
:101C3000604801F06DFA604801F06AFA5F4801F00F
:101C400067FA5F4801F064FA5E4801F061FA5E48A5
:101C500001F05EFA5D4801F05BFA5D4801F058FA68
:101C60005C4801F055FA0123E3515B4801F058FA52
:101C70005A4801F055FA5A4801F052FA594801F011
:101C80004FFA594801F04CFA584801F049FA5848BF
:101C900001F046FA574801F043FA574801F040FA7C
:101CA000564801F03DFA564801F03AFA554801F01D
:101CB00037FA554801F034FA544801F031FA5448E3
:101CC00001F02EFA534801F02BFA534801F028FA9C
:101CD00054F8083012E744F25037DFF84880EE59E4
:101CE000002E00F0A68238480E4C01F07BFA002846
:101CF00040F0DD8435480B4C01F074FA002800F008
:101D0000FF8044F23432A358591CA150062B00F234
:101D1000F780DFE813F0A104910482045704D30094
:101D200035040F04689BFF1FD0A0010024A101000F
:101D30002CE3FF1F649BFF1FC8E1FF1FE0E1FF1FB3
:101D4000F8E1FF1F28DFFF1FB4DFFF1F44DFFF1F85
:101D5000D0DFFF1F60DFFF1F7CDFFF1F98DFFF1F4B
:101D6000ECDFFF1F08E0FF1FBCDEFF1FD4DEFF1FFC
:101D7000C8DEFF1FE0DEFF1FECDEFF1FF8DEFF1FE7
:101D800010DFFF1F1CDFFF1F04DFFF1F7CDDFF1FB5
:101D900088DDFF1F94DDFF1FA0DDFF1FACDDFF1FEF
:101DA000B8DDFF1FC4DDFF1FD0DDFF1FDCDDFF1F1F
:101DB00080DEFF1FF4DDFF1F00DEFF1FA0DEFF1F20
:101DC000ACDEFF1F0CDEFF1F18DEFF1F30DEFF1F23
:101DD00048DEFF1F60DEFF1F28E0FF1F34E0FF1F0B
:101DE00040E0FF1F94E0FF1FA0E0FF1FD0E0FF1FB7
:101DF000ECE0FF1F08E1FF1FACE0FF1F5CE1FF1FED
:101E000074E1FF1FA4E1FF1F8CE1FF1FB8E0FF1F7B
:101E1000C4E0FF1F24E1FF1F40E1FF1F03F07AFF32
:101E20000DF0F8FD0446834801F032F921460246E0
:101E3000814801F03BFD814801F02AF92146024624
:101E40007F4801F033FD7F4801F022F92146024628
:101E50007D4801F02BFD7D4801F0C4F9002840F0D9
:101E600095847B487B4D01F0BDF9002840F06E84DD
:101E70007948784D01F02AFA002840F04B847748E1
:101E800001F006F9014676480DF012FD75490DF096
:101E9000CDFE0146744801F00DFB704801F0F8F8E2
:101EA00021460246714801F001FD6F4801F0F0F84B
:101EB000214602466E4801F0F9FC4EE60024FF265A
:101EC0008DE850002246C82301216A4801F060FBDA
:101ED0002246C823012168488DE8500001F01EFA0F
:101EE0002246C8230A2164488DE8500001F016FA02
:101EF0008DE850002246C8230D215F4801F00EFAFC
:101F00005E48544C01F0E2F9002840F0EC835C4854
:101F1000504C01F0DBF900283FF4F3AD04F58646A0
:101F2000A6F1080001F050F93768002F40F0A282B6
:101F300044F250330122E250524801F0F1F8524885
:101F400001F0EEF8514801F0EBF8514801F0E8F8E3
:101F5000504801F0E5F844F214334648E75401F0E4
:101F6000DFF84D4801F0DCF83946444801F0C8F983
:101F700004F5854001F0D4F8484801F0D1F848480C
:101F800001F0CEF8474801F0CBF8474801F0C8F817
:101F9000464801F0C5F8464801F0C2F8364801F05D
:101FA000BFF8364801F0BCF8A6F1080001F0B8F817
:101FB000A7E5404801F008F944F29863F358002B74
:101FC00040F0198444F2A867F459032C7FF48BADD8
:101FD0000121384801F094F9F45984E5364801F0BC
:101FE000F3F804F58D400368002B40F0F68344F2CB
:101FF000A863E358022B7FF46CAD0838012101F08F
:102000007FF966E52D4801F0DFF844F26863E35894
:10201000002B40F0D18344F2A863E15801297FF4FA
:102020004EAD264800F1180700F1300601F068F9BE
:1020300048E500BFD0E0FF1F4CE0FF1FECE0FF1FB2
:1020400058E0FF1F08E1FF1F64E0FF1F5CE1FF1F76
:1020500074E1FF1F689BFF1F8CE1FF1F24E1FF1F3E
:102060000000C8420000204140E1FF1F7CE0FF1F4C
:1020700088E0FF1FC4DDFF1F30DEFF1F48DEFF1FAB
:1020800060DEFF1F7CDDFF1F88DDFF1F94DDFF1F6B
:10209000A0DDFF1FACDDFF1FD0DDFF1F80DEFF1FB7
:1020A000F4DDFF1F00DEFF1FACDEFF1F0CDEFF1F95
:1020B00018DEFF1FF8E1FF1FE0E1FF1FC8E1FF1F6F
:1020C00044F2BC47B44EEC59002C7FF414AD44F2FA
:1020D0005C63B248F45001F01BF8B14801F018F805
:1020E000B04801F015F8B04801F012F8AF4801F01F
:1020F0000FF8AF4801F00CF8AE4801F009F8AE480F
:1021000001F006F8AD4801F003F8AD4801F000F821
:10211000AC4800F0FDFFAC4800F0FAFFAB4800F01F
:10212000F7FFAB4800F0F4FFAA4800F0F1FF44F2DB
:102130005038A94800F0ECFFA84800F0E9FFA84893
:1021400046F8084000F0E4FFA64800F0E1FFA6488A
:1021500000F0DEFFA54800F0DBFFA54800F0D8FF47
:10216000A44800F0D5FFA44800F0D2FFA34800F037
:10217000CFFFA34800F0CCFF06F5854000F0C8FF74
:10218000A04800F0C5FFA04800F0C2FF9F4800F043
:10219000BFFF9F4800F0BCFF9E4800F0B9FF9E487B
:1021A00000F0B6FF9D4800F0B3FF9D4800F0B0FF7F
:1021B0009C4800F0ADFF9C4800F0AAFF0123F351BA
:1021C0009A4800F0ADFF9A4800F0AAFF994800F045
:1021D000A7FF994800F0A4FF984800F0A1FF984895
:1021E00000F09EFF974800F09BFF974800F098FF93
:1021F000964800F095FF964800F092FF954800F051
:102200008FFF954800F08CFF944800F089FF9448B8
:1022100000F086FF934800F083FF934800F080FFB2
:10222000924800F07DFF924800F07AFF56F808309F
:1022300064E444F25C63594848F8036000F068FFC6
:10224000574800F065FF574800F062FF564800F01D
:102250005FFF564800F05CFF554800F059FF5548B5
:1022600000F056FF544800F053FF544800F050FF70
:10227000534800F04DFF534800F04AFF524800F029
:1022800047FF524800F044FF514800F041FF5148D9
:1022900000F03EFF504800F03BFF504800F038FF90
:1022A00044F2BC43614848F8036000F031FF6048E5
:1022B00000F02EFF5F4800F02BFF5F4800F028FF82
:1022C0005E4800F025FF5E4800F022FF5D4800F008
:1022D0001FFF5D4800F01CFF5C4800F019FF5C48E0
:1022E00000F016FF5B4800F013FF5B4800F010FFA2
:1022F0005A4800F00DFF5A4800F00AFF594800F014
:1023000007FF594800F004FF584800F001FF584803
:1023100000F0FEFE324848F8074000F001FF314867
:1023200000F0FEFE304800F0FBFE304800F0F8FE02
:102330002F4800F0F5FE44F214332F4808F80360EC
:1023400000F0EEFE2D4800F0EBFE3146354800F07F
:10235000D7FF08F5854000F0E3FE2A4800F0E0FED4
:10236000294800F0DDFE294800F0DAFE294800F097
:10237000D7FE294800F0D4FE284800F0D1FE2848B6
:1023800000F0CEFE274800F0CBFE274800F0C8FE44
:1023900058F80730FFF7B2BB689BFF1F28E0FF1F0C
:1023A00034E0FF1F40E0FF1F94E0FF1FA0E0FF1F8D
:1023B000D0E0FF1FECE0FF1F08E1FF1FACE0FF1FB4
:1023C0005CE1FF1F74E1FF1FA4E1FF1F8CE1FF1F11
:1023D000B8E0FF1FC4E0FF1F24E1FF1F40E1FF1F23
:1023E0007CDDFF1F88DDFF1F94DDFF1FA0DDFF1FC9
:1023F000ACDDFF1FB8DDFF1FC4DDFF1FD0DDFF1FF9
:10240000DCDDFF1F80DEFF1FF4DDFF1F00DEFF1F8E
:10241000A0DEFF1FACDEFF1F0CDEFF1F18DEFF1F5C
:1024200030DEFF1F48DEFF1F60DEFF1FBCDEFF1F28
:10243000D4DEFF1FC8DEFF1FE0DEFF1FECDEFF1F44
:10244000F8DEFF1F10DFFF1F1CDFFF1F04DFFF1F71
:1024500028DFFF1F44DFFF1F60DFFF1F7CDFFF1F40
:1024600098DFFF1FB4DFFF1FD0DFFF1FECDFFF1F70
:1024700008E0FF1F44F250370023E351A6F1EC00BF
:1024800000F046FEA6F1E00000F042FEA6F1D40006
:1024900000F03EFEA6F1C80000F03AFEA6F1BC0036
:1024A00000F036FEA6F1B00000F032FEA6F1A40066
:1024B00000F02EFEA6F1980000F02AFEA6F18C0096
:1024C00000F026FE04F5854000F022FE06F118001B
:1024D00000F01EFEA6F1740000F01AFEA6F16800DE
:1024E00000F016FE06F1380000F012FE06F144007E
:1024F00000F00EFEA6F15C0000F00AFEA6F150000E
:1025000000F006FEA6F1380000F002FEA6F1200061
:1025100000F0FEFDA6F1080000F0FAFDA6F15C0057
:1025200000F0FEFDA6F1080000F0FAFD0123E351E2
:10253000FFF7E7BA44F23437FF24002600960194EF
:1025400022467D230121C248EE5101F021F82246A6
:10255000019400967D230121BE4800F0DFFE224653
:10256000019400967D230A21BA4800F0D7FE019419
:10257000009622467D230D21B64800F0CFFEBFE431
:10258000FF244B23019400941A460121B04800F027
:10259000FFFF4B231A46019400940121AD4800F03F
:1025A000BDFE4B231A46019400940A21A94800F06D
:1025B000B5FE4B23019400941A460D21A54800F066
:1025C000ADFE9DE40024FF2632462346019600948A
:1025D00001219F4800F0DCFF23462246019400942D
:1025E00002219B4800F0D4FF234632468DE850007C
:1025F0000121984800F092FE234632468DE85000B3
:102600000A21944800F08AFE8DE8500023463246A5
:102610000D21904800F082FE72E4FF2423462246FA
:102620000121019400948A4800F0B2FF0023019434
:1026300000941A460221A9E7FF26334632460121BB
:10264000002401960096824800F0A2FF8DE8500019
:102650002246C823022138E4FF24002623462246CE
:102660000194009401217A4800F092FF22463346FB
:10267000019400960221764800F08AFF33462246F4
:10268000019400960121734800F048FE334622462B
:10269000019400960A216F4800F040FE01940096D4
:1026A000334622460D216B4800F038FE28E444F200
:1026B00010366948A35901331946A35101F046F871
:1026C000A359032B7FF416AB44F21436A35D002B01
:1026D00000F0B480012B00F0DB8044F210330022C4
:1026E000EA50FFF707BB5D4800F06EFD44F2E823B7
:1026F000E358002B00F08E80594800F009FD59483E
:1027000000F00EFD584800F003FD584800F008FDA9
:10271000FFF7FDBB564800F057FD44F22C63E95823
:10272000012900F08580FF220025019200957D237C
:102730000121504801F076F8019500952B462A4674
:1027400003214C4801F06EF8FFF799BB4A4800F0AE
:102750008BFC411F484800F0F9FF44F2586346489B
:10276000EE580136EE5000F07FFC314602464348F9
:1027700001F090F8404800F077FC0028BFF678ABF5
:1027800000213D4800F0E2FFFFF772BB3A4800F03D
:102790006BFC411D384800F0D9FF44F258633648BD
:1027A000F5580135F55000F05FFC294602463348E4
:1027B00001F070F8FFF755BB314F44F2A86338467B
:1027C000012207F118060021E25000F099FD304681
:1027D000002100F095FDFFF775B944F2A8630222CD
:1027E00000212038E25000F08BFD3046002100F03F
:1027F00087FDFFF76EB944F2A86403230021214846
:10280000335100F07DFD3846002100F079FD345948
:10281000FFF769B9134800F07BFC114800F080FC19
:10282000124800F075FC104800F07AFCFFF76FBB0F
:10283000FF25019500952B462A467AE7124800F0BD
:1028400067FC124800F06CFC0123A35545E700BF6C
:10285000C4DDFF1F30DEFF1F80DEFF1F48DEFF1FCD
:10286000ACDEFF1FA0DEFF1FD0DDFF1FDCDDFF1F82
:102870008CE1FF1F34E0FF1FA4E1FF1F70E0FF1F8A
:10288000E0E1FF1FC8E1FF1FACDDFF1FB8DDFF1F48
:10289000044800F03DFC044800F042FC0023A3552E
:1028A0001BE700BFB8DDFF1FACDDFF1F8A4B70B513
:1028B0000360064600F58D40103001F067F806F51C
:1028C0008C40783001F062F806F5894406F58C40BA
:1028D0004034603001F05AF804F5BE7001F086F81B
:1028E00004F5B27001F052F804F5A67001F04EF84C
:1028F00004F59A7001F04AF804F58C7001F05EF866
:1029000004F1FC0001F05AF804F1E00001F056F87F
:1029100004F1C40001F052F804F1A80001F04EF8EF
:1029200004F19C0000F0CEFB04F1900000F0CAFB23
:1029300004F1840000F0C6FB04F1780000F0C2FB53
:1029400004F16C0000F0BEFB04F1600000F0BEFB7F
:1029500004F1540000F0BAFB04F1480000F0B6FBAB
:1029600004F13C0000F0B2FB04F1300000F0AEFBDB
:1029700004F1240000F0AAFB04F1180000F0A4FB0D
:1029800006F5864504F10C00543500F09DFB204609
:1029900000F09AFB05F5A67001F028F805F598708F
:1029A00001F024F805F58A7001F020F805F1F8002F
:1029B00001F01CF805F1DC0001F000F805F1C000A1
:1029C00000F0FCFF05F1A40000F0F8FF05F188001D
:1029D00000F0F4FF05F16C0000F0F0FF05F160007D
:1029E00000F070FB05F1540000F06CFB05F14800AD
:1029F00000F068FB05F13C0000F064FB05F13000DD
:102A000000F060FB05F1240000F05CFB05F118000C
:102A100000F058FB06F5844405F10C00143400F076
:102A200051FB284600F04EFB04F5987000F04AFB7D
:102A300004F5927000F046FB04F5827000F0D6FFBA
:102A400004F1E40000F0A2FF04F1CC0000F09EFFCE
:102A500004F1B40000F09AFF04F19C0000F096FF2E
:102A600004F1900000F02EFB04F1840000F02AFB3A
:102A700004F1780000F026FB06F5854000F022FB0B
:102A800004F1600000F01EFB04F1540000F01AFB9A
:102A900004F1480000F016FB04F13C0000F012FBCA
:102AA00004F1300000F00EFB04F1240000F00AFBFA
:102AB00004F1180000F006FB04F10C0000F002FB2A
:102AC000204600F0FFFA3046044B40F8D03B00F0BF
:102AD0009DFB304670BD00BF9C970100149701001C
:102AE0008C4B70B50360064600F58D40103000F049
:102AF0004DFF06F58C40783000F048FF06F589441C
:102B000006F58C404034603000F040FF04F5BE70A4
:102B100000F06CFF04F5B27000F038FF04F5A67009
:102B200000F034FF04F59A7000F030FF04F58C706B
:102B300000F044FF04F1FC0000F040FF04F1E0006D
:102B400000F03CFF04F1C40000F038FF04F1A800DD
:102B500000F034FF04F19C0000F0B4FA04F190009E
:102B600000F0B0FA04F1840000F0ACFA04F178004F
:102B700000F0A8FA04F16C0000F0A4FA04F160007F
:102B800000F0A4FA04F1540000F0A0FA04F14800A7
:102B900000F09CFA04F13C0000F098FA04F13000D7
:102BA00000F094FA04F1240000F090FA04F1180007
:102BB00000F08AFA06F5864504F10C00543500F061
:102BC00083FA204600F080FA05F5A67000F00EFFAB
:102BD00005F5987000F00AFF05F58A7000F006FF11
:102BE00005F1F80000F002FF05F1DC0000F0E6FE60
:102BF00005F1C00000F0E2FE05F1A40000F0DEFEE9
:102C000005F1880000F0DAFE05F16C0000F0D6FE58
:102C100005F1600000F056FA05F1540000F052FA98
:102C200005F1480000F04EFA05F13C0000F04AFAC8
:102C300005F1300000F046FA05F1240000F042FAF8
:102C400005F1180000F03EFA06F5844405F10C0089
:102C5000143400F037FA284600F034FA04F598707E
:102C600000F030FA04F5927000F02CFA04F582704E
:102C700000F0BCFE04F1E40000F088FE04F1CC009A
:102C800000F084FE04F1B40000F080FE04F19C002A
:102C900000F07CFE04F1900000F014FA04F18400CE
:102CA00000F010FA04F1780000F00CFA06F5854007
:102CB00000F008FA04F1600000F004FA04F1540096
:102CC00000F000FA04F1480000F0FCF904F13C00C7
:102CD00000F0F8F904F1300000F0F4F904F12400F8
:102CE00000F0F0F904F1180000F0ECF904F10C0028
:102CF00000F0E8F9204600F0E5F93046064B40F8D0
:102D0000D03B00F083FA304644F2B06104F0D4F8CE
:102D1000304670BD9C970100149701002DE9F047E3
:102D20009AB000240F46054604AE0846B149029603
:102D300003948DF810400FF0F7FB002851D1AE4FEF
:102D4000044674210134A4B2284601F03BFA395DEF
:102D50000029F7D12B68A94F5A6944F21411BA42DD
:102D6000695840F001819B6828469847DFF8A082A7
:102D7000722100240134A4B2284601F023FA18F885
:102D800004100029F6D12B685A6944F21811BA428E
:102D9000695840F0F7809B6828469847DFF87482AE
:102DA000642100240134A4B2284601F00BFA18F87B
:102DB00004100029F6D12B685A6944F21C11BA425A
:102DC000695840F0DA8028469B689847029D0127A1
:102DD000B54202D0284604F06DF838461AB0BDE876
:102DE000F087874B8DF82F4093E803000DF14008E2
:102DF00002234FEA114E1A460A90ADF82C108DF8B6
:102E000042400F93072440F60D2308A841460DF1D8
:102E100028090994ADF840308DF82EE0CDF83880BF
:102E2000CDF8209004F0EAFB0DF1580A0346CDF8E6
:102E300050A053F8082B9A42044600F0CA8014921E
:102E40008268169262681592002223602272626084
:102E5000159A149902A804F0D1FB694938460FF07D
:102E600063FB04461498504501D004F023F80E98F3
:102E7000404501D004F01EF80898484501D004F000
:102E800019F8FCB95F4F0D230134A4B21946284646
:102E900001F098F93B5D002BF6D144F208121C4674
:102EA000AF58397839B1284601F08CF9631C9CB2CF
:102EB000395D0029F7D128460D2101F083F901275A
:102EC000029D85E7504BCDF8209093E807004B46D4
:102ED00003C302211A804FF00A0E00230A4640F66F
:102EE0000D240F9108A841468DF832308DF84230FC
:102EF000ADF84040CDF83880CDF824E004F07EFBFA
:102F00000346CDF850A053F8082B9A42044668D0E7
:102F100014928268169262681592002223602272CF
:102F20006260159A149902A804F068FB3649384685
:102F30000FF0FAFA04461498504501D003F0BAFF96
:102F40000E98404501D003F0B5FF0898484501D0E0
:102F500003F0B0FF5CB138462C490FF0E5FA0746A4
:102F600098B1029D002733E728469047FEE62846A1
:102F700001F0F4FB0127029D2AE72846904701272C
:102F8000029D25E72846904708E7DFF88C80DFF8A8
:102F90008C90D8F800500D2304460134A4B2194691
:102FA000284601F00FF919F80430002BF5D1029DE5
:102FB000D8F80080297800293FF40AAF1C46404623
:102FC00001F000F9631C9CB2295D0029F7D1029D34
:102FD000FEE6194610225046019302F059FD019B6E
:102FE00030E7194610225046019302F051FD019B33
:102FF00091E700BF54A1010060A101000506000097
:10300000A8A10100B0A10100C8A10100A49801007D
:1030100078A1010090A10100348CFF1FD4A1010010
:10302000074B10B444F22E12196800248C52027D12
:10303000034622F0010280681A7510BC704700BF79
:10304000348CFF1F074B10B5196844F22E12002470
:103050008C52027D034622F0010280681A750CF042
:10306000DDFC10BD348CFF1F084A44F22E13126899
:103070000021D1528269037D012A23F001030375E7
:103080000EBF8068836893FBF2F07047348CFF1F9B
:103090000B4A38B5126844F22E130021D152037D39
:1030A000044623F00103806823750CF0B7FC054645
:1030B000A0690CF0B3FC014628460CF0B7FD38BD02
:1030C000348CFF1F704700BF704700BF704700BFC0
:1030D000024B0A464168186801F09CBB348CFF1F04
:1030E00010B50C21044603F0E7FE204610BD00BFDA
:1030F00010B50C21044603F0DFFE204610BD00BFD2
:1031000010B50C21044603F0D7FE204610BD00BFC9
:10311000024B4168186801F0B7BB00BF348CFF1F39
:10312000024B4168186801F0DFBB00BF348CFF1F01
:10313000024B4168186802F0EDBB00BF348CFF1FE2
:10314000024B4168186802F015BC00BF348CFF1FA9
:10315000CB060A460DD5910623D5530648BF164B1C
:10316000416858BF4FF47A738361144B186801F0BB
:1031700051BB8B060AD44B064CBF42F2107301239D
:1031800083610E4B4168186801F044BB510648BF8B
:103190000B4B416858BF64238361084B186801F0EA
:1031A00039BB510648BF074B416858BF0A238361AA
:1031B000024B186801F02EBB80969800348CFF1FDC
:1031C00040420F00A0860100054A44F22E13126807
:1031D0000021D152037D23F001030375704700BF26
:1031E000348CFF1F30B4074A037D116823F00205B9
:1031F00044F22C1205750024C3F340008C5230BCFD
:10320000704700BF348CFF1F704700BF704700BF7E
:10321000094AF0B4094C11682568094E4160002341
:103220004F1C1760C36006600361037505B1C5607C
:103230002060F0BC704700BF18E2FF1F1CE2FF1FB8
:1032400010A201002DE9F04186B01646BDF830709D
:10325000BDF834E0BDF838C0BDF83C8001B1496824
:103260000E4D2C684CB1A04208D0224601E090429D
:1032700004D01269002AFAD104612860084C8360E6
:1032800042682068CDF810808DE88840CDF80CC0E9
:10329000334601F00BFC06B0BDE8F08120E2FF1FD1
:1032A000348CFF1F70B584B0BDF82060BDF8245089
:1032B000BDF8284002958DE84800039413460A465D
:1032C0000021FFF7BFFF04B070BD00BF037D82681F
:1032D000C3F3800191420FD052B923F00403037568
:1032E000064A44F22C1312680021D1520120704783
:1032F00043F004030375F3E700207047348CFF1F8D
:103300008368994206D0044B81600A464168186878
:1033100001F088BC704700BF348CFF1F70B5094DA9
:103320004468286884B0BDF82060BDF8245000933C
:103330000196134602950A46214601F04DFB04B062
:1033400070BD00BF348CFF1F0A49F0B40A4C0A68F4
:1033500025680A4E42600023571C01220F60C3609B
:10336000066003610375C282826105B1C560206099
:10337000F0BC704718E2FF1F1CE2FF1F88A201008B
:103380002DE9F04F8BB01F461646BDF850E0BDF852
:1033900054C0BDF85880BDF86830BDF8709001B1D8
:1033A00049682F4D2C684CB1A04208D0224601E05C
:1033B000904204D01269002AFAD104612860C28ABE
:1033C0009A4218BFC38219F0100F0AD019F0200FCB
:1033D0003FD019F0400F14BF224C4FF47A7484612F
:1033E00009E019F0200F2DD119F0400F14BF42F25F
:1033F000107401248461199D8268D0F804B0DFF84C
:1034000070A004FB05F59542189A18BF8560CDF8A9
:10341000249004FB02F9179ADAF80000CDF818900E
:1034200004FB02F405941B9C08945A460795CDF8BA
:103430001080CDF80CC08DE8C04001F03BFC0BB013
:10344000BDE8F08F19F0400F14BF074C642484616D
:10345000D1E719F0400F14BF044C0A248461CAE775
:1034600020E2FF1F8096980040420F00A0860100D6
:10347000348CFF1FF0B58BB0BDF84040BDF8445010
:10348000139FBDF8546002958DE81800129BBDF89B
:1034900058500393064C04971346149A05920696C7
:1034A0000A46089507940021FFF76AFF0BB0F0BDAC
:1034B0006CA0010070B5856904460E4628460CF0E4
:1034C000ADFA31460CF0FEFA0CF0D8FCA368984235
:1034D00008D00D4BA06002466168186801F034FA0C
:1034E000A569A368012D18460AD00CF097FA044686
:1034F00028460CF093FA014620460CF097FB70BD6D
:103500000CF08CFA70BD00BF348CFF1F70B5094DF4
:103510004468286884B0BDF82060BDF8245000934A
:103520000196134602950A46214601F055FA04B069
:1035300070BD00BF348CFF1F30B40449044C0A68CE
:103540004260551C0D60046030BC704718E2FF1FDC
:103550006CA20100F0B50D4CD0F804C0D4F800E026
:1035600087B00024BDF83070BDF83460BDF8385025
:10357000019300920B468460624621467046029792
:103580000396049501F0CEFC07B0F0BD348CFF1F0C
:1035900070B5094D4468286884B0BDF82060BDF856
:1035A000245000930196134602950A46214601F0E5
:1035B00013FA04B070BD00BF348CFF1F0A49F0B489
:1035C0000A4C0A6825680A4E42600023571C0122F3
:1035D0000F60C360066003610375C282826105B13A
:1035E000C5602060F0BC704718E2FF1F1CE2FF1F9F
:1035F000ECA101002DE9F04788B01546BDF8406008
:10360000BDF844C0BDF84880BDF85040BDF85890A2
:1036100001B149682D4FD7F800A0BAF1000F0AD0C8
:10362000504509D0524601E0904205D01269002A67
:10363000FAD1C0F810A03860C28AA24218BFC48272
:1036400019F0100F0BD019F0200F37D019F0400FE0
:1036500014BF1F4A4FF47A72826192460AE019F051
:10366000200F23D119F0400F14BF42F21072012233
:1036700082619246139F82680AFB07F7DFF85CA01D
:10368000974218BF87604268DAF800000694159CDC
:10369000CDF81C908DE8481005940497CDF80C8067
:1036A0002B4601F0EBFC08B0BDE8F08719F0400FA5
:1036B00014BF084A642282619246DBE719F0400F8A
:1036C00014BF054A0A2282619246D3E720E2FF1F17
:1036D0008096980040420F00A0860100348CFF1FA6
:1036E000F0B589B0BDF83840BDF83C70BDF8446015
:1036F0000093BDF8485001941346064C109A03926B
:1037000002970A460496069505940021FFF772FF7A
:1037100009B0F0BD6CA00100F0B589B0BDF838402B
:10372000BDF83C50109FBDF8446002958DE818002C
:10373000BDF84C40039713460A461299059104962A
:1037400006940021FFF756FF09B0F0BD8269836837
:1037500002FB01F29A420AD010B5064B8260044681
:103760001868616801F0F0F8A368184610BD1846A3
:10377000704700BF348CFF1F30B40449044C0A6802
:103780004260551C0D60046030BC704718E2FF1F9A
:1037900050A201002DE9F041114C4768266888B01D
:1037A0000024BDF8385001930092BDF83C8084603D
:1037B000DDF840C0DDF844E00295BDF84850CDF892
:1037C0000C800B463A4621463046CDF810C0CDF865
:1037D00014E0069501F052FD08B0BDE8F08100BF8D
:1037E000348CFF1F10B5064B4468186882B00B4636
:1037F00000922146012201F013FE02B010BD00BF6D
:10380000348CFF1F024B0A464168186801F068BEFD
:10381000348CFF1F024B4A684168186801F09ABE59
:10382000348CFF1F70B5094D4468286884B0BDF81A
:103830002060BDF8245000930196134602950A4675
:10384000214601F0C9F804B070BD00BF348CFF1FE1
:1038500030B40449044C0A684260551C0D60046091
:1038600030BC704718E2FF1F34A2010070B5084C4D
:103870004E684168206884B0089DBDF824400093DC
:10388000019513460294324601F0ACFE04B070BDBF
:10389000348CFF1F10B4044C13460A46416820685C
:1038A00010BC01F0D1BF00BF348CFF1F10B5074B17
:1038B0004468186884B003AB0291039200932146D8
:1038C00002AB012201F04AFF04B010BD348CFF1F8F
:1038D00030B5074D4468286883B0BDF81850009390
:1038E000019513460A46214602F074F803B030BD34
:1038F000348CFF1F78B10D4A1368ABB1416858682A
:1039000088420DD0186930B14268914204D0034614
:1039100018690028F8D1704702691A6101207047C0
:103920001B691360012070471846704720E2FF1F93
:1039300038B50446E0B1134A1368D3B141685D68F5
:103940008D4218D0D86830B14268914209D0034600
:10395000D8680028F8D10C4A136843F001031360BB
:1039600038BDC268DA602046FFF7C4FF012038BDC9
:1039700038BD184638BDDB681360FFF7BBFF012078
:1039800038BD00BF1CE2FF1F24E2FF1F10B5034B30
:1039900003600446FFF7CCFF204610BD10A20100D3
:1039A00010B5054B03600446FFF7C2FF20461821FF
:1039B00003F082FA204610BD10A2010010B5034B9F
:1039C00003600446FFF7B4FF204610BD88A2010043
:1039D00010B5054B03600446FFF7AAFF20461C21E3
:1039E00003F06AFA204610BD88A2010010B5034B0F
:1039F00003600446FFF79CFF204610BDECA10100C8
:103A000010B5054B03600446FFF792FF20461C21CA
:103A100003F052FA204610BDECA1010010B5044C91
:103A2000206820B1FFF766FF20680028FAD110BD9A
:103A300020E2FF1F0D4B1B68B3B15A68904209D0BA
:103A4000DB68002BF9D10A490A6842F002021846E5
:103A50000A6070479A6891421A7D18BF996042F0D7
:103A600001021A7501207047184670471CE2FF1FBB
:103A700024E2FF1F0B4B1B6893B15A68904209D098
:103A8000DB68002BF9D108490A6842F002021846A7
:103A90000A6070471A7D42F002021A7501207047D1
:103AA000184670471CE2FF1F24E2FF1F30B5136861
:103AB000CC5C83B00025202C01EB0300019508D1DC
:103AC00001330B44581A1060184613F8014B202C90
:103AD000F8D014B9204603B030BD14466B4601AA95
:103AE00005490EF0A7FC18B12268009B134423601F
:103AF000019803B030BD00BFA4A201002DE9F04140
:103B00004B78013B84B006461546642B00F2BA811F
:103B1000DFE813F07400B801B801A900AE00B200EC
:103B20006701B801B801B801B801B801B801B8011E
:103B3000B801B801B801B801B801B801B801B801BD
:103B4000B801B801B801B801B801B801B801B801AD
:103B5000B801B8016D017B019201B801B801B8014B
:103B6000B801B801B801B801B801B801B801B8018D
:103B7000B801B801B801B801B801B801B801B8017D
:103B8000B801B801B801B801B801B801B801B8016D
:103B9000B801B801B801B801B801B801B801B8015D
:103BA000B801B801B801B801B801B801B801B8014D
:103BB000B801B801B801B801B801B801B801B8013D
:103BC000B801B801B801B801B801B801B801B8012D
:103BD000B801B801B801B801B801AA01650004AA8A
:103BE000002342F8043D2946FFF760FF0138022810
:103BF0008CBF0020012004B0BDE8F081FFF70EFF6C
:103C000042F2D80142F2E00244F20E13755856F81F
:103C100002E0A84F06F503508446012206F58244CF
:103C2000F254013D24300CF11C0C14344FF04908BF
:103C300000230AE022680132226001339BB217F8A8
:103C40000380B8F1000F00F01B810268CEEB020187
:103C5000A942EFD2DCF8001011403144013281F862
:103C6000D8800260E9E70368DB6A98470120C2E771
:103C700000F0B6FC0120BEE7036844F23017DB69B0
:103C80009847F45BDFF834E20246601C06EB040858
:103C900016FA80F00B4644F232114FF0000C012569
:103CA00008F801C0DEF800E0455444F21018A51CE5
:103CB000E01C16FA85F516FA80F01EF8088005F863
:103CC00001C0043400F801800EF58241A4B2F4531F
:103CD0000F683D7875B106F582403030311901F535
:103CE00082410134A4B281F83250048017F8015F98
:103CF000002DF3D144F208115EF80170397871B1EA
:103D000006F582403030351905F582450134A4B2FC
:103D100085F83210048017F8011F0029F3D144F20E
:103D200004115EF80170397871B106F582403030C7
:103D3000351905F582450134A4B285F832100480A6
:103D400017F8011F0029F3D127463821C1F1200EB1
:103D500003FA0EFE22FA01F5F01945EA0E05A1F16B
:103D6000200E00F5824023FA0EFE083945EA0E05C2
:103D7000013711F1080F80F83250BFB244F232100F
:103D8000E4D144F20C1504F1080136F805E016FA06
:103D900081F104F1090704F10A054FEA2E240C54BD
:103DA00016FA87F744F23014ADB206F5824107F8EF
:103DB00000E032313553002D79D03F4F0D440024BF
:103DC00011F8010B4440E4B2A9423C5DF8D1304601
:103DD000009400F01FFC44F230130022F252012044
:103DE00009E744F20E130022C254012003E704AA9B
:103DF000002342F8043D2946FFF758FEFFF73AFE3C
:103E000044F22C130120F052F5E604AC002344F8F0
:103E1000043D29462246FFF749FE22460746294629
:103E20003046FFF743FE01463846FFF703FE44F2F3
:103E30002C130120F052DEE604AC002344F8043DCC
:103E400029462246FFF732FE2246074629463046DB
:103E5000FFF72CFE44F22E1301240146F45238469B
:103E6000FFF7E8FD2046C6E604AF002447F8044DFE
:103E700029463A46FFF71AFE962805D02046BAE6AC
:103E80000120B8E60020B6E63A4629463046FFF75C
:103E90000DFE3A46044629463046FFF707FE44F237
:103EA000FC1244F2FA13B052F4520120A3E62C465D
:103EB0008DE700BFACA201002CE2FF1F348CFF1F76
:103EC000D0B51368CC5C84B000260027202C01EB11
:103ED0000300CDE9026708D101330B44581A106082
:103EE000184613F8014B202CF8D01CB900200021F3
:103EF00004B0D0BD144601AB02AA06490EF09AFAEE
:103F000018B12268019B13442360DDE9020104B06B
:103F1000D0BD00BFCCA201002DE9F84F0F78022FD1
:103F20000D460446164600F00581B7FA87F77F096B
:103F30002368854A9B6B934240F0F6804FF0000B5C
:103F4000324629462046FEF7E9FE23684BEA000B7D
:103F50005B6B32462946204698474BEA070B5BEAE3
:103F6000000B02D05846BDE8F88F2368774A1B6BD8
:103F7000934240F0E38042F2E00142F2E40342F275
:103F8000D80204F5035C54F801A0E358A258DFF806
:103F9000C0E1E14604F58247CAEB0301013A0CF1A6
:103FA0001C0C09F1240914375520D84609E038685B
:103FB00008F101081FFA88F8013038601EF808007F
:103FC000A0B19142F3D2DCF8001008F101081940C9
:103FD00021441FFA88F881F8D8001EF80800013340
:103FE000CAEB0301C9F800300028EAD12F786FB37B
:103FF00004F5035CE14604F5824EB8460CF11C0C56
:10400000074609F124090EF1140E0BE0DEF800005A
:104010000130CEF80000781C87B215F80780B8F19F
:10402000000F13D09142F1D2DCF800101940214466
:10403000781C013387B281F8D880C9F8003015F8B0
:104040000780CAEB0301B8F1000FEBD1307820B341
:1040500004F5035CE64604F582470CF11C0C0EF1F6
:10406000240E1437002506E0386801350130ADB262
:104070003860705D88B19142F6D2DCF800101940CA
:10408000214401350133ADB281F8D800CEF80030BB
:10409000705DCAEB03010028EDD18A4235D844F2A5
:1040A000141560590130605104F5035C6546E6461D
:1040B000674604F58246DFF89C800CF11C0C243521
:1040C00014360EF1200E18374FF05509002011E07C
:1040D000336801333360013080B218F800100029D2
:1040E0003FF440AFDEF800A02B683A688946013AF9
:1040F000CAEB03019142EBD2DCF800201A402244C3
:10410000013382F8D8902B60E5E742F2DC0142F2FD
:10411000E40061581940214401330D2581F8D8503D
:104120002350CAEB0301BFE7324629462046984791
:10413000834605E7FFF7E2FC0746F9E632462946E3
:10414000204698470EE700BF750400001D070000D9
:10415000D8970100EC97010070B544F2F40244F2E4
:10416000F00444F2E805825804594559141B013DF6
:10417000A5421BD900F50354283442F2040542F24B
:104180000C06655915400D2902F101026155A25135
:1041900012D044F20E12825C3AB90368DB6904461D
:1041A000984704F58443C3E9000170BD44F2181137
:1041B00042580132425070BD44F2F8014258013277
:1041C000425070BD30B442F2E00342F2E40542F2E4
:1041D000D8024459C3588258E31A013A9A420AD97C
:1041E00042F2DC03621CC3582340034483F8D81016
:1041F000425130BC704744F2141230BC8358013332
:10420000835070472DE9F04F44F2F40344F2F00478
:10421000C3580459A34283B000F0618144F2EC0317
:1042200042F2E805C35800922340034488465D5D8E
:104230000D2D00F05081202D00F053814DB300F57D
:10424000814CE646E1460D700CF1700C0EF1740ED7
:1042500009F16C090F46002511E0D9F800300AEA8F
:104260000303034403F5035328331B780D2B19D0A4
:10427000202B60D06BB1632D07F8013F71D0DCF8C3
:104280000060DEF800400135A41BA54205EB060ADC
:10429000E3D300234B55002318460B70137003B073
:1042A000BDE8F08F02239B46002708F8057044F212
:1042B000F00344F2F404C3580459E41AAC4233D96D
:1042C00044F2EC065C1983592340034442F2E804AB
:1042D0001B5D0D2B32D000F5814C009E0192E6460D
:1042E000E24633700CF1700C0EF1740E0AF16C0A98
:1042F000B1460EE0DAF800303340034403F50353CF
:1043000028331B780D2B19D0632F09F8013F00F0DB
:104310009580DCF80040DEF8002001377B19E618B4
:10432000141B9C42E6D8019A009C0023E3555B468F
:10433000022BB0D105E001239B46B5E7009A00238C
:10434000D35544F2F00444F2F801035942580133C2
:104350001D442F44013A07514250012003B0BDE8EB
:10436000F08FDFF888B1DFF888E1DBF800C042F2B7
:10437000D80242F2E0030CF503545CF802505CF8FA
:104380000370A1460CF58246013D243409F11C0955
:1043900014364FF05B0A002309E001339BB2326808
:1043A0001EF803A001323260BAF1000F12D0226869
:1043B000D11BA942F1D2D9F8001001331140614458
:1043C0009BB281F8D8A01EF803A001322260BAF196
:1043D000000FECD1DBF8003042F2E40542F2E001DC
:1043E00042F2D8025C5959589A58611A013A9142DE
:1043F0001ED242F2DC02611C9A5814401C440D2269
:1044000084F8D820595144F2F00144F2F40244F205
:10441000F803002444508450C450009B88F80040A6
:104420001C700368DB6A9847204603B0BDE8F08F34
:1044300044F214115A5801325A50E4E7DFF8ACB094
:10444000DFF8B0E0DBF800A042F2D80242F2E0036D
:104450000AF503545AF802605AF80370A4460AF5A4
:104460008245013E24340CF11C0C14354FF05B09DD
:10447000002309E02A6801322A6001339BB21EF84A
:104480000390B9F1000F0CD02268D11BB142F1D2D8
:10449000DCF8001011405144013281F8D8902260BC
:1044A000EBE7DBF8003042F2E40542F2E00142F2D1
:1044B000D8025C5959589A58611A013A9142B7D2B8
:1044C00042F2DC02611C9A5822401A440D2482F800
:1044D000D840595197E7022300259B46E4E6002582
:1044E000D7E6012300259B46DEE600BF348CFF1F84
:1044F000D4A201000CA3010044F20E132DE9F041F7
:10450000C55C044635B32368344A9B6A93423ED166
:1045100044F20E15665D012E40D044F2F80354F8C3
:104520000380B8F1000F12D004F581477837261DBB
:1045300004F168052A4631462046FFF763FE2A4605
:1045400031462046FFF7E8FC3B68002BF2D140469D
:10455000BDE8F0810368DB69984704F584431E4693
:10456000D3E900230836D6E90067801A61EB03011E
:104570008F4208BF8642C6D244F2F00244F2F403EE
:10458000A550E5502368154A9B6A9342C0D044F277
:104590000E1520469847665D012EBED144F2F80301
:1045A00054F80380B8F1000FBED123682046DB69C0
:1045B000984744F20C13D4F8D420E15A4FF47A739C
:1045C000801A03FB01F39842A7D944F22812A3589A
:1045D000002BA2D10223A65063559EE76D04000074
:1045E00070B505210546FFF7EDFD05F58243002472
:1045F0001E68317839B10134A4B22846FFF7E2FDD4
:10460000315D0029F7D128461921BDE87040FFF738
:10461000D9BD00BF2DE9F04782B0054606211646F8
:1046200098464D4F9DF82890FFF7CCFD2846002175
:10463000FFF7C8FD28460121FFF7C4FD44F210131F
:104640003A68D45C28460021FFF7BCFD2146284685
:10465000FFF7B8FD3B6803F582430024D3F800A0C0
:104660009AF8001041B10134A4B22846FFF7AAFD20
:104670001AF804100029F6D119212846FFF7A2FDE7
:104680003A6844F2081352F803A09AF8001049B1AE
:1046900000240134A4B22846FFF794FD1AF8041050
:1046A0000029F6D119212846FFF78CFD3A6844F21B
:1046B000041352F803A09AF8001049B10024013401
:1046C000A4B22846FFF77EFD1AF804100029F6D19F
:1046D00019212846FFF776FD4FEA1843320E4FEABC
:1046E00018614FEA18208DF807608DF80130330CFF
:1046F000360A8DF806608DF803808DF800108DF86D
:1047000002008DF804208DF805306C460DF1070687
:1047100001E014F8011F2846FFF754FDB442F8D118
:104720003A6844F20C132846D45A210AFFF74AFD8E
:10473000E1B22846FFF746FD28460021FFF742FD7B
:1047400049462846FFF73EFD2846042102B0BDE851
:10475000F047FFF737BD00BF348CFF1F38B544F278
:104760000E1244F22813002585540446C550022138
:10477000FFF728FD29462046FFF724FD294620465D
:10478000FFF720FD20461121BDE83840FFF71ABD94
:1047900070B504460E4602211546FFF713FD20466C
:1047A0000021FFF70FFD20460021FFF70BFD2046FB
:1047B0005021FFF707FD310A2046FFF703FDF1B254
:1047C0002046FFF7FFFC290A2046FFF7FBFCE9B271
:1047D0002046BDE87040FFF7F5BC00BF10B50221D0
:1047E0000446FFF7EFFC20460021FFF7EBFC2046D4
:1047F0000021FFF7E7FC20460421FFF7E3FC2368D4
:104800002046DB69984744F2FC030122E254C4F8D5
:10481000D40010BDF0B50C4683B005460221174602
:10482000FFF7D0FC28460021FFF7CCFC28460021EA
:10483000FFF7C8FC28466C21FFF7C4FC0DF1070602
:10484000210E220C230A8DF80740284601AC8DF872
:1048500004108DF805208DF80630FFF7B3FCA64252
:1048600006D014F8011F2846FFF7ACFCA642F8D189
:10487000390A2846FFF7A6FCF9B2284603B0BDE87E
:10488000F040FFF79FBC00BF70B50C4682B00546F4
:104890000221FFF797FC28460021FFF793FC2846EA
:1048A0000021FFF78FFC28466421FFF78BFC0DF1F8
:1048B0000706210E220C230A8DF80740284601AC7A
:1048C0008DF804108DF805208DF80630FFF77AFC7E
:1048D000A64206D014F8011F2846FFF773FCA64233
:1048E000F8D102B070BD00BF70B50C4682B005466D
:1048F0000221FFF767FC28460021FFF763FC2846EA
:104900000021FFF75FFC28466521FFF75BFC0DF1F6
:104910000706210E220C230A8DF80740284601AC19
:104920008DF804108DF805208DF80630FFF74AFC4D
:10493000A64206D014F8011F2846FFF743FCA64202
:10494000F8D102B070BD00BFF0B50C4683B005468B
:1049500002211746FFF736FC28460021FFF732FCFC
:1049600028460021FFF72EFC28466A21FFF72AFC83
:104970000DF10706210E220C230A8DF80740284668
:1049800001AC8DF804108DF805208DF80630FFF786
:1049900019FCA64206D014F8011F2846FFF712FCA6
:1049A000A642F8D1390E3A143B1201AC28468DF8D4
:1049B00007708DF804108DF805208DF80630FFF78C
:1049C00001FCB44206D014F8011F2846FFF7FAFB99
:1049D000B442F8D103B0F0BD2DE9F04F83B00D46DD
:1049E0000446022193469A46BDF83090BDF83480C3
:1049F000BDF83870FFF7E6FB20460021FFF7E2FB29
:104A000020460021FFF7DEFB20466B21FFF7DAFB93
:104A10000DF10706290E2A0C2B0A8DF807502046A7
:104A200001AD8DF804108DF805208DF80630FFF7E4
:104A3000C9FBAE4206D015F8011F2046FFF7C2FBA6
:104A4000AE42F8D14FEA1B212046FFF7BBFB5FFACD
:104A50008BF12046FFF7B6FB4FEA1A212046FFF7FD
:104A6000B1FB5FFA8AF12046FFF7ACFB4FEA192150
:104A70002046FFF7A7FB5FFA89F12046FFF7A2FB6C
:104A80004FEA18212046FFF79DFB5FFA88F1204688
:104A9000FFF798FB390A2046FFF794FBF9B220464E
:104AA00003B0BDE8F04FFFF78DBB00BF2DE9F04F1D
:104AB00087B0994604461878BDF84C300193BDF88C
:104AC0005030109DBDF844B0BDF848A002930F4689
:104AD0001646002800F0A3800021013189B219F8A0
:104AE0000130002BF9D10B0A03935FFA81F8022100
:104AF0002046FFF767FB03992046FFF763FB41461B
:104B00002046FFF75FFB14212046FFF75BFB99F877
:104B100000104FF0000851B108F101081FFA88F8A1
:104B20002046FFF74FFB19F808100029F4D119218E
:104B30002046FFF747FB0DF11408390E3A0C3B0AEB
:104B40008DF8177020460DF117078DF814108DF8A9
:104B500015208DF81630FFF735FBB84506D018F84C
:104B6000011F2046FFF72EFBB845F8D1310E320C5D
:104B7000330A8DF81760204605AE8DF814108DF8B5
:104B800015208DF81630FFF71DFBB74206D016F83A
:104B9000011F2046FFF716FBB742F8D1290E2A1451
:104BA0002B128DF81750204605AD8DF814108DF896
:104BB00015208DF81630FFF705FBAF4206D015F82B
:104BC000011F2046FFF7FEFAAF42F8D14FEA1B2142
:104BD0002046FFF7F7FA5FFA8BF12046FFF7F2FA6B
:104BE0004FEA1A212046FFF7EDFA5FFA8AF12046D4
:104BF000FFF7E8FA019D2046290AFFF7E3FAE9B238
:104C00002046FFF7DFFA029D2046290AFFF7DAFA6D
:104C1000E9B2204607B0BDE8F04FFFF7D3BA8046AF
:104C2000039064E7F0B50C4683B0054602211746B1
:104C3000FFF7C8FA28460021FFF7C4FA28460021EA
:104C4000FFF7C0FA28461621FFF7BCFA0DF1070658
:104C5000210E220C230A8DF80740284601AC8DF85E
:104C600004108DF805208DF80630FFF7ABFAA64248
:104C700006D014F8011F2846FFF7A4FAA642F8D17F
:104C8000390E3A143B1201AC28468DF807708DF8A6
:104C900004108DF805208DF80630FFF793FAB44222
:104CA00006D014F8011F2846FFF78CFAB442F8D159
:104CB00003B0F0BD2DE9F04F8BB09846BDF85440DD
:104CC0000194BDF858400294BDF85C40149F0394D1
:104CD000BDF8604004941A9C05943D781B9C069492
:104CE000BDF874400794DDF864901C9E04468B4622
:104CF00092460023002D00F0138101339BB2FA5C31
:104D0000002AFAD135782DB100250135ADB2725D9A
:104D1000002AFAD11D44ADB202212046FFF752FA13
:104D2000290A2046FFF74EFAE9B22046FFF74AFA71
:104D30001E212046FFF746FA0DF127054FEA1B61B9
:104D40004FEA1B424FEA1B238DF827B020460DF196
:104D5000240B8DF824108DF825208DF82630FFF7D0
:104D600031FA5D4506D01BF8011F2046FFF72AFAED
:104D70005D45F8D14FEA1A614FEA1A424FEA1A2309
:104D80008DF827A020460DF1240A8DF824108DF807
:104D900025208DF82630FFF715FA554506D01AF86C
:104DA000011F2046FFF70EFA5545F8D139784FF02C
:104DB000000A51B10AF1010A1FFA8AFA2046FFF7E8
:104DC00001FA17F80A100029F4D119212046FFF73B
:104DD000F9F909AF4FEA19614FEA29424FEA29234D
:104DE00020468DF827908DF824108DF825208DF819
:104DF0002630FFF7E7F9BD4206D017F8011F20461D
:104E0000FFF7E0F9BD42F8D105988DF82700010EB3
:104E10000214031209AF20468DF824108DF82520C6
:104E20008DF82630FFF7CEF9AF4206D017F8011FF4
:104E30002046FFF7C7F9AF42F8D14FEA18614FEAB1
:104E400028424FEA282309AF20468DF827808DF8A5
:104E500024108DF825208DF82630FFF7B3F9AF42E6
:104E600006D017F8011F2046FFF7ACF9AF42F8D182
:104E700006988DF82700010E0214031209AF204690
:104E80008DF824108DF825208DF82630FFF79AF93B
:104E9000BD4206D017F8011F2046FFF793F9BD4227
:104EA000F8D13178002539B10135ADB22046FFF790
:104EB00089F9715D0029F7D120461921FFF782F9A0
:104EC000019D2046290AFFF77DF9E9B22046FFF748
:104ED00079F9029D2046290AFFF774F9E9B22046C4
:104EE000FFF770F9039D2046290AFFF76BF9E9B235
:104EF0002046FFF767F9049D2046290AFFF762F96B
:104F0000E9B22046FFF75EF9079D2046290AFFF720
:104F100059F9E9B220460BB0BDE8F04FFFF752B99E
:104F20002B46EFE62DE9F04F87B01D460446187872
:104F3000BDF840300193BDF844300293BDF848906D
:104F4000BDF84CA0BDF850B088461746002800F0C8
:104F500091800021013189B26B5C002BFAD10B0AE0
:104F60000393CEB202212046FFF72CF90399204685
:104F7000FFF728F931462046FFF724F9282120467B
:104F8000FFF720F94FEA18404FEA18614FEA18225C
:104F90008DF817808DF815000DF114080DF1170626
:104FA00020468DF814108DF81620FFF70BF94645B2
:104FB00006D018F8011F2046FFF704F94645F8D13E
:104FC000390E3A0C3B0A8DF81770204605AF8DF864
:104FD00014108DF815208DF81630FFF7F3F8BE4247
:104FE00006D017F8011F2046FFF7ECF8BE42F8D1B3
:104FF0002978002639B10136B6B22046FFF7E2F82B
:10500000A95D0029F7D120461921FFF7DBF8019DA2
:105010002046290AFFF7D6F8E9B22046FFF7D2F872
:10502000029D2046290AFFF7CDF8E9B22046FFF796
:10503000C9F84FEA19212046FFF7C4F85FFA89F151
:105040002046FFF7BFF84FEA1A212046FFF7BAF8CB
:105050005FFA8AF12046FFF7B5F84FEA1B21204698
:10506000FFF7B0F85FFA8BF1204607B0BDE8F04FCC
:10507000FFF7A8B80646039074E700BF2DE9F04F8C
:1050800089B01F461C78BDF848300193BDF84C30FC
:105090000293BDF850300393BDF854300493BDF82B
:1050A0006430DDF85890179EDDF860800593054662
:1050B0008B4692462CB100240134A4B23B5D002BF8
:1050C000FAD132782AB10022013292B2B35C002BBD
:1050D000FAD11444A4B202212846FFF773F8210A3A
:1050E0002846FFF76FF8E1B22846FFF76BF8462134
:1050F0002846FFF767F84FEA1B404FEA1B614FEA6B
:105100001B228DF81FB08DF81D000DF11C0B0DF149
:105110001F0428468DF81C108DF81E20FFF752F84A
:10512000A34506D01BF8011F2846FFF74BF8A345FF
:10513000F8D14FEA1A614FEA1A424FEA1A238DF862
:105140001FA028460DF11C0A8DF81C108DF81D209B
:105150008DF81E30FFF736F8A24506D01AF8011F69
:105160002846FFF72FF8A245F8D139784FF0000A0A
:1051700051B10AF1010A1FFA8AFA2846FFF722F80C
:1051800017F80A100029F4D119212846FFF71AF858
:10519000019F2846390AFFF715F8F9B22846FFF7AC
:1051A00011F8029F2846390AFFF70CF8F9B2284691
:1051B000FFF708F8039F2846390AFFF703F8F9B20A
:1051C0002846FEF7FFFF049F2846390AFEF7FAFF3C
:1051D000F9B22846FEF7F6FF07AF4FEA19614FEA2A
:1051E00029424FEA292328468DF81F908DF81C107C
:1051F0008DF81D208DF81E30FEF7E4FFA74206D083
:1052000017F8011F2846FEF7DDFFA742F8D13178D5
:10521000002739B10137BFB22846FEF7D3FFF15D51
:105220000029F7D119212846FEF7CCFF07AE4FEA37
:1052300018614FEA28424FEA282328468DF81F803C
:105240008DF81C108DF81D208DF81E30FEF7BAFF6A
:10525000B44206D016F8011F2846FEF7B3FFB44249
:10526000F8D1059C2846210AFEF7ACFFE1B228469A
:1052700009B0BDE8F04FFEF7A5BF00BF2DE9F04F24
:1052800089B000AF1D4604461878B7F848303B6136
:10529000BB6DFB60FB6DBB60B7F86030B7F84C903E
:1052A000B7F850A0B7F854B07B6088467A61002800
:1052B00000F0B2800021013189B26B5C002BFAD181
:1052C0000B0A7A613B60CEB202212046FEF77AFFDC
:1052D00039682046FEF776FF31462046FEF772FF1A
:1052E00032212046FEF76EFF4FEA184007F11C03FB
:1052F0004FEA18614FEA182287F81F80787798469E
:1053000007F11F0620463977BA77FEF75BFFB045F5
:1053100006D018F8011F2046FEF754FFB045F8D11B
:105320007B691846190E1A0C1B0ABB7707F11C0380
:105330009846F877204639777A77FEF743FFB045ED
:10534000434608D013F8011F20469846FEF73AFF5F
:10535000B0454346F6D12978002639B10136B6B2B8
:105360002046FEF72FFFA95D0029F7D1192120461D
:10537000FEF728FF3D692046290AFEF723FFE9B220
:105380002046FEF71FFF4FEA19212046FEF71AFFBD
:105390005FFA89F12046FEF715FF4FEA1A212046F1
:1053A000FEF710FF5FFA8AF12046FEF70BFF4FEA87
:1053B0001B212046FEF706FF5FFA8BF12046FEF721
:1053C00001FF6A46FB68FB6107F11C0507F1200637
:1053D000904615F8011B2046FEF7F4FEAE42F8D1C8
:1053E000BB68FB61C54607F11C0507F1200615F8EF
:1053F000011B2046FEF7E6FEAE42F8D17D6820464E
:10540000290AC546FEF7DEFEE9B220462437BD462E
:10541000BDE8F04FFEF7D6BE0646386054E700BF41
:105420002DE9F04383B00D460446022100AF9146BA
:105430009846FEF7C7FE20460021FEF7C3FE204631
:105440000021FEF7BFFE20463721FEF7BBFEFE1D02
:10545000290E2A0C2B0AFD7120463D1D39717A71E7
:10546000BB71FEF7AFFEB54206D015F8011F20460E
:10547000FEF7A8FEB542F8D14846010E0214031209
:105480003D1D204687F8079039717A71BB71FEF790
:1054900099FEB54206D015F8011F2046FEF792FE90
:1054A000B542F8D1C7F804803D1DE84607F108066B
:1054B00015F8011B2046FEF785FEB542F8D1BB6A00
:1054C0007B60C5463D1D07F1080615F8011B204607
:1054D000FEF778FEB542F8D10C37BD46BDE8F08343
:1054E000F0B50C4683B0054602211746FEF76AFE6A
:1054F00028460021FEF766FE28460021FEF762FEE0
:1055000028463921FEF75EFE0DF10706210E220C1A
:10551000230A8DF80740284601AC8DF804108DF859
:1055200005208DF80630FEF74DFEA64206D014F891
:10553000011F2846FEF746FEA642F8D1390A284642
:10554000FEF740FEF9B2284603B0BDE8F040FEF792
:1055500039BE00BFF0B50C4683B0054602211746A0
:10556000FEF730FE28460021FEF72CFE28460021DB
:10557000FEF728FE28463A21FEF724FE0DF1070625
:10558000210E220C230A8DF80740284601AC8DF825
:1055900004108DF805208DF80630FEF713FEA642A4
:1055A00006D014F8011F2846FEF70CFEA642F8D1DB
:1055B000390E3A0C3B0A01AC28468DF807708DF87D
:1055C00004108DF805208DF80630FEF7FBFDB4427F
:1055D00006D014F8011F2846FEF7F4FDB442F8D1B6
:1055E00003B0F0BD2DE9F04F1F4683B01B780C9E31
:1055F0000D9DBDF8389004468A4690464FF0000B4A
:10560000002B00F0A8800BF1010B1FFA8BFB17F8A1
:105610000B30002BF7D132782AB10022013292B23E
:10562000B35C002BFAD12B7893441FFA8BFB2BB180
:10563000002301339BB2EA5C002AFAD15B441FFAD3
:1056400083FB02212046FEF7BDFD4FEA1B212046C9
:10565000FEF7B8FD5FFA8BF12046FEF7B3FD3C2163
:105660002046FEF7AFFD0DF1040B4FEA1A614FEA39
:105670001A424FEA1A238DF807A020460DF1070AB7
:105680008DF804108DF805208DF80630FEF79AFD90
:10569000D34506D01BF8011F2046FEF793FDD345E6
:1056A000F8D14FEA18614FEA18424FEA18238DF8F3
:1056B000078020460DF104088DF804108DF80520B0
:1056C0008DF80630FEF77EFDD04506D018F8011F94
:1056D0002046FEF777FDD045F8D139784FF0000825
:1056E00051B108F101081FFA88F82046FEF76AFD5B
:1056F00017F808100029F4D119212046FEF762FDA1
:10570000317841B100270137BFB22046FEF75AFD7C
:10571000F15D0029F7D119212046FEF753FD2978C4
:1057200041B100260136B6B22046FEF74BFDA95D19
:105730000029F7D120461921FEF744FD4FEA19212F
:105740002046FEF73FFD5FFA89F1204603B0BDE831
:10575000F04FFEF737BD9B465DE700BF2DE9F04FE8
:105760004FEAC20883B00C4605461FFA88F80221AA
:1057700000AF16469946FEF725FD4FEA1821284648
:10578000FEF720FD08F0F8012846FEF71BFD28462D
:105790003E21FEF717FD07F10708210E220C230A10
:1057A000FC7128463C1D39717A71BB71FEF70AFD08
:1057B000444506D014F8011F2846FEF703FD444572
:1057C000F8D1002133123C1D2846FE7139717971E0
:1057D000BB71FEF7F7FCA04506D014F8011F284660
:1057E000FEF7F0FCA045F8D156B3A9F1040306F189
:1057F000FF3A9B463B6B1FFA8AFA09EB8A0A07F1CC
:105800000806A3F104095A46E84652F8043F7B60B3
:1058100093463C1D14F8011B2846FEF7D3FCA64214
:10582000F8D159F8043F7B60C5463C1D14F8011BB4
:105830002846FEF7C7FCA642F8D1D345C546E2D1BB
:105840000C37BD46BDE8F08F2DE9F0410D4682B022
:105850000446022190461F46FEF7B4FC2046002174
:10586000FEF7B0FC20460021FEF7ACFC20463F21AD
:10587000FEF7A8FC0DF10706290E2A0C2B0A8DF85D
:105880000750204601AD8DF804108DF805208DF8E5
:105890000630FEF797FCB54206D015F8011F2046EA
:1058A000FEF790FCB542F8D14FEA18614FEA284262
:1058B0004FEA282301AD20468DF807808DF80410AB
:1058C0008DF805208DF80630FEF77CFCB54206D039
:1058D00015F8011F2046FEF775FCB542F8D1390EC8
:1058E0003A143B1201AD20468DF807708DF8041074
:1058F0008DF805208DF80630FEF764FCB54206D021
:1059000015F8011F2046FEF75DFCB542F8D102B044
:10591000BDE8F08170B50C4682B005460221FEF765
:1059200051FC28460021FEF74DFC28460021FEF7D9
:1059300049FC28463521FEF745FC0DF10706210EEE
:10594000220C230A8DF80740284601AC8DF804107C
:105950008DF805208DF80630FEF734FCA64206D0FF
:1059600014F8011F2846FEF72DFCA642F8D102B01C
:1059700070BD00BF70B50C4682B005460221FEF72F
:1059800021FC28460021FEF71DFC28460021FEF7D9
:1059900019FC28463621FEF715FC0DF10706210EED
:1059A000220C230A8DF80740284601AC8DF804101C
:1059B0008DF805208DF80630FEF704FCA64206D0CF
:1059C00014F8011F2846FEF7FDFBA642F8D102B0ED
:1059D00070BD00BF2DE9F04782B00D46044602219C
:1059E00092469946BDF82880BDF82C70FEF7EAFB78
:1059F00020460021FEF7E6FB20460021FEF7E2FBF1
:105A000020464321FEF7DEFB0DF10706290E2A0C86
:105A10002B0A8DF80750204601AD8DF804108DF843
:105A200005208DF80630FEF7CDFBAE4206D015F806
:105A3000011F2046FEF7C6FBAE42F8D14FEA1A21FD
:105A40002046FEF7BFFB5FFA8AF12046FEF7BAFB5D
:105A50004FEA19212046FEF7B5FB5FFA89F120468F
:105A6000FEF7B0FB4FEA18212046FEF7ABFB5FFACA
:105A700088F12046FEF7A6FB390A2046FEF7A2FB76
:105A8000F9B2204602B0BDE8F047FEF79BBB00BF6D
:105A900001B441EA000313F003036FD1403A41D34C
:105AA00051F8043B40F8043B51F8043B40F8043BF8
:105AB00051F8043B40F8043B51F8043B40F8043BE8
:105AC00051F8043B40F8043B51F8043B40F8043BD8
:105AD00051F8043B40F8043B51F8043B40F8043BC8
